{"abi":[{"type":"function","name":"get_config_with_create_2","inputs":[{"name":"salt","type":"uint256","internalType":"uint256"}],"outputs":[{"name":"","type":"address","internalType":"address"}],"stateMutability":"view"}],"bytecode":{"object":"0x60808060405234601b576134ed90816100208239308160080152f35b5f80fdfe608080604052307f000000000000000000000000000000000000000000000000000000000000000014906004361015610036575f80fd5b5f3560e01c90816301f9ad9c146101d55750806325d1b80314610118576379502c5514610061575f80fd5b610114575f7ffffffffffffffffffffffffffffffffffffffffffffffffffffffffffffffffc3601126101145760405161322280820182811067ffffffffffffffff8211176100e7578291610296833903905ff080156100dc5760209073ffffffffffffffffffffffffffffffffffffffff60405191168152f35b6040513d5f823e3d90fd5b7f4e487b71000000000000000000000000000000000000000000000000000000005f52604160045260245ffd5b5f80fd5b60207ffffffffffffffffffffffffffffffffffffffffffffffffffffffffffffffffc36011261011457602073ffffffffffffffffffffffffffffffffffffffff61322260405161016b84830182610254565b818152838101916102968339519020604051838101917fff0000000000000000000000000000000000000000000000000000000000000083523060601b602183015260043560358301526055820152605581526101c9607582610254565b51902016604051908152f35b826101145760207ffffffffffffffffffffffffffffffffffffffffffffffffffffffffffffffffc36011261011457613222908181019181831067ffffffffffffffff8411176100e7576102968239806004359203905ff580156100dc5760209073ffffffffffffffffffffffffffffffffffffffff60405191168152f35b90601f7fffffffffffffffffffffffffffffffffffffffffffffffffffffffffffffffe0910116810190811067ffffffffffffffff8211176100e75760405256fe60808060405234602757600380546001600160a01b031916301790556131f6908161002c8239f35b5f80fdfe60806040526004361015610011575f80fd5b5f3560e01c80630c7d1681146101945780630cc766161461018f5780631a8f1a1c1461018a578063220481ef146101855780632232d9081461018057806324c12bf61461017b57806328764d141461017657806339614e4f146101715780633a7684631461016c5780633fa4f245146101675780634e9b75b61461016257806368f192f21461015d5780636b07af10146101585780636fcef9d5146101535780637dc2225f1461014e5780638093a1b91461014957806392bb10d714610144578063c5effd021461013f578063c76023161461013a578063d5f3948814610135578063dd1ec82414610130578063df9f3dee1461012b578063e5df3076146101265763e9e68e1d14610121575f80fd5b61123e565b6111cf565b61113f565b611106565b6110b5565b610fae565b610f76565b610eef565b610e7c565b610e3c565b610da2565b610cf6565b610cbd565b610bab565b610b70565b610b24565b610b0b565b6109c4565b610930565b6107b7565b6107a3565b61064f565b610627565b6104b4565b7f4e487b71000000000000000000000000000000000000000000000000000000005f52603260045260245ffd5b6005548110156101e25760055f5260205f209060011b01905f90565b610199565b80548210156101e2575f5260205f209060011b01905f90565b90600182811c92168015610247575b602083101461021a57565b7f4e487b71000000000000000000000000000000000000000000000000000000005f52602260045260245ffd5b91607f169161020f565b7f4e487b71000000000000000000000000000000000000000000000000000000005f52604160045260245ffd5b6040810190811067ffffffffffffffff82111761029a57604052565b610251565b90601f7fffffffffffffffffffffffffffffffffffffffffffffffffffffffffffffffe0910116810190811067ffffffffffffffff82111761029a57604052565b604051905f82600454916102f383610200565b80835292600181169081156103785750600114610319575b6103179250038361029f565b565b5060045f90815290917f8a35acfbc15ff81a39ae7d344fd709f28e8600b4aa8c65c6b64bfe7fe36bd19b5b81831061035c5750509060206103179282010161030b565b6020919350806001915483858901015201910190918492610344565b602092506103179491507fffffffffffffffffffffffffffffffffffffffffffffffffffffffffffffff001682840152151560051b82010161030b565b9060405191825f8254926103c884610200565b808452936001811690811561043157506001146103ed575b506103179250038361029f565b90505f9291925260205f20905f915b818310610415575050906020610317928201015f6103e0565b60209193508060019154838589010152019101909184926103fc565b602093506103179592507fffffffffffffffffffffffffffffffffffffffffffffffffffffffffffffff0091501682840152151560051b8201015f6103e0565b907fffffffffffffffffffffffffffffffffffffffffffffffffffffffffffffffe0601f602080948051918291828752018686015e5f8582860101520116010190565b3461053b5760207ffffffffffffffffffffffffffffffffffffffffffffffffffffffffffffffffc36011261053b5760043560055481101561053b576104fc610529916101c6565b50610537610515600161050e846103b5565b93016103b5565b604051938493604085526040850190610471565b908382036020850152610471565b0390f35b5f80fd5b67ffffffffffffffff811161029a57601f017fffffffffffffffffffffffffffffffffffffffffffffffffffffffffffffffe01660200190565b9291926105858261053f565b91610593604051938461029f565b82948184528183011161053b578281602093845f960137010152565b9080601f8301121561053b578160206105ca93359101610579565b90565b60207ffffffffffffffffffffffffffffffffffffffffffffffffffffffffffffffffc82011261053b576004359067ffffffffffffffff821161053b576105ca916004016105af565b9060206105ca928181520190610471565b61053761063b610636366105cd565b611293565b604051918291602083526020830190610471565b3461053b5761065d366105cd565b805167ffffffffffffffff811161029a576106828161067d600454610200565b6113a6565b602091601f82116001146106e8576106ce925f91836106dd575b50507fffffffffffffffffffffffffffffffffffffffffffffffffffffffffffffffff8260011b9260031b1c19161790565b6004555b604051308152602090f35b015190505f8061069c565b60045f527fffffffffffffffffffffffffffffffffffffffffffffffffffffffffffffffe08216927f8a35acfbc15ff81a39ae7d344fd709f28e8600b4aa8c65c6b64bfe7fe36bd19b915f5b85811061078b57508360019510610754575b505050811b016004556106d2565b01517fffffffffffffffffffffffffffffffffffffffffffffffffffffffffffffffff60f88460031b161c191690555f8080610746565b91926020600181928685015181550194019201610734565b61053761063b6107b2366105cd565b611fd4565b3461053b576107c5366105cd565b805167ffffffffffffffff811161029a576107e9816107e45f54610200565b6113e9565b602091601f821160011461084157610834925f91836106dd5750507fffffffffffffffffffffffffffffffffffffffffffffffffffffffffffffffff8260011b9260031b1c19161790565b5f55604051308152602090f35b5f80527fffffffffffffffffffffffffffffffffffffffffffffffffffffffffffffffe08216927f290decd9548b62a8d60345a988386fc84ba6bc95484008f6362f93160ef3e563915f5b8581106108e2575083600195106108ab575b505050811b015f556106d2565b01517fffffffffffffffffffffffffffffffffffffffffffffffffffffffffffffffff60f88460031b161c191690555f808061089e565b9192602060018192868501518155019401920161088c565b5f91031261053b57565b7f4e487b71000000000000000000000000000000000000000000000000000000005f525f60045260245ffd5b3461053b575f7ffffffffffffffffffffffffffffffffffffffffffffffffffffffffffffffffc36011261053b5761053761063b5f6103b5565b60207ffffffffffffffffffffffffffffffffffffffffffffffffffffffffffffffffc82011261053b576004359067ffffffffffffffff821161053b578060238301121561053b578160246105ca93600401359101610579565b3461053b576109d23661096a565b805167ffffffffffffffff811161029a576109f7816109f2600154610200565b611420565b602091601f8211600114610a5057610a42925f91836106dd5750507fffffffffffffffffffffffffffffffffffffffffffffffffffffffffffffffff8260011b9260031b1c19161790565b600155604051308152602090f35b60015f527fffffffffffffffffffffffffffffffffffffffffffffffffffffffffffffffe08216927fb10e2d527612073b26eecdfd717e6a320cf44b4afac2b0732d9fcbe2b7fa0cf6915f5b858110610af357508360019510610abc575b505050811b016001556106d2565b01517fffffffffffffffffffffffffffffffffffffffffffffffffffffffffffffffff60f88460031b161c191690555f8080610aae565b91926020600181928685015181550194019201610a9c565b3461053b5761053761063b610b1f3661096a565b61271c565b3461053b575f7ffffffffffffffffffffffffffffffffffffffffffffffffffffffffffffffffc36011261053b576020604051737109709ecfa91a80626ff3989d68f67f5b1dd12d8152f35b3461053b575f7ffffffffffffffffffffffffffffffffffffffffffffffffffffffffffffffffc36011261053b576020600254604051908152f35b3461053b575f7ffffffffffffffffffffffffffffffffffffffffffffffffffffffffffffffffc36011261053b576040515f600154610be981610200565b8084529060018116908115610c7b5750600114610c1d575b61053783610c118185038261029f565b60405191829182610616565b91905060015f527fb10e2d527612073b26eecdfd717e6a320cf44b4afac2b0732d9fcbe2b7fa0cf6915f905b808210610c6157509091508101602001610c11610c01565b919260018160209254838588010152019101909291610c49565b7fffffffffffffffffffffffffffffffffffffffffffffffffffffffffffffff001660208086019190915291151560051b84019091019150610c119050610c01565b3461053b575f7ffffffffffffffffffffffffffffffffffffffffffffffffffffffffffffffffc36011261053b5761053761063b6102e0565b3461053b5760407ffffffffffffffffffffffffffffffffffffffffffffffffffffffffffffffffc36011261053b5760043567ffffffffffffffff811161053b57610d486106d29136906004016105af565b610d6660243560405190602082015260208152610b1f60408261029f565b60405191610d738361027e565b82526020820152612860565b6024359073ffffffffffffffffffffffffffffffffffffffff8216820361053b57565b3461053b5760407ffffffffffffffffffffffffffffffffffffffffffffffffffffffffffffffffc36011261053b5760043567ffffffffffffffff811161053b57610df46106d29136906004016105af565b610d66610dff610d7f565b7fffffffffffffffffffffffffffffffffffffffff0000000000000000000000006040519160601b16602082015260148152610b1f60348261029f565b3461053b5760207ffffffffffffffffffffffffffffffffffffffffffffffffffffffffffffffffc36011261053b57600435600255604051308152602090f35b3461053b5760407ffffffffffffffffffffffffffffffffffffffffffffffffffffffffffffffffc36011261053b5760043567ffffffffffffffff811161053b57610ecb9036906004016105af565b6024359067ffffffffffffffff821161053b57610d666106d29236906004016105af565b3461053b5760207ffffffffffffffffffffffffffffffffffffffffffffffffffffffffffffffffc36011261053b5760043573ffffffffffffffffffffffffffffffffffffffff811680910361053b57600380547fffffffffffffffffffffffff000000000000000000000000000000000000000016919091179055604051308152602090f35b3461053b575f7ffffffffffffffffffffffffffffffffffffffffffffffffffffffffffffffffc36011261053b57610fac612a78565b005b610fba610636366105cd565b60035460a01c60ff1661101f575b6105379060025460208251920190f0610ff873ffffffffffffffffffffffffffffffffffffffff82161515612baf565b60405173ffffffffffffffffffffffffffffffffffffffff90911681529081906020820190565b737109709ecfa91a80626ff3989d68f67f5b1dd12d3b1561053b57604051907fafc980400000000000000000000000000000000000000000000000000000000082525f8260048183737109709ecfa91a80626ff3989d68f67f5b1dd12d5af19182156110b05761053792611096575b509050610fc8565b806110a45f6110aa9361029f565b806108fa565b5f61108e565b6119ed565b3461053b575f7ffffffffffffffffffffffffffffffffffffffffffffffffffffffffffffffffc36011261053b57602073ffffffffffffffffffffffffffffffffffffffff60035416604051908152f35b3461053b575f7ffffffffffffffffffffffffffffffffffffffffffffffffffffffffffffffffc36011261053b5761053761063b612c3a565b3461053b5760207ffffffffffffffffffffffffffffffffffffffffffffffffffffffffffffffffc36011261053b5760043580151580910361053b57600380547fffffffffffffffffffffff00ffffffffffffffffffffffffffffffffffffffff1660a09290921b74ff000000000000000000000000000000000000000016919091179055604051308152602090f35b3461053b5760407ffffffffffffffffffffffffffffffffffffffffffffffffffffffffffffffffc36011261053b5760043567ffffffffffffffff811161053b576112216106d29136906004016105af565b610d66604051602435602082015260208152610b1f60408261029f565b3461053b575f7ffffffffffffffffffffffffffffffffffffffffffffffffffffffffffffffffc36011261053b57602060ff60035460a01c166040519015158152f35b805191908290602001825e015f815290565b61129c90611fd4565b6112ad604051916020830190611281565b815f600154926112bc84610200565b936001811690811561135a5750600114611303575b506105ca9250037fffffffffffffffffffffffffffffffffffffffffffffffffffffffffffffffe0810183528261029f565b60015f9081529091507fb10e2d527612073b26eecdfd717e6a320cf44b4afac2b0732d9fcbe2b7fa0cf65b848210611343575050916105ca92015f6112d1565b80548284015285935060209091019060010161132e565b7fffffffffffffffffffffffffffffffffffffffffffffffffffffffffffffff00168252506105ca93801515020190505f6112d1565b81811061139b575050565b5f8155600101611390565b90601f82116113b3575050565b6103179160045f5260205f20906020601f840160051c830193106113df575b601f0160051c0190611390565b90915081906113d2565b90601f82116113f6575050565b610317915f805260205f20906020601f840160051c830193106113df57601f0160051c0190611390565b90601f821161142d575050565b6103179160015f5260205f20906020601f840160051c830193106113df57601f0160051c0190611390565b9190601f811161146757505050565b610317925f5260205f20906020601f840160051c830193106113df57601f0160051c0190611390565b919091825167ffffffffffffffff811161029a576114b8816114b28454610200565b84611458565b6020601f82116001146115095781906115059394955f926106dd5750507fffffffffffffffffffffffffffffffffffffffffffffffffffffffffffffffff8260011b9260031b1c19161790565b9055565b7fffffffffffffffffffffffffffffffffffffffffffffffffffffffffffffffe082169061153a845f5260205f2090565b915f5b8181106115935750958360019596971061155c575b505050811b019055565b01517fffffffffffffffffffffffffffffffffffffffffffffffffffffffffffffffff60f88460031b161c191690555f8080611552565b9192602060018192868b01518155019401920161153d565b604051906115ba60408361029f565b600182527f2f000000000000000000000000000000000000000000000000000000000000006020830152565b7f4e487b71000000000000000000000000000000000000000000000000000000005f52601160045260245ffd5b906001820180921161162157565b6115e6565b600601908160061161162157565b600201908160021161162157565b600301908160031161162157565b9190820180921161162157565b67ffffffffffffffff811161029a5760051b60200190565b60408051909190611686838261029f565b60018152917fffffffffffffffffffffffffffffffffffffffffffffffffffffffffffffffe001825f5b8281106116bc57505050565b8060606020809385010152016116b0565b604051608091906116de838261029f565b60038152917fffffffffffffffffffffffffffffffffffffffffffffffffffffffffffffffe001825f5b82811061171457505050565b806060602080938501015201611708565b60405160c09190611736838261029f565b60058152917fffffffffffffffffffffffffffffffffffffffffffffffffffffffffffffffe001825f5b82811061176c57505050565b806060602080938501015201611760565b6040516060919061178e838261029f565b60028152917fffffffffffffffffffffffffffffffffffffffffffffffffffffffffffffffe001825f5b8281106117c457505050565b8060606020809385010152016117b8565b906117df8261165d565b6117ec604051918261029f565b8281527fffffffffffffffffffffffffffffffffffffffffffffffffffffffffffffffe061181a829461165d565b01905f5b82811061182a57505050565b80606060208093850101520161181e565b8051156101e25760200190565b8051600110156101e25760400190565b8051600210156101e25760600190565b8051600510156101e25760c00190565b8051600310156101e25760800190565b8051600410156101e25760a00190565b80518210156101e25760209160051b010190565b604051906118bb60608361029f565b602882527f62797465732e73680000000000000000000000000000000000000000000000006040837f2e2f6c69622f666f756e6472792d687566662f736372697074732f72616e645f60208201520152565b60208183031261053b5780519067ffffffffffffffff821161053b570181601f8201121561053b578051906119418261053f565b9261194f604051948561029f565b8284526020838301011161053b57815f9260208093018386015e8301015290565b602081016020825282518091526040820191602060408360051b8301019401925f915b8383106119a257505050505090565b90919293946020806119de837fffffffffffffffffffffffffffffffffffffffffffffffffffffffffffffffc086600196030187528951610471565b97019301930191939290611993565b6040513d5f823e3d90fd5b602081519101519060208110611a0c575090565b7fffffffffffffffffffffffffffffffffffffffffffffffffffffffffffffffff9060200360031b1b1690565b907fffffffffffffffffffffffffffffffffffffffffffffffffffffffffffffffff820191821161162157565b602003906020821161162157565b9190820391821161162157565b61031790611ac9611a9f949360016040519687946020860190611281565b7f2f0000000000000000000000000000000000000000000000000000000000000081520190611281565b037fffffffffffffffffffffffffffffffffffffffffffffffffffffffffffffffe0810184528361029f565b611ac9611b169493611b666103179460096040519889966020880190611281565b7f2f0000000000000000000000000000000000000000000000000000000000000081527f5f5f54454d505f5f00000000000000000000000000000000000000000000000060018201520190611281565b90611281565b61031790611ac9611b6694936040519586937f5f5f54454d505f5f00000000000000000000000000000000000000000000000060208601526028850190611281565b60405190611bbd60608361029f565b602982527f7772697465722e736800000000000000000000000000000000000000000000006040837f2e2f6c69622f666f756e6472792d687566662f736372697074732f66696c655f60208201520152565b906103176005611c4f936040519485917f7372632f0000000000000000000000000000000000000000000000000000000060208401526024830190611281565b7f2e687566660000000000000000000000000000000000000000000000000000008152037fffffffffffffffffffffffffffffffffffffffffffffffffffffffffffffffe581018552018361029f565b60405190815f5f54611cb081610200565b9060018116908115611d7c5750600114611d1d575b5061031791817f0a0000000000000000000000000000000000000000000000000000000000000060019352037fffffffffffffffffffffffffffffffffffffffffffffffffffffffffffffffe181018552018361029f565b5f8080529092508491507f290decd9548b62a8d60345a988386fc84ba6bc95484008f6362f93160ef3e5635b838210611d625750909182016020019050610317611cc5565b602091925080600191548385890101520191018491611d49565b6001935060209150917fffffffffffffffffffffffffffffffffffffffffffffffffffffffffffffff006103179593168284015280151502820101915091611cc5565b60405190611dce60608361029f565b602d82527f616e645f617070656e642e7368000000000000000000000000000000000000006040837f2e2f6c69622f666f756e6472792d687566662f736372697074732f726561645f60208201520152565b60405190611e2f60408361029f565b600282527f2d630000000000000000000000000000000000000000000000000000000000006020830152565b60405190611e688261027e565b60606020838281520152565b90604051611e818161027e565b6020611e9b60018395611e93816103b5565b8552016103b5565b910152565b61031790611ac9611ebe949360016040519687946020860190611281565b7f3d0000000000000000000000000000000000000000000000000000000000000081520190611281565b60405190611ef760408361029f565b600582527f68756666630000000000000000000000000000000000000000000000000000006020830152565b60405190611f3260408361029f565b600282527f2d620000000000000000000000000000000000000000000000000000000000006020830152565b60405190611f6d60408361029f565b600282527f2d650000000000000000000000000000000000000000000000000000000000006020830152565b60405190611fa860408361029f565b600282527f726d0000000000000000000000000000000000000000000000000000000000006020830152565b90611fdd612a78565b611fe682612d93565b91611ff7611ff26115ab565b612d93565b9261201261200d6120088684612de6565b611613565b6117d5565b915f5b835181101561204f5760019061203361202e8886612e70565b612ef8565b61203d8287611898565b526120488186611898565b5001612015565b509350506120ae5f61205f611675565b6120676118ac565b6120708261183b565b5261207a8161183b565b50604051809381927f8916046700000000000000000000000000000000000000000000000000000000835260048301611970565b038183737109709ecfa91a80626ff3989d68f67f5b1dd12d5af19081156110b057612132916120e4915f91612611575b506119f8565b60405161212a816120fe6020820194859190602083019252565b037fffffffffffffffffffffffffffffffffffffffffffffffffffffffffffffffe0810183528261029f565b519020613004565b61213b8261183b565b51916001815111155f146125ad57506121ea9161215791611b6c565b925b5f6121626116cd565b61216a611bae565b6121738261183b565b5261217d8161183b565b5061218786611c0f565b61219082611848565b5261219a81611848565b506121a3611c9f565b6121ac82611858565b526121b681611858565b50604051809481927f8916046700000000000000000000000000000000000000000000000000000000835260048301611970565b038183737109709ecfa91a80626ff3989d68f67f5b1dd12d5af19081156110b057612274925f92612595575b506122616122226116cd565b9161222b611dbf565b6122348461183b565b5261223e8361183b565b5061224887611c0f565b61225184611848565b5261225b83611848565b50611c0f565b61226a82611858565b5261207a81611858565b038183737109709ecfa91a80626ff3989d68f67f5b1dd12d5af180156110b05761257d575b506122a2611725565b600554806124f0575b505f61233d916122b9611ee8565b6122c28261183b565b526122cc8161183b565b506122d685611c0f565b6122df82611848565b526122e981611848565b506122f2611f23565b6122fb82611858565b5261230581611858565b5061230e611f5e565b61231782611878565b5261232181611878565b5061232a612c3a565b61233382611888565b5261207a81611888565b038183737109709ecfa91a80626ff3989d68f67f5b1dd12d5af19081156110b0575f916124d6575b509161238e61237261177d565b9161237b611f99565b6123848461183b565b5261225b8361183b565b61239782611848565b526123a181611848565b5060035473ffffffffffffffffffffffffffffffffffffffff1690737109709ecfa91a80626ff3989d68f67f5b1dd12d3b1561053b576040517fca669fa700000000000000000000000000000000000000000000000000000000815273ffffffffffffffffffffffffffffffffffffffff9290921660048301525f8260248183737109709ecfa91a80626ff3989d68f67f5b1dd12d5af19081156110b05761247d925f926124c25750604051809381927f8916046700000000000000000000000000000000000000000000000000000000835260048301611970565b038183737109709ecfa91a80626ff3989d68f67f5b1dd12d5af180156110b0576124a45750565b6124bf903d805f833e6124b7818361029f565b81019061190d565b50565b806110a4846124d09361029f565b5f61207a565b6124ea91503d805f833e6124b7818361029f565b5f612365565b90506124fe61200d82611626565b90612507611e20565b61251083611868565b5261251a82611868565b50612523611e5b565b505f5b81811061253357506122ab565b8061257661255b61254e6125486001956101c6565b50611e74565b6020815191015190611ea0565b61256483611626565b9061256f8288611898565b5285611898565b5001612526565b612590903d805f833e6124b7818361029f565b612299565b6125a8903d8085833e6124b7818361029f565b612216565b919390926001945b6125bf8451611a39565b8610156125e5576125dd6001916125d68887611898565b5190611a81565b9501946125b5565b909361260b9295506126046121ea946125fe8151611a39565b90611898565b5191611af5565b92612159565b61262591503d805f833e6124b7818361029f565b5f6120de565b6040519061263a60408361029f565b601082527f30313233343536373839616263646566000000000000000000000000000000006020830152565b908160011b918083046002149015171561162157565b908160031b917f1fffffffffffffffffffffffffffffffffffffffffffffffffffffffffffffff81160361162157565b906126b68261053f565b6126c3604051918261029f565b8281527fffffffffffffffffffffffffffffffffffffffffffffffffffffffffffffffe06126f1829461053f565b0190602036910137565b8051600110156101e25760210190565b9081518110156101e2570160200190565b9061272561262b565b9161274061273b6127368351612666565b611634565b6126ac565b90603061274c8361183b565b536078612758836126fb565b535f5b815181101561285957806127e36127836127dd6127d76127d16127a96127836001988a61270b565b517fff000000000000000000000000000000000000000000000000000000000000001690565b60041c7f0f000000000000000000000000000000000000000000000000000000000000001690565b60f81c90565b60ff1690565b8861270b565b6127fc6127f261273684612666565b915f1a918661270b565b5361283e6127836127dd6127d77f0f00000000000000000000000000000000000000000000000000000000000000612837612783878a61270b565b1660f81c90565b6128526127f261284d84612666565b611642565b530161275b565b5090925050565b906005546801000000000000000081101561029a57806001612887920160055560056101e7565b6129c257825192835167ffffffffffffffff811161029a576128b3816128ad8554610200565b85611458565b6020601f821160011461291457916129088260209360019561031798995f926106dd5750507fffffffffffffffffffffffffffffffffffffffffffffffffffffffffffffffff8260011b9260031b1c19161790565b84555b01519101611490565b7fffffffffffffffffffffffffffffffffffffffffffffffffffffffffffffffe0821695612945855f5260205f2090565b965f5b8181106129aa57509261031796976001959386938360209710612973575b505050811b01845561290b565b01517fffffffffffffffffffffffffffffffffffffffffffffffffffffffffffffffff60f88460031b161c191690555f8080612966565b83830151895560019098019760209384019301612948565b610904565b156129ce57565b60a46040517f08c379a000000000000000000000000000000000000000000000000000000000815260206004820152604b60248201527f496e76616c69642068756666632062696e6172792e2052756e20606375726c2060448201527f2d4c206765742e687566662e7368207c20626173686020616e6420606875666660648201527f75706020746f206669782e0000000000000000000000000000000000000000006084820152fd5b612aeb5f612a84611675565b604051612a9260608261029f565b602a81527f2e2f6c69622f666f756e6472792d687566662f736372697074732f62696e617260208201527f795f636865636b2e73680000000000000000000000000000000000000000000060408201526120708261183b565b038183737109709ecfa91a80626ff3989d68f67f5b1dd12d5af19081156110b0577fffffffffffffffff000000000000000000000000000000000000000000000000612b8e612b69612783610317957f0100000000000000000000000000000000000000000000000000000000000000955f91612b95575b5061183b565b7fff000000000000000000000000000000000000000000000000000000000000001690565b16146129c7565b612ba991503d805f833e6124b7818361029f565b5f612b63565b15612bb657565b60846040517f08c379a000000000000000000000000000000000000000000000000000000000815260206004820152602660248201527f487566664465706c6f79657220636f756c64206e6f74206465706c6f7920636f60448201527f6e747261637400000000000000000000000000000000000000000000000000006064820152fd5b6040515f600454612c4a81610200565b9060018116908115612d395750600114612ce2575b5090612c9581612c9a93037fffffffffffffffffffffffffffffffffffffffffffffffffffffffffffffffe0810183528261029f565b6119f8565b15612ca7576105ca6102e0565b604051612cb560408261029f565b600881527f7368616e67686169000000000000000000000000000000000000000000000000602082015290565b60045f9081529091507f8a35acfbc15ff81a39ae7d344fd709f28e8600b4aa8c65c6b64bfe7fe36bd19b5b828210612d235750508101602001612c95612c5f565b6001816020925483858801015201910190612d0d565b7fffffffffffffffffffffffffffffffffffffffffffffffffffffffffffffff001660208086019190915282151590920284019091019150612c959050612c5f565b60405190612d888261027e565b5f6020838281520152565b612d9b612d7b565b50602081519160405192612dae8461027e565b835201602082015290565b7fffffffffffffffffffffffffffffffffffffffffffffffffffffffffffffffff81146116215760010190565b915f8351936020810191612e05835196865160208801988951926130a1565b8551810180911161162157905b835183518101809111611621578211612e6757612e2e90612db9565b908251908451810381811161162157820391821161162157612e6191612e59918851908a51926130a1565b865190611650565b90612e12565b95505050509050565b9190612e7a612d7b565b92612e83612d7b565b50805191612e9f602083019384518351906020850151926130a1565b908351602087015283518203828111611621578652835183518101809111611621578203612ecf5750505f915052565b8551928151840180941161162157612eeb612ef4948251611a74565b90525190611650565b9052565b805190612f1d612f078361053f565b92612f15604051948561029f565b80845261053f565b907fffffffffffffffffffffffffffffffffffffffffffffffffffffffffffffffe060208401920136833760208101519051905b6020821015612fb7577fffffffffffffffffffffffffffffffffffffffffffffffffffffffffffffffff9180612f91575b50518251821691191617905290565b9091506020036020811161162157612fab612fb0916131b1565b611a39565b905f612f82565b91825181526020810180911161162157916020810180911161162157907fffffffffffffffffffffffffffffffffffffffffffffffffffffffffffffffe081019081116116215790612f51565b5f919060605b602084101561308d57606160ff601a84871a0616019060ff82116116215760405160f89290921b7fff00000000000000000000000000000000000000000000000000000000000000166020830152600180835291611b6691613085916120fe9061307560218261029f565b6040519485936020850190611281565b93019261300a565b925050565b60ff8111611621576001901b90565b91928193838111156130ba575b50506105ca9250611650565b909291906020811161315b575f9381613131575b518416939291906130e8906130e38484611650565b611a74565b84848751165b036130fb57505050505090565b9091929394818110156131225761311190612db9565b9484865116908095949392916130ee565b50509091506105ca9250611650565b93506130e8613152612fab61314d61314885611a66565b61267c565b613092565b199490506130ce565b8091959320915f945b61316e8383611a74565b861161319f5782812084146131955761318961318f91611613565b95612db9565b94613164565b9450505050915090565b5092949150506105ca92505f806130ae565b601f8111611621576101000a9056fea2646970667358221220898d3a2cbeff076090301302251a6606ca5aca5eefb427f7360d6fa9d49f791164736f6c634300081e0033a2646970667358221220ac2f148d7d8436d028d8197cf486d6a8899a6e31274a39709ca741f025585f6b64736f6c634300081e0033","linkReferences":{}},"methodIdentifiers":{"config()":"79502c55","config_with_create_2(uint256)":"01f9ad9c","get_config_with_create_2(uint256)":"25d1b803"},"id":21}