{"abi":[{"type":"constructor","inputs":[],"stateMutability":"nonpayable"},{"type":"function","name":"poseidon2","inputs":[],"outputs":[{"name":"","type":"address","internalType":"contract Poseidon2Yul"}],"stateMutability":"view"},{"type":"function","name":"poseidon4","inputs":[],"outputs":[{"name":"","type":"address","internalType":"contract Poseidon4Yul"}],"stateMutability":"view"},{"type":"function","name":"testPoseidon2","inputs":[{"name":"x","type":"uint256","internalType":"uint256"},{"name":"y","type":"uint256","internalType":"uint256"}],"outputs":[{"name":"","type":"uint256","internalType":"uint256"}],"stateMutability":"view"},{"type":"function","name":"testPoseidon2Example","inputs":[],"outputs":[{"name":"","type":"uint256","internalType":"uint256"}],"stateMutability":"view"},{"type":"function","name":"testPoseidon4","inputs":[{"name":"x","type":"uint256","internalType":"uint256"},{"name":"y","type":"uint256","internalType":"uint256"},{"name":"z","type":"uint256","internalType":"uint256"},{"name":"w","type":"uint256","internalType":"uint256"}],"outputs":[{"name":"","type":"uint256","internalType":"uint256"}],"stateMutability":"view"}],"bytecode":{"object":"0x608060405234801561000f575f5ffd5b5060405161001c906100de565b604051809103905ff080158015610035573d5f5f3e3d5ffd5b505f5f6101000a81548173ffffffffffffffffffffffffffffffffffffffff021916908373ffffffffffffffffffffffffffffffffffffffff160217905550604051610080906100ec565b604051809103905ff080158015610099573d5f5f3e3d5ffd5b5060015f6101000a81548173ffffffffffffffffffffffffffffffffffffffff021916908373ffffffffffffffffffffffffffffffffffffffff1602179055506100fb565b617e1b80620009d583390190565b6201355a80620087f083390190565b6108cc80620001095f395ff3fe608060405234801561000f575f5ffd5b5060043610610055575f3560e01c80632cba369514610059578063a81a268814610089578063ca5ee4b2146100a7578063cbbfbcbd146100c5578063e7c5fd32146100e3575b5f5ffd5b610073600480360381019061006e9190610476565b610113565b60405161008091906104e9565b60405180910390f35b610091610228565b60405161009e919061057c565b60405180910390f35b6100af61024d565b6040516100bc91906105b5565b60405180910390f35b6100cd610271565b6040516100da91906104e9565b60405180910390f35b6100fd60048036038101906100f891906105ce565b610331565b60405161010a91906104e9565b60405180910390f35b5f5f8585858560405160200161012c949392919061060c565b60405160208183030381529060405290505f5f60015f9054906101000a900473ffffffffffffffffffffffffffffffffffffffff1673ffffffffffffffffffffffffffffffffffffffff168360405161018591906106a1565b5f60405180830381855afa9150503d805f81146101bd576040519150601f19603f3d011682016040523d82523d5f602084013e6101c2565b606091505b509150915081610207576040517f08c379a00000000000000000000000000000000000000000000000000000000081526004016101fe90610711565b60405180910390fd5b8080602001905181019061021b9190610743565b9350505050949350505050565b60015f9054906101000a900473ffffffffffffffffffffffffffffffffffffffff1681565b5f5f9054906101000a900473ffffffffffffffffffffffffffffffffffffffff1681565b5f3073ffffffffffffffffffffffffffffffffffffffff1663e7c5fd327f1762d324c2db6a912e607fd09664aaa02dfe45b90711c0dae9627d62a42077887f1047bd52da536f6bdd26dfe642d25d9092c458e64a78211298648e81414cbf356040518363ffffffff1660e01b81526004016102ed9291906107e0565b602060405180830381865afa158015610308573d5f5f3e3d5ffd5b505050506040513d601f19601f8201168201806040525081019061032c9190610743565b905090565b5f5f8383604051602001610346929190610807565b60405160208183030381529060405290505f5f5f5f9054906101000a900473ffffffffffffffffffffffffffffffffffffffff1673ffffffffffffffffffffffffffffffffffffffff168360405161039e91906106a1565b5f60405180830381855afa9150503d805f81146103d6576040519150601f19603f3d011682016040523d82523d5f602084013e6103db565b606091505b509150915081610420576040517f08c379a000000000000000000000000000000000000000000000000000000000815260040161041790610878565b60405180910390fd5b808060200190518101906104349190610743565b935050505092915050565b5f5ffd5b5f819050919050565b61045581610443565b811461045f575f5ffd5b50565b5f813590506104708161044c565b92915050565b5f5f5f5f6080858703121561048e5761048d61043f565b5b5f61049b87828801610462565b94505060206104ac87828801610462565b93505060406104bd87828801610462565b92505060606104ce87828801610462565b91505092959194509250565b6104e381610443565b82525050565b5f6020820190506104fc5f8301846104da565b92915050565b5f73ffffffffffffffffffffffffffffffffffffffff82169050919050565b5f819050919050565b5f61054461053f61053a84610502565b610521565b610502565b9050919050565b5f6105558261052a565b9050919050565b5f6105668261054b565b9050919050565b6105768161055c565b82525050565b5f60208201905061058f5f83018461056d565b92915050565b5f61059f8261054b565b9050919050565b6105af81610595565b82525050565b5f6020820190506105c85f8301846105a6565b92915050565b5f5f604083850312156105e4576105e361043f565b5b5f6105f185828601610462565b925050602061060285828601610462565b9150509250929050565b5f60808201905061061f5f8301876104da565b61062c60208301866104da565b61063960408301856104da565b61064660608301846104da565b95945050505050565b5f81519050919050565b5f81905092915050565b8281835e5f83830152505050565b5f61067b8261064f565b6106858185610659565b9350610695818560208601610663565b80840191505092915050565b5f6106ac8284610671565b915081905092915050565b5f82825260208201905092915050565b7f506f736569646f6e342068617368206661696c656400000000000000000000005f82015250565b5f6106fb6015836106b7565b9150610706826106c7565b602082019050919050565b5f6020820190508181035f830152610728816106ef565b9050919050565b5f8151905061073d8161044c565b92915050565b5f602082840312156107585761075761043f565b5b5f6107658482850161072f565b91505092915050565b5f819050919050565b5f61079161078c6107878461076e565b610521565b610443565b9050919050565b6107a181610777565b82525050565b5f819050919050565b5f6107ca6107c56107c0846107a7565b610521565b610443565b9050919050565b6107da816107b0565b82525050565b5f6040820190506107f35f830185610798565b61080060208301846107d1565b9392505050565b5f60408201905061081a5f8301856104da565b61082760208301846104da565b9392505050565b7f506f736569646f6e322068617368206661696c656400000000000000000000005f82015250565b5f6108626015836106b7565b915061086d8261082e565b602082019050919050565b5f6020820190508181035f83015261088f81610856565b905091905056fea2646970667358221220f7affb53182a8c884ca14588592f9d3056f85b130fa382bacc1727935123b33c64736f6c634300081e00336080604052348015600e575f5ffd5b50617dff8061001c5f395ff3fe608060405234801561000f575f5ffd5b507f73eda753299d7d483339d80809a1d80553bda402fffe5bfeffffffff000000015f5f5f5f35915060203590507f6f007a551156b3a449e44936b7c093644a0ed33f33eaccc628e942e836c1a875830192507f360d7470611e473d353f628f76d110f34e71162f31003b7057538c2596426303820191507f4b5fec3aa073df44019091f007a44ca996484965f7036dce3e9d0977edcdc0f68101905082848182099350848485099350848185099350508184818209925084838409925084818409925050808481820991508482830991508481830991505083837f44d46fa01da5117cf3fbdba05adc0a64af6c34a56f1e3c6cba01b7a582af8839098485847f3fe667e00c2b55cab44507505bba0e3a626e1ae605378c995a65a784ff14b25009820890508485837f63ce26c4206c020d51deaa55ffd4bb75f2331516053550b2ab85fd269bd880d9098208905084847f42ef9cc13681afd5b00dec34395420d789050302f55bfdf81467c45c79019119098586857f0e5584fa583dbae95ce13fb6befa8c6a8726033dc2ef49a2935a0c875e4e70b309820890508586847f5e8641d1c62a0c9d1d2fdb568dd5e25159d2f0c278522abe614e27d5df217a8d098208905085857f16582a527dd2eaa72fb34e6404e4c5a3778673b33370e0c1613548961eba050f098687867f0b69c4e8a57aea1a6666cf14bbc5781c279d6386d13ffe4db266295b4d8f795309820890508687857f42d7e3dffaf0722a5079353abbcfb0458b44cad327804ef6780e71fe3a3d9a2a09820890508295508194508093505050507f67cf1868af6396c0b84cce715e539f849e06cd1c383ac5b06100c76bcc973a11830192507f555db4d1dced819f5d3de70fde83f1c7d3e8c98968e516a23a771a5c9c8257aa820191507f2bab94d7ae222d135dc3c6c5febfaa314908ac2f12ebe06fbdb74213bf63188b8101905082848182099350848485099350848185099350508184818209925084838409925084818409925050808481820991508482830991508481830991505083837f44d46fa01da5117cf3fbdba05adc0a64af6c34a56f1e3c6cba01b7a582af8839098485847f3fe667e00c2b55cab44507505bba0e3a626e1ae605378c995a65a784ff14b25009820890508485837f63ce26c4206c020d51deaa55ffd4bb75f2331516053550b2ab85fd269bd880d9098208905084847f42ef9cc13681afd5b00dec34395420d789050302f55bfdf81467c45c79019119098586857f0e5584fa583dbae95ce13fb6befa8c6a8726033dc2ef49a2935a0c875e4e70b309820890508586847f5e8641d1c62a0c9d1d2fdb568dd5e25159d2f0c278522abe614e27d5df217a8d098208905085857f16582a527dd2eaa72fb34e6404e4c5a3778673b33370e0c1613548961eba050f098687867f0b69c4e8a57aea1a6666cf14bbc5781c279d6386d13ffe4db266295b4d8f795309820890508687857f42d7e3dffaf0722a5079353abbcfb0458b44cad327804ef6780e71fe3a3d9a2a09820890508295508194508093505050507f66f44be5296682c4fa7882799d6dd049b6d7d2c950ccf98cf2e50d6d1ebb77c2830192507f150c93fef652fb1c2bf03e1a29aa871fef77e7d736766c5d0939d92753cc5dc8820191507f3270661e68928b3a955d55db56dc57c103cc0a60141e894e14259dce537782b28101905082848182099350848485099350848185099350508184818209925084838409925084818409925050808481820991508482830991508481830991505083837f44d46fa01da5117cf3fbdba05adc0a64af6c34a56f1e3c6cba01b7a582af8839098485847f3fe667e00c2b55cab44507505bba0e3a626e1ae605378c995a65a784ff14b25009820890508485837f63ce26c4206c020d51deaa55ffd4bb75f2331516053550b2ab85fd269bd880d9098208905084847f42ef9cc13681afd5b00dec34395420d789050302f55bfdf81467c45c79019119098586857f0e5584fa583dbae95ce13fb6befa8c6a8726033dc2ef49a2935a0c875e4e70b309820890508586847f5e8641d1c62a0c9d1d2fdb568dd5e25159d2f0c278522abe614e27d5df217a8d098208905085857f16582a527dd2eaa72fb34e6404e4c5a3778673b33370e0c1613548961eba050f098687867f0b69c4e8a57aea1a6666cf14bbc5781c279d6386d13ffe4db266295b4d8f795309820890508687857f42d7e3dffaf0722a5079353abbcfb0458b44cad327804ef6780e71fe3a3d9a2a09820890508295508194508093505050507f073f116f04122e25a0b7afe4e2057299b407c370f2b5a1ccce9fb9ffc345afb3830192507f409fda22558cfe4d3dd8dce24f69e76f8c2aaeb1dd0f09d65e654c71f32aa23f820191507f2a32ec5c4ee5b1837affd09c1f53f5fd55c9cd2061ae93ca8ebad76fc71554d88101905082848182099350848485099350848185099350508184818209925084838409925084818409925050808481820991508482830991508481830991505083837f44d46fa01da5117cf3fbdba05adc0a64af6c34a56f1e3c6cba01b7a582af8839098485847f3fe667e00c2b55cab44507505bba0e3a626e1ae605378c995a65a784ff14b25009820890508485837f63ce26c4206c020d51deaa55ffd4bb75f2331516053550b2ab85fd269bd880d9098208905084847f42ef9cc13681afd5b00dec34395420d789050302f55bfdf81467c45c79019119098586857f0e5584fa583dbae95ce13fb6befa8c6a8726033dc2ef49a2935a0c875e4e70b309820890508586847f5e8641d1c62a0c9d1d2fdb568dd5e25159d2f0c278522abe614e27d5df217a8d098208905085857f16582a527dd2eaa72fb34e6404e4c5a3778673b33370e0c1613548961eba050f098687867f0b69c4e8a57aea1a6666cf14bbc5781c279d6386d13ffe4db266295b4d8f795309820890508687857f42d7e3dffaf0722a5079353abbcfb0458b44cad327804ef6780e71fe3a3d9a2a09820890508295508194508093505050507f5848ebeb5923e92555b7124fffba5d6bd571c6f984195eb9cfd3a3e8eb55b1d4830192507f270326ee039df19e651e2cfc740628ca634d24fc6e2559f22d8ccbe292efeead820191507f27c6642ac633bc66dc100fe7fcfa54918af895bce012f182a068fc37c182e27481019050828481820993508484850993508481850993505083837f44d46fa01da5117cf3fbdba05adc0a64af6c34a56f1e3c6cba01b7a582af8839098485847f3fe667e00c2b55cab44507505bba0e3a626e1ae605378c995a65a784ff14b25009820890508485837f63ce26c4206c020d51deaa55ffd4bb75f2331516053550b2ab85fd269bd880d9098208905084847f42ef9cc13681afd5b00dec34395420d789050302f55bfdf81467c45c79019119098586857f0e5584fa583dbae95ce13fb6befa8c6a8726033dc2ef49a2935a0c875e4e70b309820890508586847f5e8641d1c62a0c9d1d2fdb568dd5e25159d2f0c278522abe614e27d5df217a8d098208905085857f16582a527dd2eaa72fb34e6404e4c5a3778673b33370e0c1613548961eba050f098687867f0b69c4e8a57aea1a6666cf14bbc5781c279d6386d13ffe4db266295b4d8f795309820890508687857f42d7e3dffaf0722a5079353abbcfb0458b44cad327804ef6780e71fe3a3d9a2a09820890508295508194508093505050507f1bdfd8b01401c70ad27f57396989129d710e1fb6ab976a459ca18682e26d7ff9830192507f491b9ba6983bcf9f05fe4794adb44a30879bf8289662e1f57d90f672414e8a4a820191507f162a14c62f9a89b814b9d6a9c84dd678f4f6fb3f9054d373c832d824261a35ea81019050828481820993508484850993508481850993505083837f44d46fa01da5117cf3fbdba05adc0a64af6c34a56f1e3c6cba01b7a582af8839098485847f3fe667e00c2b55cab44507505bba0e3a626e1ae605378c995a65a784ff14b25009820890508485837f63ce26c4206c020d51deaa55ffd4bb75f2331516053550b2ab85fd269bd880d9098208905084847f42ef9cc13681afd5b00dec34395420d789050302f55bfdf81467c45c79019119098586857f0e5584fa583dbae95ce13fb6befa8c6a8726033dc2ef49a2935a0c875e4e70b309820890508586847f5e8641d1c62a0c9d1d2fdb568dd5e25159d2f0c278522abe614e27d5df217a8d098208905085857f16582a527dd2eaa72fb34e6404e4c5a3778673b33370e0c1613548961eba050f098687867f0b69c4e8a57aea1a6666cf14bbc5781c279d6386d13ffe4db266295b4d8f795309820890508687857f42d7e3dffaf0722a5079353abbcfb0458b44cad327804ef6780e71fe3a3d9a2a09820890508295508194508093505050507f2d193e0f76de586b2af6f79e3127feeaac0a1fc71e2cf0c0f79824667b5b6bec830192507f46efd8a9a262d6d8fdc9ca5c04b0982f24ddcc6e9863885a6a732a3906a07b95820191507f509717e0c200e3c92d8dca2973b3db45f0788294351ad07ae75cbb780693a79881019050828481820993508484850993508481850993505083837f44d46fa01da5117cf3fbdba05adc0a64af6c34a56f1e3c6cba01b7a582af8839098485847f3fe667e00c2b55cab44507505bba0e3a626e1ae605378c995a65a784ff14b25009820890508485837f63ce26c4206c020d51deaa55ffd4bb75f2331516053550b2ab85fd269bd880d9098208905084847f42ef9cc13681afd5b00dec34395420d789050302f55bfdf81467c45c79019119098586857f0e5584fa583dbae95ce13fb6befa8c6a8726033dc2ef49a2935a0c875e4e70b309820890508586847f5e8641d1c62a0c9d1d2fdb568dd5e25159d2f0c278522abe614e27d5df217a8d098208905085857f16582a527dd2eaa72fb34e6404e4c5a3778673b33370e0c1613548961eba050f098687867f0b69c4e8a57aea1a6666cf14bbc5781c279d6386d13ffe4db266295b4d8f795309820890508687857f42d7e3dffaf0722a5079353abbcfb0458b44cad327804ef6780e71fe3a3d9a2a09820890508295508194508093505050507f7299b28464a8c94fb9d4df61380f39c0dca9c2c014118789e227252820f01bfc830192507f044ca3cc4a85d73b81696ef1104e674f4feff82984990ff85d0bf58dc8a4aa94820191507f1cbaf2b371dac6a81d0453416d3e235cb8d9e2d4f314f46f6198785f0cd6b9af81019050828481820993508484850993508481850993505083837f44d46fa01da5117cf3fbdba05adc0a64af6c34a56f1e3c6cba01b7a582af8839098485847f3fe667e00c2b55cab44507505bba0e3a626e1ae605378c995a65a784ff14b25009820890508485837f63ce26c4206c020d51deaa55ffd4bb75f2331516053550b2ab85fd269bd880d9098208905084847f42ef9cc13681afd5b00dec34395420d789050302f55bfdf81467c45c79019119098586857f0e5584fa583dbae95ce13fb6befa8c6a8726033dc2ef49a2935a0c875e4e70b309820890508586847f5e8641d1c62a0c9d1d2fdb568dd5e25159d2f0c278522abe614e27d5df217a8d098208905085857f16582a527dd2eaa72fb34e6404e4c5a3778673b33370e0c1613548961eba050f098687867f0b69c4e8a57aea1a6666cf14bbc5781c279d6386d13ffe4db266295b4d8f795309820890508687857f42d7e3dffaf0722a5079353abbcfb0458b44cad327804ef6780e71fe3a3d9a2a09820890508295508194508093505050507f1d5b2777692c205b0e6c49d061b6b5f4293c4ab038fdbbdc343e07610f3fede5830192507f56ae7c7a5293bdc23e85e1698c81c77f8ad88c4b33a5780437ad047c6edb59ba820191507f2e9bdbba3dd34bffaa30535bdd749a7e06a9adb0c1e6f962f60e971b8d73b04f81019050828481820993508484850993508481850993505083837f44d46fa01da5117cf3fbdba05adc0a64af6c34a56f1e3c6cba01b7a582af8839098485847f3fe667e00c2b55cab44507505bba0e3a626e1ae605378c995a65a784ff14b25009820890508485837f63ce26c4206c020d51deaa55ffd4bb75f2331516053550b2ab85fd269bd880d9098208905084847f42ef9cc13681afd5b00dec34395420d789050302f55bfdf81467c45c79019119098586857f0e5584fa583dbae95ce13fb6befa8c6a8726033dc2ef49a2935a0c875e4e70b309820890508586847f5e8641d1c62a0c9d1d2fdb568dd5e25159d2f0c278522abe614e27d5df217a8d098208905085857f16582a527dd2eaa72fb34e6404e4c5a3778673b33370e0c1613548961eba050f098687867f0b69c4e8a57aea1a6666cf14bbc5781c279d6386d13ffe4db266295b4d8f795309820890508687857f42d7e3dffaf0722a5079353abbcfb0458b44cad327804ef6780e71fe3a3d9a2a09820890508295508194508093505050507f2de11886b18011ca8bd5bae36969299fde40fbe26d047b05035a13661f22418b830192507f2e07de1780b8a70d0d5b4a3f1841dcd82ab9395c449be947bc998884ba96a721820191507f0f69f1854d20ca0cbbdb63dbd52dad16250440a99d6b8af3825e4c2bb74925ca81019050828481820993508484850993508481850993505083837f44d46fa01da5117cf3fbdba05adc0a64af6c34a56f1e3c6cba01b7a582af8839098485847f3fe667e00c2b55cab44507505bba0e3a626e1ae605378c995a65a784ff14b25009820890508485837f63ce26c4206c020d51deaa55ffd4bb75f2331516053550b2ab85fd269bd880d9098208905084847f42ef9cc13681afd5b00dec34395420d789050302f55bfdf81467c45c79019119098586857f0e5584fa583dbae95ce13fb6befa8c6a8726033dc2ef49a2935a0c875e4e70b309820890508586847f5e8641d1c62a0c9d1d2fdb568dd5e25159d2f0c278522abe614e27d5df217a8d098208905085857f16582a527dd2eaa72fb34e6404e4c5a3778673b33370e0c1613548961eba050f098687867f0b69c4e8a57aea1a6666cf14bbc5781c279d6386d13ffe4db266295b4d8f795309820890508687857f42d7e3dffaf0722a5079353abbcfb0458b44cad327804ef6780e71fe3a3d9a2a09820890508295508194508093505050507f5dc987318e6e59c1afb87b655dd58cc1d22e513a05838cd4585d04b135b957ca830192507f48b725758571c9df6c01dc639a85f07297696b1bb678633a29dc91de95ef53f6820191507f5e565e08c0821099256b56490eaee1d573afd10bb6d17d13ca4e5c611b2a371881019050828481820993508484850993508481850993505083837f44d46fa01da5117cf3fbdba05adc0a64af6c34a56f1e3c6cba01b7a582af8839098485847f3fe667e00c2b55cab44507505bba0e3a626e1ae605378c995a65a784ff14b25009820890508485837f63ce26c4206c020d51deaa55ffd4bb75f2331516053550b2ab85fd269bd880d9098208905084847f42ef9cc13681afd5b00dec34395420d789050302f55bfdf81467c45c79019119098586857f0e5584fa583dbae95ce13fb6befa8c6a8726033dc2ef49a2935a0c875e4e70b309820890508586847f5e8641d1c62a0c9d1d2fdb568dd5e25159d2f0c278522abe614e27d5df217a8d098208905085857f16582a527dd2eaa72fb34e6404e4c5a3778673b33370e0c1613548961eba050f098687867f0b69c4e8a57aea1a6666cf14bbc5781c279d6386d13ffe4db266295b4d8f795309820890508687857f42d7e3dffaf0722a5079353abbcfb0458b44cad327804ef6780e71fe3a3d9a2a09820890508295508194508093505050507f2eb1b25417fe17670d135dc639fb09a46ce5113507f96de9816c059422dc705e830192507f115cd0a0643cfb988c24cb44c3fab48aff36c661d26cc42db8b1bdf4953bd82c820191507f26ca293f7b2c462d066d7378b999868bbb57ddf14e0f958ade801612311d04cd81019050828481820993508484850993508481850993505083837f44d46fa01da5117cf3fbdba05adc0a64af6c34a56f1e3c6cba01b7a582af8839098485847f3fe667e00c2b55cab44507505bba0e3a626e1ae605378c995a65a784ff14b25009820890508485837f63ce26c4206c020d51deaa55ffd4bb75f2331516053550b2ab85fd269bd880d9098208905084847f42ef9cc13681afd5b00dec34395420d789050302f55bfdf81467c45c79019119098586857f0e5584fa583dbae95ce13fb6befa8c6a8726033dc2ef49a2935a0c875e4e70b309820890508586847f5e8641d1c62a0c9d1d2fdb568dd5e25159d2f0c278522abe614e27d5df217a8d098208905085857f16582a527dd2eaa72fb34e6404e4c5a3778673b33370e0c1613548961eba050f098687867f0b69c4e8a57aea1a6666cf14bbc5781c279d6386d13ffe4db266295b4d8f795309820890508687857f42d7e3dffaf0722a5079353abbcfb0458b44cad327804ef6780e71fe3a3d9a2a09820890508295508194508093505050507f4147400d8e1aaccf311a6b5b762011ab3e45326e4d4b9de26992816b99c528ac830192507f6b0db7dccc4ba1b268f6bdcc4d372848d4a72976c268ea30519a2f73e6db4d55820191507f17bf1b93c4c7e01a2a830aa162412cd90f160bf9f71e967ff5209d14b24820ca81019050828481820993508484850993508481850993505083837f44d46fa01da5117cf3fbdba05adc0a64af6c34a56f1e3c6cba01b7a582af8839098485847f3fe667e00c2b55cab44507505bba0e3a626e1ae605378c995a65a784ff14b25009820890508485837f63ce26c4206c020d51deaa55ffd4bb75f2331516053550b2ab85fd269bd880d9098208905084847f42ef9cc13681afd5b00dec34395420d789050302f55bfdf81467c45c79019119098586857f0e5584fa583dbae95ce13fb6befa8c6a8726033dc2ef49a2935a0c875e4e70b309820890508586847f5e8641d1c62a0c9d1d2fdb568dd5e25159d2f0c278522abe614e27d5df217a8d098208905085857f16582a527dd2eaa72fb34e6404e4c5a3778673b33370e0c1613548961eba050f098687867f0b69c4e8a57aea1a6666cf14bbc5781c279d6386d13ffe4db266295b4d8f795309820890508687857f42d7e3dffaf0722a5079353abbcfb0458b44cad327804ef6780e71fe3a3d9a2a09820890508295508194508093505050507f4b431cd9efedbc94cf1eca6f9e9c1839d0e66a8bffa8c8464cac81a39d3cf8f1830192507f35b41a7ac4f3c571a24f8456369c85dfe03c0354bd8cfd3805c86f2e7dc293c5820191507f3b1480080523c439435927994849bea964e14d3beb2dddde72ac156af435d09e81019050828481820993508484850993508481850993505083837f44d46fa01da5117cf3fbdba05adc0a64af6c34a56f1e3c6cba01b7a582af8839098485847f3fe667e00c2b55cab44507505bba0e3a626e1ae605378c995a65a784ff14b25009820890508485837f63ce26c4206c020d51deaa55ffd4bb75f2331516053550b2ab85fd269bd880d9098208905084847f42ef9cc13681afd5b00dec34395420d789050302f55bfdf81467c45c79019119098586857f0e5584fa583dbae95ce13fb6befa8c6a8726033dc2ef49a2935a0c875e4e70b309820890508586847f5e8641d1c62a0c9d1d2fdb568dd5e25159d2f0c278522abe614e27d5df217a8d098208905085857f16582a527dd2eaa72fb34e6404e4c5a3778673b33370e0c1613548961eba050f098687867f0b69c4e8a57aea1a6666cf14bbc5781c279d6386d13ffe4db266295b4d8f795309820890508687857f42d7e3dffaf0722a5079353abbcfb0458b44cad327804ef6780e71fe3a3d9a2a09820890508295508194508093505050507f2cc6810031dc1b0d4950856dc907d57508e286442a2d3eb2271618d874b14c6d830192507f6f4141c8401c5a395ba6790efd71c70c04afea06c3c92826bcabdd5cb5477d51820191507f25bdbbeda1bde8c1059618e2afd2ef999e517aa93b78341d91f318c09f0cb56681019050828481820993508484850993508481850993505083837f44d46fa01da5117cf3fbdba05adc0a64af6c34a56f1e3c6cba01b7a582af8839098485847f3fe667e00c2b55cab44507505bba0e3a626e1ae605378c995a65a784ff14b25009820890508485837f63ce26c4206c020d51deaa55ffd4bb75f2331516053550b2ab85fd269bd880d9098208905084847f42ef9cc13681afd5b00dec34395420d789050302f55bfdf81467c45c79019119098586857f0e5584fa583dbae95ce13fb6befa8c6a8726033dc2ef49a2935a0c875e4e70b309820890508586847f5e8641d1c62a0c9d1d2fdb568dd5e25159d2f0c278522abe614e27d5df217a8d098208905085857f16582a527dd2eaa72fb34e6404e4c5a3778673b33370e0c1613548961eba050f098687867f0b69c4e8a57aea1a6666cf14bbc5781c279d6386d13ffe4db266295b4d8f795309820890508687857f42d7e3dffaf0722a5079353abbcfb0458b44cad327804ef6780e71fe3a3d9a2a09820890508295508194508093505050507f392a4a8758e06ee8b95f33c25dde8ac02a5ed0a27b61926cc6313487073f7f7b830192507f272a55878a08442b9aa6111f4de009485e6a6fd15db89365e7bbcef02eb5866c820191507f631ec1d6d28dd9e824ee89a30730aef7ab463acfc9d184b355aa05fd6938eab581019050828481820993508484850993508481850993505083837f44d46fa01da5117cf3fbdba05adc0a64af6c34a56f1e3c6cba01b7a582af8839098485847f3fe667e00c2b55cab44507505bba0e3a626e1ae605378c995a65a784ff14b25009820890508485837f63ce26c4206c020d51deaa55ffd4bb75f2331516053550b2ab85fd269bd880d9098208905084847f42ef9cc13681afd5b00dec34395420d789050302f55bfdf81467c45c79019119098586857f0e5584fa583dbae95ce13fb6befa8c6a8726033dc2ef49a2935a0c875e4e70b309820890508586847f5e8641d1c62a0c9d1d2fdb568dd5e25159d2f0c278522abe614e27d5df217a8d098208905085857f16582a527dd2eaa72fb34e6404e4c5a3778673b33370e0c1613548961eba050f098687867f0b69c4e8a57aea1a6666cf14bbc5781c279d6386d13ffe4db266295b4d8f795309820890508687857f42d7e3dffaf0722a5079353abbcfb0458b44cad327804ef6780e71fe3a3d9a2a09820890508295508194508093505050507f4eb6fda10fd0fbde02c7449bfbddc35bcd8225e7e5c3833a0818a100409dc6f2830192507f2d5b308b0cf02cdfefa13c4e60e26239a6ebba011694dd129b925b3c5b21e0e2820191507f16549fc6af2f3b72dd5d293d72e2e5f244dff42f18b46c56ef38c57c311673ac81019050828481820993508484850993508481850993505083837f44d46fa01da5117cf3fbdba05adc0a64af6c34a56f1e3c6cba01b7a582af8839098485847f3fe667e00c2b55cab44507505bba0e3a626e1ae605378c995a65a784ff14b25009820890508485837f63ce26c4206c020d51deaa55ffd4bb75f2331516053550b2ab85fd269bd880d9098208905084847f42ef9cc13681afd5b00dec34395420d789050302f55bfdf81467c45c79019119098586857f0e5584fa583dbae95ce13fb6befa8c6a8726033dc2ef49a2935a0c875e4e70b309820890508586847f5e8641d1c62a0c9d1d2fdb568dd5e25159d2f0c278522abe614e27d5df217a8d098208905085857f16582a527dd2eaa72fb34e6404e4c5a3778673b33370e0c1613548961eba050f098687867f0b69c4e8a57aea1a6666cf14bbc5781c279d6386d13ffe4db266295b4d8f795309820890508687857f42d7e3dffaf0722a5079353abbcfb0458b44cad327804ef6780e71fe3a3d9a2a09820890508295508194508093505050507f42332677ff359c5e8db836d9f5fb54822e39bd5e22340bb9ba975ba1a92be382830192507f49d7d2c0b449e5179bc5ccc3b44c6075d9849b5610465f09ea725ddc97723a94820191507f64c20fb90d7a003831757cc4c6226f6e4985fc9ecb416b9f684ca0351d96790481019050828481820993508484850993508481850993505083837f44d46fa01da5117cf3fbdba05adc0a64af6c34a56f1e3c6cba01b7a582af8839098485847f3fe667e00c2b55cab44507505bba0e3a626e1ae605378c995a65a784ff14b25009820890508485837f63ce26c4206c020d51deaa55ffd4bb75f2331516053550b2ab85fd269bd880d9098208905084847f42ef9cc13681afd5b00dec34395420d789050302f55bfdf81467c45c79019119098586857f0e5584fa583dbae95ce13fb6befa8c6a8726033dc2ef49a2935a0c875e4e70b309820890508586847f5e8641d1c62a0c9d1d2fdb568dd5e25159d2f0c278522abe614e27d5df217a8d098208905085857f16582a527dd2eaa72fb34e6404e4c5a3778673b33370e0c1613548961eba050f098687867f0b69c4e8a57aea1a6666cf14bbc5781c279d6386d13ffe4db266295b4d8f795309820890508687857f42d7e3dffaf0722a5079353abbcfb0458b44cad327804ef6780e71fe3a3d9a2a09820890508295508194508093505050507f59cff40de83b52b41bc443d7979510d771c940b9758ca820fe73b5c8d5580934830192507f53db2731730c39b04edd875fe3b7c882808285cdbc621d7af4f80dd53ebb71b0820191507f1b10bb7a82afce39fa69c3a2ad52f76d76398265344203119b7126d9b46860df81019050828481820993508484850993508481850993505083837f44d46fa01da5117cf3fbdba05adc0a64af6c34a56f1e3c6cba01b7a582af8839098485847f3fe667e00c2b55cab44507505bba0e3a626e1ae605378c995a65a784ff14b25009820890508485837f63ce26c4206c020d51deaa55ffd4bb75f2331516053550b2ab85fd269bd880d9098208905084847f42ef9cc13681afd5b00dec34395420d789050302f55bfdf81467c45c79019119098586857f0e5584fa583dbae95ce13fb6befa8c6a8726033dc2ef49a2935a0c875e4e70b309820890508586847f5e8641d1c62a0c9d1d2fdb568dd5e25159d2f0c278522abe614e27d5df217a8d098208905085857f16582a527dd2eaa72fb34e6404e4c5a3778673b33370e0c1613548961eba050f098687867f0b69c4e8a57aea1a6666cf14bbc5781c279d6386d13ffe4db266295b4d8f795309820890508687857f42d7e3dffaf0722a5079353abbcfb0458b44cad327804ef6780e71fe3a3d9a2a09820890508295508194508093505050507f561b6012d666bfe179c4dd7f84cdd1531596d3aac7c5700ceb319f91046a63c9830192507f0f1e7505ebd91d2fc79c2df7dc98a3bed1b36968ba0405c090d27f6a00b7dfc8820191507f2f313faf0d3f6187537a7497a3b43f46797fd6e3f18eb1caff457756b819bb2081019050828481820993508484850993508481850993505083837f44d46fa01da5117cf3fbdba05adc0a64af6c34a56f1e3c6cba01b7a582af8839098485847f3fe667e00c2b55cab44507505bba0e3a626e1ae605378c995a65a784ff14b25009820890508485837f63ce26c4206c020d51deaa55ffd4bb75f2331516053550b2ab85fd269bd880d9098208905084847f42ef9cc13681afd5b00dec34395420d789050302f55bfdf81467c45c79019119098586857f0e5584fa583dbae95ce13fb6befa8c6a8726033dc2ef49a2935a0c875e4e70b309820890508586847f5e8641d1c62a0c9d1d2fdb568dd5e25159d2f0c278522abe614e27d5df217a8d098208905085857f16582a527dd2eaa72fb34e6404e4c5a3778673b33370e0c1613548961eba050f098687867f0b69c4e8a57aea1a6666cf14bbc5781c279d6386d13ffe4db266295b4d8f795309820890508687857f42d7e3dffaf0722a5079353abbcfb0458b44cad327804ef6780e71fe3a3d9a2a09820890508295508194508093505050507f3a5cbb6de450b481fa3ca61c0ed15bc55cad11ebf0f7ceb8f0bc3e732ecb26f6830192507f681d93411bf8ce63f6716aefbd0e24506454c0348ee38fabeb264702714ccf94820191507f5178e940f50004312646b436727f0e80a7b8f2e9ee1fdc677c4831a7672777fb81019050828481820993508484850993508481850993505083837f44d46fa01da5117cf3fbdba05adc0a64af6c34a56f1e3c6cba01b7a582af8839098485847f3fe667e00c2b55cab44507505bba0e3a626e1ae605378c995a65a784ff14b25009820890508485837f63ce26c4206c020d51deaa55ffd4bb75f2331516053550b2ab85fd269bd880d9098208905084847f42ef9cc13681afd5b00dec34395420d789050302f55bfdf81467c45c79019119098586857f0e5584fa583dbae95ce13fb6befa8c6a8726033dc2ef49a2935a0c875e4e70b309820890508586847f5e8641d1c62a0c9d1d2fdb568dd5e25159d2f0c278522abe614e27d5df217a8d098208905085857f16582a527dd2eaa72fb34e6404e4c5a3778673b33370e0c1613548961eba050f098687867f0b69c4e8a57aea1a6666cf14bbc5781c279d6386d13ffe4db266295b4d8f795309820890508687857f42d7e3dffaf0722a5079353abbcfb0458b44cad327804ef6780e71fe3a3d9a2a09820890508295508194508093505050507f3dab54bc9bef688dd92086e253b439d651baa6e20f892b62865527cbca915982830192507f4b3ce75311218f9ae905f84eaa5b2b3818448bbf3972e1aad69de321009015d0820191507f06dbfb42b979884de280d31670123f744c24b33b410fefd4368045acf2b71ae381019050828481820993508484850993508481850993505083837f44d46fa01da5117cf3fbdba05adc0a64af6c34a56f1e3c6cba01b7a582af8839098485847f3fe667e00c2b55cab44507505bba0e3a626e1ae605378c995a65a784ff14b25009820890508485837f63ce26c4206c020d51deaa55ffd4bb75f2331516053550b2ab85fd269bd880d9098208905084847f42ef9cc13681afd5b00dec34395420d789050302f55bfdf81467c45c79019119098586857f0e5584fa583dbae95ce13fb6befa8c6a8726033dc2ef49a2935a0c875e4e70b309820890508586847f5e8641d1c62a0c9d1d2fdb568dd5e25159d2f0c278522abe614e27d5df217a8d098208905085857f16582a527dd2eaa72fb34e6404e4c5a3778673b33370e0c1613548961eba050f098687867f0b69c4e8a57aea1a6666cf14bbc5781c279d6386d13ffe4db266295b4d8f795309820890508687857f42d7e3dffaf0722a5079353abbcfb0458b44cad327804ef6780e71fe3a3d9a2a09820890508295508194508093505050507f068d6b4608aae810c6f039ea1973a63eb8d2de72e3d2c9eca7fc32d22f18b9d3830192507f4c5c254589a92a36084a57d3b1d964278acc7e4fe8f69f2955954f27a79cebef820191507f6cbac5e1700984ebc32da15b4bb9683faabab55f67ccc4f71d9560b3475a77eb81019050828481820993508484850993508481850993505083837f44d46fa01da5117cf3fbdba05adc0a64af6c34a56f1e3c6cba01b7a582af8839098485847f3fe667e00c2b55cab44507505bba0e3a626e1ae605378c995a65a784ff14b25009820890508485837f63ce26c4206c020d51deaa55ffd4bb75f2331516053550b2ab85fd269bd880d9098208905084847f42ef9cc13681afd5b00dec34395420d789050302f55bfdf81467c45c79019119098586857f0e5584fa583dbae95ce13fb6befa8c6a8726033dc2ef49a2935a0c875e4e70b309820890508586847f5e8641d1c62a0c9d1d2fdb568dd5e25159d2f0c278522abe614e27d5df217a8d098208905085857f16582a527dd2eaa72fb34e6404e4c5a3778673b33370e0c1613548961eba050f098687867f0b69c4e8a57aea1a6666cf14bbc5781c279d6386d13ffe4db266295b4d8f795309820890508687857f42d7e3dffaf0722a5079353abbcfb0458b44cad327804ef6780e71fe3a3d9a2a09820890508295508194508093505050507f4603c403bbfa9a17738a5c6278eaab1c37ec30b0737aa2409fc4898069eb983c830192507f6894e7e22b2c1d5c70a712a6345ae6b192a9c833a9234c31c56aacd16bc2f100820191507f5be2cbbc44053ad08afa4d1eabc7f3d231eea799b93f226e905b7d4d65c58ebb81019050828481820993508484850993508481850993505083837f44d46fa01da5117cf3fbdba05adc0a64af6c34a56f1e3c6cba01b7a582af8839098485847f3fe667e00c2b55cab44507505bba0e3a626e1ae605378c995a65a784ff14b25009820890508485837f63ce26c4206c020d51deaa55ffd4bb75f2331516053550b2ab85fd269bd880d9098208905084847f42ef9cc13681afd5b00dec34395420d789050302f55bfdf81467c45c79019119098586857f0e5584fa583dbae95ce13fb6befa8c6a8726033dc2ef49a2935a0c875e4e70b309820890508586847f5e8641d1c62a0c9d1d2fdb568dd5e25159d2f0c278522abe614e27d5df217a8d098208905085857f16582a527dd2eaa72fb34e6404e4c5a3778673b33370e0c1613548961eba050f098687867f0b69c4e8a57aea1a6666cf14bbc5781c279d6386d13ffe4db266295b4d8f795309820890508687857f42d7e3dffaf0722a5079353abbcfb0458b44cad327804ef6780e71fe3a3d9a2a09820890508295508194508093505050507f58e55f287b453a9808624a8c2a353d528da0f7e713a5c6d0d7711e47063fa611830192507f366ebfafa3ad381c0ee258c9b8fdfccdb868a7d7e1f1f69a2b5dfcc5572555df820191507f45766ab728968c642f90d97ccf5504ddc10518a819ebbcc4d09c3f5d784d67ce81019050828481820993508484850993508481850993505083837f44d46fa01da5117cf3fbdba05adc0a64af6c34a56f1e3c6cba01b7a582af8839098485847f3fe667e00c2b55cab44507505bba0e3a626e1ae605378c995a65a784ff14b25009820890508485837f63ce26c4206c020d51deaa55ffd4bb75f2331516053550b2ab85fd269bd880d9098208905084847f42ef9cc13681afd5b00dec34395420d789050302f55bfdf81467c45c79019119098586857f0e5584fa583dbae95ce13fb6befa8c6a8726033dc2ef49a2935a0c875e4e70b309820890508586847f5e8641d1c62a0c9d1d2fdb568dd5e25159d2f0c278522abe614e27d5df217a8d098208905085857f16582a527dd2eaa72fb34e6404e4c5a3778673b33370e0c1613548961eba050f098687867f0b69c4e8a57aea1a6666cf14bbc5781c279d6386d13ffe4db266295b4d8f795309820890508687857f42d7e3dffaf0722a5079353abbcfb0458b44cad327804ef6780e71fe3a3d9a2a09820890508295508194508093505050507f39678f65512f1ee404db3024f41d3f567ef66d89d044d022e6bc229e95bc76b1830192507f463aed1d2f1f955e3078be5bf7bfc46fc0eb8c51551906a8868f18ffae30cf4f820191507f21668f016a8063c0d58b7750a3bc2fe1cf82c25f99dc01a4e534c88fe53d85fe81019050828481820993508484850993508481850993505083837f44d46fa01da5117cf3fbdba05adc0a64af6c34a56f1e3c6cba01b7a582af8839098485847f3fe667e00c2b55cab44507505bba0e3a626e1ae605378c995a65a784ff14b25009820890508485837f63ce26c4206c020d51deaa55ffd4bb75f2331516053550b2ab85fd269bd880d9098208905084847f42ef9cc13681afd5b00dec34395420d789050302f55bfdf81467c45c79019119098586857f0e5584fa583dbae95ce13fb6befa8c6a8726033dc2ef49a2935a0c875e4e70b309820890508586847f5e8641d1c62a0c9d1d2fdb568dd5e25159d2f0c278522abe614e27d5df217a8d098208905085857f16582a527dd2eaa72fb34e6404e4c5a3778673b33370e0c1613548961eba050f098687867f0b69c4e8a57aea1a6666cf14bbc5781c279d6386d13ffe4db266295b4d8f795309820890508687857f42d7e3dffaf0722a5079353abbcfb0458b44cad327804ef6780e71fe3a3d9a2a09820890508295508194508093505050507f39d00994a8a5046a1bc749363e98a768e34dea56439fe1954bef429bc5331608830192507f4d7f5dcd78ece9a933984de32c0b48fac2bba91f261996b8e9d1021773bd07cc820191507f1f9dbdc3f84312636b203bbe12fb3425b163d41605d39f99770c956f60d881b381019050828481820993508484850993508481850993505083837f44d46fa01da5117cf3fbdba05adc0a64af6c34a56f1e3c6cba01b7a582af8839098485847f3fe667e00c2b55cab44507505bba0e3a626e1ae605378c995a65a784ff14b25009820890508485837f63ce26c4206c020d51deaa55ffd4bb75f2331516053550b2ab85fd269bd880d9098208905084847f42ef9cc13681afd5b00dec34395420d789050302f55bfdf81467c45c79019119098586857f0e5584fa583dbae95ce13fb6befa8c6a8726033dc2ef49a2935a0c875e4e70b309820890508586847f5e8641d1c62a0c9d1d2fdb568dd5e25159d2f0c278522abe614e27d5df217a8d098208905085857f16582a527dd2eaa72fb34e6404e4c5a3778673b33370e0c1613548961eba050f098687867f0b69c4e8a57aea1a6666cf14bbc5781c279d6386d13ffe4db266295b4d8f795309820890508687857f42d7e3dffaf0722a5079353abbcfb0458b44cad327804ef6780e71fe3a3d9a2a09820890508295508194508093505050507f027745a9cddfad95e5f17b9e0ee0cab6be0bc829fe5e66c69794a9f7c336eab2830192507f1cec0803c504b635788d695c61e932122fa43fe20a45c78d52025657abd8aee0820191507f123523d75e9fabc172077448ef87cc6eed5082c8dbf31365d3872a9559a03a7381019050828481820993508484850993508481850993505083837f44d46fa01da5117cf3fbdba05adc0a64af6c34a56f1e3c6cba01b7a582af8839098485847f3fe667e00c2b55cab44507505bba0e3a626e1ae605378c995a65a784ff14b25009820890508485837f63ce26c4206c020d51deaa55ffd4bb75f2331516053550b2ab85fd269bd880d9098208905084847f42ef9cc13681afd5b00dec34395420d789050302f55bfdf81467c45c79019119098586857f0e5584fa583dbae95ce13fb6befa8c6a8726033dc2ef49a2935a0c875e4e70b309820890508586847f5e8641d1c62a0c9d1d2fdb568dd5e25159d2f0c278522abe614e27d5df217a8d098208905085857f16582a527dd2eaa72fb34e6404e4c5a3778673b33370e0c1613548961eba050f098687867f0b69c4e8a57aea1a6666cf14bbc5781c279d6386d13ffe4db266295b4d8f795309820890508687857f42d7e3dffaf0722a5079353abbcfb0458b44cad327804ef6780e71fe3a3d9a2a09820890508295508194508093505050507f1723d1452c9cf02df419b848e5d694bf27feba35975ee7e5001779e3a1d357f4830192507f557b5af29163a60034ec4ae1e358e471e188a398288014f1747906449058077a820191507f1739d180a16010bdfcc0573d7e61369421c3f776f572836d9dab1ee4dcf9662281019050828481820993508484850993508481850993505083837f44d46fa01da5117cf3fbdba05adc0a64af6c34a56f1e3c6cba01b7a582af8839098485847f3fe667e00c2b55cab44507505bba0e3a626e1ae605378c995a65a784ff14b25009820890508485837f63ce26c4206c020d51deaa55ffd4bb75f2331516053550b2ab85fd269bd880d9098208905084847f42ef9cc13681afd5b00dec34395420d789050302f55bfdf81467c45c79019119098586857f0e5584fa583dbae95ce13fb6befa8c6a8726033dc2ef49a2935a0c875e4e70b309820890508586847f5e8641d1c62a0c9d1d2fdb568dd5e25159d2f0c278522abe614e27d5df217a8d098208905085857f16582a527dd2eaa72fb34e6404e4c5a3778673b33370e0c1613548961eba050f098687867f0b69c4e8a57aea1a6666cf14bbc5781c279d6386d13ffe4db266295b4d8f795309820890508687857f42d7e3dffaf0722a5079353abbcfb0458b44cad327804ef6780e71fe3a3d9a2a09820890508295508194508093505050507f2d4e6354da9cc554acce32391794b627fafa96fbeb0ab89370290452042d048d830192507f153ee6142e535e334a869553c9d007f88f3bd43f99260621670bcf6f8b485dcd820191507f71773e86c806833f827f654f2c5a7ab5ad1935dc98e086797aae750c35afccb681019050828481820993508484850993508481850993505083837f44d46fa01da5117cf3fbdba05adc0a64af6c34a56f1e3c6cba01b7a582af8839098485847f3fe667e00c2b55cab44507505bba0e3a626e1ae605378c995a65a784ff14b25009820890508485837f63ce26c4206c020d51deaa55ffd4bb75f2331516053550b2ab85fd269bd880d9098208905084847f42ef9cc13681afd5b00dec34395420d789050302f55bfdf81467c45c79019119098586857f0e5584fa583dbae95ce13fb6befa8c6a8726033dc2ef49a2935a0c875e4e70b309820890508586847f5e8641d1c62a0c9d1d2fdb568dd5e25159d2f0c278522abe614e27d5df217a8d098208905085857f16582a527dd2eaa72fb34e6404e4c5a3778673b33370e0c1613548961eba050f098687867f0b69c4e8a57aea1a6666cf14bbc5781c279d6386d13ffe4db266295b4d8f795309820890508687857f42d7e3dffaf0722a5079353abbcfb0458b44cad327804ef6780e71fe3a3d9a2a09820890508295508194508093505050507f0c45bfd3a69aaa65635ef7e7a430b486968ad4424af83700d258d2e2b7782172830192507f0adfd53b256a6957f2d56aec831446006897ac0a8ffa5ff10e5633d251f73307820191507f41d52090ea5b43402b1a9adfd5e2f5f2f1d1dc75259d25229d2fb88eae087a1f81019050828481820993508484850993508481850993505083837f44d46fa01da5117cf3fbdba05adc0a64af6c34a56f1e3c6cba01b7a582af8839098485847f3fe667e00c2b55cab44507505bba0e3a626e1ae605378c995a65a784ff14b25009820890508485837f63ce26c4206c020d51deaa55ffd4bb75f2331516053550b2ab85fd269bd880d9098208905084847f42ef9cc13681afd5b00dec34395420d789050302f55bfdf81467c45c79019119098586857f0e5584fa583dbae95ce13fb6befa8c6a8726033dc2ef49a2935a0c875e4e70b309820890508586847f5e8641d1c62a0c9d1d2fdb568dd5e25159d2f0c278522abe614e27d5df217a8d098208905085857f16582a527dd2eaa72fb34e6404e4c5a3778673b33370e0c1613548961eba050f098687867f0b69c4e8a57aea1a6666cf14bbc5781c279d6386d13ffe4db266295b4d8f795309820890508687857f42d7e3dffaf0722a5079353abbcfb0458b44cad327804ef6780e71fe3a3d9a2a09820890508295508194508093505050507f4ecdf55bd36d423a334ecd13f72e69bd4d93d12cbb53a10fc0ba7f3e9ec396f1830192507f315d2ac8ebdbac3c8cd1726b7cbab8ee3f87b28f1c1be4bdac9d36a8b7516d63820191507f49261a5d6cfd4a9f2a051d9906066d04a21709c9411cee63cc015562c922643281019050828481820993508484850993508481850993505083837f44d46fa01da5117cf3fbdba05adc0a64af6c34a56f1e3c6cba01b7a582af8839098485847f3fe667e00c2b55cab44507505bba0e3a626e1ae605378c995a65a784ff14b25009820890508485837f63ce26c4206c020d51deaa55ffd4bb75f2331516053550b2ab85fd269bd880d9098208905084847f42ef9cc13681afd5b00dec34395420d789050302f55bfdf81467c45c79019119098586857f0e5584fa583dbae95ce13fb6befa8c6a8726033dc2ef49a2935a0c875e4e70b309820890508586847f5e8641d1c62a0c9d1d2fdb568dd5e25159d2f0c278522abe614e27d5df217a8d098208905085857f16582a527dd2eaa72fb34e6404e4c5a3778673b33370e0c1613548961eba050f098687867f0b69c4e8a57aea1a6666cf14bbc5781c279d6386d13ffe4db266295b4d8f795309820890508687857f42d7e3dffaf0722a5079353abbcfb0458b44cad327804ef6780e71fe3a3d9a2a09820890508295508194508093505050507f40153234da114723048f6dcb7b695b69f7a7cfca052ff51526f3898cce337817830192507f6e986d063d9fffc8121bc3c2c4ac3e76cf808cefbeccb1bdd3c0d64738f61bad820191507f5283f80e81fc4e4d1c24a4cbc7693894eec452eedf44871de8f67534ca27394881019050828481820993508484850993508481850993505083837f44d46fa01da5117cf3fbdba05adc0a64af6c34a56f1e3c6cba01b7a582af8839098485847f3fe667e00c2b55cab44507505bba0e3a626e1ae605378c995a65a784ff14b25009820890508485837f63ce26c4206c020d51deaa55ffd4bb75f2331516053550b2ab85fd269bd880d9098208905084847f42ef9cc13681afd5b00dec34395420d789050302f55bfdf81467c45c79019119098586857f0e5584fa583dbae95ce13fb6befa8c6a8726033dc2ef49a2935a0c875e4e70b309820890508586847f5e8641d1c62a0c9d1d2fdb568dd5e25159d2f0c278522abe614e27d5df217a8d098208905085857f16582a527dd2eaa72fb34e6404e4c5a3778673b33370e0c1613548961eba050f098687867f0b69c4e8a57aea1a6666cf14bbc5781c279d6386d13ffe4db266295b4d8f795309820890508687857f42d7e3dffaf0722a5079353abbcfb0458b44cad327804ef6780e71fe3a3d9a2a09820890508295508194508093505050507f552576887491b06d69aef8aac5710e8d844f896957a41921b12a066274c5a3f4830192507f59332dc761e3ad275048a1198b73d5c3a99ba75b7b7e5995378338df48d6e398820191507f1b8472712d02eef4cfaec23d2b16883fc9bb60d1f6959879299ce44ea423d8e181019050828481820993508484850993508481850993505083837f44d46fa01da5117cf3fbdba05adc0a64af6c34a56f1e3c6cba01b7a582af8839098485847f3fe667e00c2b55cab44507505bba0e3a626e1ae605378c995a65a784ff14b25009820890508485837f63ce26c4206c020d51deaa55ffd4bb75f2331516053550b2ab85fd269bd880d9098208905084847f42ef9cc13681afd5b00dec34395420d789050302f55bfdf81467c45c79019119098586857f0e5584fa583dbae95ce13fb6befa8c6a8726033dc2ef49a2935a0c875e4e70b309820890508586847f5e8641d1c62a0c9d1d2fdb568dd5e25159d2f0c278522abe614e27d5df217a8d098208905085857f16582a527dd2eaa72fb34e6404e4c5a3778673b33370e0c1613548961eba050f098687867f0b69c4e8a57aea1a6666cf14bbc5781c279d6386d13ffe4db266295b4d8f795309820890508687857f42d7e3dffaf0722a5079353abbcfb0458b44cad327804ef6780e71fe3a3d9a2a09820890508295508194508093505050507f4945c4c7c62282f08e36b59ab0e33001759e70e01221c74d5505586ae95eab68830192507f6f7d34b9199bf60a87b4b06539a1554c413bd07c7430f7a54c0176c94c1b9e95820191507f3c1cd07efda6ff24bd0b70fa2255eb6f367d2c54e36928c9c4a5404198adf70c81019050828481820993508484850993508481850993505083837f44d46fa01da5117cf3fbdba05adc0a64af6c34a56f1e3c6cba01b7a582af8839098485847f3fe667e00c2b55cab44507505bba0e3a626e1ae605378c995a65a784ff14b25009820890508485837f63ce26c4206c020d51deaa55ffd4bb75f2331516053550b2ab85fd269bd880d9098208905084847f42ef9cc13681afd5b00dec34395420d789050302f55bfdf81467c45c79019119098586857f0e5584fa583dbae95ce13fb6befa8c6a8726033dc2ef49a2935a0c875e4e70b309820890508586847f5e8641d1c62a0c9d1d2fdb568dd5e25159d2f0c278522abe614e27d5df217a8d098208905085857f16582a527dd2eaa72fb34e6404e4c5a3778673b33370e0c1613548961eba050f098687867f0b69c4e8a57aea1a6666cf14bbc5781c279d6386d13ffe4db266295b4d8f795309820890508687857f42d7e3dffaf0722a5079353abbcfb0458b44cad327804ef6780e71fe3a3d9a2a09820890508295508194508093505050507f72ed857fbb581d2d92932995e80188c7ad9eb5c8c084d5d829394841274c91d2830192507f136052d26bb3d373687f4e51b2e1dcd34a16073f738f7e0cbbe523aef9ab107a820191507f623f02ec818792941c4894438841d441653ec1e760cc09f5ad102f014b6658c781019050828481820993508484850993508481850993505083837f44d46fa01da5117cf3fbdba05adc0a64af6c34a56f1e3c6cba01b7a582af8839098485847f3fe667e00c2b55cab44507505bba0e3a626e1ae605378c995a65a784ff14b25009820890508485837f63ce26c4206c020d51deaa55ffd4bb75f2331516053550b2ab85fd269bd880d9098208905084847f42ef9cc13681afd5b00dec34395420d789050302f55bfdf81467c45c79019119098586857f0e5584fa583dbae95ce13fb6befa8c6a8726033dc2ef49a2935a0c875e4e70b309820890508586847f5e8641d1c62a0c9d1d2fdb568dd5e25159d2f0c278522abe614e27d5df217a8d098208905085857f16582a527dd2eaa72fb34e6404e4c5a3778673b33370e0c1613548961eba050f098687867f0b69c4e8a57aea1a6666cf14bbc5781c279d6386d13ffe4db266295b4d8f795309820890508687857f42d7e3dffaf0722a5079353abbcfb0458b44cad327804ef6780e71fe3a3d9a2a09820890508295508194508093505050507f51c0b9b1022de4d0fea7ad49bf6d814ded9541807df5a911589583ba658d4348830192507f42c1e81b61b7fc0b04b48024c56f83108dc800179ca7530868724ec3239f8463820191507f42ce8d45e3f7bbf7f10a8fc71ab6d7c30bcf843897bc6823208202d2e31fd07281019050828481820993508484850993508481850993505083837f44d46fa01da5117cf3fbdba05adc0a64af6c34a56f1e3c6cba01b7a582af8839098485847f3fe667e00c2b55cab44507505bba0e3a626e1ae605378c995a65a784ff14b25009820890508485837f63ce26c4206c020d51deaa55ffd4bb75f2331516053550b2ab85fd269bd880d9098208905084847f42ef9cc13681afd5b00dec34395420d789050302f55bfdf81467c45c79019119098586857f0e5584fa583dbae95ce13fb6befa8c6a8726033dc2ef49a2935a0c875e4e70b309820890508586847f5e8641d1c62a0c9d1d2fdb568dd5e25159d2f0c278522abe614e27d5df217a8d098208905085857f16582a527dd2eaa72fb34e6404e4c5a3778673b33370e0c1613548961eba050f098687867f0b69c4e8a57aea1a6666cf14bbc5781c279d6386d13ffe4db266295b4d8f795309820890508687857f42d7e3dffaf0722a5079353abbcfb0458b44cad327804ef6780e71fe3a3d9a2a09820890508295508194508093505050507f6e53bfc3ec7be39c064e2f0fdee7a37b0b93965712e431394bcce9c75c22f738830192507f16c96beef6a0a848c1bdd859a1232a1d7b3cfbb873032681676c36c24ef967dd820191507f284b38c57ff65c262ab7fed8f499a9fb012387bab4f1662d067eec7f2d6340c481019050828481820993508484850993508481850993505083837f44d46fa01da5117cf3fbdba05adc0a64af6c34a56f1e3c6cba01b7a582af8839098485847f3fe667e00c2b55cab44507505bba0e3a626e1ae605378c995a65a784ff14b25009820890508485837f63ce26c4206c020d51deaa55ffd4bb75f2331516053550b2ab85fd269bd880d9098208905084847f42ef9cc13681afd5b00dec34395420d789050302f55bfdf81467c45c79019119098586857f0e5584fa583dbae95ce13fb6befa8c6a8726033dc2ef49a2935a0c875e4e70b309820890508586847f5e8641d1c62a0c9d1d2fdb568dd5e25159d2f0c278522abe614e27d5df217a8d098208905085857f16582a527dd2eaa72fb34e6404e4c5a3778673b33370e0c1613548961eba050f098687867f0b69c4e8a57aea1a6666cf14bbc5781c279d6386d13ffe4db266295b4d8f795309820890508687857f42d7e3dffaf0722a5079353abbcfb0458b44cad327804ef6780e71fe3a3d9a2a09820890508295508194508093505050507f70cb7ad7798e307ef85d4bdfc76f837420ea23a9fe16273d60bfc6cebebb5ac1830192507f0c5993d175e81f6639e242198897d17cfc06772c1c0411a6af1dff204c922f86820191507f03bf7a3f7bd043dafcda655d1ba9c8f9f24887ad48e17759bbf53f67b1f87b1581019050828481820993508484850993508481850993505083837f44d46fa01da5117cf3fbdba05adc0a64af6c34a56f1e3c6cba01b7a582af8839098485847f3fe667e00c2b55cab44507505bba0e3a626e1ae605378c995a65a784ff14b25009820890508485837f63ce26c4206c020d51deaa55ffd4bb75f2331516053550b2ab85fd269bd880d9098208905084847f42ef9cc13681afd5b00dec34395420d789050302f55bfdf81467c45c79019119098586857f0e5584fa583dbae95ce13fb6befa8c6a8726033dc2ef49a2935a0c875e4e70b309820890508586847f5e8641d1c62a0c9d1d2fdb568dd5e25159d2f0c278522abe614e27d5df217a8d098208905085857f16582a527dd2eaa72fb34e6404e4c5a3778673b33370e0c1613548961eba050f098687867f0b69c4e8a57aea1a6666cf14bbc5781c279d6386d13ffe4db266295b4d8f795309820890508687857f42d7e3dffaf0722a5079353abbcfb0458b44cad327804ef6780e71fe3a3d9a2a09820890508295508194508093505050507f3188fe4ee9f9fafbb0cf999567f00e734c8f9cbe69f0e8279b5cd09e36d8be62830192507f171f528ccf6584375a39768c480d61e13af5bf77c1c42652afea99a2ec6c595a820191507f12f4175c4ab45afc196e41859b35ef88812c3286ee7000675a0563b9b8e9f1d581019050828481820993508484850993508481850993505083837f44d46fa01da5117cf3fbdba05adc0a64af6c34a56f1e3c6cba01b7a582af8839098485847f3fe667e00c2b55cab44507505bba0e3a626e1ae605378c995a65a784ff14b25009820890508485837f63ce26c4206c020d51deaa55ffd4bb75f2331516053550b2ab85fd269bd880d9098208905084847f42ef9cc13681afd5b00dec34395420d789050302f55bfdf81467c45c79019119098586857f0e5584fa583dbae95ce13fb6befa8c6a8726033dc2ef49a2935a0c875e4e70b309820890508586847f5e8641d1c62a0c9d1d2fdb568dd5e25159d2f0c278522abe614e27d5df217a8d098208905085857f16582a527dd2eaa72fb34e6404e4c5a3778673b33370e0c1613548961eba050f098687867f0b69c4e8a57aea1a6666cf14bbc5781c279d6386d13ffe4db266295b4d8f795309820890508687857f42d7e3dffaf0722a5079353abbcfb0458b44cad327804ef6780e71fe3a3d9a2a09820890508295508194508093505050507f3a509e155cb7ebfd8f8fdcf800a9ac697e23e1aabe96cfab0e74d4d369118b79830192507f10f2a685df4a27c81a89920e2504c3b3984bc8f2e4c1b69e98712c65678cfd30820191507f4959043e2135e0389ed8c6f81104cb6390af37d616015a881ed3363404687f0581019050828481820993508484850993508481850993505083837f44d46fa01da5117cf3fbdba05adc0a64af6c34a56f1e3c6cba01b7a582af8839098485847f3fe667e00c2b55cab44507505bba0e3a626e1ae605378c995a65a784ff14b25009820890508485837f63ce26c4206c020d51deaa55ffd4bb75f2331516053550b2ab85fd269bd880d9098208905084847f42ef9cc13681afd5b00dec34395420d789050302f55bfdf81467c45c79019119098586857f0e5584fa583dbae95ce13fb6befa8c6a8726033dc2ef49a2935a0c875e4e70b309820890508586847f5e8641d1c62a0c9d1d2fdb568dd5e25159d2f0c278522abe614e27d5df217a8d098208905085857f16582a527dd2eaa72fb34e6404e4c5a3778673b33370e0c1613548961eba050f098687867f0b69c4e8a57aea1a6666cf14bbc5781c279d6386d13ffe4db266295b4d8f795309820890508687857f42d7e3dffaf0722a5079353abbcfb0458b44cad327804ef6780e71fe3a3d9a2a09820890508295508194508093505050507f52bd4073f5f900448262e371dbafcbba1edc155f03bf7f871c47f08dae05fddd830192507f09e5f49790c8a0e21d8d93d54ab91a0e54573c9333c56321e8a16728cc9d4918820191507f352d69bed80ee3e52bf35705d9f84a3442d17ed6ee0fab7e609a740347cf5fea81019050828481820993508484850993508481850993505083837f44d46fa01da5117cf3fbdba05adc0a64af6c34a56f1e3c6cba01b7a582af8839098485847f3fe667e00c2b55cab44507505bba0e3a626e1ae605378c995a65a784ff14b25009820890508485837f63ce26c4206c020d51deaa55ffd4bb75f2331516053550b2ab85fd269bd880d9098208905084847f42ef9cc13681afd5b00dec34395420d789050302f55bfdf81467c45c79019119098586857f0e5584fa583dbae95ce13fb6befa8c6a8726033dc2ef49a2935a0c875e4e70b309820890508586847f5e8641d1c62a0c9d1d2fdb568dd5e25159d2f0c278522abe614e27d5df217a8d098208905085857f16582a527dd2eaa72fb34e6404e4c5a3778673b33370e0c1613548961eba050f098687867f0b69c4e8a57aea1a6666cf14bbc5781c279d6386d13ffe4db266295b4d8f795309820890508687857f42d7e3dffaf0722a5079353abbcfb0458b44cad327804ef6780e71fe3a3d9a2a09820890508295508194508093505050507f058ee73ba9f3f293491562faf2b190d3c634debd281b76a63a758af6fa84e0e8830192507f6184c223124d658cd4760ab3c3b9668947b12f279437ccd375ef855b3d999798820191507f6ea989c63c451341c91afa790b6f84c0fff8d09680344bc7434998dfc696c11581019050828481820993508484850993508481850993505083837f44d46fa01da5117cf3fbdba05adc0a64af6c34a56f1e3c6cba01b7a582af8839098485847f3fe667e00c2b55cab44507505bba0e3a626e1ae605378c995a65a784ff14b25009820890508485837f63ce26c4206c020d51deaa55ffd4bb75f2331516053550b2ab85fd269bd880d9098208905084847f42ef9cc13681afd5b00dec34395420d789050302f55bfdf81467c45c79019119098586857f0e5584fa583dbae95ce13fb6befa8c6a8726033dc2ef49a2935a0c875e4e70b309820890508586847f5e8641d1c62a0c9d1d2fdb568dd5e25159d2f0c278522abe614e27d5df217a8d098208905085857f16582a527dd2eaa72fb34e6404e4c5a3778673b33370e0c1613548961eba050f098687867f0b69c4e8a57aea1a6666cf14bbc5781c279d6386d13ffe4db266295b4d8f795309820890508687857f42d7e3dffaf0722a5079353abbcfb0458b44cad327804ef6780e71fe3a3d9a2a09820890508295508194508093505050507f57f4ac045fb78ade81f9196c9db8a7abf8de139c4a488a0613685982e8121812830192507f6dbfdc64a545237a88ee79c1752a74ce767352b5071a0d317c5b49e259491b94820191507f232f99cc911eddd9cd0f1fc55b1a3250092cb92119bc76be621a132510a4390481019050828481820993508484850993508481850993505083837f44d46fa01da5117cf3fbdba05adc0a64af6c34a56f1e3c6cba01b7a582af8839098485847f3fe667e00c2b55cab44507505bba0e3a626e1ae605378c995a65a784ff14b25009820890508485837f63ce26c4206c020d51deaa55ffd4bb75f2331516053550b2ab85fd269bd880d9098208905084847f42ef9cc13681afd5b00dec34395420d789050302f55bfdf81467c45c79019119098586857f0e5584fa583dbae95ce13fb6befa8c6a8726033dc2ef49a2935a0c875e4e70b309820890508586847f5e8641d1c62a0c9d1d2fdb568dd5e25159d2f0c278522abe614e27d5df217a8d098208905085857f16582a527dd2eaa72fb34e6404e4c5a3778673b33370e0c1613548961eba050f098687867f0b69c4e8a57aea1a6666cf14bbc5781c279d6386d13ffe4db266295b4d8f795309820890508687857f42d7e3dffaf0722a5079353abbcfb0458b44cad327804ef6780e71fe3a3d9a2a09820890508295508194508093505050507f201beed7b8f3ab8186c22c6c5d4869f0f9efd52ca6bc2961c3b97c1e301bc213830192507f4b99c756e1e0b9491a082e28c55458ccd5e97eb59381fc872223d9e77ef87b2d820191507f1376dce6580030c6a1c9291d58602f5129388842744a1210bf6b3431ba94e9bc81019050828481820993508484850993508481850993505083837f44d46fa01da5117cf3fbdba05adc0a64af6c34a56f1e3c6cba01b7a582af8839098485847f3fe667e00c2b55cab44507505bba0e3a626e1ae605378c995a65a784ff14b25009820890508485837f63ce26c4206c020d51deaa55ffd4bb75f2331516053550b2ab85fd269bd880d9098208905084847f42ef9cc13681afd5b00dec34395420d789050302f55bfdf81467c45c79019119098586857f0e5584fa583dbae95ce13fb6befa8c6a8726033dc2ef49a2935a0c875e4e70b309820890508586847f5e8641d1c62a0c9d1d2fdb568dd5e25159d2f0c278522abe614e27d5df217a8d098208905085857f16582a527dd2eaa72fb34e6404e4c5a3778673b33370e0c1613548961eba050f098687867f0b69c4e8a57aea1a6666cf14bbc5781c279d6386d13ffe4db266295b4d8f795309820890508687857f42d7e3dffaf0722a5079353abbcfb0458b44cad327804ef6780e71fe3a3d9a2a09820890508295508194508093505050507f1793199e6fd6ba342b3356c38238f761072ba8b02d92e7226454843c5486d7b3830192507f5048857b8872cc1de188947dc3ee984e217d264c7975256fbfc74c8721472d98820191507f5c772c20fc285d3e1854e3ededdd52942cd9b61c7755fe46dade9f89de8b3bbf81019050828481820993508484850993508481850993505083837f44d46fa01da5117cf3fbdba05adc0a64af6c34a56f1e3c6cba01b7a582af8839098485847f3fe667e00c2b55cab44507505bba0e3a626e1ae605378c995a65a784ff14b25009820890508485837f63ce26c4206c020d51deaa55ffd4bb75f2331516053550b2ab85fd269bd880d9098208905084847f42ef9cc13681afd5b00dec34395420d789050302f55bfdf81467c45c79019119098586857f0e5584fa583dbae95ce13fb6befa8c6a8726033dc2ef49a2935a0c875e4e70b309820890508586847f5e8641d1c62a0c9d1d2fdb568dd5e25159d2f0c278522abe614e27d5df217a8d098208905085857f16582a527dd2eaa72fb34e6404e4c5a3778673b33370e0c1613548961eba050f098687867f0b69c4e8a57aea1a6666cf14bbc5781c279d6386d13ffe4db266295b4d8f795309820890508687857f42d7e3dffaf0722a5079353abbcfb0458b44cad327804ef6780e71fe3a3d9a2a09820890508295508194508093505050507f6e40d518ae3ce6cad092e810909a916c60fe77dfe7bbb86b5bfcceba1ae18879830192507f22de7a7488dcc7359fee9c20c87a67df3c66160dc62aacac06a3f1d3b433311b820191507f3514d5e9066bb160df8ff37fe2d8edf8dbe0b77fae77e1d030d6e3fd516b47a881019050828481820993508484850993508481850993505083837f44d46fa01da5117cf3fbdba05adc0a64af6c34a56f1e3c6cba01b7a582af8839098485847f3fe667e00c2b55cab44507505bba0e3a626e1ae605378c995a65a784ff14b25009820890508485837f63ce26c4206c020d51deaa55ffd4bb75f2331516053550b2ab85fd269bd880d9098208905084847f42ef9cc13681afd5b00dec34395420d789050302f55bfdf81467c45c79019119098586857f0e5584fa583dbae95ce13fb6befa8c6a8726033dc2ef49a2935a0c875e4e70b309820890508586847f5e8641d1c62a0c9d1d2fdb568dd5e25159d2f0c278522abe614e27d5df217a8d098208905085857f16582a527dd2eaa72fb34e6404e4c5a3778673b33370e0c1613548961eba050f098687867f0b69c4e8a57aea1a6666cf14bbc5781c279d6386d13ffe4db266295b4d8f795309820890508687857f42d7e3dffaf0722a5079353abbcfb0458b44cad327804ef6780e71fe3a3d9a2a09820890508295508194508093505050507f30cd3006931ad636f919a00dabbf5fa5ff453d6f900f144a19377427137a81c7830192507f6203ad60b0341baa14e5c48b915f6b41e4959835d1a839996dcfc378b662c474820191507f71e8d0ac035e59bf8007c0f3af24de07b674dae77042ae7dce7ae94770d7625481019050828481820993508484850993508481850993505083837f44d46fa01da5117cf3fbdba05adc0a64af6c34a56f1e3c6cba01b7a582af8839098485847f3fe667e00c2b55cab44507505bba0e3a626e1ae605378c995a65a784ff14b25009820890508485837f63ce26c4206c020d51deaa55ffd4bb75f2331516053550b2ab85fd269bd880d9098208905084847f42ef9cc13681afd5b00dec34395420d789050302f55bfdf81467c45c79019119098586857f0e5584fa583dbae95ce13fb6befa8c6a8726033dc2ef49a2935a0c875e4e70b309820890508586847f5e8641d1c62a0c9d1d2fdb568dd5e25159d2f0c278522abe614e27d5df217a8d098208905085857f16582a527dd2eaa72fb34e6404e4c5a3778673b33370e0c1613548961eba050f098687867f0b69c4e8a57aea1a6666cf14bbc5781c279d6386d13ffe4db266295b4d8f795309820890508687857f42d7e3dffaf0722a5079353abbcfb0458b44cad327804ef6780e71fe3a3d9a2a09820890508295508194508093505050507f253d1a5c5293412741f81a5cf613c8df8f9e4b2cae2ebb515b6a74220692b506830192507f035b461c02d79d19a35e9613e7f5fe92851b3a59c990fafc73f666cb86a48e8e820191507f44476886a8f10f589800c8e3956f5f26648da4de0e86f19d35b334977c0fecc581019050828481820993508484850993508481850993505083837f44d46fa01da5117cf3fbdba05adc0a64af6c34a56f1e3c6cba01b7a582af8839098485847f3fe667e00c2b55cab44507505bba0e3a626e1ae605378c995a65a784ff14b25009820890508485837f63ce26c4206c020d51deaa55ffd4bb75f2331516053550b2ab85fd269bd880d9098208905084847f42ef9cc13681afd5b00dec34395420d789050302f55bfdf81467c45c79019119098586857f0e5584fa583dbae95ce13fb6befa8c6a8726033dc2ef49a2935a0c875e4e70b309820890508586847f5e8641d1c62a0c9d1d2fdb568dd5e25159d2f0c278522abe614e27d5df217a8d098208905085857f16582a527dd2eaa72fb34e6404e4c5a3778673b33370e0c1613548961eba050f098687867f0b69c4e8a57aea1a6666cf14bbc5781c279d6386d13ffe4db266295b4d8f795309820890508687857f42d7e3dffaf0722a5079353abbcfb0458b44cad327804ef6780e71fe3a3d9a2a09820890508295508194508093505050507f23a9928079d175bd5bc00eedd56b93e092b1283c2d5fccde7cfbf86a3aa04780830192507f13a7785ae134ea92f1594a0763c611abb5e2ea3436eef957f1e4ccd73fa00a82820191507f39fce308b7d43c574962ae3c0da17e313889c57863446d88bbf04f5252de427981019050828481820993508484850993508481850993505083837f44d46fa01da5117cf3fbdba05adc0a64af6c34a56f1e3c6cba01b7a582af8839098485847f3fe667e00c2b55cab44507505bba0e3a626e1ae605378c995a65a784ff14b25009820890508485837f63ce26c4206c020d51deaa55ffd4bb75f2331516053550b2ab85fd269bd880d9098208905084847f42ef9cc13681afd5b00dec34395420d789050302f55bfdf81467c45c79019119098586857f0e5584fa583dbae95ce13fb6befa8c6a8726033dc2ef49a2935a0c875e4e70b309820890508586847f5e8641d1c62a0c9d1d2fdb568dd5e25159d2f0c278522abe614e27d5df217a8d098208905085857f16582a527dd2eaa72fb34e6404e4c5a3778673b33370e0c1613548961eba050f098687867f0b69c4e8a57aea1a6666cf14bbc5781c279d6386d13ffe4db266295b4d8f795309820890508687857f42d7e3dffaf0722a5079353abbcfb0458b44cad327804ef6780e71fe3a3d9a2a09820890508295508194508093505050507f1aae18833f8e1d3ac0fdf01662f60d22bef00a08c6ed38d23b57e34489b53fad830192507f1a761ce82400af018b2e80c064fd83ed27c1b3fd8f85d8a855513e033398513f820191507f64df4c0ecc132a1ebf553cf334d88ed8a7ef1ec487821005a4e385d6fae179f081019050828481820993508484850993508481850993505083837f44d46fa01da5117cf3fbdba05adc0a64af6c34a56f1e3c6cba01b7a582af8839098485847f3fe667e00c2b55cab44507505bba0e3a626e1ae605378c995a65a784ff14b25009820890508485837f63ce26c4206c020d51deaa55ffd4bb75f2331516053550b2ab85fd269bd880d9098208905084847f42ef9cc13681afd5b00dec34395420d789050302f55bfdf81467c45c79019119098586857f0e5584fa583dbae95ce13fb6befa8c6a8726033dc2ef49a2935a0c875e4e70b309820890508586847f5e8641d1c62a0c9d1d2fdb568dd5e25159d2f0c278522abe614e27d5df217a8d098208905085857f16582a527dd2eaa72fb34e6404e4c5a3778673b33370e0c1613548961eba050f098687867f0b69c4e8a57aea1a6666cf14bbc5781c279d6386d13ffe4db266295b4d8f795309820890508687857f42d7e3dffaf0722a5079353abbcfb0458b44cad327804ef6780e71fe3a3d9a2a09820890508295508194508093505050507f47940c32599822d67897c4062665e15687220d2c5ce5713ca1ae44cdbf452141830192507f275a03e45adda7c316dd1a87ca22e1ccdcf6af2830a502875244ca749b73e481820191507f2e5a10f08b5ab8bbeb08e47e5feabcf807e561453fc5648b58a253cfb6a9578681019050828481820993508484850993508481850993505083837f44d46fa01da5117cf3fbdba05adc0a64af6c34a56f1e3c6cba01b7a582af8839098485847f3fe667e00c2b55cab44507505bba0e3a626e1ae605378c995a65a784ff14b25009820890508485837f63ce26c4206c020d51deaa55ffd4bb75f2331516053550b2ab85fd269bd880d9098208905084847f42ef9cc13681afd5b00dec34395420d789050302f55bfdf81467c45c79019119098586857f0e5584fa583dbae95ce13fb6befa8c6a8726033dc2ef49a2935a0c875e4e70b309820890508586847f5e8641d1c62a0c9d1d2fdb568dd5e25159d2f0c278522abe614e27d5df217a8d098208905085857f16582a527dd2eaa72fb34e6404e4c5a3778673b33370e0c1613548961eba050f098687867f0b69c4e8a57aea1a6666cf14bbc5781c279d6386d13ffe4db266295b4d8f795309820890508687857f42d7e3dffaf0722a5079353abbcfb0458b44cad327804ef6780e71fe3a3d9a2a09820890508295508194508093505050507f6b4216c76c229946eba0b6ca567a5e01efef1919cd3424a161477bd2d2cdf30d830192507f1459cb8587208473b84e9c333b2932f1c141a5b6d594bec4e033d82cefe78ce3820191507f193ae5921d78b5de7b92ce810e14a40052f9332fbffcfbbd5cec7e7b338fbe1b81019050828481820993508484850993508481850993505083837f44d46fa01da5117cf3fbdba05adc0a64af6c34a56f1e3c6cba01b7a582af8839098485847f3fe667e00c2b55cab44507505bba0e3a626e1ae605378c995a65a784ff14b25009820890508485837f63ce26c4206c020d51deaa55ffd4bb75f2331516053550b2ab85fd269bd880d9098208905084847f42ef9cc13681afd5b00dec34395420d789050302f55bfdf81467c45c79019119098586857f0e5584fa583dbae95ce13fb6befa8c6a8726033dc2ef49a2935a0c875e4e70b309820890508586847f5e8641d1c62a0c9d1d2fdb568dd5e25159d2f0c278522abe614e27d5df217a8d098208905085857f16582a527dd2eaa72fb34e6404e4c5a3778673b33370e0c1613548961eba050f098687867f0b69c4e8a57aea1a6666cf14bbc5781c279d6386d13ffe4db266295b4d8f795309820890508687857f42d7e3dffaf0722a5079353abbcfb0458b44cad327804ef6780e71fe3a3d9a2a09820890508295508194508093505050507f3097898a5d0011a489111fb2c4660281374384f4a072820560224be67248e82c830192507f378d97bf8c864ae7571782fd96ce54b41979b2d1c465b4d9549980de862930f5820191507f47e939590928513aaea5ca5fda898a41734378eabcda9b48adc35ce03f59d08e81019050828481820993508484850993508481850993505083837f44d46fa01da5117cf3fbdba05adc0a64af6c34a56f1e3c6cba01b7a582af8839098485847f3fe667e00c2b55cab44507505bba0e3a626e1ae605378c995a65a784ff14b25009820890508485837f63ce26c4206c020d51deaa55ffd4bb75f2331516053550b2ab85fd269bd880d9098208905084847f42ef9cc13681afd5b00dec34395420d789050302f55bfdf81467c45c79019119098586857f0e5584fa583dbae95ce13fb6befa8c6a8726033dc2ef49a2935a0c875e4e70b309820890508586847f5e8641d1c62a0c9d1d2fdb568dd5e25159d2f0c278522abe614e27d5df217a8d098208905085857f16582a527dd2eaa72fb34e6404e4c5a3778673b33370e0c1613548961eba050f098687867f0b69c4e8a57aea1a6666cf14bbc5781c279d6386d13ffe4db266295b4d8f795309820890508687857f42d7e3dffaf0722a5079353abbcfb0458b44cad327804ef6780e71fe3a3d9a2a09820890508295508194508093505050507f2eb04ea7c01d97ec88136287ce376b08dbc7f5cb4609342137ea32a971d17884830192507f668a95bddfb878732be2633ada541e1d1e163418f3ebf82316f64b24ab49cf05820191507f57ff77ffd3ab3372985f839e7cd61fae628a683f22ab245256260a46ba14b26d81019050828481820993508484850993508481850993505083837f44d46fa01da5117cf3fbdba05adc0a64af6c34a56f1e3c6cba01b7a582af8839098485847f3fe667e00c2b55cab44507505bba0e3a626e1ae605378c995a65a784ff14b25009820890508485837f63ce26c4206c020d51deaa55ffd4bb75f2331516053550b2ab85fd269bd880d9098208905084847f42ef9cc13681afd5b00dec34395420d789050302f55bfdf81467c45c79019119098586857f0e5584fa583dbae95ce13fb6befa8c6a8726033dc2ef49a2935a0c875e4e70b309820890508586847f5e8641d1c62a0c9d1d2fdb568dd5e25159d2f0c278522abe614e27d5df217a8d098208905085857f16582a527dd2eaa72fb34e6404e4c5a3778673b33370e0c1613548961eba050f098687867f0b69c4e8a57aea1a6666cf14bbc5781c279d6386d13ffe4db266295b4d8f795309820890508687857f42d7e3dffaf0722a5079353abbcfb0458b44cad327804ef6780e71fe3a3d9a2a09820890508295508194508093505050507f4e185328f8228371b8957c496316b4fcfd3c1786cec9a1b8f855edd27597e7af830192507f36425347ea03f6412302a1c22e49baec861cbda476804e6cead3726f1af2e7b0820191507f51b825d33b31b018ca3d3590dcc9ca41afe09f699191c41acdb5b3ef7e617b7881019050828481820993508484850993508481850993505083837f44d46fa01da5117cf3fbdba05adc0a64af6c34a56f1e3c6cba01b7a582af8839098485847f3fe667e00c2b55cab44507505bba0e3a626e1ae605378c995a65a784ff14b25009820890508485837f63ce26c4206c020d51deaa55ffd4bb75f2331516053550b2ab85fd269bd880d9098208905084847f42ef9cc13681afd5b00dec34395420d789050302f55bfdf81467c45c79019119098586857f0e5584fa583dbae95ce13fb6befa8c6a8726033dc2ef49a2935a0c875e4e70b309820890508586847f5e8641d1c62a0c9d1d2fdb568dd5e25159d2f0c278522abe614e27d5df217a8d098208905085857f16582a527dd2eaa72fb34e6404e4c5a3778673b33370e0c1613548961eba050f098687867f0b69c4e8a57aea1a6666cf14bbc5781c279d6386d13ffe4db266295b4d8f795309820890508687857f42d7e3dffaf0722a5079353abbcfb0458b44cad327804ef6780e71fe3a3d9a2a09820890508295508194508093505050507f26b72df47408ad42cc996cd85c98a1d83f5b5ca5a19a9701ecd627e59590d09e830192507f629f82ef3b843d15e5e67fbab2857f7665e39a2289df756ef82eda0e3baef82d820191507f57da05c9a95902aea1b804e493ea27d661a36e5bd630fbc5b2565b42c81678df81019050828481820993508484850993508481850993505083837f44d46fa01da5117cf3fbdba05adc0a64af6c34a56f1e3c6cba01b7a582af8839098485847f3fe667e00c2b55cab44507505bba0e3a626e1ae605378c995a65a784ff14b25009820890508485837f63ce26c4206c020d51deaa55ffd4bb75f2331516053550b2ab85fd269bd880d9098208905084847f42ef9cc13681afd5b00dec34395420d789050302f55bfdf81467c45c79019119098586857f0e5584fa583dbae95ce13fb6befa8c6a8726033dc2ef49a2935a0c875e4e70b309820890508586847f5e8641d1c62a0c9d1d2fdb568dd5e25159d2f0c278522abe614e27d5df217a8d098208905085857f16582a527dd2eaa72fb34e6404e4c5a3778673b33370e0c1613548961eba050f098687867f0b69c4e8a57aea1a6666cf14bbc5781c279d6386d13ffe4db266295b4d8f795309820890508687857f42d7e3dffaf0722a5079353abbcfb0458b44cad327804ef6780e71fe3a3d9a2a09820890508295508194508093505050507f65bb185aa22d4a6d0b9741e936b955bc6322fb749f73c9e95466747ca7d79dec830192507f130180e44e2924db1f05636c610b89aade01212ee4588f8959bece31f0a31e95820191507f219e97737d3979ba73275acaed5f579cdf7793cc89e5b52f9ea8e7bc7926355081019050828481820993508484850993508481850993505083837f44d46fa01da5117cf3fbdba05adc0a64af6c34a56f1e3c6cba01b7a582af8839098485847f3fe667e00c2b55cab44507505bba0e3a626e1ae605378c995a65a784ff14b25009820890508485837f63ce26c4206c020d51deaa55ffd4bb75f2331516053550b2ab85fd269bd880d9098208905084847f42ef9cc13681afd5b00dec34395420d789050302f55bfdf81467c45c79019119098586857f0e5584fa583dbae95ce13fb6befa8c6a8726033dc2ef49a2935a0c875e4e70b309820890508586847f5e8641d1c62a0c9d1d2fdb568dd5e25159d2f0c278522abe614e27d5df217a8d098208905085857f16582a527dd2eaa72fb34e6404e4c5a3778673b33370e0c1613548961eba050f098687867f0b69c4e8a57aea1a6666cf14bbc5781c279d6386d13ffe4db266295b4d8f795309820890508687857f42d7e3dffaf0722a5079353abbcfb0458b44cad327804ef6780e71fe3a3d9a2a09820890508295508194508093505050507f4043fd3082574e5773a8654e32dd4190a6728be3fc54fab3644532e1c79a1800830192507f5784e5360ffb6781d9cbc1df6bd8549c71d81f000d5c4d2f071dc0f28a21c720820191507f3cdb93598a5ca5283461363f81c489a23b0672dd7d42cbb49c12635df251d15381019050828481820993508484850993508481850993505083837f44d46fa01da5117cf3fbdba05adc0a64af6c34a56f1e3c6cba01b7a582af8839098485847f3fe667e00c2b55cab44507505bba0e3a626e1ae605378c995a65a784ff14b25009820890508485837f63ce26c4206c020d51deaa55ffd4bb75f2331516053550b2ab85fd269bd880d9098208905084847f42ef9cc13681afd5b00dec34395420d789050302f55bfdf81467c45c79019119098586857f0e5584fa583dbae95ce13fb6befa8c6a8726033dc2ef49a2935a0c875e4e70b309820890508586847f5e8641d1c62a0c9d1d2fdb568dd5e25159d2f0c278522abe614e27d5df217a8d098208905085857f16582a527dd2eaa72fb34e6404e4c5a3778673b33370e0c1613548961eba050f098687867f0b69c4e8a57aea1a6666cf14bbc5781c279d6386d13ffe4db266295b4d8f795309820890508687857f42d7e3dffaf0722a5079353abbcfb0458b44cad327804ef6780e71fe3a3d9a2a09820890508295508194508093505050507f0e59e6f332d7ed3720724b927a0ca81c4ad0447045a7c5aa2861ce16f219d5a9830192507f57afcf069f3680a6ddcb3424ff2ab8d138a48f0fa72fc06286718f66cfe1df08820191507f51ba5d4899d7835ec1a17fb1bc7101690828fd09ec92e732769a61f5f0c6608581019050828481820993508484850993508481850993505083837f44d46fa01da5117cf3fbdba05adc0a64af6c34a56f1e3c6cba01b7a582af8839098485847f3fe667e00c2b55cab44507505bba0e3a626e1ae605378c995a65a784ff14b25009820890508485837f63ce26c4206c020d51deaa55ffd4bb75f2331516053550b2ab85fd269bd880d9098208905084847f42ef9cc13681afd5b00dec34395420d789050302f55bfdf81467c45c79019119098586857f0e5584fa583dbae95ce13fb6befa8c6a8726033dc2ef49a2935a0c875e4e70b309820890508586847f5e8641d1c62a0c9d1d2fdb568dd5e25159d2f0c278522abe614e27d5df217a8d098208905085857f16582a527dd2eaa72fb34e6404e4c5a3778673b33370e0c1613548961eba050f098687867f0b69c4e8a57aea1a6666cf14bbc5781c279d6386d13ffe4db266295b4d8f795309820890508687857f42d7e3dffaf0722a5079353abbcfb0458b44cad327804ef6780e71fe3a3d9a2a09820890508295508194508093505050507f1b064342d51a42753d7369467222697a172cc07b9d33fbf943b0a3fcff2036bd830192507f54aef45559da8b2c7472c3ad5a0d33086da6e4df67ef4ede874adebb2902df82820191507f30b82a998cbd8e8a2f363c55b2882e0b78fa9fb9171221b73eb310228a0e5f6c8101905082848182099350848485099350848185099350508184818209925084838409925084818409925050808481820991508482830991508481830991505083837f44d46fa01da5117cf3fbdba05adc0a64af6c34a56f1e3c6cba01b7a582af8839098485847f3fe667e00c2b55cab44507505bba0e3a626e1ae605378c995a65a784ff14b25009820890508485837f63ce26c4206c020d51deaa55ffd4bb75f2331516053550b2ab85fd269bd880d9098208905084847f42ef9cc13681afd5b00dec34395420d789050302f55bfdf81467c45c79019119098586857f0e5584fa583dbae95ce13fb6befa8c6a8726033dc2ef49a2935a0c875e4e70b309820890508586847f5e8641d1c62a0c9d1d2fdb568dd5e25159d2f0c278522abe614e27d5df217a8d098208905085857f16582a527dd2eaa72fb34e6404e4c5a3778673b33370e0c1613548961eba050f098687867f0b69c4e8a57aea1a6666cf14bbc5781c279d6386d13ffe4db266295b4d8f795309820890508687857f42d7e3dffaf0722a5079353abbcfb0458b44cad327804ef6780e71fe3a3d9a2a09820890508295508194508093505050507f523a56f81ba90ef3a40ebdf2c848c8ab1a6c9889ac6c78eca8147a560db320c5830192507f4fc581cc0a10b8c1d357e215fe5c7ec1d3a0931cad9a575da613b282fb1fd4b4820191507f23e4ab37183acba463df7a76e858a4aa8ad71ea715be0573e46f6d42987401078101905082848182099350848485099350848185099350508184818209925084838409925084818409925050808481820991508482830991508481830991505083837f44d46fa01da5117cf3fbdba05adc0a64af6c34a56f1e3c6cba01b7a582af8839098485847f3fe667e00c2b55cab44507505bba0e3a626e1ae605378c995a65a784ff14b25009820890508485837f63ce26c4206c020d51deaa55ffd4bb75f2331516053550b2ab85fd269bd880d9098208905084847f42ef9cc13681afd5b00dec34395420d789050302f55bfdf81467c45c79019119098586857f0e5584fa583dbae95ce13fb6befa8c6a8726033dc2ef49a2935a0c875e4e70b309820890508586847f5e8641d1c62a0c9d1d2fdb568dd5e25159d2f0c278522abe614e27d5df217a8d098208905085857f16582a527dd2eaa72fb34e6404e4c5a3778673b33370e0c1613548961eba050f098687867f0b69c4e8a57aea1a6666cf14bbc5781c279d6386d13ffe4db266295b4d8f795309820890508687857f42d7e3dffaf0722a5079353abbcfb0458b44cad327804ef6780e71fe3a3d9a2a09820890508295508194508093505050507f2795d5c5fa4280225d33094e0beda75bacfe14640de044f2fca995e2b59914a1830192507f3001ca401e89601cd765f26dd03f4c45a6687c3df16c8fe4c26d909dee8b53c0820191507e72e45cc676b08ef7bf86e89280827fe84b5bebae4e501de7fea6bdf34713808101905082848182099350848485099350848185099350508184818209925084838409925084818409925050808481820991508482830991508481830991505083837f44d46fa01da5117cf3fbdba05adc0a64af6c34a56f1e3c6cba01b7a582af8839098485847f3fe667e00c2b55cab44507505bba0e3a626e1ae605378c995a65a784ff14b25009820890508485837f63ce26c4206c020d51deaa55ffd4bb75f2331516053550b2ab85fd269bd880d9098208905084847f42ef9cc13681afd5b00dec34395420d789050302f55bfdf81467c45c79019119098586857f0e5584fa583dbae95ce13fb6befa8c6a8726033dc2ef49a2935a0c875e4e70b309820890508586847f5e8641d1c62a0c9d1d2fdb568dd5e25159d2f0c278522abe614e27d5df217a8d098208905085857f16582a527dd2eaa72fb34e6404e4c5a3778673b33370e0c1613548961eba050f098687867f0b69c4e8a57aea1a6666cf14bbc5781c279d6386d13ffe4db266295b4d8f795309820890508687857f42d7e3dffaf0722a5079353abbcfb0458b44cad327804ef6780e71fe3a3d9a2a09820890508295508194508093505050507f522338e1bf861c22cf8eeaa5d060db37420d3020e1713cf6fff6f239e30cbfa7830192507f6fde059ef86c70e457aabb383afa5baf09088f95fd8322f957b618dd020277ff820191507f13de705484874bb5e2abe4c518ce599eb64829e2d40e41bdd0c54ddeb26b86c08101905082848182099350848485099350848185099350508184818209925084838409925084818409925050808481820991508482830991508481830991505083837f44d46fa01da5117cf3fbdba05adc0a64af6c34a56f1e3c6cba01b7a582af8839098485847f3fe667e00c2b55cab44507505bba0e3a626e1ae605378c995a65a784ff14b25009820890508485837f63ce26c4206c020d51deaa55ffd4bb75f2331516053550b2ab85fd269bd880d9098208905084847f42ef9cc13681afd5b00dec34395420d789050302f55bfdf81467c45c79019119098586857f0e5584fa583dbae95ce13fb6befa8c6a8726033dc2ef49a2935a0c875e4e70b309820890508586847f5e8641d1c62a0c9d1d2fdb568dd5e25159d2f0c278522abe614e27d5df217a8d098208905085857f16582a527dd2eaa72fb34e6404e4c5a3778673b33370e0c1613548961eba050f098687867f0b69c4e8a57aea1a6666cf14bbc5781c279d6386d13ffe4db266295b4d8f795309820890508687857f42d7e3dffaf0722a5079353abbcfb0458b44cad327804ef6780e71fe3a3d9a2a09820890508295508194508093505050508383069250825f5260205ff3fea264697066735822122003b7a53532eb4556744361d4b183ea34fe56e070f3d40cd89048542696095c6664736f6c634300081e00336080604052348015600e575f5ffd5b506201353c806200001e5f395ff3fe608060405234801562000010575f5ffd5b507f73eda753299d7d483339d80809a1d80553bda402fffe5bfeffffffff000000015f5f356020356040356060355f7f5c5bec06aa43ca811a9c78919fe505276e4625b2dc92b86947cc4d7726c77d3d860195507f6268bc5f9031edb5b6bc2edbbe091cce714d51abbba4301fa0a19319da4ca232850194507f4572aeff3e581883c3333a4fcb784afdd0f4b81f0d34e36835fd9a2644342b6a840193507f2c44402b93c5ac82bc8bb58e947fca107e865d85b1cb0f1f32f0c05cdaf439f8830192507f023eb54d53e89505d0c9258bee0de17bb0a11e451b48d22d88549e05e2018403820191508587818209965087878809965087818809965050848781820995508786870995508781870995505083878182099450878586099450878186099450508287818209935087848509935087818509935050818781820992508783840992508781840992505086867f5edc4de43ff07c60ace8f91ac726180f38604b5bb2f2ab2c27aa2a4d53cf7081098788877f21c0f632624d48a11931e2bcb8695897e5cb1d7cec432d115df1b25ea0d9d4a309820890508788867f4243ff5f4a234a2256286afa4ec59b4c9c32439c0869f1aa0b92a5ab82ee1b3809820890508788857f7344ba891ca71591e07e7e6aa563931b9d07b548c816668af7f6170e5c8cd07309820890508788847f20c42fc15a32ed98b81609d1e9de98f255e4b46414af1dad036bfe255d3d2f19098208905087877f68186626fb0239ce09c22fe4ec756ab3dede54596e3cc426ac7ec1f5c38881f2098889887f1cdfe1f1de4a7290ab39316b544da5e6576d4d1c05eaf0719c3c60867fab037209820890508889877f1992e57fe5537033e0b3711c4aba9a6630fdf87a5962a442e926718e92f7e57309820890508889867f5033856a6fe61acbb5a95e6f8e1d6e5aca6e1d2125d0c03d864e8fecdb3ccd4a09820890508889857f09e7c08b5c3289751cf3e30a7ab45c59aaca49585c3f08fb39a67bc9466cceb2098208905088887f73ac6ff5f192940a6a3198b94a158121172678891e35c8895c6a20f4164f7c9309898a897f03ac6b5eccedc5da43ff372db13fa55ac197bb9592e15d4feb74ee152e90e9520982089050898a887f1574427d32abdcde8a24db9e42219c68f84d89f342f0eb455309c7937054f8420982089050898a877f21fcae8d9f8f62a956217b8fd134560fc2654527ee9e5359beefb95b2c59288d0982089050898a867f06ca0c88a61632956a1d3e91999c842f03b6e7f121df734ce75682fbfa1ef7f9098208905089897f4ce4f0699adf8172f73b8cd2407d7db698a2625bf837b95a35abbf4eddcbd7dd098a8b8a7f1a0f8b3e444c78fcc67ce285e743094a787745b2761df2203979fc08d3ab3a9909820890508a8b897f40a3f19fa4064fd9c119dd0acaea02ea3ae33a5df8b181867ff6b705f159e4af09820890508a8b887f051d14de8bbf745f9f8a20682c4104c48a0198e8f604ae06b45de4051d90065c09820890508a8b877f294ce128d90968ca910a8cc18c9ab58d41a0a91df79bed878952aa88f7433a8009820890508a8a7f637e4ac13df1eefbc7ee982d5a044b89a20d383b17fa5a23bfe25a7915d8885f098b8c8b7f35151e81622f69dec5eedf76619630dc42997eeaf162fdda7644ce726da53c3b09820890508b8c8a7f707fbbeb0bf2b5aa6ed7573b46506eff64c69ce781aa7fa616e3d53390922a1e09820890508b8c897f5e876f8493c339c36750caa31382bea4a90d6928976a3f996a30a3f1af778f6309820890508b8c887f121909e9d5554a3b3d207272ad07359bb49136e23fe6f0d1c62c3bf940ca5bcd0982089050849a5083995082985081975080965050505050507f5c3c49994dfe7863f506ee54719e6ee22a8136da7b276fd95b222de90b48feec860195507f349b3f7366f89983b3858e40a22f53fa2e62ad46932303ce85d42591ca5141a3850194507f0b383428a756701b8c1c1c38c9c3abbb4df3b6fbb5a581fe9bba326455776e91840193507f6814d01a7834e8f1f53b89bae25702ed6c864c49ffba3820e6106185e81a85e1830192507f382d39c6bdbba256b12d3fa4476187c14c4867255ea999c6503e92f520e9a918820191508587818209965087878809965087818809965050848781820995508786870995508781870995505083878182099450878586099450878186099450508287818209935087848509935087818509935050818781820992508783840992508781840992505086867f5edc4de43ff07c60ace8f91ac726180f38604b5bb2f2ab2c27aa2a4d53cf7081098788877f21c0f632624d48a11931e2bcb8695897e5cb1d7cec432d115df1b25ea0d9d4a309820890508788867f4243ff5f4a234a2256286afa4ec59b4c9c32439c0869f1aa0b92a5ab82ee1b3809820890508788857f7344ba891ca71591e07e7e6aa563931b9d07b548c816668af7f6170e5c8cd07309820890508788847f20c42fc15a32ed98b81609d1e9de98f255e4b46414af1dad036bfe255d3d2f19098208905087877f68186626fb0239ce09c22fe4ec756ab3dede54596e3cc426ac7ec1f5c38881f2098889887f1cdfe1f1de4a7290ab39316b544da5e6576d4d1c05eaf0719c3c60867fab037209820890508889877f1992e57fe5537033e0b3711c4aba9a6630fdf87a5962a442e926718e92f7e57309820890508889867f5033856a6fe61acbb5a95e6f8e1d6e5aca6e1d2125d0c03d864e8fecdb3ccd4a09820890508889857f09e7c08b5c3289751cf3e30a7ab45c59aaca49585c3f08fb39a67bc9466cceb2098208905088887f73ac6ff5f192940a6a3198b94a158121172678891e35c8895c6a20f4164f7c9309898a897f03ac6b5eccedc5da43ff372db13fa55ac197bb9592e15d4feb74ee152e90e9520982089050898a887f1574427d32abdcde8a24db9e42219c68f84d89f342f0eb455309c7937054f8420982089050898a877f21fcae8d9f8f62a956217b8fd134560fc2654527ee9e5359beefb95b2c59288d0982089050898a867f06ca0c88a61632956a1d3e91999c842f03b6e7f121df734ce75682fbfa1ef7f9098208905089897f4ce4f0699adf8172f73b8cd2407d7db698a2625bf837b95a35abbf4eddcbd7dd098a8b8a7f1a0f8b3e444c78fcc67ce285e743094a787745b2761df2203979fc08d3ab3a9909820890508a8b897f40a3f19fa4064fd9c119dd0acaea02ea3ae33a5df8b181867ff6b705f159e4af09820890508a8b887f051d14de8bbf745f9f8a20682c4104c48a0198e8f604ae06b45de4051d90065c09820890508a8b877f294ce128d90968ca910a8cc18c9ab58d41a0a91df79bed878952aa88f7433a8009820890508a8a7f637e4ac13df1eefbc7ee982d5a044b89a20d383b17fa5a23bfe25a7915d8885f098b8c8b7f35151e81622f69dec5eedf76619630dc42997eeaf162fdda7644ce726da53c3b09820890508b8c8a7f707fbbeb0bf2b5aa6ed7573b46506eff64c69ce781aa7fa616e3d53390922a1e09820890508b8c897f5e876f8493c339c36750caa31382bea4a90d6928976a3f996a30a3f1af778f6309820890508b8c887f121909e9d5554a3b3d207272ad07359bb49136e23fe6f0d1c62c3bf940ca5bcd0982089050849a5083995082985081975080965050505050507f507aa38edca7a8d6925c668abc3a17a3252efb8f94740a7775db0bb328d1061e860195507f3bd1bbe1f40eb3fa7def818257305e9c50a675d756e6aed051fc4e7b7b132d8b850194507f4ddaf59374164d01c4c07ac09d306653f607cb880ab16330c680994321df3f4a840193507f36a92b9f74005c1802eb60930a7135d4af73fc20a535506093f98fa0aa1fbd91830192507f1eeb8e80a4a1382bda0c063aa61dad5da57fa80865d0beeb2b9e69a07b5965f4820191508587818209965087878809965087818809965050848781820995508786870995508781870995505083878182099450878586099450878186099450508287818209935087848509935087818509935050818781820992508783840992508781840992505086867f5edc4de43ff07c60ace8f91ac726180f38604b5bb2f2ab2c27aa2a4d53cf7081098788877f21c0f632624d48a11931e2bcb8695897e5cb1d7cec432d115df1b25ea0d9d4a309820890508788867f4243ff5f4a234a2256286afa4ec59b4c9c32439c0869f1aa0b92a5ab82ee1b3809820890508788857f7344ba891ca71591e07e7e6aa563931b9d07b548c816668af7f6170e5c8cd07309820890508788847f20c42fc15a32ed98b81609d1e9de98f255e4b46414af1dad036bfe255d3d2f19098208905087877f68186626fb0239ce09c22fe4ec756ab3dede54596e3cc426ac7ec1f5c38881f2098889887f1cdfe1f1de4a7290ab39316b544da5e6576d4d1c05eaf0719c3c60867fab037209820890508889877f1992e57fe5537033e0b3711c4aba9a6630fdf87a5962a442e926718e92f7e57309820890508889867f5033856a6fe61acbb5a95e6f8e1d6e5aca6e1d2125d0c03d864e8fecdb3ccd4a09820890508889857f09e7c08b5c3289751cf3e30a7ab45c59aaca49585c3f08fb39a67bc9466cceb2098208905088887f73ac6ff5f192940a6a3198b94a158121172678891e35c8895c6a20f4164f7c9309898a897f03ac6b5eccedc5da43ff372db13fa55ac197bb9592e15d4feb74ee152e90e9520982089050898a887f1574427d32abdcde8a24db9e42219c68f84d89f342f0eb455309c7937054f8420982089050898a877f21fcae8d9f8f62a956217b8fd134560fc2654527ee9e5359beefb95b2c59288d0982089050898a867f06ca0c88a61632956a1d3e91999c842f03b6e7f121df734ce75682fbfa1ef7f9098208905089897f4ce4f0699adf8172f73b8cd2407d7db698a2625bf837b95a35abbf4eddcbd7dd098a8b8a7f1a0f8b3e444c78fcc67ce285e743094a787745b2761df2203979fc08d3ab3a9909820890508a8b897f40a3f19fa4064fd9c119dd0acaea02ea3ae33a5df8b181867ff6b705f159e4af09820890508a8b887f051d14de8bbf745f9f8a20682c4104c48a0198e8f604ae06b45de4051d90065c09820890508a8b877f294ce128d90968ca910a8cc18c9ab58d41a0a91df79bed878952aa88f7433a8009820890508a8a7f637e4ac13df1eefbc7ee982d5a044b89a20d383b17fa5a23bfe25a7915d8885f098b8c8b7f35151e81622f69dec5eedf76619630dc42997eeaf162fdda7644ce726da53c3b09820890508b8c8a7f707fbbeb0bf2b5aa6ed7573b46506eff64c69ce781aa7fa616e3d53390922a1e09820890508b8c897f5e876f8493c339c36750caa31382bea4a90d6928976a3f996a30a3f1af778f6309820890508b8c887f121909e9d5554a3b3d207272ad07359bb49136e23fe6f0d1c62c3bf940ca5bcd0982089050849a5083995082985081975080965050505050507f245c1c6d6f21bf7dd2abd1626514169678fa53bd900f6bd2cd854a9a965cb77b860195507f4fee9d33743fa477a4fe71f77e5c95778db9c7efee51846f4a2d369e18a15cdd850194507f1a1492b84929e7080f0b6c8b1c46e9164beed12136837032670d44165d269c69840193507f64f9e3fa689c48974257c4e505827bb9c0babbe89366dfcbb3162eafab4e8b07830192507f0b0a1a2b2762612d71d2f2d692c632218b5e47f3f0e38d638cfd365c313dbd48820191508587818209965087878809965087818809965050848781820995508786870995508781870995505083878182099450878586099450878186099450508287818209935087848509935087818509935050818781820992508783840992508781840992505086867f5edc4de43ff07c60ace8f91ac726180f38604b5bb2f2ab2c27aa2a4d53cf7081098788877f21c0f632624d48a11931e2bcb8695897e5cb1d7cec432d115df1b25ea0d9d4a309820890508788867f4243ff5f4a234a2256286afa4ec59b4c9c32439c0869f1aa0b92a5ab82ee1b3809820890508788857f7344ba891ca71591e07e7e6aa563931b9d07b548c816668af7f6170e5c8cd07309820890508788847f20c42fc15a32ed98b81609d1e9de98f255e4b46414af1dad036bfe255d3d2f19098208905087877f68186626fb0239ce09c22fe4ec756ab3dede54596e3cc426ac7ec1f5c38881f2098889887f1cdfe1f1de4a7290ab39316b544da5e6576d4d1c05eaf0719c3c60867fab037209820890508889877f1992e57fe5537033e0b3711c4aba9a6630fdf87a5962a442e926718e92f7e57309820890508889867f5033856a6fe61acbb5a95e6f8e1d6e5aca6e1d2125d0c03d864e8fecdb3ccd4a09820890508889857f09e7c08b5c3289751cf3e30a7ab45c59aaca49585c3f08fb39a67bc9466cceb2098208905088887f73ac6ff5f192940a6a3198b94a158121172678891e35c8895c6a20f4164f7c9309898a897f03ac6b5eccedc5da43ff372db13fa55ac197bb9592e15d4feb74ee152e90e9520982089050898a887f1574427d32abdcde8a24db9e42219c68f84d89f342f0eb455309c7937054f8420982089050898a877f21fcae8d9f8f62a956217b8fd134560fc2654527ee9e5359beefb95b2c59288d0982089050898a867f06ca0c88a61632956a1d3e91999c842f03b6e7f121df734ce75682fbfa1ef7f9098208905089897f4ce4f0699adf8172f73b8cd2407d7db698a2625bf837b95a35abbf4eddcbd7dd098a8b8a7f1a0f8b3e444c78fcc67ce285e743094a787745b2761df2203979fc08d3ab3a9909820890508a8b897f40a3f19fa4064fd9c119dd0acaea02ea3ae33a5df8b181867ff6b705f159e4af09820890508a8b887f051d14de8bbf745f9f8a20682c4104c48a0198e8f604ae06b45de4051d90065c09820890508a8b877f294ce128d90968ca910a8cc18c9ab58d41a0a91df79bed878952aa88f7433a8009820890508a8a7f637e4ac13df1eefbc7ee982d5a044b89a20d383b17fa5a23bfe25a7915d8885f098b8c8b7f35151e81622f69dec5eedf76619630dc42997eeaf162fdda7644ce726da53c3b09820890508b8c8a7f707fbbeb0bf2b5aa6ed7573b46506eff64c69ce781aa7fa616e3d53390922a1e09820890508b8c897f5e876f8493c339c36750caa31382bea4a90d6928976a3f996a30a3f1af778f6309820890508b8c887f121909e9d5554a3b3d207272ad07359bb49136e23fe6f0d1c62c3bf940ca5bcd0982089050849a5083995082985081975080965050505050507f05b20208ea0377139f322767d36fea854d28ccedb083ab8901f4054f822c5101860195507f0710c608d8a48043e99dd94a0b1d22906b67dafb6bc5b95adf8c2f24ce81b0cd850194507f68e5bf430d23864f21836ccefc1fac4801bdc00cc43de2608532d788c7fb45e7840193507f09221b8a932a7820912b20bf5b919b7e0a22b3c9d2a1f0d9832ca03b0fc0ed9f830192507f65ac3ba4cbab3d2622b373ef54c1dfb299e7fb992555478d5c1c44ee7863295382019150858781820996508787880996508781880996505086867f5edc4de43ff07c60ace8f91ac726180f38604b5bb2f2ab2c27aa2a4d53cf7081098788877f21c0f632624d48a11931e2bcb8695897e5cb1d7cec432d115df1b25ea0d9d4a309820890508788867f4243ff5f4a234a2256286afa4ec59b4c9c32439c0869f1aa0b92a5ab82ee1b3809820890508788857f7344ba891ca71591e07e7e6aa563931b9d07b548c816668af7f6170e5c8cd07309820890508788847f20c42fc15a32ed98b81609d1e9de98f255e4b46414af1dad036bfe255d3d2f19098208905087877f68186626fb0239ce09c22fe4ec756ab3dede54596e3cc426ac7ec1f5c38881f2098889887f1cdfe1f1de4a7290ab39316b544da5e6576d4d1c05eaf0719c3c60867fab037209820890508889877f1992e57fe5537033e0b3711c4aba9a6630fdf87a5962a442e926718e92f7e57309820890508889867f5033856a6fe61acbb5a95e6f8e1d6e5aca6e1d2125d0c03d864e8fecdb3ccd4a09820890508889857f09e7c08b5c3289751cf3e30a7ab45c59aaca49585c3f08fb39a67bc9466cceb2098208905088887f73ac6ff5f192940a6a3198b94a158121172678891e35c8895c6a20f4164f7c9309898a897f03ac6b5eccedc5da43ff372db13fa55ac197bb9592e15d4feb74ee152e90e9520982089050898a887f1574427d32abdcde8a24db9e42219c68f84d89f342f0eb455309c7937054f8420982089050898a877f21fcae8d9f8f62a956217b8fd134560fc2654527ee9e5359beefb95b2c59288d0982089050898a867f06ca0c88a61632956a1d3e91999c842f03b6e7f121df734ce75682fbfa1ef7f9098208905089897f4ce4f0699adf8172f73b8cd2407d7db698a2625bf837b95a35abbf4eddcbd7dd098a8b8a7f1a0f8b3e444c78fcc67ce285e743094a787745b2761df2203979fc08d3ab3a9909820890508a8b897f40a3f19fa4064fd9c119dd0acaea02ea3ae33a5df8b181867ff6b705f159e4af09820890508a8b887f051d14de8bbf745f9f8a20682c4104c48a0198e8f604ae06b45de4051d90065c09820890508a8b877f294ce128d90968ca910a8cc18c9ab58d41a0a91df79bed878952aa88f7433a8009820890508a8a7f637e4ac13df1eefbc7ee982d5a044b89a20d383b17fa5a23bfe25a7915d8885f098b8c8b7f35151e81622f69dec5eedf76619630dc42997eeaf162fdda7644ce726da53c3b09820890508b8c8a7f707fbbeb0bf2b5aa6ed7573b46506eff64c69ce781aa7fa616e3d53390922a1e09820890508b8c897f5e876f8493c339c36750caa31382bea4a90d6928976a3f996a30a3f1af778f6309820890508b8c887f121909e9d5554a3b3d207272ad07359bb49136e23fe6f0d1c62c3bf940ca5bcd0982089050849a5083995082985081975080965050505050507f114be59c06f561e8324e306a28896fb1dd3802773891f54f0b8243718ef12542860195507f61d96c0b2e0683a2d7ffcd9e0b3a58b86fb3ecca7941391e597efc13f38ff503850194507f103454e35e0f4d690d8d1ab122b4c5c92e0512004f1af1e3140694c686cbeba9840193507f2d2d628ded9373dcfc3ad59072a51b9a2d6c8c470753066195b77ca3a821fe47830192507f2b0bf337fd4454a5e38344e0e711b9ae2281545fd99ad3fe46da2e1e4b9c98ce82019150858781820996508787880996508781880996505086867f5edc4de43ff07c60ace8f91ac726180f38604b5bb2f2ab2c27aa2a4d53cf7081098788877f21c0f632624d48a11931e2bcb8695897e5cb1d7cec432d115df1b25ea0d9d4a309820890508788867f4243ff5f4a234a2256286afa4ec59b4c9c32439c0869f1aa0b92a5ab82ee1b3809820890508788857f7344ba891ca71591e07e7e6aa563931b9d07b548c816668af7f6170e5c8cd07309820890508788847f20c42fc15a32ed98b81609d1e9de98f255e4b46414af1dad036bfe255d3d2f19098208905087877f68186626fb0239ce09c22fe4ec756ab3dede54596e3cc426ac7ec1f5c38881f2098889887f1cdfe1f1de4a7290ab39316b544da5e6576d4d1c05eaf0719c3c60867fab037209820890508889877f1992e57fe5537033e0b3711c4aba9a6630fdf87a5962a442e926718e92f7e57309820890508889867f5033856a6fe61acbb5a95e6f8e1d6e5aca6e1d2125d0c03d864e8fecdb3ccd4a09820890508889857f09e7c08b5c3289751cf3e30a7ab45c59aaca49585c3f08fb39a67bc9466cceb2098208905088887f73ac6ff5f192940a6a3198b94a158121172678891e35c8895c6a20f4164f7c9309898a897f03ac6b5eccedc5da43ff372db13fa55ac197bb9592e15d4feb74ee152e90e9520982089050898a887f1574427d32abdcde8a24db9e42219c68f84d89f342f0eb455309c7937054f8420982089050898a877f21fcae8d9f8f62a956217b8fd134560fc2654527ee9e5359beefb95b2c59288d0982089050898a867f06ca0c88a61632956a1d3e91999c842f03b6e7f121df734ce75682fbfa1ef7f9098208905089897f4ce4f0699adf8172f73b8cd2407d7db698a2625bf837b95a35abbf4eddcbd7dd098a8b8a7f1a0f8b3e444c78fcc67ce285e743094a787745b2761df2203979fc08d3ab3a9909820890508a8b897f40a3f19fa4064fd9c119dd0acaea02ea3ae33a5df8b181867ff6b705f159e4af09820890508a8b887f051d14de8bbf745f9f8a20682c4104c48a0198e8f604ae06b45de4051d90065c09820890508a8b877f294ce128d90968ca910a8cc18c9ab58d41a0a91df79bed878952aa88f7433a8009820890508a8a7f637e4ac13df1eefbc7ee982d5a044b89a20d383b17fa5a23bfe25a7915d8885f098b8c8b7f35151e81622f69dec5eedf76619630dc42997eeaf162fdda7644ce726da53c3b09820890508b8c8a7f707fbbeb0bf2b5aa6ed7573b46506eff64c69ce781aa7fa616e3d53390922a1e09820890508b8c897f5e876f8493c339c36750caa31382bea4a90d6928976a3f996a30a3f1af778f6309820890508b8c887f121909e9d5554a3b3d207272ad07359bb49136e23fe6f0d1c62c3bf940ca5bcd0982089050849a5083995082985081975080965050505050507f0575c431f72a40242de5963e47cc7dad1aced5d9a1c9de5ac7ab5c22fad3cd67860195507f0ec8f181daf128e716d3d7726dcf8ecbdddadca0063dc726196baec197eb3612850194507f33779259084a94462f31c2650f6affd717ea200e62d2349f07fba50dd64b4875840193507f122bdda32a00e4a3335a55fb2af4a24044fe2b223bebbbde2b32e09ef1add101830192507f14884ad16b1f79e5ba9d3c24b2f3f76272411ddfaa9bafb421ef4d583ba736bc82019150858781820996508787880996508781880996505086867f5edc4de43ff07c60ace8f91ac726180f38604b5bb2f2ab2c27aa2a4d53cf7081098788877f21c0f632624d48a11931e2bcb8695897e5cb1d7cec432d115df1b25ea0d9d4a309820890508788867f4243ff5f4a234a2256286afa4ec59b4c9c32439c0869f1aa0b92a5ab82ee1b3809820890508788857f7344ba891ca71591e07e7e6aa563931b9d07b548c816668af7f6170e5c8cd07309820890508788847f20c42fc15a32ed98b81609d1e9de98f255e4b46414af1dad036bfe255d3d2f19098208905087877f68186626fb0239ce09c22fe4ec756ab3dede54596e3cc426ac7ec1f5c38881f2098889887f1cdfe1f1de4a7290ab39316b544da5e6576d4d1c05eaf0719c3c60867fab037209820890508889877f1992e57fe5537033e0b3711c4aba9a6630fdf87a5962a442e926718e92f7e57309820890508889867f5033856a6fe61acbb5a95e6f8e1d6e5aca6e1d2125d0c03d864e8fecdb3ccd4a09820890508889857f09e7c08b5c3289751cf3e30a7ab45c59aaca49585c3f08fb39a67bc9466cceb2098208905088887f73ac6ff5f192940a6a3198b94a158121172678891e35c8895c6a20f4164f7c9309898a897f03ac6b5eccedc5da43ff372db13fa55ac197bb9592e15d4feb74ee152e90e9520982089050898a887f1574427d32abdcde8a24db9e42219c68f84d89f342f0eb455309c7937054f8420982089050898a877f21fcae8d9f8f62a956217b8fd134560fc2654527ee9e5359beefb95b2c59288d0982089050898a867f06ca0c88a61632956a1d3e91999c842f03b6e7f121df734ce75682fbfa1ef7f9098208905089897f4ce4f0699adf8172f73b8cd2407d7db698a2625bf837b95a35abbf4eddcbd7dd098a8b8a7f1a0f8b3e444c78fcc67ce285e743094a787745b2761df2203979fc08d3ab3a9909820890508a8b897f40a3f19fa4064fd9c119dd0acaea02ea3ae33a5df8b181867ff6b705f159e4af09820890508a8b887f051d14de8bbf745f9f8a20682c4104c48a0198e8f604ae06b45de4051d90065c09820890508a8b877f294ce128d90968ca910a8cc18c9ab58d41a0a91df79bed878952aa88f7433a8009820890508a8a7f637e4ac13df1eefbc7ee982d5a044b89a20d383b17fa5a23bfe25a7915d8885f098b8c8b7f35151e81622f69dec5eedf76619630dc42997eeaf162fdda7644ce726da53c3b09820890508b8c8a7f707fbbeb0bf2b5aa6ed7573b46506eff64c69ce781aa7fa616e3d53390922a1e09820890508b8c897f5e876f8493c339c36750caa31382bea4a90d6928976a3f996a30a3f1af778f6309820890508b8c887f121909e9d5554a3b3d207272ad07359bb49136e23fe6f0d1c62c3bf940ca5bcd0982089050849a5083995082985081975080965050505050507f323f85cbba64efc38ccc35c5fa9d673fef3ff652da7f2f93e176a40de61e1e70860195507f1a3fac3af20c37aed0e41f6fa6f1a488401f16c61fc3a4e86cda951a0e3795e3850194507f1d927c14cd47e25613656bc80171954894d2e882e35a4dc804cbc0803d47a814840193507f22f1a2a2ade490e188fea20d062700568123e4b54290ab6a695584f3ec971eab830192507f2c04db231c81645f30937dc5546efb30690acea9ef5769ce42000f486f893a4582019150858781820996508787880996508781880996505086867f5edc4de43ff07c60ace8f91ac726180f38604b5bb2f2ab2c27aa2a4d53cf7081098788877f21c0f632624d48a11931e2bcb8695897e5cb1d7cec432d115df1b25ea0d9d4a309820890508788867f4243ff5f4a234a2256286afa4ec59b4c9c32439c0869f1aa0b92a5ab82ee1b3809820890508788857f7344ba891ca71591e07e7e6aa563931b9d07b548c816668af7f6170e5c8cd07309820890508788847f20c42fc15a32ed98b81609d1e9de98f255e4b46414af1dad036bfe255d3d2f19098208905087877f68186626fb0239ce09c22fe4ec756ab3dede54596e3cc426ac7ec1f5c38881f2098889887f1cdfe1f1de4a7290ab39316b544da5e6576d4d1c05eaf0719c3c60867fab037209820890508889877f1992e57fe5537033e0b3711c4aba9a6630fdf87a5962a442e926718e92f7e57309820890508889867f5033856a6fe61acbb5a95e6f8e1d6e5aca6e1d2125d0c03d864e8fecdb3ccd4a09820890508889857f09e7c08b5c3289751cf3e30a7ab45c59aaca49585c3f08fb39a67bc9466cceb2098208905088887f73ac6ff5f192940a6a3198b94a158121172678891e35c8895c6a20f4164f7c9309898a897f03ac6b5eccedc5da43ff372db13fa55ac197bb9592e15d4feb74ee152e90e9520982089050898a887f1574427d32abdcde8a24db9e42219c68f84d89f342f0eb455309c7937054f8420982089050898a877f21fcae8d9f8f62a956217b8fd134560fc2654527ee9e5359beefb95b2c59288d0982089050898a867f06ca0c88a61632956a1d3e91999c842f03b6e7f121df734ce75682fbfa1ef7f9098208905089897f4ce4f0699adf8172f73b8cd2407d7db698a2625bf837b95a35abbf4eddcbd7dd098a8b8a7f1a0f8b3e444c78fcc67ce285e743094a787745b2761df2203979fc08d3ab3a9909820890508a8b897f40a3f19fa4064fd9c119dd0acaea02ea3ae33a5df8b181867ff6b705f159e4af09820890508a8b887f051d14de8bbf745f9f8a20682c4104c48a0198e8f604ae06b45de4051d90065c09820890508a8b877f294ce128d90968ca910a8cc18c9ab58d41a0a91df79bed878952aa88f7433a8009820890508a8a7f637e4ac13df1eefbc7ee982d5a044b89a20d383b17fa5a23bfe25a7915d8885f098b8c8b7f35151e81622f69dec5eedf76619630dc42997eeaf162fdda7644ce726da53c3b09820890508b8c8a7f707fbbeb0bf2b5aa6ed7573b46506eff64c69ce781aa7fa616e3d53390922a1e09820890508b8c897f5e876f8493c339c36750caa31382bea4a90d6928976a3f996a30a3f1af778f6309820890508b8c887f121909e9d5554a3b3d207272ad07359bb49136e23fe6f0d1c62c3bf940ca5bcd0982089050849a5083995082985081975080965050505050507f21385b6f914a8c6f421629278dfa84f2ccdcf621b05013247341438237ad3fc1860195507f2f00090ff1cb76eaf3b6cf23718ae736af07c34cac823388e0234420247e3160850194507f455e8b0828f3667021a434761d5b6a5fb2e90635a6b038e4315f8a30dda4af00840193507f028b320c702e077887d5556c7c879c7d54c6c681497a1d4fa5f2045fc553211f830192507f2502f751749978112c96e7321ff1c0b76b3ff74190dadba0b67eac15462079f482019150858781820996508787880996508781880996505086867f5edc4de43ff07c60ace8f91ac726180f38604b5bb2f2ab2c27aa2a4d53cf7081098788877f21c0f632624d48a11931e2bcb8695897e5cb1d7cec432d115df1b25ea0d9d4a309820890508788867f4243ff5f4a234a2256286afa4ec59b4c9c32439c0869f1aa0b92a5ab82ee1b3809820890508788857f7344ba891ca71591e07e7e6aa563931b9d07b548c816668af7f6170e5c8cd07309820890508788847f20c42fc15a32ed98b81609d1e9de98f255e4b46414af1dad036bfe255d3d2f19098208905087877f68186626fb0239ce09c22fe4ec756ab3dede54596e3cc426ac7ec1f5c38881f2098889887f1cdfe1f1de4a7290ab39316b544da5e6576d4d1c05eaf0719c3c60867fab037209820890508889877f1992e57fe5537033e0b3711c4aba9a6630fdf87a5962a442e926718e92f7e57309820890508889867f5033856a6fe61acbb5a95e6f8e1d6e5aca6e1d2125d0c03d864e8fecdb3ccd4a09820890508889857f09e7c08b5c3289751cf3e30a7ab45c59aaca49585c3f08fb39a67bc9466cceb2098208905088887f73ac6ff5f192940a6a3198b94a158121172678891e35c8895c6a20f4164f7c9309898a897f03ac6b5eccedc5da43ff372db13fa55ac197bb9592e15d4feb74ee152e90e9520982089050898a887f1574427d32abdcde8a24db9e42219c68f84d89f342f0eb455309c7937054f8420982089050898a877f21fcae8d9f8f62a956217b8fd134560fc2654527ee9e5359beefb95b2c59288d0982089050898a867f06ca0c88a61632956a1d3e91999c842f03b6e7f121df734ce75682fbfa1ef7f9098208905089897f4ce4f0699adf8172f73b8cd2407d7db698a2625bf837b95a35abbf4eddcbd7dd098a8b8a7f1a0f8b3e444c78fcc67ce285e743094a787745b2761df2203979fc08d3ab3a9909820890508a8b897f40a3f19fa4064fd9c119dd0acaea02ea3ae33a5df8b181867ff6b705f159e4af09820890508a8b887f051d14de8bbf745f9f8a20682c4104c48a0198e8f604ae06b45de4051d90065c09820890508a8b877f294ce128d90968ca910a8cc18c9ab58d41a0a91df79bed878952aa88f7433a8009820890508a8a7f637e4ac13df1eefbc7ee982d5a044b89a20d383b17fa5a23bfe25a7915d8885f098b8c8b7f35151e81622f69dec5eedf76619630dc42997eeaf162fdda7644ce726da53c3b09820890508b8c8a7f707fbbeb0bf2b5aa6ed7573b46506eff64c69ce781aa7fa616e3d53390922a1e09820890508b8c897f5e876f8493c339c36750caa31382bea4a90d6928976a3f996a30a3f1af778f6309820890508b8c887f121909e9d5554a3b3d207272ad07359bb49136e23fe6f0d1c62c3bf940ca5bcd0982089050849a5083995082985081975080965050505050507f0a02577f723a21ced13408ed76b38ad8bbdfcc8132bb6dfbbbea8ece52e0e810860195507f55d052b889557f2fc0e61e83b82261a759b75cfbec4c6f97b1104301163753b7850194507f450a0821b86175e4877ccb7e8b1918bbe3e88819bc9ed36ce30cca14b8eeb911840193507f4a399ec4758d73d11ab365f26081aea3a61d156ec6f0185a18702e8ee1631f18830192507f1305a1f607f37901c0a88b2b7f23672efec118296f4550a058f4f94c25b6609282019150858781820996508787880996508781880996505086867f5edc4de43ff07c60ace8f91ac726180f38604b5bb2f2ab2c27aa2a4d53cf7081098788877f21c0f632624d48a11931e2bcb8695897e5cb1d7cec432d115df1b25ea0d9d4a309820890508788867f4243ff5f4a234a2256286afa4ec59b4c9c32439c0869f1aa0b92a5ab82ee1b3809820890508788857f7344ba891ca71591e07e7e6aa563931b9d07b548c816668af7f6170e5c8cd07309820890508788847f20c42fc15a32ed98b81609d1e9de98f255e4b46414af1dad036bfe255d3d2f19098208905087877f68186626fb0239ce09c22fe4ec756ab3dede54596e3cc426ac7ec1f5c38881f2098889887f1cdfe1f1de4a7290ab39316b544da5e6576d4d1c05eaf0719c3c60867fab037209820890508889877f1992e57fe5537033e0b3711c4aba9a6630fdf87a5962a442e926718e92f7e57309820890508889867f5033856a6fe61acbb5a95e6f8e1d6e5aca6e1d2125d0c03d864e8fecdb3ccd4a09820890508889857f09e7c08b5c3289751cf3e30a7ab45c59aaca49585c3f08fb39a67bc9466cceb2098208905088887f73ac6ff5f192940a6a3198b94a158121172678891e35c8895c6a20f4164f7c9309898a897f03ac6b5eccedc5da43ff372db13fa55ac197bb9592e15d4feb74ee152e90e9520982089050898a887f1574427d32abdcde8a24db9e42219c68f84d89f342f0eb455309c7937054f8420982089050898a877f21fcae8d9f8f62a956217b8fd134560fc2654527ee9e5359beefb95b2c59288d0982089050898a867f06ca0c88a61632956a1d3e91999c842f03b6e7f121df734ce75682fbfa1ef7f9098208905089897f4ce4f0699adf8172f73b8cd2407d7db698a2625bf837b95a35abbf4eddcbd7dd098a8b8a7f1a0f8b3e444c78fcc67ce285e743094a787745b2761df2203979fc08d3ab3a9909820890508a8b897f40a3f19fa4064fd9c119dd0acaea02ea3ae33a5df8b181867ff6b705f159e4af09820890508a8b887f051d14de8bbf745f9f8a20682c4104c48a0198e8f604ae06b45de4051d90065c09820890508a8b877f294ce128d90968ca910a8cc18c9ab58d41a0a91df79bed878952aa88f7433a8009820890508a8a7f637e4ac13df1eefbc7ee982d5a044b89a20d383b17fa5a23bfe25a7915d8885f098b8c8b7f35151e81622f69dec5eedf76619630dc42997eeaf162fdda7644ce726da53c3b09820890508b8c8a7f707fbbeb0bf2b5aa6ed7573b46506eff64c69ce781aa7fa616e3d53390922a1e09820890508b8c897f5e876f8493c339c36750caa31382bea4a90d6928976a3f996a30a3f1af778f6309820890508b8c887f121909e9d5554a3b3d207272ad07359bb49136e23fe6f0d1c62c3bf940ca5bcd0982089050849a5083995082985081975080965050505050507f08e98ff1f10c0092b41a881d5663d8d85b081830f3f5bc904dc9b2a88969344d860195507f1a986478818b795d1a509aff8d2ac2588342e320b77c1ebda86c5be7b0389487850194507f3a68e478946a5cfc6c3a21c7416ad4afa64f7130ddf8986935942d6835665edd840193507f115b2ef9469d91408b6e1d46e671d335aabac9d8882cdf17d1afb385b1051e3e830192507f0b7fe376d67252e90d9f06b43947fca03a50072c24d8598b7248fbc8b0d64e9e82019150858781820996508787880996508781880996505086867f5edc4de43ff07c60ace8f91ac726180f38604b5bb2f2ab2c27aa2a4d53cf7081098788877f21c0f632624d48a11931e2bcb8695897e5cb1d7cec432d115df1b25ea0d9d4a309820890508788867f4243ff5f4a234a2256286afa4ec59b4c9c32439c0869f1aa0b92a5ab82ee1b3809820890508788857f7344ba891ca71591e07e7e6aa563931b9d07b548c816668af7f6170e5c8cd07309820890508788847f20c42fc15a32ed98b81609d1e9de98f255e4b46414af1dad036bfe255d3d2f19098208905087877f68186626fb0239ce09c22fe4ec756ab3dede54596e3cc426ac7ec1f5c38881f2098889887f1cdfe1f1de4a7290ab39316b544da5e6576d4d1c05eaf0719c3c60867fab037209820890508889877f1992e57fe5537033e0b3711c4aba9a6630fdf87a5962a442e926718e92f7e57309820890508889867f5033856a6fe61acbb5a95e6f8e1d6e5aca6e1d2125d0c03d864e8fecdb3ccd4a09820890508889857f09e7c08b5c3289751cf3e30a7ab45c59aaca49585c3f08fb39a67bc9466cceb2098208905088887f73ac6ff5f192940a6a3198b94a158121172678891e35c8895c6a20f4164f7c9309898a897f03ac6b5eccedc5da43ff372db13fa55ac197bb9592e15d4feb74ee152e90e9520982089050898a887f1574427d32abdcde8a24db9e42219c68f84d89f342f0eb455309c7937054f8420982089050898a877f21fcae8d9f8f62a956217b8fd134560fc2654527ee9e5359beefb95b2c59288d0982089050898a867f06ca0c88a61632956a1d3e91999c842f03b6e7f121df734ce75682fbfa1ef7f9098208905089897f4ce4f0699adf8172f73b8cd2407d7db698a2625bf837b95a35abbf4eddcbd7dd098a8b8a7f1a0f8b3e444c78fcc67ce285e743094a787745b2761df2203979fc08d3ab3a9909820890508a8b897f40a3f19fa4064fd9c119dd0acaea02ea3ae33a5df8b181867ff6b705f159e4af09820890508a8b887f051d14de8bbf745f9f8a20682c4104c48a0198e8f604ae06b45de4051d90065c09820890508a8b877f294ce128d90968ca910a8cc18c9ab58d41a0a91df79bed878952aa88f7433a8009820890508a8a7f637e4ac13df1eefbc7ee982d5a044b89a20d383b17fa5a23bfe25a7915d8885f098b8c8b7f35151e81622f69dec5eedf76619630dc42997eeaf162fdda7644ce726da53c3b09820890508b8c8a7f707fbbeb0bf2b5aa6ed7573b46506eff64c69ce781aa7fa616e3d53390922a1e09820890508b8c897f5e876f8493c339c36750caa31382bea4a90d6928976a3f996a30a3f1af778f6309820890508b8c887f121909e9d5554a3b3d207272ad07359bb49136e23fe6f0d1c62c3bf940ca5bcd0982089050849a5083995082985081975080965050505050507f621fba0544792a4910a92402dc5c56630bbdc50cad3edc99ee6e5466b7295042860195507f47ea2bb0150f7e51992433be07d695f5ee93a948cdee6fe573b5ddd9702ac19f850194507f3333d094869d1f23f0ae3787ad1c105122e8338b51b7a970260ea700d409d55e840193507f36291942b0c4d1329fa0db7230b3ef9be3e8e4b1b51897631bed81ef4d405327830192507f548bdc2c8e44774efaa30d0df03cd307b25ef86fe73bfd7de1c16116afa8d43282019150858781820996508787880996508781880996505086867f5edc4de43ff07c60ace8f91ac726180f38604b5bb2f2ab2c27aa2a4d53cf7081098788877f21c0f632624d48a11931e2bcb8695897e5cb1d7cec432d115df1b25ea0d9d4a309820890508788867f4243ff5f4a234a2256286afa4ec59b4c9c32439c0869f1aa0b92a5ab82ee1b3809820890508788857f7344ba891ca71591e07e7e6aa563931b9d07b548c816668af7f6170e5c8cd07309820890508788847f20c42fc15a32ed98b81609d1e9de98f255e4b46414af1dad036bfe255d3d2f19098208905087877f68186626fb0239ce09c22fe4ec756ab3dede54596e3cc426ac7ec1f5c38881f2098889887f1cdfe1f1de4a7290ab39316b544da5e6576d4d1c05eaf0719c3c60867fab037209820890508889877f1992e57fe5537033e0b3711c4aba9a6630fdf87a5962a442e926718e92f7e57309820890508889867f5033856a6fe61acbb5a95e6f8e1d6e5aca6e1d2125d0c03d864e8fecdb3ccd4a09820890508889857f09e7c08b5c3289751cf3e30a7ab45c59aaca49585c3f08fb39a67bc9466cceb2098208905088887f73ac6ff5f192940a6a3198b94a158121172678891e35c8895c6a20f4164f7c9309898a897f03ac6b5eccedc5da43ff372db13fa55ac197bb9592e15d4feb74ee152e90e9520982089050898a887f1574427d32abdcde8a24db9e42219c68f84d89f342f0eb455309c7937054f8420982089050898a877f21fcae8d9f8f62a956217b8fd134560fc2654527ee9e5359beefb95b2c59288d0982089050898a867f06ca0c88a61632956a1d3e91999c842f03b6e7f121df734ce75682fbfa1ef7f9098208905089897f4ce4f0699adf8172f73b8cd2407d7db698a2625bf837b95a35abbf4eddcbd7dd098a8b8a7f1a0f8b3e444c78fcc67ce285e743094a787745b2761df2203979fc08d3ab3a9909820890508a8b897f40a3f19fa4064fd9c119dd0acaea02ea3ae33a5df8b181867ff6b705f159e4af09820890508a8b887f051d14de8bbf745f9f8a20682c4104c48a0198e8f604ae06b45de4051d90065c09820890508a8b877f294ce128d90968ca910a8cc18c9ab58d41a0a91df79bed878952aa88f7433a8009820890508a8a7f637e4ac13df1eefbc7ee982d5a044b89a20d383b17fa5a23bfe25a7915d8885f098b8c8b7f35151e81622f69dec5eedf76619630dc42997eeaf162fdda7644ce726da53c3b09820890508b8c8a7f707fbbeb0bf2b5aa6ed7573b46506eff64c69ce781aa7fa616e3d53390922a1e09820890508b8c897f5e876f8493c339c36750caa31382bea4a90d6928976a3f996a30a3f1af778f6309820890508b8c887f121909e9d5554a3b3d207272ad07359bb49136e23fe6f0d1c62c3bf940ca5bcd0982089050849a5083995082985081975080965050505050507f2ff0b6bb42027bb7b5eff8a312df92db0928c4fd5f47b6cdd87a13c5983b50b5860195507f4765640bd361f949a2ba640706c1f1436dc29d769c57a31b027bd6dd4c1c799b850194507f311b329ed3aafeae007cabd2bd3cf506698ea4248dc684145e0d2a2fd789a8b8840193507f18cf391449564ad053c4af0b0734e6c1f1de59d415ede6c4ded5a29e64420565830192507f030053d7aa258bd41e80bc261fbea820091418b2fe5121ce24e12c1ad57cfe1282019150858781820996508787880996508781880996505086867f5edc4de43ff07c60ace8f91ac726180f38604b5bb2f2ab2c27aa2a4d53cf7081098788877f21c0f632624d48a11931e2bcb8695897e5cb1d7cec432d115df1b25ea0d9d4a309820890508788867f4243ff5f4a234a2256286afa4ec59b4c9c32439c0869f1aa0b92a5ab82ee1b3809820890508788857f7344ba891ca71591e07e7e6aa563931b9d07b548c816668af7f6170e5c8cd07309820890508788847f20c42fc15a32ed98b81609d1e9de98f255e4b46414af1dad036bfe255d3d2f19098208905087877f68186626fb0239ce09c22fe4ec756ab3dede54596e3cc426ac7ec1f5c38881f2098889887f1cdfe1f1de4a7290ab39316b544da5e6576d4d1c05eaf0719c3c60867fab037209820890508889877f1992e57fe5537033e0b3711c4aba9a6630fdf87a5962a442e926718e92f7e57309820890508889867f5033856a6fe61acbb5a95e6f8e1d6e5aca6e1d2125d0c03d864e8fecdb3ccd4a09820890508889857f09e7c08b5c3289751cf3e30a7ab45c59aaca49585c3f08fb39a67bc9466cceb2098208905088887f73ac6ff5f192940a6a3198b94a158121172678891e35c8895c6a20f4164f7c9309898a897f03ac6b5eccedc5da43ff372db13fa55ac197bb9592e15d4feb74ee152e90e9520982089050898a887f1574427d32abdcde8a24db9e42219c68f84d89f342f0eb455309c7937054f8420982089050898a877f21fcae8d9f8f62a956217b8fd134560fc2654527ee9e5359beefb95b2c59288d0982089050898a867f06ca0c88a61632956a1d3e91999c842f03b6e7f121df734ce75682fbfa1ef7f9098208905089897f4ce4f0699adf8172f73b8cd2407d7db698a2625bf837b95a35abbf4eddcbd7dd098a8b8a7f1a0f8b3e444c78fcc67ce285e743094a787745b2761df2203979fc08d3ab3a9909820890508a8b897f40a3f19fa4064fd9c119dd0acaea02ea3ae33a5df8b181867ff6b705f159e4af09820890508a8b887f051d14de8bbf745f9f8a20682c4104c48a0198e8f604ae06b45de4051d90065c09820890508a8b877f294ce128d90968ca910a8cc18c9ab58d41a0a91df79bed878952aa88f7433a8009820890508a8a7f637e4ac13df1eefbc7ee982d5a044b89a20d383b17fa5a23bfe25a7915d8885f098b8c8b7f35151e81622f69dec5eedf76619630dc42997eeaf162fdda7644ce726da53c3b09820890508b8c8a7f707fbbeb0bf2b5aa6ed7573b46506eff64c69ce781aa7fa616e3d53390922a1e09820890508b8c897f5e876f8493c339c36750caa31382bea4a90d6928976a3f996a30a3f1af778f6309820890508b8c887f121909e9d5554a3b3d207272ad07359bb49136e23fe6f0d1c62c3bf940ca5bcd0982089050849a5083995082985081975080965050505050507f347d2cc8b97eca81ed23167c5c2f6cb214972cc54cb86f93e5e49b52ab79ef81860195507f73e40cea4c8924cc70d7555087c7384af177bf4ba4fcd4d923c3bd78072bf437850194507f5d26bfff868d80acb7185d70543557aca3886e17dc537ca7997b834939f34525840193507f41ebe1430659e09fcb9a8ae6be869b51bb1261dfda863efc4ccb60ab9d2d3dea830192507f32f72f5fabe91e618ef627a08e9d8667a9180a22c10aa859d70b80239bfc8cc682019150858781820996508787880996508781880996505086867f5edc4de43ff07c60ace8f91ac726180f38604b5bb2f2ab2c27aa2a4d53cf7081098788877f21c0f632624d48a11931e2bcb8695897e5cb1d7cec432d115df1b25ea0d9d4a309820890508788867f4243ff5f4a234a2256286afa4ec59b4c9c32439c0869f1aa0b92a5ab82ee1b3809820890508788857f7344ba891ca71591e07e7e6aa563931b9d07b548c816668af7f6170e5c8cd07309820890508788847f20c42fc15a32ed98b81609d1e9de98f255e4b46414af1dad036bfe255d3d2f19098208905087877f68186626fb0239ce09c22fe4ec756ab3dede54596e3cc426ac7ec1f5c38881f2098889887f1cdfe1f1de4a7290ab39316b544da5e6576d4d1c05eaf0719c3c60867fab037209820890508889877f1992e57fe5537033e0b3711c4aba9a6630fdf87a5962a442e926718e92f7e57309820890508889867f5033856a6fe61acbb5a95e6f8e1d6e5aca6e1d2125d0c03d864e8fecdb3ccd4a09820890508889857f09e7c08b5c3289751cf3e30a7ab45c59aaca49585c3f08fb39a67bc9466cceb2098208905088887f73ac6ff5f192940a6a3198b94a158121172678891e35c8895c6a20f4164f7c9309898a897f03ac6b5eccedc5da43ff372db13fa55ac197bb9592e15d4feb74ee152e90e9520982089050898a887f1574427d32abdcde8a24db9e42219c68f84d89f342f0eb455309c7937054f8420982089050898a877f21fcae8d9f8f62a956217b8fd134560fc2654527ee9e5359beefb95b2c59288d0982089050898a867f06ca0c88a61632956a1d3e91999c842f03b6e7f121df734ce75682fbfa1ef7f9098208905089897f4ce4f0699adf8172f73b8cd2407d7db698a2625bf837b95a35abbf4eddcbd7dd098a8b8a7f1a0f8b3e444c78fcc67ce285e743094a787745b2761df2203979fc08d3ab3a9909820890508a8b897f40a3f19fa4064fd9c119dd0acaea02ea3ae33a5df8b181867ff6b705f159e4af09820890508a8b887f051d14de8bbf745f9f8a20682c4104c48a0198e8f604ae06b45de4051d90065c09820890508a8b877f294ce128d90968ca910a8cc18c9ab58d41a0a91df79bed878952aa88f7433a8009820890508a8a7f637e4ac13df1eefbc7ee982d5a044b89a20d383b17fa5a23bfe25a7915d8885f098b8c8b7f35151e81622f69dec5eedf76619630dc42997eeaf162fdda7644ce726da53c3b09820890508b8c8a7f707fbbeb0bf2b5aa6ed7573b46506eff64c69ce781aa7fa616e3d53390922a1e09820890508b8c897f5e876f8493c339c36750caa31382bea4a90d6928976a3f996a30a3f1af778f6309820890508b8c887f121909e9d5554a3b3d207272ad07359bb49136e23fe6f0d1c62c3bf940ca5bcd0982089050849a5083995082985081975080965050505050507f0ffdf50ad0cb49c17906f3cc43ee935b6a82cd5ac4574beb8d9df72eab4e806c860195507f61374dc1b440ea38ca2bc3c49d6060f4f0e32ba7669040e30388caf2ab833e11850194507f27ec5217fa23b99f059a21d5ef05e9e477bd68025545246edce72bd7d70acb4b840193507f6a91bd2230a5d48e7496d52dc84436e077f89f44bd08d883e74257df856440ce830192507f4988f6b46cff4106095f3a8b6e07fc1a50f8f419b0778645b564e69638fb7e3482019150858781820996508787880996508781880996505086867f5edc4de43ff07c60ace8f91ac726180f38604b5bb2f2ab2c27aa2a4d53cf7081098788877f21c0f632624d48a11931e2bcb8695897e5cb1d7cec432d115df1b25ea0d9d4a309820890508788867f4243ff5f4a234a2256286afa4ec59b4c9c32439c0869f1aa0b92a5ab82ee1b3809820890508788857f7344ba891ca71591e07e7e6aa563931b9d07b548c816668af7f6170e5c8cd07309820890508788847f20c42fc15a32ed98b81609d1e9de98f255e4b46414af1dad036bfe255d3d2f19098208905087877f68186626fb0239ce09c22fe4ec756ab3dede54596e3cc426ac7ec1f5c38881f2098889887f1cdfe1f1de4a7290ab39316b544da5e6576d4d1c05eaf0719c3c60867fab037209820890508889877f1992e57fe5537033e0b3711c4aba9a6630fdf87a5962a442e926718e92f7e57309820890508889867f5033856a6fe61acbb5a95e6f8e1d6e5aca6e1d2125d0c03d864e8fecdb3ccd4a09820890508889857f09e7c08b5c3289751cf3e30a7ab45c59aaca49585c3f08fb39a67bc9466cceb2098208905088887f73ac6ff5f192940a6a3198b94a158121172678891e35c8895c6a20f4164f7c9309898a897f03ac6b5eccedc5da43ff372db13fa55ac197bb9592e15d4feb74ee152e90e9520982089050898a887f1574427d32abdcde8a24db9e42219c68f84d89f342f0eb455309c7937054f8420982089050898a877f21fcae8d9f8f62a956217b8fd134560fc2654527ee9e5359beefb95b2c59288d0982089050898a867f06ca0c88a61632956a1d3e91999c842f03b6e7f121df734ce75682fbfa1ef7f9098208905089897f4ce4f0699adf8172f73b8cd2407d7db698a2625bf837b95a35abbf4eddcbd7dd098a8b8a7f1a0f8b3e444c78fcc67ce285e743094a787745b2761df2203979fc08d3ab3a9909820890508a8b897f40a3f19fa4064fd9c119dd0acaea02ea3ae33a5df8b181867ff6b705f159e4af09820890508a8b887f051d14de8bbf745f9f8a20682c4104c48a0198e8f604ae06b45de4051d90065c09820890508a8b877f294ce128d90968ca910a8cc18c9ab58d41a0a91df79bed878952aa88f7433a8009820890508a8a7f637e4ac13df1eefbc7ee982d5a044b89a20d383b17fa5a23bfe25a7915d8885f098b8c8b7f35151e81622f69dec5eedf76619630dc42997eeaf162fdda7644ce726da53c3b09820890508b8c8a7f707fbbeb0bf2b5aa6ed7573b46506eff64c69ce781aa7fa616e3d53390922a1e09820890508b8c897f5e876f8493c339c36750caa31382bea4a90d6928976a3f996a30a3f1af778f6309820890508b8c887f121909e9d5554a3b3d207272ad07359bb49136e23fe6f0d1c62c3bf940ca5bcd0982089050849a5083995082985081975080965050505050507f5255dfc95d1c0ca86a7ed39bbe02112cf62e4ee518b40901768e0ea5a2c30bcf860195507f35491d836b717f64d348e449d958bada0f89479479c18787c9046c846261de24850194507f5f28561407a056594276543ccfbfedb72892cadd7eb63c4fe00d3120372e1922840193507f397ccc5ef29caa6de873609650e9bea17ac048e52e4f8c86cbfdbbdc9f5eea9a830192507f6431baeb99d486abd0c30bd23eedbb7aaf863dfe32cdc6ea6a29a62a49ec5fa282019150858781820996508787880996508781880996505086867f5edc4de43ff07c60ace8f91ac726180f38604b5bb2f2ab2c27aa2a4d53cf7081098788877f21c0f632624d48a11931e2bcb8695897e5cb1d7cec432d115df1b25ea0d9d4a309820890508788867f4243ff5f4a234a2256286afa4ec59b4c9c32439c0869f1aa0b92a5ab82ee1b3809820890508788857f7344ba891ca71591e07e7e6aa563931b9d07b548c816668af7f6170e5c8cd07309820890508788847f20c42fc15a32ed98b81609d1e9de98f255e4b46414af1dad036bfe255d3d2f19098208905087877f68186626fb0239ce09c22fe4ec756ab3dede54596e3cc426ac7ec1f5c38881f2098889887f1cdfe1f1de4a7290ab39316b544da5e6576d4d1c05eaf0719c3c60867fab037209820890508889877f1992e57fe5537033e0b3711c4aba9a6630fdf87a5962a442e926718e92f7e57309820890508889867f5033856a6fe61acbb5a95e6f8e1d6e5aca6e1d2125d0c03d864e8fecdb3ccd4a09820890508889857f09e7c08b5c3289751cf3e30a7ab45c59aaca49585c3f08fb39a67bc9466cceb2098208905088887f73ac6ff5f192940a6a3198b94a158121172678891e35c8895c6a20f4164f7c9309898a897f03ac6b5eccedc5da43ff372db13fa55ac197bb9592e15d4feb74ee152e90e9520982089050898a887f1574427d32abdcde8a24db9e42219c68f84d89f342f0eb455309c7937054f8420982089050898a877f21fcae8d9f8f62a956217b8fd134560fc2654527ee9e5359beefb95b2c59288d0982089050898a867f06ca0c88a61632956a1d3e91999c842f03b6e7f121df734ce75682fbfa1ef7f9098208905089897f4ce4f0699adf8172f73b8cd2407d7db698a2625bf837b95a35abbf4eddcbd7dd098a8b8a7f1a0f8b3e444c78fcc67ce285e743094a787745b2761df2203979fc08d3ab3a9909820890508a8b897f40a3f19fa4064fd9c119dd0acaea02ea3ae33a5df8b181867ff6b705f159e4af09820890508a8b887f051d14de8bbf745f9f8a20682c4104c48a0198e8f604ae06b45de4051d90065c09820890508a8b877f294ce128d90968ca910a8cc18c9ab58d41a0a91df79bed878952aa88f7433a8009820890508a8a7f637e4ac13df1eefbc7ee982d5a044b89a20d383b17fa5a23bfe25a7915d8885f098b8c8b7f35151e81622f69dec5eedf76619630dc42997eeaf162fdda7644ce726da53c3b09820890508b8c8a7f707fbbeb0bf2b5aa6ed7573b46506eff64c69ce781aa7fa616e3d53390922a1e09820890508b8c897f5e876f8493c339c36750caa31382bea4a90d6928976a3f996a30a3f1af778f6309820890508b8c887f121909e9d5554a3b3d207272ad07359bb49136e23fe6f0d1c62c3bf940ca5bcd0982089050849a5083995082985081975080965050505050507f09afe5011abd7c99753eec059463d6cd5c91dd494afe903b1ddbd0fa74cd1753860195507f28f1cec0ec97fe7aa7d4642897e1c51ce50fe46b5f28650bc41e523b370033d5850194507f0cb26f0ca4624dddbdf19003dae43f28d0e2b75e2df657d9acea9140d860e51a840193507f373bf8d7205b2684fbf374dc8d8535d7f278815f7cfd857f6ee064e8c96c3454830192507f42927ab0937f41bce0d6f843b523605c78e4d283bad74f846fbe8b8d7abf1ef582019150858781820996508787880996508781880996505086867f5edc4de43ff07c60ace8f91ac726180f38604b5bb2f2ab2c27aa2a4d53cf7081098788877f21c0f632624d48a11931e2bcb8695897e5cb1d7cec432d115df1b25ea0d9d4a309820890508788867f4243ff5f4a234a2256286afa4ec59b4c9c32439c0869f1aa0b92a5ab82ee1b3809820890508788857f7344ba891ca71591e07e7e6aa563931b9d07b548c816668af7f6170e5c8cd07309820890508788847f20c42fc15a32ed98b81609d1e9de98f255e4b46414af1dad036bfe255d3d2f19098208905087877f68186626fb0239ce09c22fe4ec756ab3dede54596e3cc426ac7ec1f5c38881f2098889887f1cdfe1f1de4a7290ab39316b544da5e6576d4d1c05eaf0719c3c60867fab037209820890508889877f1992e57fe5537033e0b3711c4aba9a6630fdf87a5962a442e926718e92f7e57309820890508889867f5033856a6fe61acbb5a95e6f8e1d6e5aca6e1d2125d0c03d864e8fecdb3ccd4a09820890508889857f09e7c08b5c3289751cf3e30a7ab45c59aaca49585c3f08fb39a67bc9466cceb2098208905088887f73ac6ff5f192940a6a3198b94a158121172678891e35c8895c6a20f4164f7c9309898a897f03ac6b5eccedc5da43ff372db13fa55ac197bb9592e15d4feb74ee152e90e9520982089050898a887f1574427d32abdcde8a24db9e42219c68f84d89f342f0eb455309c7937054f8420982089050898a877f21fcae8d9f8f62a956217b8fd134560fc2654527ee9e5359beefb95b2c59288d0982089050898a867f06ca0c88a61632956a1d3e91999c842f03b6e7f121df734ce75682fbfa1ef7f9098208905089897f4ce4f0699adf8172f73b8cd2407d7db698a2625bf837b95a35abbf4eddcbd7dd098a8b8a7f1a0f8b3e444c78fcc67ce285e743094a787745b2761df2203979fc08d3ab3a9909820890508a8b897f40a3f19fa4064fd9c119dd0acaea02ea3ae33a5df8b181867ff6b705f159e4af09820890508a8b887f051d14de8bbf745f9f8a20682c4104c48a0198e8f604ae06b45de4051d90065c09820890508a8b877f294ce128d90968ca910a8cc18c9ab58d41a0a91df79bed878952aa88f7433a8009820890508a8a7f637e4ac13df1eefbc7ee982d5a044b89a20d383b17fa5a23bfe25a7915d8885f098b8c8b7f35151e81622f69dec5eedf76619630dc42997eeaf162fdda7644ce726da53c3b09820890508b8c8a7f707fbbeb0bf2b5aa6ed7573b46506eff64c69ce781aa7fa616e3d53390922a1e09820890508b8c897f5e876f8493c339c36750caa31382bea4a90d6928976a3f996a30a3f1af778f6309820890508b8c887f121909e9d5554a3b3d207272ad07359bb49136e23fe6f0d1c62c3bf940ca5bcd0982089050849a5083995082985081975080965050505050507f5ee3c0e954d211a4bdd47823cfdb7bca087c95b7a4d250200a9754d316f59aff860195507f678615cf67212c3a2993577659d4263655b9dd58708ccfa20afe9083b6ecb662850194507f3c54727f944cca495d23c1777e7536c6321f871326092e6beb94d87444157ddc840193507f53c65020af3f5abda95860ad9383f77f10d5a8e7dc1975b74346db78de0b49eb830192507f5f5dd3df34ccc64f794d16acbc63bed0c4ce2cd38089e11dc95c9871c2a7ae3182019150858781820996508787880996508781880996505086867f5edc4de43ff07c60ace8f91ac726180f38604b5bb2f2ab2c27aa2a4d53cf7081098788877f21c0f632624d48a11931e2bcb8695897e5cb1d7cec432d115df1b25ea0d9d4a309820890508788867f4243ff5f4a234a2256286afa4ec59b4c9c32439c0869f1aa0b92a5ab82ee1b3809820890508788857f7344ba891ca71591e07e7e6aa563931b9d07b548c816668af7f6170e5c8cd07309820890508788847f20c42fc15a32ed98b81609d1e9de98f255e4b46414af1dad036bfe255d3d2f19098208905087877f68186626fb0239ce09c22fe4ec756ab3dede54596e3cc426ac7ec1f5c38881f2098889887f1cdfe1f1de4a7290ab39316b544da5e6576d4d1c05eaf0719c3c60867fab037209820890508889877f1992e57fe5537033e0b3711c4aba9a6630fdf87a5962a442e926718e92f7e57309820890508889867f5033856a6fe61acbb5a95e6f8e1d6e5aca6e1d2125d0c03d864e8fecdb3ccd4a09820890508889857f09e7c08b5c3289751cf3e30a7ab45c59aaca49585c3f08fb39a67bc9466cceb2098208905088887f73ac6ff5f192940a6a3198b94a158121172678891e35c8895c6a20f4164f7c9309898a897f03ac6b5eccedc5da43ff372db13fa55ac197bb9592e15d4feb74ee152e90e9520982089050898a887f1574427d32abdcde8a24db9e42219c68f84d89f342f0eb455309c7937054f8420982089050898a877f21fcae8d9f8f62a956217b8fd134560fc2654527ee9e5359beefb95b2c59288d0982089050898a867f06ca0c88a61632956a1d3e91999c842f03b6e7f121df734ce75682fbfa1ef7f9098208905089897f4ce4f0699adf8172f73b8cd2407d7db698a2625bf837b95a35abbf4eddcbd7dd098a8b8a7f1a0f8b3e444c78fcc67ce285e743094a787745b2761df2203979fc08d3ab3a9909820890508a8b897f40a3f19fa4064fd9c119dd0acaea02ea3ae33a5df8b181867ff6b705f159e4af09820890508a8b887f051d14de8bbf745f9f8a20682c4104c48a0198e8f604ae06b45de4051d90065c09820890508a8b877f294ce128d90968ca910a8cc18c9ab58d41a0a91df79bed878952aa88f7433a8009820890508a8a7f637e4ac13df1eefbc7ee982d5a044b89a20d383b17fa5a23bfe25a7915d8885f098b8c8b7f35151e81622f69dec5eedf76619630dc42997eeaf162fdda7644ce726da53c3b09820890508b8c8a7f707fbbeb0bf2b5aa6ed7573b46506eff64c69ce781aa7fa616e3d53390922a1e09820890508b8c897f5e876f8493c339c36750caa31382bea4a90d6928976a3f996a30a3f1af778f6309820890508b8c887f121909e9d5554a3b3d207272ad07359bb49136e23fe6f0d1c62c3bf940ca5bcd0982089050849a5083995082985081975080965050505050507f09637e652e915ae0bc1d62b7da1c9d8b973bf8f23f4322bab6bcc7b4a4406a9f860195507f546b9e395dee0a9466918ed255f76df4cd2c7c19681f2f712d4c16107b461351850194507f18cb6e5d6d0959114085a657a62004d6d4bac25ae567ca63501cd280f915de1d840193507f58782afd4a8a938bed95f04b985f4711efb2dacb8427fd6f8de78eb619ae9cad830192507f072db66d8b16ae3aeb6d9e932e4de43e2e5cbfaaf34c7a0aa24dd9cf2a8e41b982019150858781820996508787880996508781880996505086867f5edc4de43ff07c60ace8f91ac726180f38604b5bb2f2ab2c27aa2a4d53cf7081098788877f21c0f632624d48a11931e2bcb8695897e5cb1d7cec432d115df1b25ea0d9d4a309820890508788867f4243ff5f4a234a2256286afa4ec59b4c9c32439c0869f1aa0b92a5ab82ee1b3809820890508788857f7344ba891ca71591e07e7e6aa563931b9d07b548c816668af7f6170e5c8cd07309820890508788847f20c42fc15a32ed98b81609d1e9de98f255e4b46414af1dad036bfe255d3d2f19098208905087877f68186626fb0239ce09c22fe4ec756ab3dede54596e3cc426ac7ec1f5c38881f2098889887f1cdfe1f1de4a7290ab39316b544da5e6576d4d1c05eaf0719c3c60867fab037209820890508889877f1992e57fe5537033e0b3711c4aba9a6630fdf87a5962a442e926718e92f7e57309820890508889867f5033856a6fe61acbb5a95e6f8e1d6e5aca6e1d2125d0c03d864e8fecdb3ccd4a09820890508889857f09e7c08b5c3289751cf3e30a7ab45c59aaca49585c3f08fb39a67bc9466cceb2098208905088887f73ac6ff5f192940a6a3198b94a158121172678891e35c8895c6a20f4164f7c9309898a897f03ac6b5eccedc5da43ff372db13fa55ac197bb9592e15d4feb74ee152e90e9520982089050898a887f1574427d32abdcde8a24db9e42219c68f84d89f342f0eb455309c7937054f8420982089050898a877f21fcae8d9f8f62a956217b8fd134560fc2654527ee9e5359beefb95b2c59288d0982089050898a867f06ca0c88a61632956a1d3e91999c842f03b6e7f121df734ce75682fbfa1ef7f9098208905089897f4ce4f0699adf8172f73b8cd2407d7db698a2625bf837b95a35abbf4eddcbd7dd098a8b8a7f1a0f8b3e444c78fcc67ce285e743094a787745b2761df2203979fc08d3ab3a9909820890508a8b897f40a3f19fa4064fd9c119dd0acaea02ea3ae33a5df8b181867ff6b705f159e4af09820890508a8b887f051d14de8bbf745f9f8a20682c4104c48a0198e8f604ae06b45de4051d90065c09820890508a8b877f294ce128d90968ca910a8cc18c9ab58d41a0a91df79bed878952aa88f7433a8009820890508a8a7f637e4ac13df1eefbc7ee982d5a044b89a20d383b17fa5a23bfe25a7915d8885f098b8c8b7f35151e81622f69dec5eedf76619630dc42997eeaf162fdda7644ce726da53c3b09820890508b8c8a7f707fbbeb0bf2b5aa6ed7573b46506eff64c69ce781aa7fa616e3d53390922a1e09820890508b8c897f5e876f8493c339c36750caa31382bea4a90d6928976a3f996a30a3f1af778f6309820890508b8c887f121909e9d5554a3b3d207272ad07359bb49136e23fe6f0d1c62c3bf940ca5bcd0982089050849a5083995082985081975080965050505050507f577832f774c67cddd7505cf603ca2e8fec342531bd0a1dbdde6d2e0728d565ec860195507f08c6f1218fd35bfd0e6b5b50735a0c9a6d284f4051672f41c0fe39465f0a3af2850194507f0eba8169994d61a6f1d3f5a7be72a0229f10693847f87734cd5305b77749240c840193507f04851fb71ef33d8a5df10bf40b43519035055256714de067c7d845304d464145830192507f2a5da7e9bf73c9479fa6e5f71288d31cefb6894921ac1e76d1e82be69ec4fed382019150858781820996508787880996508781880996505086867f5edc4de43ff07c60ace8f91ac726180f38604b5bb2f2ab2c27aa2a4d53cf7081098788877f21c0f632624d48a11931e2bcb8695897e5cb1d7cec432d115df1b25ea0d9d4a309820890508788867f4243ff5f4a234a2256286afa4ec59b4c9c32439c0869f1aa0b92a5ab82ee1b3809820890508788857f7344ba891ca71591e07e7e6aa563931b9d07b548c816668af7f6170e5c8cd07309820890508788847f20c42fc15a32ed98b81609d1e9de98f255e4b46414af1dad036bfe255d3d2f19098208905087877f68186626fb0239ce09c22fe4ec756ab3dede54596e3cc426ac7ec1f5c38881f2098889887f1cdfe1f1de4a7290ab39316b544da5e6576d4d1c05eaf0719c3c60867fab037209820890508889877f1992e57fe5537033e0b3711c4aba9a6630fdf87a5962a442e926718e92f7e57309820890508889867f5033856a6fe61acbb5a95e6f8e1d6e5aca6e1d2125d0c03d864e8fecdb3ccd4a09820890508889857f09e7c08b5c3289751cf3e30a7ab45c59aaca49585c3f08fb39a67bc9466cceb2098208905088887f73ac6ff5f192940a6a3198b94a158121172678891e35c8895c6a20f4164f7c9309898a897f03ac6b5eccedc5da43ff372db13fa55ac197bb9592e15d4feb74ee152e90e9520982089050898a887f1574427d32abdcde8a24db9e42219c68f84d89f342f0eb455309c7937054f8420982089050898a877f21fcae8d9f8f62a956217b8fd134560fc2654527ee9e5359beefb95b2c59288d0982089050898a867f06ca0c88a61632956a1d3e91999c842f03b6e7f121df734ce75682fbfa1ef7f9098208905089897f4ce4f0699adf8172f73b8cd2407d7db698a2625bf837b95a35abbf4eddcbd7dd098a8b8a7f1a0f8b3e444c78fcc67ce285e743094a787745b2761df2203979fc08d3ab3a9909820890508a8b897f40a3f19fa4064fd9c119dd0acaea02ea3ae33a5df8b181867ff6b705f159e4af09820890508a8b887f051d14de8bbf745f9f8a20682c4104c48a0198e8f604ae06b45de4051d90065c09820890508a8b877f294ce128d90968ca910a8cc18c9ab58d41a0a91df79bed878952aa88f7433a8009820890508a8a7f637e4ac13df1eefbc7ee982d5a044b89a20d383b17fa5a23bfe25a7915d8885f098b8c8b7f35151e81622f69dec5eedf76619630dc42997eeaf162fdda7644ce726da53c3b09820890508b8c8a7f707fbbeb0bf2b5aa6ed7573b46506eff64c69ce781aa7fa616e3d53390922a1e09820890508b8c897f5e876f8493c339c36750caa31382bea4a90d6928976a3f996a30a3f1af778f6309820890508b8c887f121909e9d5554a3b3d207272ad07359bb49136e23fe6f0d1c62c3bf940ca5bcd0982089050849a5083995082985081975080965050505050507f58a009a0ea2c67b5923aa87f30a79f448b66d6c21507d07354991eef394c7d1a860195507f580d5aa604771bdf66ce0092f4c7174819c96b5e92499f48fe0199c4200060c0850194507f72542655258cd87a0d0044f4e93d58584e6cf0009edb87f8175eb9c4e5778f85840193507f22fc306957bf2306ac57ac3301b2d32dccdc860a7c0ceaddafd6727747e42034830192507f47ea3e54e528ddc6e63b7ee7f14f80082b1df4719a68c4c9444a4aa640b21fa682019150858781820996508787880996508781880996505086867f5edc4de43ff07c60ace8f91ac726180f38604b5bb2f2ab2c27aa2a4d53cf7081098788877f21c0f632624d48a11931e2bcb8695897e5cb1d7cec432d115df1b25ea0d9d4a309820890508788867f4243ff5f4a234a2256286afa4ec59b4c9c32439c0869f1aa0b92a5ab82ee1b3809820890508788857f7344ba891ca71591e07e7e6aa563931b9d07b548c816668af7f6170e5c8cd07309820890508788847f20c42fc15a32ed98b81609d1e9de98f255e4b46414af1dad036bfe255d3d2f19098208905087877f68186626fb0239ce09c22fe4ec756ab3dede54596e3cc426ac7ec1f5c38881f2098889887f1cdfe1f1de4a7290ab39316b544da5e6576d4d1c05eaf0719c3c60867fab037209820890508889877f1992e57fe5537033e0b3711c4aba9a6630fdf87a5962a442e926718e92f7e57309820890508889867f5033856a6fe61acbb5a95e6f8e1d6e5aca6e1d2125d0c03d864e8fecdb3ccd4a09820890508889857f09e7c08b5c3289751cf3e30a7ab45c59aaca49585c3f08fb39a67bc9466cceb2098208905088887f73ac6ff5f192940a6a3198b94a158121172678891e35c8895c6a20f4164f7c9309898a897f03ac6b5eccedc5da43ff372db13fa55ac197bb9592e15d4feb74ee152e90e9520982089050898a887f1574427d32abdcde8a24db9e42219c68f84d89f342f0eb455309c7937054f8420982089050898a877f21fcae8d9f8f62a956217b8fd134560fc2654527ee9e5359beefb95b2c59288d0982089050898a867f06ca0c88a61632956a1d3e91999c842f03b6e7f121df734ce75682fbfa1ef7f9098208905089897f4ce4f0699adf8172f73b8cd2407d7db698a2625bf837b95a35abbf4eddcbd7dd098a8b8a7f1a0f8b3e444c78fcc67ce285e743094a787745b2761df2203979fc08d3ab3a9909820890508a8b897f40a3f19fa4064fd9c119dd0acaea02ea3ae33a5df8b181867ff6b705f159e4af09820890508a8b887f051d14de8bbf745f9f8a20682c4104c48a0198e8f604ae06b45de4051d90065c09820890508a8b877f294ce128d90968ca910a8cc18c9ab58d41a0a91df79bed878952aa88f7433a8009820890508a8a7f637e4ac13df1eefbc7ee982d5a044b89a20d383b17fa5a23bfe25a7915d8885f098b8c8b7f35151e81622f69dec5eedf76619630dc42997eeaf162fdda7644ce726da53c3b09820890508b8c8a7f707fbbeb0bf2b5aa6ed7573b46506eff64c69ce781aa7fa616e3d53390922a1e09820890508b8c897f5e876f8493c339c36750caa31382bea4a90d6928976a3f996a30a3f1af778f6309820890508b8c887f121909e9d5554a3b3d207272ad07359bb49136e23fe6f0d1c62c3bf940ca5bcd0982089050849a5083995082985081975080965050505050507f2e237e775ea78f7f7b0843e916f0837b99e5f2543628d0b9050be31e16fffaf0860195507f254faafb9e2c37d7918e6a9f7b627db4f5317e83cd293ee6d62acc483806a7ca850194507f20efada29ea259911ca23420027e98b8c5af2a2f202903c7149a7167d6b0ce6c840193507f184a55e01875861e661289b3ad905293239eeae97ee5db99332b37e8f6c307e1830192507f6acbe53e7aced8a5a614cf26a175397f136c25f2fb2e7b0a58caa97b1009f1ea82019150858781820996508787880996508781880996505086867f5edc4de43ff07c60ace8f91ac726180f38604b5bb2f2ab2c27aa2a4d53cf7081098788877f21c0f632624d48a11931e2bcb8695897e5cb1d7cec432d115df1b25ea0d9d4a309820890508788867f4243ff5f4a234a2256286afa4ec59b4c9c32439c0869f1aa0b92a5ab82ee1b3809820890508788857f7344ba891ca71591e07e7e6aa563931b9d07b548c816668af7f6170e5c8cd07309820890508788847f20c42fc15a32ed98b81609d1e9de98f255e4b46414af1dad036bfe255d3d2f19098208905087877f68186626fb0239ce09c22fe4ec756ab3dede54596e3cc426ac7ec1f5c38881f2098889887f1cdfe1f1de4a7290ab39316b544da5e6576d4d1c05eaf0719c3c60867fab037209820890508889877f1992e57fe5537033e0b3711c4aba9a6630fdf87a5962a442e926718e92f7e57309820890508889867f5033856a6fe61acbb5a95e6f8e1d6e5aca6e1d2125d0c03d864e8fecdb3ccd4a09820890508889857f09e7c08b5c3289751cf3e30a7ab45c59aaca49585c3f08fb39a67bc9466cceb2098208905088887f73ac6ff5f192940a6a3198b94a158121172678891e35c8895c6a20f4164f7c9309898a897f03ac6b5eccedc5da43ff372db13fa55ac197bb9592e15d4feb74ee152e90e9520982089050898a887f1574427d32abdcde8a24db9e42219c68f84d89f342f0eb455309c7937054f8420982089050898a877f21fcae8d9f8f62a956217b8fd134560fc2654527ee9e5359beefb95b2c59288d0982089050898a867f06ca0c88a61632956a1d3e91999c842f03b6e7f121df734ce75682fbfa1ef7f9098208905089897f4ce4f0699adf8172f73b8cd2407d7db698a2625bf837b95a35abbf4eddcbd7dd098a8b8a7f1a0f8b3e444c78fcc67ce285e743094a787745b2761df2203979fc08d3ab3a9909820890508a8b897f40a3f19fa4064fd9c119dd0acaea02ea3ae33a5df8b181867ff6b705f159e4af09820890508a8b887f051d14de8bbf745f9f8a20682c4104c48a0198e8f604ae06b45de4051d90065c09820890508a8b877f294ce128d90968ca910a8cc18c9ab58d41a0a91df79bed878952aa88f7433a8009820890508a8a7f637e4ac13df1eefbc7ee982d5a044b89a20d383b17fa5a23bfe25a7915d8885f098b8c8b7f35151e81622f69dec5eedf76619630dc42997eeaf162fdda7644ce726da53c3b09820890508b8c8a7f707fbbeb0bf2b5aa6ed7573b46506eff64c69ce781aa7fa616e3d53390922a1e09820890508b8c897f5e876f8493c339c36750caa31382bea4a90d6928976a3f996a30a3f1af778f6309820890508b8c887f121909e9d5554a3b3d207272ad07359bb49136e23fe6f0d1c62c3bf940ca5bcd0982089050849a5083995082985081975080965050505050507f264991a53ef2e9918551c6b90ef7bb8339cd2f898e2322f44acff18b9b9a66d6860195507f5078f86a7da7702a4cc8a3223da343beab035793b9434c39321da9d3691f999a850194507f39a8104ab4e2622b9523a3a9f9ee3b41a8397ea953823e419e06269fb3d2c1eb840193507f35728c2b81c712a34f3fe53c4393021ae73795035bcf1e631c0a99f44bf5639b830192507f41d7615f8bd97f178282eac27dbdc3215b7a2606a86122827c44bad1e42c67e982019150858781820996508787880996508781880996505086867f5edc4de43ff07c60ace8f91ac726180f38604b5bb2f2ab2c27aa2a4d53cf7081098788877f21c0f632624d48a11931e2bcb8695897e5cb1d7cec432d115df1b25ea0d9d4a309820890508788867f4243ff5f4a234a2256286afa4ec59b4c9c32439c0869f1aa0b92a5ab82ee1b3809820890508788857f7344ba891ca71591e07e7e6aa563931b9d07b548c816668af7f6170e5c8cd07309820890508788847f20c42fc15a32ed98b81609d1e9de98f255e4b46414af1dad036bfe255d3d2f19098208905087877f68186626fb0239ce09c22fe4ec756ab3dede54596e3cc426ac7ec1f5c38881f2098889887f1cdfe1f1de4a7290ab39316b544da5e6576d4d1c05eaf0719c3c60867fab037209820890508889877f1992e57fe5537033e0b3711c4aba9a6630fdf87a5962a442e926718e92f7e57309820890508889867f5033856a6fe61acbb5a95e6f8e1d6e5aca6e1d2125d0c03d864e8fecdb3ccd4a09820890508889857f09e7c08b5c3289751cf3e30a7ab45c59aaca49585c3f08fb39a67bc9466cceb2098208905088887f73ac6ff5f192940a6a3198b94a158121172678891e35c8895c6a20f4164f7c9309898a897f03ac6b5eccedc5da43ff372db13fa55ac197bb9592e15d4feb74ee152e90e9520982089050898a887f1574427d32abdcde8a24db9e42219c68f84d89f342f0eb455309c7937054f8420982089050898a877f21fcae8d9f8f62a956217b8fd134560fc2654527ee9e5359beefb95b2c59288d0982089050898a867f06ca0c88a61632956a1d3e91999c842f03b6e7f121df734ce75682fbfa1ef7f9098208905089897f4ce4f0699adf8172f73b8cd2407d7db698a2625bf837b95a35abbf4eddcbd7dd098a8b8a7f1a0f8b3e444c78fcc67ce285e743094a787745b2761df2203979fc08d3ab3a9909820890508a8b897f40a3f19fa4064fd9c119dd0acaea02ea3ae33a5df8b181867ff6b705f159e4af09820890508a8b887f051d14de8bbf745f9f8a20682c4104c48a0198e8f604ae06b45de4051d90065c09820890508a8b877f294ce128d90968ca910a8cc18c9ab58d41a0a91df79bed878952aa88f7433a8009820890508a8a7f637e4ac13df1eefbc7ee982d5a044b89a20d383b17fa5a23bfe25a7915d8885f098b8c8b7f35151e81622f69dec5eedf76619630dc42997eeaf162fdda7644ce726da53c3b09820890508b8c8a7f707fbbeb0bf2b5aa6ed7573b46506eff64c69ce781aa7fa616e3d53390922a1e09820890508b8c897f5e876f8493c339c36750caa31382bea4a90d6928976a3f996a30a3f1af778f6309820890508b8c887f121909e9d5554a3b3d207272ad07359bb49136e23fe6f0d1c62c3bf940ca5bcd0982089050849a5083995082985081975080965050505050507f233bd5884457b5a4e1b4d1298f4695e172e6193afc096e78af06c474e85b13fa860195507f2f967109b61b2b2eb441e9a7132308cf975724cdc241eb94655d5480b6a45cae850194507f64f73e5667bde7037ddb61a224bfca795a61fbf0f78ea04019183161b0237c77840193507f3829281d031f932f1ae9a2067bf6513dc51d5455b6dfa2955b16373596a7989b830192507f52954070f8e0b8f4eb729b51e0c391101bcc120bb503d2578914d110355746d682019150858781820996508787880996508781880996505086867f5edc4de43ff07c60ace8f91ac726180f38604b5bb2f2ab2c27aa2a4d53cf7081098788877f21c0f632624d48a11931e2bcb8695897e5cb1d7cec432d115df1b25ea0d9d4a309820890508788867f4243ff5f4a234a2256286afa4ec59b4c9c32439c0869f1aa0b92a5ab82ee1b3809820890508788857f7344ba891ca71591e07e7e6aa563931b9d07b548c816668af7f6170e5c8cd07309820890508788847f20c42fc15a32ed98b81609d1e9de98f255e4b46414af1dad036bfe255d3d2f19098208905087877f68186626fb0239ce09c22fe4ec756ab3dede54596e3cc426ac7ec1f5c38881f2098889887f1cdfe1f1de4a7290ab39316b544da5e6576d4d1c05eaf0719c3c60867fab037209820890508889877f1992e57fe5537033e0b3711c4aba9a6630fdf87a5962a442e926718e92f7e57309820890508889867f5033856a6fe61acbb5a95e6f8e1d6e5aca6e1d2125d0c03d864e8fecdb3ccd4a09820890508889857f09e7c08b5c3289751cf3e30a7ab45c59aaca49585c3f08fb39a67bc9466cceb2098208905088887f73ac6ff5f192940a6a3198b94a158121172678891e35c8895c6a20f4164f7c9309898a897f03ac6b5eccedc5da43ff372db13fa55ac197bb9592e15d4feb74ee152e90e9520982089050898a887f1574427d32abdcde8a24db9e42219c68f84d89f342f0eb455309c7937054f8420982089050898a877f21fcae8d9f8f62a956217b8fd134560fc2654527ee9e5359beefb95b2c59288d0982089050898a867f06ca0c88a61632956a1d3e91999c842f03b6e7f121df734ce75682fbfa1ef7f9098208905089897f4ce4f0699adf8172f73b8cd2407d7db698a2625bf837b95a35abbf4eddcbd7dd098a8b8a7f1a0f8b3e444c78fcc67ce285e743094a787745b2761df2203979fc08d3ab3a9909820890508a8b897f40a3f19fa4064fd9c119dd0acaea02ea3ae33a5df8b181867ff6b705f159e4af09820890508a8b887f051d14de8bbf745f9f8a20682c4104c48a0198e8f604ae06b45de4051d90065c09820890508a8b877f294ce128d90968ca910a8cc18c9ab58d41a0a91df79bed878952aa88f7433a8009820890508a8a7f637e4ac13df1eefbc7ee982d5a044b89a20d383b17fa5a23bfe25a7915d8885f098b8c8b7f35151e81622f69dec5eedf76619630dc42997eeaf162fdda7644ce726da53c3b09820890508b8c8a7f707fbbeb0bf2b5aa6ed7573b46506eff64c69ce781aa7fa616e3d53390922a1e09820890508b8c897f5e876f8493c339c36750caa31382bea4a90d6928976a3f996a30a3f1af778f6309820890508b8c887f121909e9d5554a3b3d207272ad07359bb49136e23fe6f0d1c62c3bf940ca5bcd0982089050849a5083995082985081975080965050505050507f03b69267b12f495332d5c8a466cf1323221b891669924d118a44e89c0df8f1a4860195507f1d33c92e7d3ee1749755786f52ec76c7bd7a9a4b772174702a35fad10d40b2e1850194507f08d86c442959963e62deb44bd05d10e51e37c66c524c90b18fb3537ffc3fee70840193507f24194a8ccf272dee642baf29a85cdb203bddf6da1348fa538abde1d28b1e170c830192507f1c0b6f25101f49faa88022f8c83bac53ea9f160f62b6d19bbe321b5fede43ea982019150858781820996508787880996508781880996505086867f5edc4de43ff07c60ace8f91ac726180f38604b5bb2f2ab2c27aa2a4d53cf7081098788877f21c0f632624d48a11931e2bcb8695897e5cb1d7cec432d115df1b25ea0d9d4a309820890508788867f4243ff5f4a234a2256286afa4ec59b4c9c32439c0869f1aa0b92a5ab82ee1b3809820890508788857f7344ba891ca71591e07e7e6aa563931b9d07b548c816668af7f6170e5c8cd07309820890508788847f20c42fc15a32ed98b81609d1e9de98f255e4b46414af1dad036bfe255d3d2f19098208905087877f68186626fb0239ce09c22fe4ec756ab3dede54596e3cc426ac7ec1f5c38881f2098889887f1cdfe1f1de4a7290ab39316b544da5e6576d4d1c05eaf0719c3c60867fab037209820890508889877f1992e57fe5537033e0b3711c4aba9a6630fdf87a5962a442e926718e92f7e57309820890508889867f5033856a6fe61acbb5a95e6f8e1d6e5aca6e1d2125d0c03d864e8fecdb3ccd4a09820890508889857f09e7c08b5c3289751cf3e30a7ab45c59aaca49585c3f08fb39a67bc9466cceb2098208905088887f73ac6ff5f192940a6a3198b94a158121172678891e35c8895c6a20f4164f7c9309898a897f03ac6b5eccedc5da43ff372db13fa55ac197bb9592e15d4feb74ee152e90e9520982089050898a887f1574427d32abdcde8a24db9e42219c68f84d89f342f0eb455309c7937054f8420982089050898a877f21fcae8d9f8f62a956217b8fd134560fc2654527ee9e5359beefb95b2c59288d0982089050898a867f06ca0c88a61632956a1d3e91999c842f03b6e7f121df734ce75682fbfa1ef7f9098208905089897f4ce4f0699adf8172f73b8cd2407d7db698a2625bf837b95a35abbf4eddcbd7dd098a8b8a7f1a0f8b3e444c78fcc67ce285e743094a787745b2761df2203979fc08d3ab3a9909820890508a8b897f40a3f19fa4064fd9c119dd0acaea02ea3ae33a5df8b181867ff6b705f159e4af09820890508a8b887f051d14de8bbf745f9f8a20682c4104c48a0198e8f604ae06b45de4051d90065c09820890508a8b877f294ce128d90968ca910a8cc18c9ab58d41a0a91df79bed878952aa88f7433a8009820890508a8a7f637e4ac13df1eefbc7ee982d5a044b89a20d383b17fa5a23bfe25a7915d8885f098b8c8b7f35151e81622f69dec5eedf76619630dc42997eeaf162fdda7644ce726da53c3b09820890508b8c8a7f707fbbeb0bf2b5aa6ed7573b46506eff64c69ce781aa7fa616e3d53390922a1e09820890508b8c897f5e876f8493c339c36750caa31382bea4a90d6928976a3f996a30a3f1af778f6309820890508b8c887f121909e9d5554a3b3d207272ad07359bb49136e23fe6f0d1c62c3bf940ca5bcd0982089050849a5083995082985081975080965050505050507f5965df1635254bb73a2d95bdc456a1957c797f02a6351a3f7ff22e4b014bdb17860195507f6fecddfd9ffaf803e45405fac3529a15a0093ac87afa05c50915bd154ef0cf6d850194507f6c5a8175e24da73409ded2913dc27396cc1da85c947683186df43b33f92d55e2840193507f40e211d645b6bdee48d4b4faa0f0b3180a6c6dc54ef620477c0384b0610fee60830192507f42adc6f65f9df8036a34dd4fa987a26497a6526dda4b90f49de337c149748d7082019150858781820996508787880996508781880996505086867f5edc4de43ff07c60ace8f91ac726180f38604b5bb2f2ab2c27aa2a4d53cf7081098788877f21c0f632624d48a11931e2bcb8695897e5cb1d7cec432d115df1b25ea0d9d4a309820890508788867f4243ff5f4a234a2256286afa4ec59b4c9c32439c0869f1aa0b92a5ab82ee1b3809820890508788857f7344ba891ca71591e07e7e6aa563931b9d07b548c816668af7f6170e5c8cd07309820890508788847f20c42fc15a32ed98b81609d1e9de98f255e4b46414af1dad036bfe255d3d2f19098208905087877f68186626fb0239ce09c22fe4ec756ab3dede54596e3cc426ac7ec1f5c38881f2098889887f1cdfe1f1de4a7290ab39316b544da5e6576d4d1c05eaf0719c3c60867fab037209820890508889877f1992e57fe5537033e0b3711c4aba9a6630fdf87a5962a442e926718e92f7e57309820890508889867f5033856a6fe61acbb5a95e6f8e1d6e5aca6e1d2125d0c03d864e8fecdb3ccd4a09820890508889857f09e7c08b5c3289751cf3e30a7ab45c59aaca49585c3f08fb39a67bc9466cceb2098208905088887f73ac6ff5f192940a6a3198b94a158121172678891e35c8895c6a20f4164f7c9309898a897f03ac6b5eccedc5da43ff372db13fa55ac197bb9592e15d4feb74ee152e90e9520982089050898a887f1574427d32abdcde8a24db9e42219c68f84d89f342f0eb455309c7937054f8420982089050898a877f21fcae8d9f8f62a956217b8fd134560fc2654527ee9e5359beefb95b2c59288d0982089050898a867f06ca0c88a61632956a1d3e91999c842f03b6e7f121df734ce75682fbfa1ef7f9098208905089897f4ce4f0699adf8172f73b8cd2407d7db698a2625bf837b95a35abbf4eddcbd7dd098a8b8a7f1a0f8b3e444c78fcc67ce285e743094a787745b2761df2203979fc08d3ab3a9909820890508a8b897f40a3f19fa4064fd9c119dd0acaea02ea3ae33a5df8b181867ff6b705f159e4af09820890508a8b887f051d14de8bbf745f9f8a20682c4104c48a0198e8f604ae06b45de4051d90065c09820890508a8b877f294ce128d90968ca910a8cc18c9ab58d41a0a91df79bed878952aa88f7433a8009820890508a8a7f637e4ac13df1eefbc7ee982d5a044b89a20d383b17fa5a23bfe25a7915d8885f098b8c8b7f35151e81622f69dec5eedf76619630dc42997eeaf162fdda7644ce726da53c3b09820890508b8c8a7f707fbbeb0bf2b5aa6ed7573b46506eff64c69ce781aa7fa616e3d53390922a1e09820890508b8c897f5e876f8493c339c36750caa31382bea4a90d6928976a3f996a30a3f1af778f6309820890508b8c887f121909e9d5554a3b3d207272ad07359bb49136e23fe6f0d1c62c3bf940ca5bcd0982089050849a5083995082985081975080965050505050507f73185cb8f8642b0eb4449590423d9e65bd29805945dacf6d59c8e8a0babd987f860195507f1999004fd6cd12e05fabf2d5b9f0cfa062c0eb4a90413894e2d1b70e5b5d527e850194507f4f89f26b5f08f1aab934b63ddc6a25942475ae3ed15b5c36c55ec579af3b0ecd840193507f12a5fbf0400a087aba86a4226a836325339c3c95375a0cb09db74905ca5d968a830192507f11a3fa42d518e20448aaeba3783c045f368a3d002723e10676a541a9e12a78ce82019150858781820996508787880996508781880996505086867f5edc4de43ff07c60ace8f91ac726180f38604b5bb2f2ab2c27aa2a4d53cf7081098788877f21c0f632624d48a11931e2bcb8695897e5cb1d7cec432d115df1b25ea0d9d4a309820890508788867f4243ff5f4a234a2256286afa4ec59b4c9c32439c0869f1aa0b92a5ab82ee1b3809820890508788857f7344ba891ca71591e07e7e6aa563931b9d07b548c816668af7f6170e5c8cd07309820890508788847f20c42fc15a32ed98b81609d1e9de98f255e4b46414af1dad036bfe255d3d2f19098208905087877f68186626fb0239ce09c22fe4ec756ab3dede54596e3cc426ac7ec1f5c38881f2098889887f1cdfe1f1de4a7290ab39316b544da5e6576d4d1c05eaf0719c3c60867fab037209820890508889877f1992e57fe5537033e0b3711c4aba9a6630fdf87a5962a442e926718e92f7e57309820890508889867f5033856a6fe61acbb5a95e6f8e1d6e5aca6e1d2125d0c03d864e8fecdb3ccd4a09820890508889857f09e7c08b5c3289751cf3e30a7ab45c59aaca49585c3f08fb39a67bc9466cceb2098208905088887f73ac6ff5f192940a6a3198b94a158121172678891e35c8895c6a20f4164f7c9309898a897f03ac6b5eccedc5da43ff372db13fa55ac197bb9592e15d4feb74ee152e90e9520982089050898a887f1574427d32abdcde8a24db9e42219c68f84d89f342f0eb455309c7937054f8420982089050898a877f21fcae8d9f8f62a956217b8fd134560fc2654527ee9e5359beefb95b2c59288d0982089050898a867f06ca0c88a61632956a1d3e91999c842f03b6e7f121df734ce75682fbfa1ef7f9098208905089897f4ce4f0699adf8172f73b8cd2407d7db698a2625bf837b95a35abbf4eddcbd7dd098a8b8a7f1a0f8b3e444c78fcc67ce285e743094a787745b2761df2203979fc08d3ab3a9909820890508a8b897f40a3f19fa4064fd9c119dd0acaea02ea3ae33a5df8b181867ff6b705f159e4af09820890508a8b887f051d14de8bbf745f9f8a20682c4104c48a0198e8f604ae06b45de4051d90065c09820890508a8b877f294ce128d90968ca910a8cc18c9ab58d41a0a91df79bed878952aa88f7433a8009820890508a8a7f637e4ac13df1eefbc7ee982d5a044b89a20d383b17fa5a23bfe25a7915d8885f098b8c8b7f35151e81622f69dec5eedf76619630dc42997eeaf162fdda7644ce726da53c3b09820890508b8c8a7f707fbbeb0bf2b5aa6ed7573b46506eff64c69ce781aa7fa616e3d53390922a1e09820890508b8c897f5e876f8493c339c36750caa31382bea4a90d6928976a3f996a30a3f1af778f6309820890508b8c887f121909e9d5554a3b3d207272ad07359bb49136e23fe6f0d1c62c3bf940ca5bcd0982089050849a5083995082985081975080965050505050507f2f59f158b1c60bf12bbb4d956ff1dc9442aad7e876e2562d4438dfd2e2655ba0860195507f48956231bc3a0c3581112417097659b50d06c16b511c535c2decc1a3bce340b3850194507f2849b06e476443c43bd47dd906fccdf2728c537a7a5f0f6938e168bbd8149a0e840193507f58d1184212a2fe71f72bb99b925e9c1432179bd4c8ff918daf4dfd7e7cee91ed830192507f3fc33989242fa44cbd5172dc768de9a6c9d4a142d6fa7b99679735aea4e3cc6182019150858781820996508787880996508781880996505086867f5edc4de43ff07c60ace8f91ac726180f38604b5bb2f2ab2c27aa2a4d53cf7081098788877f21c0f632624d48a11931e2bcb8695897e5cb1d7cec432d115df1b25ea0d9d4a309820890508788867f4243ff5f4a234a2256286afa4ec59b4c9c32439c0869f1aa0b92a5ab82ee1b3809820890508788857f7344ba891ca71591e07e7e6aa563931b9d07b548c816668af7f6170e5c8cd07309820890508788847f20c42fc15a32ed98b81609d1e9de98f255e4b46414af1dad036bfe255d3d2f19098208905087877f68186626fb0239ce09c22fe4ec756ab3dede54596e3cc426ac7ec1f5c38881f2098889887f1cdfe1f1de4a7290ab39316b544da5e6576d4d1c05eaf0719c3c60867fab037209820890508889877f1992e57fe5537033e0b3711c4aba9a6630fdf87a5962a442e926718e92f7e57309820890508889867f5033856a6fe61acbb5a95e6f8e1d6e5aca6e1d2125d0c03d864e8fecdb3ccd4a09820890508889857f09e7c08b5c3289751cf3e30a7ab45c59aaca49585c3f08fb39a67bc9466cceb2098208905088887f73ac6ff5f192940a6a3198b94a158121172678891e35c8895c6a20f4164f7c9309898a897f03ac6b5eccedc5da43ff372db13fa55ac197bb9592e15d4feb74ee152e90e9520982089050898a887f1574427d32abdcde8a24db9e42219c68f84d89f342f0eb455309c7937054f8420982089050898a877f21fcae8d9f8f62a956217b8fd134560fc2654527ee9e5359beefb95b2c59288d0982089050898a867f06ca0c88a61632956a1d3e91999c842f03b6e7f121df734ce75682fbfa1ef7f9098208905089897f4ce4f0699adf8172f73b8cd2407d7db698a2625bf837b95a35abbf4eddcbd7dd098a8b8a7f1a0f8b3e444c78fcc67ce285e743094a787745b2761df2203979fc08d3ab3a9909820890508a8b897f40a3f19fa4064fd9c119dd0acaea02ea3ae33a5df8b181867ff6b705f159e4af09820890508a8b887f051d14de8bbf745f9f8a20682c4104c48a0198e8f604ae06b45de4051d90065c09820890508a8b877f294ce128d90968ca910a8cc18c9ab58d41a0a91df79bed878952aa88f7433a8009820890508a8a7f637e4ac13df1eefbc7ee982d5a044b89a20d383b17fa5a23bfe25a7915d8885f098b8c8b7f35151e81622f69dec5eedf76619630dc42997eeaf162fdda7644ce726da53c3b09820890508b8c8a7f707fbbeb0bf2b5aa6ed7573b46506eff64c69ce781aa7fa616e3d53390922a1e09820890508b8c897f5e876f8493c339c36750caa31382bea4a90d6928976a3f996a30a3f1af778f6309820890508b8c887f121909e9d5554a3b3d207272ad07359bb49136e23fe6f0d1c62c3bf940ca5bcd0982089050849a5083995082985081975080965050505050507f04609e4a1be08e45a07d3cab7478c170a88cdbf32e124721cf6b8b1292be02c4860195507f51a47f35ce630b8a01599a2f45d141496e6babe83c19f1e58f34cedae71a4819850194507f011de2c7cafc96dc5d5919ae288780167e017d27067288f8c79bd2344700d97e840193507f5505b08ca4fbe52ad9fe89d2a797f975bb9605b25b399741248aa4b29da00b66830192507f0764417ff69a6cdf71ed5ca55be442dcf7b9c23364cedc4830ce28a8d31fe61782019150858781820996508787880996508781880996505086867f5edc4de43ff07c60ace8f91ac726180f38604b5bb2f2ab2c27aa2a4d53cf7081098788877f21c0f632624d48a11931e2bcb8695897e5cb1d7cec432d115df1b25ea0d9d4a309820890508788867f4243ff5f4a234a2256286afa4ec59b4c9c32439c0869f1aa0b92a5ab82ee1b3809820890508788857f7344ba891ca71591e07e7e6aa563931b9d07b548c816668af7f6170e5c8cd07309820890508788847f20c42fc15a32ed98b81609d1e9de98f255e4b46414af1dad036bfe255d3d2f19098208905087877f68186626fb0239ce09c22fe4ec756ab3dede54596e3cc426ac7ec1f5c38881f2098889887f1cdfe1f1de4a7290ab39316b544da5e6576d4d1c05eaf0719c3c60867fab037209820890508889877f1992e57fe5537033e0b3711c4aba9a6630fdf87a5962a442e926718e92f7e57309820890508889867f5033856a6fe61acbb5a95e6f8e1d6e5aca6e1d2125d0c03d864e8fecdb3ccd4a09820890508889857f09e7c08b5c3289751cf3e30a7ab45c59aaca49585c3f08fb39a67bc9466cceb2098208905088887f73ac6ff5f192940a6a3198b94a158121172678891e35c8895c6a20f4164f7c9309898a897f03ac6b5eccedc5da43ff372db13fa55ac197bb9592e15d4feb74ee152e90e9520982089050898a887f1574427d32abdcde8a24db9e42219c68f84d89f342f0eb455309c7937054f8420982089050898a877f21fcae8d9f8f62a956217b8fd134560fc2654527ee9e5359beefb95b2c59288d0982089050898a867f06ca0c88a61632956a1d3e91999c842f03b6e7f121df734ce75682fbfa1ef7f9098208905089897f4ce4f0699adf8172f73b8cd2407d7db698a2625bf837b95a35abbf4eddcbd7dd098a8b8a7f1a0f8b3e444c78fcc67ce285e743094a787745b2761df2203979fc08d3ab3a9909820890508a8b897f40a3f19fa4064fd9c119dd0acaea02ea3ae33a5df8b181867ff6b705f159e4af09820890508a8b887f051d14de8bbf745f9f8a20682c4104c48a0198e8f604ae06b45de4051d90065c09820890508a8b877f294ce128d90968ca910a8cc18c9ab58d41a0a91df79bed878952aa88f7433a8009820890508a8a7f637e4ac13df1eefbc7ee982d5a044b89a20d383b17fa5a23bfe25a7915d8885f098b8c8b7f35151e81622f69dec5eedf76619630dc42997eeaf162fdda7644ce726da53c3b09820890508b8c8a7f707fbbeb0bf2b5aa6ed7573b46506eff64c69ce781aa7fa616e3d53390922a1e09820890508b8c897f5e876f8493c339c36750caa31382bea4a90d6928976a3f996a30a3f1af778f6309820890508b8c887f121909e9d5554a3b3d207272ad07359bb49136e23fe6f0d1c62c3bf940ca5bcd0982089050849a5083995082985081975080965050505050507f1ea443addd653c9a0eb5f9a7dfee8d543f3f4e413067c6bda7fe278f6f0a6994860195507f30e8242b2eb26dde1277a06df6c4a335e18c3819df2e71cad28c1082a1c94dfc850194507f4be93987573b6cfc6fd56c56cba5e12bb539818aa40f1fdc8c611d29f8048184840193507f42b770b2264660e60e59d224e4a050d5d7f1f31a45690ff2577f28e3dbe29986830192507f08a27e30763aad74f3d3f24b6e19d4a3bfabca120244698d3f4b7bb2ad4919a882019150858781820996508787880996508781880996505086867f5edc4de43ff07c60ace8f91ac726180f38604b5bb2f2ab2c27aa2a4d53cf7081098788877f21c0f632624d48a11931e2bcb8695897e5cb1d7cec432d115df1b25ea0d9d4a309820890508788867f4243ff5f4a234a2256286afa4ec59b4c9c32439c0869f1aa0b92a5ab82ee1b3809820890508788857f7344ba891ca71591e07e7e6aa563931b9d07b548c816668af7f6170e5c8cd07309820890508788847f20c42fc15a32ed98b81609d1e9de98f255e4b46414af1dad036bfe255d3d2f19098208905087877f68186626fb0239ce09c22fe4ec756ab3dede54596e3cc426ac7ec1f5c38881f2098889887f1cdfe1f1de4a7290ab39316b544da5e6576d4d1c05eaf0719c3c60867fab037209820890508889877f1992e57fe5537033e0b3711c4aba9a6630fdf87a5962a442e926718e92f7e57309820890508889867f5033856a6fe61acbb5a95e6f8e1d6e5aca6e1d2125d0c03d864e8fecdb3ccd4a09820890508889857f09e7c08b5c3289751cf3e30a7ab45c59aaca49585c3f08fb39a67bc9466cceb2098208905088887f73ac6ff5f192940a6a3198b94a158121172678891e35c8895c6a20f4164f7c9309898a897f03ac6b5eccedc5da43ff372db13fa55ac197bb9592e15d4feb74ee152e90e9520982089050898a887f1574427d32abdcde8a24db9e42219c68f84d89f342f0eb455309c7937054f8420982089050898a877f21fcae8d9f8f62a956217b8fd134560fc2654527ee9e5359beefb95b2c59288d0982089050898a867f06ca0c88a61632956a1d3e91999c842f03b6e7f121df734ce75682fbfa1ef7f9098208905089897f4ce4f0699adf8172f73b8cd2407d7db698a2625bf837b95a35abbf4eddcbd7dd098a8b8a7f1a0f8b3e444c78fcc67ce285e743094a787745b2761df2203979fc08d3ab3a9909820890508a8b897f40a3f19fa4064fd9c119dd0acaea02ea3ae33a5df8b181867ff6b705f159e4af09820890508a8b887f051d14de8bbf745f9f8a20682c4104c48a0198e8f604ae06b45de4051d90065c09820890508a8b877f294ce128d90968ca910a8cc18c9ab58d41a0a91df79bed878952aa88f7433a8009820890508a8a7f637e4ac13df1eefbc7ee982d5a044b89a20d383b17fa5a23bfe25a7915d8885f098b8c8b7f35151e81622f69dec5eedf76619630dc42997eeaf162fdda7644ce726da53c3b09820890508b8c8a7f707fbbeb0bf2b5aa6ed7573b46506eff64c69ce781aa7fa616e3d53390922a1e09820890508b8c897f5e876f8493c339c36750caa31382bea4a90d6928976a3f996a30a3f1af778f6309820890508b8c887f121909e9d5554a3b3d207272ad07359bb49136e23fe6f0d1c62c3bf940ca5bcd0982089050849a5083995082985081975080965050505050507f2cc5903961de4dcbbd0933b1961ce0f9e11eb86626dc332f1787954597b45627860195507f47e985d487ee6e1e26bacd792ac5ba28d4509c9dd7c39ef7416951e9647a4dbc850194507f2b93f9997e71be645215084ba7e08d2ff99b8f839f800caefe3a30661396ce61840193507f712d0469727032af24d88a999b60638a9c04e2fad716a68868dd6d2f5c8bf1af830192507f6bdaebef7927e6c195dc585eb0520a55d565a8c26107503341497c7a5098d7cd82019150858781820996508787880996508781880996505086867f5edc4de43ff07c60ace8f91ac726180f38604b5bb2f2ab2c27aa2a4d53cf7081098788877f21c0f632624d48a11931e2bcb8695897e5cb1d7cec432d115df1b25ea0d9d4a309820890508788867f4243ff5f4a234a2256286afa4ec59b4c9c32439c0869f1aa0b92a5ab82ee1b3809820890508788857f7344ba891ca71591e07e7e6aa563931b9d07b548c816668af7f6170e5c8cd07309820890508788847f20c42fc15a32ed98b81609d1e9de98f255e4b46414af1dad036bfe255d3d2f19098208905087877f68186626fb0239ce09c22fe4ec756ab3dede54596e3cc426ac7ec1f5c38881f2098889887f1cdfe1f1de4a7290ab39316b544da5e6576d4d1c05eaf0719c3c60867fab037209820890508889877f1992e57fe5537033e0b3711c4aba9a6630fdf87a5962a442e926718e92f7e57309820890508889867f5033856a6fe61acbb5a95e6f8e1d6e5aca6e1d2125d0c03d864e8fecdb3ccd4a09820890508889857f09e7c08b5c3289751cf3e30a7ab45c59aaca49585c3f08fb39a67bc9466cceb2098208905088887f73ac6ff5f192940a6a3198b94a158121172678891e35c8895c6a20f4164f7c9309898a897f03ac6b5eccedc5da43ff372db13fa55ac197bb9592e15d4feb74ee152e90e9520982089050898a887f1574427d32abdcde8a24db9e42219c68f84d89f342f0eb455309c7937054f8420982089050898a877f21fcae8d9f8f62a956217b8fd134560fc2654527ee9e5359beefb95b2c59288d0982089050898a867f06ca0c88a61632956a1d3e91999c842f03b6e7f121df734ce75682fbfa1ef7f9098208905089897f4ce4f0699adf8172f73b8cd2407d7db698a2625bf837b95a35abbf4eddcbd7dd098a8b8a7f1a0f8b3e444c78fcc67ce285e743094a787745b2761df2203979fc08d3ab3a9909820890508a8b897f40a3f19fa4064fd9c119dd0acaea02ea3ae33a5df8b181867ff6b705f159e4af09820890508a8b887f051d14de8bbf745f9f8a20682c4104c48a0198e8f604ae06b45de4051d90065c09820890508a8b877f294ce128d90968ca910a8cc18c9ab58d41a0a91df79bed878952aa88f7433a8009820890508a8a7f637e4ac13df1eefbc7ee982d5a044b89a20d383b17fa5a23bfe25a7915d8885f098b8c8b7f35151e81622f69dec5eedf76619630dc42997eeaf162fdda7644ce726da53c3b09820890508b8c8a7f707fbbeb0bf2b5aa6ed7573b46506eff64c69ce781aa7fa616e3d53390922a1e09820890508b8c897f5e876f8493c339c36750caa31382bea4a90d6928976a3f996a30a3f1af778f6309820890508b8c887f121909e9d5554a3b3d207272ad07359bb49136e23fe6f0d1c62c3bf940ca5bcd0982089050849a5083995082985081975080965050505050507f66c00c9738eaa31d7b0b8a2fe0b1de81d8b42fc536383a40509079e97615197d860195507f1fcfaf860b9f60eea753e8a2d79c344bf94384942cd898fd9a254acb40469c50850194507f28b4dc5e4f2550e929ed53c414e2cfea1ca76b137f7ebec54533c4652105b938840193507f472b0e17b62a901a4747be944d427c0e3a501de3403e4551c1cd29a04090e6aa830192507f52f256eaa5ed5afc5b02bfd70dc7c70eaedbc3f89d72140b4374c36741c17f7282019150858781820996508787880996508781880996505086867f5edc4de43ff07c60ace8f91ac726180f38604b5bb2f2ab2c27aa2a4d53cf7081098788877f21c0f632624d48a11931e2bcb8695897e5cb1d7cec432d115df1b25ea0d9d4a309820890508788867f4243ff5f4a234a2256286afa4ec59b4c9c32439c0869f1aa0b92a5ab82ee1b3809820890508788857f7344ba891ca71591e07e7e6aa563931b9d07b548c816668af7f6170e5c8cd07309820890508788847f20c42fc15a32ed98b81609d1e9de98f255e4b46414af1dad036bfe255d3d2f19098208905087877f68186626fb0239ce09c22fe4ec756ab3dede54596e3cc426ac7ec1f5c38881f2098889887f1cdfe1f1de4a7290ab39316b544da5e6576d4d1c05eaf0719c3c60867fab037209820890508889877f1992e57fe5537033e0b3711c4aba9a6630fdf87a5962a442e926718e92f7e57309820890508889867f5033856a6fe61acbb5a95e6f8e1d6e5aca6e1d2125d0c03d864e8fecdb3ccd4a09820890508889857f09e7c08b5c3289751cf3e30a7ab45c59aaca49585c3f08fb39a67bc9466cceb2098208905088887f73ac6ff5f192940a6a3198b94a158121172678891e35c8895c6a20f4164f7c9309898a897f03ac6b5eccedc5da43ff372db13fa55ac197bb9592e15d4feb74ee152e90e9520982089050898a887f1574427d32abdcde8a24db9e42219c68f84d89f342f0eb455309c7937054f8420982089050898a877f21fcae8d9f8f62a956217b8fd134560fc2654527ee9e5359beefb95b2c59288d0982089050898a867f06ca0c88a61632956a1d3e91999c842f03b6e7f121df734ce75682fbfa1ef7f9098208905089897f4ce4f0699adf8172f73b8cd2407d7db698a2625bf837b95a35abbf4eddcbd7dd098a8b8a7f1a0f8b3e444c78fcc67ce285e743094a787745b2761df2203979fc08d3ab3a9909820890508a8b897f40a3f19fa4064fd9c119dd0acaea02ea3ae33a5df8b181867ff6b705f159e4af09820890508a8b887f051d14de8bbf745f9f8a20682c4104c48a0198e8f604ae06b45de4051d90065c09820890508a8b877f294ce128d90968ca910a8cc18c9ab58d41a0a91df79bed878952aa88f7433a8009820890508a8a7f637e4ac13df1eefbc7ee982d5a044b89a20d383b17fa5a23bfe25a7915d8885f098b8c8b7f35151e81622f69dec5eedf76619630dc42997eeaf162fdda7644ce726da53c3b09820890508b8c8a7f707fbbeb0bf2b5aa6ed7573b46506eff64c69ce781aa7fa616e3d53390922a1e09820890508b8c897f5e876f8493c339c36750caa31382bea4a90d6928976a3f996a30a3f1af778f6309820890508b8c887f121909e9d5554a3b3d207272ad07359bb49136e23fe6f0d1c62c3bf940ca5bcd0982089050849a5083995082985081975080965050505050507f604a77f3a748eb226cf823c3ee35009d95a99eeae0d0b59513fef0356204b9b1860195507f0b6e82f7e448979b1f794e2449f4cf865d12dd0515ce061ecc2de699ab8f9364850194507f08ac469169f16f69d9953b3f0060e6356abcc7eaf46216a83146e6470d0f3407840193507f593ae35f24590d6e1125e9a4e968e2a03424e6527173002e20f10da98739be87830192507f1842a0080d610897631657769cfe98480828c5af6f8ab0454e1fc5181871abfb82019150858781820996508787880996508781880996505086867f5edc4de43ff07c60ace8f91ac726180f38604b5bb2f2ab2c27aa2a4d53cf7081098788877f21c0f632624d48a11931e2bcb8695897e5cb1d7cec432d115df1b25ea0d9d4a309820890508788867f4243ff5f4a234a2256286afa4ec59b4c9c32439c0869f1aa0b92a5ab82ee1b3809820890508788857f7344ba891ca71591e07e7e6aa563931b9d07b548c816668af7f6170e5c8cd07309820890508788847f20c42fc15a32ed98b81609d1e9de98f255e4b46414af1dad036bfe255d3d2f19098208905087877f68186626fb0239ce09c22fe4ec756ab3dede54596e3cc426ac7ec1f5c38881f2098889887f1cdfe1f1de4a7290ab39316b544da5e6576d4d1c05eaf0719c3c60867fab037209820890508889877f1992e57fe5537033e0b3711c4aba9a6630fdf87a5962a442e926718e92f7e57309820890508889867f5033856a6fe61acbb5a95e6f8e1d6e5aca6e1d2125d0c03d864e8fecdb3ccd4a09820890508889857f09e7c08b5c3289751cf3e30a7ab45c59aaca49585c3f08fb39a67bc9466cceb2098208905088887f73ac6ff5f192940a6a3198b94a158121172678891e35c8895c6a20f4164f7c9309898a897f03ac6b5eccedc5da43ff372db13fa55ac197bb9592e15d4feb74ee152e90e9520982089050898a887f1574427d32abdcde8a24db9e42219c68f84d89f342f0eb455309c7937054f8420982089050898a877f21fcae8d9f8f62a956217b8fd134560fc2654527ee9e5359beefb95b2c59288d0982089050898a867f06ca0c88a61632956a1d3e91999c842f03b6e7f121df734ce75682fbfa1ef7f9098208905089897f4ce4f0699adf8172f73b8cd2407d7db698a2625bf837b95a35abbf4eddcbd7dd098a8b8a7f1a0f8b3e444c78fcc67ce285e743094a787745b2761df2203979fc08d3ab3a9909820890508a8b897f40a3f19fa4064fd9c119dd0acaea02ea3ae33a5df8b181867ff6b705f159e4af09820890508a8b887f051d14de8bbf745f9f8a20682c4104c48a0198e8f604ae06b45de4051d90065c09820890508a8b877f294ce128d90968ca910a8cc18c9ab58d41a0a91df79bed878952aa88f7433a8009820890508a8a7f637e4ac13df1eefbc7ee982d5a044b89a20d383b17fa5a23bfe25a7915d8885f098b8c8b7f35151e81622f69dec5eedf76619630dc42997eeaf162fdda7644ce726da53c3b09820890508b8c8a7f707fbbeb0bf2b5aa6ed7573b46506eff64c69ce781aa7fa616e3d53390922a1e09820890508b8c897f5e876f8493c339c36750caa31382bea4a90d6928976a3f996a30a3f1af778f6309820890508b8c887f121909e9d5554a3b3d207272ad07359bb49136e23fe6f0d1c62c3bf940ca5bcd0982089050849a5083995082985081975080965050505050507f1b4617ab22cbbeb10c39493e2dc4b465e17e795b82ebb9c986a18ea0c5f71312860195507f12f49e7b20d1b518f36f2d3aea11fd8b60f19cf5b0a2416076f12a8b203f1854850194507f2930f273fa05d398e9439d14b49ae806649b330696b98864d603dae3afb0ec37840193507f0bd3c0be6e783e92b477cc3429c27de9c532f3269d540c49be9ea939d7a1a68b830192507f58cca0bc2eaee337303a1035429216b5f5b23acdcafd5496e30b85806a64ed5182019150858781820996508787880996508781880996505086867f5edc4de43ff07c60ace8f91ac726180f38604b5bb2f2ab2c27aa2a4d53cf7081098788877f21c0f632624d48a11931e2bcb8695897e5cb1d7cec432d115df1b25ea0d9d4a309820890508788867f4243ff5f4a234a2256286afa4ec59b4c9c32439c0869f1aa0b92a5ab82ee1b3809820890508788857f7344ba891ca71591e07e7e6aa563931b9d07b548c816668af7f6170e5c8cd07309820890508788847f20c42fc15a32ed98b81609d1e9de98f255e4b46414af1dad036bfe255d3d2f19098208905087877f68186626fb0239ce09c22fe4ec756ab3dede54596e3cc426ac7ec1f5c38881f2098889887f1cdfe1f1de4a7290ab39316b544da5e6576d4d1c05eaf0719c3c60867fab037209820890508889877f1992e57fe5537033e0b3711c4aba9a6630fdf87a5962a442e926718e92f7e57309820890508889867f5033856a6fe61acbb5a95e6f8e1d6e5aca6e1d2125d0c03d864e8fecdb3ccd4a09820890508889857f09e7c08b5c3289751cf3e30a7ab45c59aaca49585c3f08fb39a67bc9466cceb2098208905088887f73ac6ff5f192940a6a3198b94a158121172678891e35c8895c6a20f4164f7c9309898a897f03ac6b5eccedc5da43ff372db13fa55ac197bb9592e15d4feb74ee152e90e9520982089050898a887f1574427d32abdcde8a24db9e42219c68f84d89f342f0eb455309c7937054f8420982089050898a877f21fcae8d9f8f62a956217b8fd134560fc2654527ee9e5359beefb95b2c59288d0982089050898a867f06ca0c88a61632956a1d3e91999c842f03b6e7f121df734ce75682fbfa1ef7f9098208905089897f4ce4f0699adf8172f73b8cd2407d7db698a2625bf837b95a35abbf4eddcbd7dd098a8b8a7f1a0f8b3e444c78fcc67ce285e743094a787745b2761df2203979fc08d3ab3a9909820890508a8b897f40a3f19fa4064fd9c119dd0acaea02ea3ae33a5df8b181867ff6b705f159e4af09820890508a8b887f051d14de8bbf745f9f8a20682c4104c48a0198e8f604ae06b45de4051d90065c09820890508a8b877f294ce128d90968ca910a8cc18c9ab58d41a0a91df79bed878952aa88f7433a8009820890508a8a7f637e4ac13df1eefbc7ee982d5a044b89a20d383b17fa5a23bfe25a7915d8885f098b8c8b7f35151e81622f69dec5eedf76619630dc42997eeaf162fdda7644ce726da53c3b09820890508b8c8a7f707fbbeb0bf2b5aa6ed7573b46506eff64c69ce781aa7fa616e3d53390922a1e09820890508b8c897f5e876f8493c339c36750caa31382bea4a90d6928976a3f996a30a3f1af778f6309820890508b8c887f121909e9d5554a3b3d207272ad07359bb49136e23fe6f0d1c62c3bf940ca5bcd0982089050849a5083995082985081975080965050505050507f22f54df37e0c28d9ff08bfad67c572127f657256b93974992e90c362b84c142d860195507f4f227e82309f2af0243a3840e8d3a457b328e00c00b6d58a76dd7ad245e792d7850194507f4fa65b781e4c2ed965b74c201e8af52a835bc991db3ae610be9ece0778221fab840193507f6168f0439fe970f7cc596c8a18bdf3e7285c9eb52e3372afa9084df3cbadcb2c830192507f2ee0f0f1b7fae6d6ec9851629b8410c9b0d80ffa0e6bca06d6009c174b4cde7682019150858781820996508787880996508781880996505086867f5edc4de43ff07c60ace8f91ac726180f38604b5bb2f2ab2c27aa2a4d53cf7081098788877f21c0f632624d48a11931e2bcb8695897e5cb1d7cec432d115df1b25ea0d9d4a309820890508788867f4243ff5f4a234a2256286afa4ec59b4c9c32439c0869f1aa0b92a5ab82ee1b3809820890508788857f7344ba891ca71591e07e7e6aa563931b9d07b548c816668af7f6170e5c8cd07309820890508788847f20c42fc15a32ed98b81609d1e9de98f255e4b46414af1dad036bfe255d3d2f19098208905087877f68186626fb0239ce09c22fe4ec756ab3dede54596e3cc426ac7ec1f5c38881f2098889887f1cdfe1f1de4a7290ab39316b544da5e6576d4d1c05eaf0719c3c60867fab037209820890508889877f1992e57fe5537033e0b3711c4aba9a6630fdf87a5962a442e926718e92f7e57309820890508889867f5033856a6fe61acbb5a95e6f8e1d6e5aca6e1d2125d0c03d864e8fecdb3ccd4a09820890508889857f09e7c08b5c3289751cf3e30a7ab45c59aaca49585c3f08fb39a67bc9466cceb2098208905088887f73ac6ff5f192940a6a3198b94a158121172678891e35c8895c6a20f4164f7c9309898a897f03ac6b5eccedc5da43ff372db13fa55ac197bb9592e15d4feb74ee152e90e9520982089050898a887f1574427d32abdcde8a24db9e42219c68f84d89f342f0eb455309c7937054f8420982089050898a877f21fcae8d9f8f62a956217b8fd134560fc2654527ee9e5359beefb95b2c59288d0982089050898a867f06ca0c88a61632956a1d3e91999c842f03b6e7f121df734ce75682fbfa1ef7f9098208905089897f4ce4f0699adf8172f73b8cd2407d7db698a2625bf837b95a35abbf4eddcbd7dd098a8b8a7f1a0f8b3e444c78fcc67ce285e743094a787745b2761df2203979fc08d3ab3a9909820890508a8b897f40a3f19fa4064fd9c119dd0acaea02ea3ae33a5df8b181867ff6b705f159e4af09820890508a8b887f051d14de8bbf745f9f8a20682c4104c48a0198e8f604ae06b45de4051d90065c09820890508a8b877f294ce128d90968ca910a8cc18c9ab58d41a0a91df79bed878952aa88f7433a8009820890508a8a7f637e4ac13df1eefbc7ee982d5a044b89a20d383b17fa5a23bfe25a7915d8885f098b8c8b7f35151e81622f69dec5eedf76619630dc42997eeaf162fdda7644ce726da53c3b09820890508b8c8a7f707fbbeb0bf2b5aa6ed7573b46506eff64c69ce781aa7fa616e3d53390922a1e09820890508b8c897f5e876f8493c339c36750caa31382bea4a90d6928976a3f996a30a3f1af778f6309820890508b8c887f121909e9d5554a3b3d207272ad07359bb49136e23fe6f0d1c62c3bf940ca5bcd0982089050849a5083995082985081975080965050505050507f463de84b0649f8fc6c262e00e6a950a656604a8ca21a527950f6eee511e7118a860195507f5fb8be949ded20fddbca6db6105d2a0b64e527932a3924fad59a96a58b34bf8e850194507f0c2e0aa86422baebfbd0e70123222cf86ab85010684f0d6d4b7fbf8e2b968001840193507f5f8726f651ad2518b78c6fe100462dc0c13d8acf6e42651d682297cea73fc868830192507f51c95bf666ff8fecf4e0b85bb58b834d2218d9f20170bf1be5d3c9aec43def3882019150858781820996508787880996508781880996505086867f5edc4de43ff07c60ace8f91ac726180f38604b5bb2f2ab2c27aa2a4d53cf7081098788877f21c0f632624d48a11931e2bcb8695897e5cb1d7cec432d115df1b25ea0d9d4a309820890508788867f4243ff5f4a234a2256286afa4ec59b4c9c32439c0869f1aa0b92a5ab82ee1b3809820890508788857f7344ba891ca71591e07e7e6aa563931b9d07b548c816668af7f6170e5c8cd07309820890508788847f20c42fc15a32ed98b81609d1e9de98f255e4b46414af1dad036bfe255d3d2f19098208905087877f68186626fb0239ce09c22fe4ec756ab3dede54596e3cc426ac7ec1f5c38881f2098889887f1cdfe1f1de4a7290ab39316b544da5e6576d4d1c05eaf0719c3c60867fab037209820890508889877f1992e57fe5537033e0b3711c4aba9a6630fdf87a5962a442e926718e92f7e57309820890508889867f5033856a6fe61acbb5a95e6f8e1d6e5aca6e1d2125d0c03d864e8fecdb3ccd4a09820890508889857f09e7c08b5c3289751cf3e30a7ab45c59aaca49585c3f08fb39a67bc9466cceb2098208905088887f73ac6ff5f192940a6a3198b94a158121172678891e35c8895c6a20f4164f7c9309898a897f03ac6b5eccedc5da43ff372db13fa55ac197bb9592e15d4feb74ee152e90e9520982089050898a887f1574427d32abdcde8a24db9e42219c68f84d89f342f0eb455309c7937054f8420982089050898a877f21fcae8d9f8f62a956217b8fd134560fc2654527ee9e5359beefb95b2c59288d0982089050898a867f06ca0c88a61632956a1d3e91999c842f03b6e7f121df734ce75682fbfa1ef7f9098208905089897f4ce4f0699adf8172f73b8cd2407d7db698a2625bf837b95a35abbf4eddcbd7dd098a8b8a7f1a0f8b3e444c78fcc67ce285e743094a787745b2761df2203979fc08d3ab3a9909820890508a8b897f40a3f19fa4064fd9c119dd0acaea02ea3ae33a5df8b181867ff6b705f159e4af09820890508a8b887f051d14de8bbf745f9f8a20682c4104c48a0198e8f604ae06b45de4051d90065c09820890508a8b877f294ce128d90968ca910a8cc18c9ab58d41a0a91df79bed878952aa88f7433a8009820890508a8a7f637e4ac13df1eefbc7ee982d5a044b89a20d383b17fa5a23bfe25a7915d8885f098b8c8b7f35151e81622f69dec5eedf76619630dc42997eeaf162fdda7644ce726da53c3b09820890508b8c8a7f707fbbeb0bf2b5aa6ed7573b46506eff64c69ce781aa7fa616e3d53390922a1e09820890508b8c897f5e876f8493c339c36750caa31382bea4a90d6928976a3f996a30a3f1af778f6309820890508b8c887f121909e9d5554a3b3d207272ad07359bb49136e23fe6f0d1c62c3bf940ca5bcd0982089050849a5083995082985081975080965050505050507f3c4a879d04291aec2897628e731f3f63e04a8c7cd382a8c0fb014a62bbe8be61860195507f4e3f2713561dd6e4b5071e0759eaa9545eab7b6335466e7c618d3988d1bad504850194507f1158d86cddece49c18d48e32822fb977de5033e0e902c45601f8852193e4a604840193507f02263730859a58ba2d3db60d5d7c7466824850b3207435e476ba35890a37fd2c830192507f4d439b61a3703c36425888a3acf85639085b9a95429dcedd1b046c0a4a78acc582019150858781820996508787880996508781880996505086867f5edc4de43ff07c60ace8f91ac726180f38604b5bb2f2ab2c27aa2a4d53cf7081098788877f21c0f632624d48a11931e2bcb8695897e5cb1d7cec432d115df1b25ea0d9d4a309820890508788867f4243ff5f4a234a2256286afa4ec59b4c9c32439c0869f1aa0b92a5ab82ee1b3809820890508788857f7344ba891ca71591e07e7e6aa563931b9d07b548c816668af7f6170e5c8cd07309820890508788847f20c42fc15a32ed98b81609d1e9de98f255e4b46414af1dad036bfe255d3d2f19098208905087877f68186626fb0239ce09c22fe4ec756ab3dede54596e3cc426ac7ec1f5c38881f2098889887f1cdfe1f1de4a7290ab39316b544da5e6576d4d1c05eaf0719c3c60867fab037209820890508889877f1992e57fe5537033e0b3711c4aba9a6630fdf87a5962a442e926718e92f7e57309820890508889867f5033856a6fe61acbb5a95e6f8e1d6e5aca6e1d2125d0c03d864e8fecdb3ccd4a09820890508889857f09e7c08b5c3289751cf3e30a7ab45c59aaca49585c3f08fb39a67bc9466cceb2098208905088887f73ac6ff5f192940a6a3198b94a158121172678891e35c8895c6a20f4164f7c9309898a897f03ac6b5eccedc5da43ff372db13fa55ac197bb9592e15d4feb74ee152e90e9520982089050898a887f1574427d32abdcde8a24db9e42219c68f84d89f342f0eb455309c7937054f8420982089050898a877f21fcae8d9f8f62a956217b8fd134560fc2654527ee9e5359beefb95b2c59288d0982089050898a867f06ca0c88a61632956a1d3e91999c842f03b6e7f121df734ce75682fbfa1ef7f9098208905089897f4ce4f0699adf8172f73b8cd2407d7db698a2625bf837b95a35abbf4eddcbd7dd098a8b8a7f1a0f8b3e444c78fcc67ce285e743094a787745b2761df2203979fc08d3ab3a9909820890508a8b897f40a3f19fa4064fd9c119dd0acaea02ea3ae33a5df8b181867ff6b705f159e4af09820890508a8b887f051d14de8bbf745f9f8a20682c4104c48a0198e8f604ae06b45de4051d90065c09820890508a8b877f294ce128d90968ca910a8cc18c9ab58d41a0a91df79bed878952aa88f7433a8009820890508a8a7f637e4ac13df1eefbc7ee982d5a044b89a20d383b17fa5a23bfe25a7915d8885f098b8c8b7f35151e81622f69dec5eedf76619630dc42997eeaf162fdda7644ce726da53c3b09820890508b8c8a7f707fbbeb0bf2b5aa6ed7573b46506eff64c69ce781aa7fa616e3d53390922a1e09820890508b8c897f5e876f8493c339c36750caa31382bea4a90d6928976a3f996a30a3f1af778f6309820890508b8c887f121909e9d5554a3b3d207272ad07359bb49136e23fe6f0d1c62c3bf940ca5bcd0982089050849a5083995082985081975080965050505050507f1330cb0c5d2fa075aabb6bfb28276a9bbb44fb43306a63246aae25e1527868bd860195507f16b95b643081cb043bdae50355f91df79c9b588c43e59038e6e6d0cc1698b5a5850194507f1fb8d50108e2fb3ea1f80aa372da950a36eca4571240be90aa5b3fccfef3c321840193507f4a53ec9735e16f6183934f1a7813d75cd11bbde409d8b262273bdfe5bc5dcc50830192507f079ba56e1ca1d8c8eade23e8273e2db2a486901dbce8cd86caf41ae406fa21d582019150858781820996508787880996508781880996505086867f5edc4de43ff07c60ace8f91ac726180f38604b5bb2f2ab2c27aa2a4d53cf7081098788877f21c0f632624d48a11931e2bcb8695897e5cb1d7cec432d115df1b25ea0d9d4a309820890508788867f4243ff5f4a234a2256286afa4ec59b4c9c32439c0869f1aa0b92a5ab82ee1b3809820890508788857f7344ba891ca71591e07e7e6aa563931b9d07b548c816668af7f6170e5c8cd07309820890508788847f20c42fc15a32ed98b81609d1e9de98f255e4b46414af1dad036bfe255d3d2f19098208905087877f68186626fb0239ce09c22fe4ec756ab3dede54596e3cc426ac7ec1f5c38881f2098889887f1cdfe1f1de4a7290ab39316b544da5e6576d4d1c05eaf0719c3c60867fab037209820890508889877f1992e57fe5537033e0b3711c4aba9a6630fdf87a5962a442e926718e92f7e57309820890508889867f5033856a6fe61acbb5a95e6f8e1d6e5aca6e1d2125d0c03d864e8fecdb3ccd4a09820890508889857f09e7c08b5c3289751cf3e30a7ab45c59aaca49585c3f08fb39a67bc9466cceb2098208905088887f73ac6ff5f192940a6a3198b94a158121172678891e35c8895c6a20f4164f7c9309898a897f03ac6b5eccedc5da43ff372db13fa55ac197bb9592e15d4feb74ee152e90e9520982089050898a887f1574427d32abdcde8a24db9e42219c68f84d89f342f0eb455309c7937054f8420982089050898a877f21fcae8d9f8f62a956217b8fd134560fc2654527ee9e5359beefb95b2c59288d0982089050898a867f06ca0c88a61632956a1d3e91999c842f03b6e7f121df734ce75682fbfa1ef7f9098208905089897f4ce4f0699adf8172f73b8cd2407d7db698a2625bf837b95a35abbf4eddcbd7dd098a8b8a7f1a0f8b3e444c78fcc67ce285e743094a787745b2761df2203979fc08d3ab3a9909820890508a8b897f40a3f19fa4064fd9c119dd0acaea02ea3ae33a5df8b181867ff6b705f159e4af09820890508a8b887f051d14de8bbf745f9f8a20682c4104c48a0198e8f604ae06b45de4051d90065c09820890508a8b877f294ce128d90968ca910a8cc18c9ab58d41a0a91df79bed878952aa88f7433a8009820890508a8a7f637e4ac13df1eefbc7ee982d5a044b89a20d383b17fa5a23bfe25a7915d8885f098b8c8b7f35151e81622f69dec5eedf76619630dc42997eeaf162fdda7644ce726da53c3b09820890508b8c8a7f707fbbeb0bf2b5aa6ed7573b46506eff64c69ce781aa7fa616e3d53390922a1e09820890508b8c897f5e876f8493c339c36750caa31382bea4a90d6928976a3f996a30a3f1af778f6309820890508b8c887f121909e9d5554a3b3d207272ad07359bb49136e23fe6f0d1c62c3bf940ca5bcd0982089050849a5083995082985081975080965050505050507f38ed6aa3cc88a95fb845db9d5ef043ecacbfac58a8bb5cd9bce8e4d1e5967c68860195507f2aae4dacc5a04fc32d1abd33601ee1c23c2986cc24dd63bf6d63be3a996fc5f4850194507f4d34a394da7c0ecb24de0dff84192c35090ba8748d5690272f9948efd2d095b4840193507f42b103442e734014097c5c63f509110dbc1872226e7db81b19c474c4c406aa18830192507f48a2063c98229fdaa1768185d6a3f4dea3db1ce1de6b7b121794580993f5c78c82019150858781820996508787880996508781880996505086867f5edc4de43ff07c60ace8f91ac726180f38604b5bb2f2ab2c27aa2a4d53cf7081098788877f21c0f632624d48a11931e2bcb8695897e5cb1d7cec432d115df1b25ea0d9d4a309820890508788867f4243ff5f4a234a2256286afa4ec59b4c9c32439c0869f1aa0b92a5ab82ee1b3809820890508788857f7344ba891ca71591e07e7e6aa563931b9d07b548c816668af7f6170e5c8cd07309820890508788847f20c42fc15a32ed98b81609d1e9de98f255e4b46414af1dad036bfe255d3d2f19098208905087877f68186626fb0239ce09c22fe4ec756ab3dede54596e3cc426ac7ec1f5c38881f2098889887f1cdfe1f1de4a7290ab39316b544da5e6576d4d1c05eaf0719c3c60867fab037209820890508889877f1992e57fe5537033e0b3711c4aba9a6630fdf87a5962a442e926718e92f7e57309820890508889867f5033856a6fe61acbb5a95e6f8e1d6e5aca6e1d2125d0c03d864e8fecdb3ccd4a09820890508889857f09e7c08b5c3289751cf3e30a7ab45c59aaca49585c3f08fb39a67bc9466cceb2098208905088887f73ac6ff5f192940a6a3198b94a158121172678891e35c8895c6a20f4164f7c9309898a897f03ac6b5eccedc5da43ff372db13fa55ac197bb9592e15d4feb74ee152e90e9520982089050898a887f1574427d32abdcde8a24db9e42219c68f84d89f342f0eb455309c7937054f8420982089050898a877f21fcae8d9f8f62a956217b8fd134560fc2654527ee9e5359beefb95b2c59288d0982089050898a867f06ca0c88a61632956a1d3e91999c842f03b6e7f121df734ce75682fbfa1ef7f9098208905089897f4ce4f0699adf8172f73b8cd2407d7db698a2625bf837b95a35abbf4eddcbd7dd098a8b8a7f1a0f8b3e444c78fcc67ce285e743094a787745b2761df2203979fc08d3ab3a9909820890508a8b897f40a3f19fa4064fd9c119dd0acaea02ea3ae33a5df8b181867ff6b705f159e4af09820890508a8b887f051d14de8bbf745f9f8a20682c4104c48a0198e8f604ae06b45de4051d90065c09820890508a8b877f294ce128d90968ca910a8cc18c9ab58d41a0a91df79bed878952aa88f7433a8009820890508a8a7f637e4ac13df1eefbc7ee982d5a044b89a20d383b17fa5a23bfe25a7915d8885f098b8c8b7f35151e81622f69dec5eedf76619630dc42997eeaf162fdda7644ce726da53c3b09820890508b8c8a7f707fbbeb0bf2b5aa6ed7573b46506eff64c69ce781aa7fa616e3d53390922a1e09820890508b8c897f5e876f8493c339c36750caa31382bea4a90d6928976a3f996a30a3f1af778f6309820890508b8c887f121909e9d5554a3b3d207272ad07359bb49136e23fe6f0d1c62c3bf940ca5bcd0982089050849a5083995082985081975080965050505050507f6ce4def3b2ebbdc1a4cf7f1a57d58467b1c48be6aa9c55c21696456dd58f03bb860195507f195ce730b876d5929a76a7c5d69bf1911280dab5a69c2cd38ee4b61dadfc00e2850194507f63bf1167c90f8dd2360d3e401c7fbed17da04b327ea2c94875739591bdc7d5dc840193507f5db879cb0bbf165c80452e14073c8b96ab8fb608a22b43c3cf267419c0dbf3c8830192507f472b50d6fb5d632e95ae0c5dd5f071ec8b6b4ee1407e5f3996a3b6e9c2a3d58782019150858781820996508787880996508781880996505086867f5edc4de43ff07c60ace8f91ac726180f38604b5bb2f2ab2c27aa2a4d53cf7081098788877f21c0f632624d48a11931e2bcb8695897e5cb1d7cec432d115df1b25ea0d9d4a309820890508788867f4243ff5f4a234a2256286afa4ec59b4c9c32439c0869f1aa0b92a5ab82ee1b3809820890508788857f7344ba891ca71591e07e7e6aa563931b9d07b548c816668af7f6170e5c8cd07309820890508788847f20c42fc15a32ed98b81609d1e9de98f255e4b46414af1dad036bfe255d3d2f19098208905087877f68186626fb0239ce09c22fe4ec756ab3dede54596e3cc426ac7ec1f5c38881f2098889887f1cdfe1f1de4a7290ab39316b544da5e6576d4d1c05eaf0719c3c60867fab037209820890508889877f1992e57fe5537033e0b3711c4aba9a6630fdf87a5962a442e926718e92f7e57309820890508889867f5033856a6fe61acbb5a95e6f8e1d6e5aca6e1d2125d0c03d864e8fecdb3ccd4a09820890508889857f09e7c08b5c3289751cf3e30a7ab45c59aaca49585c3f08fb39a67bc9466cceb2098208905088887f73ac6ff5f192940a6a3198b94a158121172678891e35c8895c6a20f4164f7c9309898a897f03ac6b5eccedc5da43ff372db13fa55ac197bb9592e15d4feb74ee152e90e9520982089050898a887f1574427d32abdcde8a24db9e42219c68f84d89f342f0eb455309c7937054f8420982089050898a877f21fcae8d9f8f62a956217b8fd134560fc2654527ee9e5359beefb95b2c59288d0982089050898a867f06ca0c88a61632956a1d3e91999c842f03b6e7f121df734ce75682fbfa1ef7f9098208905089897f4ce4f0699adf8172f73b8cd2407d7db698a2625bf837b95a35abbf4eddcbd7dd098a8b8a7f1a0f8b3e444c78fcc67ce285e743094a787745b2761df2203979fc08d3ab3a9909820890508a8b897f40a3f19fa4064fd9c119dd0acaea02ea3ae33a5df8b181867ff6b705f159e4af09820890508a8b887f051d14de8bbf745f9f8a20682c4104c48a0198e8f604ae06b45de4051d90065c09820890508a8b877f294ce128d90968ca910a8cc18c9ab58d41a0a91df79bed878952aa88f7433a8009820890508a8a7f637e4ac13df1eefbc7ee982d5a044b89a20d383b17fa5a23bfe25a7915d8885f098b8c8b7f35151e81622f69dec5eedf76619630dc42997eeaf162fdda7644ce726da53c3b09820890508b8c8a7f707fbbeb0bf2b5aa6ed7573b46506eff64c69ce781aa7fa616e3d53390922a1e09820890508b8c897f5e876f8493c339c36750caa31382bea4a90d6928976a3f996a30a3f1af778f6309820890508b8c887f121909e9d5554a3b3d207272ad07359bb49136e23fe6f0d1c62c3bf940ca5bcd0982089050849a5083995082985081975080965050505050507f3cb873e98b29b2ed4d8066a06315d673bdff53c907b9adfbf52b37bd9799521c860195507f0793192ee98e2f57a73911ddb781380b061b92218fb0d79416ff47ce679703c3850194507f3c159af2d3c008156298b33d8cab5ec2e8cd70773d81414266812783cdabe19a840193507f1c065141b64831c3ca0dcaf2d805bca7fa9473b9b163fa4c35fa3c83d2f933eb830192507f23943e9e8a571aeb36c24eea0d3ee5f097aef800b3b8744189c74c6abe4f340782019150858781820996508787880996508781880996505086867f5edc4de43ff07c60ace8f91ac726180f38604b5bb2f2ab2c27aa2a4d53cf7081098788877f21c0f632624d48a11931e2bcb8695897e5cb1d7cec432d115df1b25ea0d9d4a309820890508788867f4243ff5f4a234a2256286afa4ec59b4c9c32439c0869f1aa0b92a5ab82ee1b3809820890508788857f7344ba891ca71591e07e7e6aa563931b9d07b548c816668af7f6170e5c8cd07309820890508788847f20c42fc15a32ed98b81609d1e9de98f255e4b46414af1dad036bfe255d3d2f19098208905087877f68186626fb0239ce09c22fe4ec756ab3dede54596e3cc426ac7ec1f5c38881f2098889887f1cdfe1f1de4a7290ab39316b544da5e6576d4d1c05eaf0719c3c60867fab037209820890508889877f1992e57fe5537033e0b3711c4aba9a6630fdf87a5962a442e926718e92f7e57309820890508889867f5033856a6fe61acbb5a95e6f8e1d6e5aca6e1d2125d0c03d864e8fecdb3ccd4a09820890508889857f09e7c08b5c3289751cf3e30a7ab45c59aaca49585c3f08fb39a67bc9466cceb2098208905088887f73ac6ff5f192940a6a3198b94a158121172678891e35c8895c6a20f4164f7c9309898a897f03ac6b5eccedc5da43ff372db13fa55ac197bb9592e15d4feb74ee152e90e9520982089050898a887f1574427d32abdcde8a24db9e42219c68f84d89f342f0eb455309c7937054f8420982089050898a877f21fcae8d9f8f62a956217b8fd134560fc2654527ee9e5359beefb95b2c59288d0982089050898a867f06ca0c88a61632956a1d3e91999c842f03b6e7f121df734ce75682fbfa1ef7f9098208905089897f4ce4f0699adf8172f73b8cd2407d7db698a2625bf837b95a35abbf4eddcbd7dd098a8b8a7f1a0f8b3e444c78fcc67ce285e743094a787745b2761df2203979fc08d3ab3a9909820890508a8b897f40a3f19fa4064fd9c119dd0acaea02ea3ae33a5df8b181867ff6b705f159e4af09820890508a8b887f051d14de8bbf745f9f8a20682c4104c48a0198e8f604ae06b45de4051d90065c09820890508a8b877f294ce128d90968ca910a8cc18c9ab58d41a0a91df79bed878952aa88f7433a8009820890508a8a7f637e4ac13df1eefbc7ee982d5a044b89a20d383b17fa5a23bfe25a7915d8885f098b8c8b7f35151e81622f69dec5eedf76619630dc42997eeaf162fdda7644ce726da53c3b09820890508b8c8a7f707fbbeb0bf2b5aa6ed7573b46506eff64c69ce781aa7fa616e3d53390922a1e09820890508b8c897f5e876f8493c339c36750caa31382bea4a90d6928976a3f996a30a3f1af778f6309820890508b8c887f121909e9d5554a3b3d207272ad07359bb49136e23fe6f0d1c62c3bf940ca5bcd0982089050849a5083995082985081975080965050505050507f3e9bf606619c174b6b417a2fd7bcf68269a082c5bd72fd8dd668bb3be7cbea16860195507f480648a70c24e511be0e6d05d6d9a465877d3fd3428aa4b1a9e9e41de5c6b440850194507f4324bdda4691820deb1481dbda3abb1cd5a05ccedf764b01317deabfd3e044f1840193507f6f2915f09c70fb227bb6c0a4e7f134e85629d9a5b547de9a9cf74fb851384641830192507f5f6d84cceaa1d3d3100a850dff27eb37f63db619532cf27291d5b35713ff215b82019150858781820996508787880996508781880996505086867f5edc4de43ff07c60ace8f91ac726180f38604b5bb2f2ab2c27aa2a4d53cf7081098788877f21c0f632624d48a11931e2bcb8695897e5cb1d7cec432d115df1b25ea0d9d4a309820890508788867f4243ff5f4a234a2256286afa4ec59b4c9c32439c0869f1aa0b92a5ab82ee1b3809820890508788857f7344ba891ca71591e07e7e6aa563931b9d07b548c816668af7f6170e5c8cd07309820890508788847f20c42fc15a32ed98b81609d1e9de98f255e4b46414af1dad036bfe255d3d2f19098208905087877f68186626fb0239ce09c22fe4ec756ab3dede54596e3cc426ac7ec1f5c38881f2098889887f1cdfe1f1de4a7290ab39316b544da5e6576d4d1c05eaf0719c3c60867fab037209820890508889877f1992e57fe5537033e0b3711c4aba9a6630fdf87a5962a442e926718e92f7e57309820890508889867f5033856a6fe61acbb5a95e6f8e1d6e5aca6e1d2125d0c03d864e8fecdb3ccd4a09820890508889857f09e7c08b5c3289751cf3e30a7ab45c59aaca49585c3f08fb39a67bc9466cceb2098208905088887f73ac6ff5f192940a6a3198b94a158121172678891e35c8895c6a20f4164f7c9309898a897f03ac6b5eccedc5da43ff372db13fa55ac197bb9592e15d4feb74ee152e90e9520982089050898a887f1574427d32abdcde8a24db9e42219c68f84d89f342f0eb455309c7937054f8420982089050898a877f21fcae8d9f8f62a956217b8fd134560fc2654527ee9e5359beefb95b2c59288d0982089050898a867f06ca0c88a61632956a1d3e91999c842f03b6e7f121df734ce75682fbfa1ef7f9098208905089897f4ce4f0699adf8172f73b8cd2407d7db698a2625bf837b95a35abbf4eddcbd7dd098a8b8a7f1a0f8b3e444c78fcc67ce285e743094a787745b2761df2203979fc08d3ab3a9909820890508a8b897f40a3f19fa4064fd9c119dd0acaea02ea3ae33a5df8b181867ff6b705f159e4af09820890508a8b887f051d14de8bbf745f9f8a20682c4104c48a0198e8f604ae06b45de4051d90065c09820890508a8b877f294ce128d90968ca910a8cc18c9ab58d41a0a91df79bed878952aa88f7433a8009820890508a8a7f637e4ac13df1eefbc7ee982d5a044b89a20d383b17fa5a23bfe25a7915d8885f098b8c8b7f35151e81622f69dec5eedf76619630dc42997eeaf162fdda7644ce726da53c3b09820890508b8c8a7f707fbbeb0bf2b5aa6ed7573b46506eff64c69ce781aa7fa616e3d53390922a1e09820890508b8c897f5e876f8493c339c36750caa31382bea4a90d6928976a3f996a30a3f1af778f6309820890508b8c887f121909e9d5554a3b3d207272ad07359bb49136e23fe6f0d1c62c3bf940ca5bcd0982089050849a5083995082985081975080965050505050507f2fcbf6ae9d4cdb276ea017df3d2ebec767c2b7fe1bb8558e9a6e3322ae63a62b860195507f408c45f73c4165b6cd00567331a72b4e26d79dfc305da5da9b8fd34311bcff9c850194507f67799ccf850146c5f1ff10669a69189d943448ad0efea1c614133324e1505a5e840193507f51ec52ac5329ecfed2a65bf7694212c04f47f4628de8c011d93afdad53ac9d4d830192507e6e70e25eb8093bdcf955a5364a868b75d3729d057e78ad8358204ee3b1f8fb82019150858781820996508787880996508781880996505086867f5edc4de43ff07c60ace8f91ac726180f38604b5bb2f2ab2c27aa2a4d53cf7081098788877f21c0f632624d48a11931e2bcb8695897e5cb1d7cec432d115df1b25ea0d9d4a309820890508788867f4243ff5f4a234a2256286afa4ec59b4c9c32439c0869f1aa0b92a5ab82ee1b3809820890508788857f7344ba891ca71591e07e7e6aa563931b9d07b548c816668af7f6170e5c8cd07309820890508788847f20c42fc15a32ed98b81609d1e9de98f255e4b46414af1dad036bfe255d3d2f19098208905087877f68186626fb0239ce09c22fe4ec756ab3dede54596e3cc426ac7ec1f5c38881f2098889887f1cdfe1f1de4a7290ab39316b544da5e6576d4d1c05eaf0719c3c60867fab037209820890508889877f1992e57fe5537033e0b3711c4aba9a6630fdf87a5962a442e926718e92f7e57309820890508889867f5033856a6fe61acbb5a95e6f8e1d6e5aca6e1d2125d0c03d864e8fecdb3ccd4a09820890508889857f09e7c08b5c3289751cf3e30a7ab45c59aaca49585c3f08fb39a67bc9466cceb2098208905088887f73ac6ff5f192940a6a3198b94a158121172678891e35c8895c6a20f4164f7c9309898a897f03ac6b5eccedc5da43ff372db13fa55ac197bb9592e15d4feb74ee152e90e9520982089050898a887f1574427d32abdcde8a24db9e42219c68f84d89f342f0eb455309c7937054f8420982089050898a877f21fcae8d9f8f62a956217b8fd134560fc2654527ee9e5359beefb95b2c59288d0982089050898a867f06ca0c88a61632956a1d3e91999c842f03b6e7f121df734ce75682fbfa1ef7f9098208905089897f4ce4f0699adf8172f73b8cd2407d7db698a2625bf837b95a35abbf4eddcbd7dd098a8b8a7f1a0f8b3e444c78fcc67ce285e743094a787745b2761df2203979fc08d3ab3a9909820890508a8b897f40a3f19fa4064fd9c119dd0acaea02ea3ae33a5df8b181867ff6b705f159e4af09820890508a8b887f051d14de8bbf745f9f8a20682c4104c48a0198e8f604ae06b45de4051d90065c09820890508a8b877f294ce128d90968ca910a8cc18c9ab58d41a0a91df79bed878952aa88f7433a8009820890508a8a7f637e4ac13df1eefbc7ee982d5a044b89a20d383b17fa5a23bfe25a7915d8885f098b8c8b7f35151e81622f69dec5eedf76619630dc42997eeaf162fdda7644ce726da53c3b09820890508b8c8a7f707fbbeb0bf2b5aa6ed7573b46506eff64c69ce781aa7fa616e3d53390922a1e09820890508b8c897f5e876f8493c339c36750caa31382bea4a90d6928976a3f996a30a3f1af778f6309820890508b8c887f121909e9d5554a3b3d207272ad07359bb49136e23fe6f0d1c62c3bf940ca5bcd0982089050849a5083995082985081975080965050505050507f50d01794d6f55e78fd516d212da55c3bb16f616032c3a8c284c60d61f877090f860195507f1f74c3f88a37452f5fcd729af8fa1716e1d434d5a394e0457094f0563c31755b850194507f019487e8c5dbb68aa598be6e60a580aa186baca856104373fce6ef6cd87fddce840193507f4832ef55d38c938a015350f39b5b2185107dacce78ee4f85c47bbe5658e09ab8830192507f4a85d06c39d9c8c00baa1c5dfb59ff29ba80099912a56e9e8add6884763cd06882019150858781820996508787880996508781880996505086867f5edc4de43ff07c60ace8f91ac726180f38604b5bb2f2ab2c27aa2a4d53cf7081098788877f21c0f632624d48a11931e2bcb8695897e5cb1d7cec432d115df1b25ea0d9d4a309820890508788867f4243ff5f4a234a2256286afa4ec59b4c9c32439c0869f1aa0b92a5ab82ee1b3809820890508788857f7344ba891ca71591e07e7e6aa563931b9d07b548c816668af7f6170e5c8cd07309820890508788847f20c42fc15a32ed98b81609d1e9de98f255e4b46414af1dad036bfe255d3d2f19098208905087877f68186626fb0239ce09c22fe4ec756ab3dede54596e3cc426ac7ec1f5c38881f2098889887f1cdfe1f1de4a7290ab39316b544da5e6576d4d1c05eaf0719c3c60867fab037209820890508889877f1992e57fe5537033e0b3711c4aba9a6630fdf87a5962a442e926718e92f7e57309820890508889867f5033856a6fe61acbb5a95e6f8e1d6e5aca6e1d2125d0c03d864e8fecdb3ccd4a09820890508889857f09e7c08b5c3289751cf3e30a7ab45c59aaca49585c3f08fb39a67bc9466cceb2098208905088887f73ac6ff5f192940a6a3198b94a158121172678891e35c8895c6a20f4164f7c9309898a897f03ac6b5eccedc5da43ff372db13fa55ac197bb9592e15d4feb74ee152e90e9520982089050898a887f1574427d32abdcde8a24db9e42219c68f84d89f342f0eb455309c7937054f8420982089050898a877f21fcae8d9f8f62a956217b8fd134560fc2654527ee9e5359beefb95b2c59288d0982089050898a867f06ca0c88a61632956a1d3e91999c842f03b6e7f121df734ce75682fbfa1ef7f9098208905089897f4ce4f0699adf8172f73b8cd2407d7db698a2625bf837b95a35abbf4eddcbd7dd098a8b8a7f1a0f8b3e444c78fcc67ce285e743094a787745b2761df2203979fc08d3ab3a9909820890508a8b897f40a3f19fa4064fd9c119dd0acaea02ea3ae33a5df8b181867ff6b705f159e4af09820890508a8b887f051d14de8bbf745f9f8a20682c4104c48a0198e8f604ae06b45de4051d90065c09820890508a8b877f294ce128d90968ca910a8cc18c9ab58d41a0a91df79bed878952aa88f7433a8009820890508a8a7f637e4ac13df1eefbc7ee982d5a044b89a20d383b17fa5a23bfe25a7915d8885f098b8c8b7f35151e81622f69dec5eedf76619630dc42997eeaf162fdda7644ce726da53c3b09820890508b8c8a7f707fbbeb0bf2b5aa6ed7573b46506eff64c69ce781aa7fa616e3d53390922a1e09820890508b8c897f5e876f8493c339c36750caa31382bea4a90d6928976a3f996a30a3f1af778f6309820890508b8c887f121909e9d5554a3b3d207272ad07359bb49136e23fe6f0d1c62c3bf940ca5bcd0982089050849a5083995082985081975080965050505050507f41488ae48b74da505eb63124cc93220a6528420430bcc57338be26231ba3755b860195507f21b5d82ddd050ecca07247349ae1aa49c63d1d52941fbab73e5060fe8595e30d850194507f5c9b5273d97bbb50dc4cb6b754f15da0c9ff93a61d75f4395f02f0f4d173067a840193507f0a062f37f718f4c37a8c2bf9ef2f7c4a2119ba043eb6ffed51e0b5c55b7a247c830192507f159f9276bd128ed2d5b09f5fdaba71bf13806df7a17df30e6ed08086b8dace0e82019150858781820996508787880996508781880996505086867f5edc4de43ff07c60ace8f91ac726180f38604b5bb2f2ab2c27aa2a4d53cf7081098788877f21c0f632624d48a11931e2bcb8695897e5cb1d7cec432d115df1b25ea0d9d4a309820890508788867f4243ff5f4a234a2256286afa4ec59b4c9c32439c0869f1aa0b92a5ab82ee1b3809820890508788857f7344ba891ca71591e07e7e6aa563931b9d07b548c816668af7f6170e5c8cd07309820890508788847f20c42fc15a32ed98b81609d1e9de98f255e4b46414af1dad036bfe255d3d2f19098208905087877f68186626fb0239ce09c22fe4ec756ab3dede54596e3cc426ac7ec1f5c38881f2098889887f1cdfe1f1de4a7290ab39316b544da5e6576d4d1c05eaf0719c3c60867fab037209820890508889877f1992e57fe5537033e0b3711c4aba9a6630fdf87a5962a442e926718e92f7e57309820890508889867f5033856a6fe61acbb5a95e6f8e1d6e5aca6e1d2125d0c03d864e8fecdb3ccd4a09820890508889857f09e7c08b5c3289751cf3e30a7ab45c59aaca49585c3f08fb39a67bc9466cceb2098208905088887f73ac6ff5f192940a6a3198b94a158121172678891e35c8895c6a20f4164f7c9309898a897f03ac6b5eccedc5da43ff372db13fa55ac197bb9592e15d4feb74ee152e90e9520982089050898a887f1574427d32abdcde8a24db9e42219c68f84d89f342f0eb455309c7937054f8420982089050898a877f21fcae8d9f8f62a956217b8fd134560fc2654527ee9e5359beefb95b2c59288d0982089050898a867f06ca0c88a61632956a1d3e91999c842f03b6e7f121df734ce75682fbfa1ef7f9098208905089897f4ce4f0699adf8172f73b8cd2407d7db698a2625bf837b95a35abbf4eddcbd7dd098a8b8a7f1a0f8b3e444c78fcc67ce285e743094a787745b2761df2203979fc08d3ab3a9909820890508a8b897f40a3f19fa4064fd9c119dd0acaea02ea3ae33a5df8b181867ff6b705f159e4af09820890508a8b887f051d14de8bbf745f9f8a20682c4104c48a0198e8f604ae06b45de4051d90065c09820890508a8b877f294ce128d90968ca910a8cc18c9ab58d41a0a91df79bed878952aa88f7433a8009820890508a8a7f637e4ac13df1eefbc7ee982d5a044b89a20d383b17fa5a23bfe25a7915d8885f098b8c8b7f35151e81622f69dec5eedf76619630dc42997eeaf162fdda7644ce726da53c3b09820890508b8c8a7f707fbbeb0bf2b5aa6ed7573b46506eff64c69ce781aa7fa616e3d53390922a1e09820890508b8c897f5e876f8493c339c36750caa31382bea4a90d6928976a3f996a30a3f1af778f6309820890508b8c887f121909e9d5554a3b3d207272ad07359bb49136e23fe6f0d1c62c3bf940ca5bcd0982089050849a5083995082985081975080965050505050507f397cf7ac45224459e819581c1f2ba6412dd078820337ecec0d6a883b83370198860195507f32e654ddc435855db6a681a4134ce1a7f85525d0dde7a8e7365f36d6b8acb385850194507f07245288af44bddd2f744d5e093ea7f100de626fa216bc3044516254939edd3e840193507f61266cbaef88498a8255902e3a0efd2e45563158c8d47c75ec9af41d62fe128e830192507f73157756a167275b89ecb982dc3d2fab484c7eee1d0800df9ea07712048c9d2d82019150858781820996508787880996508781880996505086867f5edc4de43ff07c60ace8f91ac726180f38604b5bb2f2ab2c27aa2a4d53cf7081098788877f21c0f632624d48a11931e2bcb8695897e5cb1d7cec432d115df1b25ea0d9d4a309820890508788867f4243ff5f4a234a2256286afa4ec59b4c9c32439c0869f1aa0b92a5ab82ee1b3809820890508788857f7344ba891ca71591e07e7e6aa563931b9d07b548c816668af7f6170e5c8cd07309820890508788847f20c42fc15a32ed98b81609d1e9de98f255e4b46414af1dad036bfe255d3d2f19098208905087877f68186626fb0239ce09c22fe4ec756ab3dede54596e3cc426ac7ec1f5c38881f2098889887f1cdfe1f1de4a7290ab39316b544da5e6576d4d1c05eaf0719c3c60867fab037209820890508889877f1992e57fe5537033e0b3711c4aba9a6630fdf87a5962a442e926718e92f7e57309820890508889867f5033856a6fe61acbb5a95e6f8e1d6e5aca6e1d2125d0c03d864e8fecdb3ccd4a09820890508889857f09e7c08b5c3289751cf3e30a7ab45c59aaca49585c3f08fb39a67bc9466cceb2098208905088887f73ac6ff5f192940a6a3198b94a158121172678891e35c8895c6a20f4164f7c9309898a897f03ac6b5eccedc5da43ff372db13fa55ac197bb9592e15d4feb74ee152e90e9520982089050898a887f1574427d32abdcde8a24db9e42219c68f84d89f342f0eb455309c7937054f8420982089050898a877f21fcae8d9f8f62a956217b8fd134560fc2654527ee9e5359beefb95b2c59288d0982089050898a867f06ca0c88a61632956a1d3e91999c842f03b6e7f121df734ce75682fbfa1ef7f9098208905089897f4ce4f0699adf8172f73b8cd2407d7db698a2625bf837b95a35abbf4eddcbd7dd098a8b8a7f1a0f8b3e444c78fcc67ce285e743094a787745b2761df2203979fc08d3ab3a9909820890508a8b897f40a3f19fa4064fd9c119dd0acaea02ea3ae33a5df8b181867ff6b705f159e4af09820890508a8b887f051d14de8bbf745f9f8a20682c4104c48a0198e8f604ae06b45de4051d90065c09820890508a8b877f294ce128d90968ca910a8cc18c9ab58d41a0a91df79bed878952aa88f7433a8009820890508a8a7f637e4ac13df1eefbc7ee982d5a044b89a20d383b17fa5a23bfe25a7915d8885f098b8c8b7f35151e81622f69dec5eedf76619630dc42997eeaf162fdda7644ce726da53c3b09820890508b8c8a7f707fbbeb0bf2b5aa6ed7573b46506eff64c69ce781aa7fa616e3d53390922a1e09820890508b8c897f5e876f8493c339c36750caa31382bea4a90d6928976a3f996a30a3f1af778f6309820890508b8c887f121909e9d5554a3b3d207272ad07359bb49136e23fe6f0d1c62c3bf940ca5bcd0982089050849a5083995082985081975080965050505050507f0c0b409aaa3a87cf5c0504c624b23570dad7fc9ae30f1f056996bb6a7b2b5c53860195507f03801ea9c955bbc5c32ff8d8d3174bcc2f4f3249b711090a4c963a784e06c554850194507f17690270da56baeba4e614f7e8780b3b15201ac3d7ae406eb4dbe811f8b13956840193507f0779f987f90f1c4f8e319418659d4bd33ac790e8eb07c153c28aa089775dcf38830192507f2f74df84cb03f57ca5946f15f2fb134d42a3288f32a5d5ffb1a9fe1d2a391bfd82019150858781820996508787880996508781880996505086867f5edc4de43ff07c60ace8f91ac726180f38604b5bb2f2ab2c27aa2a4d53cf7081098788877f21c0f632624d48a11931e2bcb8695897e5cb1d7cec432d115df1b25ea0d9d4a309820890508788867f4243ff5f4a234a2256286afa4ec59b4c9c32439c0869f1aa0b92a5ab82ee1b3809820890508788857f7344ba891ca71591e07e7e6aa563931b9d07b548c816668af7f6170e5c8cd07309820890508788847f20c42fc15a32ed98b81609d1e9de98f255e4b46414af1dad036bfe255d3d2f19098208905087877f68186626fb0239ce09c22fe4ec756ab3dede54596e3cc426ac7ec1f5c38881f2098889887f1cdfe1f1de4a7290ab39316b544da5e6576d4d1c05eaf0719c3c60867fab037209820890508889877f1992e57fe5537033e0b3711c4aba9a6630fdf87a5962a442e926718e92f7e57309820890508889867f5033856a6fe61acbb5a95e6f8e1d6e5aca6e1d2125d0c03d864e8fecdb3ccd4a09820890508889857f09e7c08b5c3289751cf3e30a7ab45c59aaca49585c3f08fb39a67bc9466cceb2098208905088887f73ac6ff5f192940a6a3198b94a158121172678891e35c8895c6a20f4164f7c9309898a897f03ac6b5eccedc5da43ff372db13fa55ac197bb9592e15d4feb74ee152e90e9520982089050898a887f1574427d32abdcde8a24db9e42219c68f84d89f342f0eb455309c7937054f8420982089050898a877f21fcae8d9f8f62a956217b8fd134560fc2654527ee9e5359beefb95b2c59288d0982089050898a867f06ca0c88a61632956a1d3e91999c842f03b6e7f121df734ce75682fbfa1ef7f9098208905089897f4ce4f0699adf8172f73b8cd2407d7db698a2625bf837b95a35abbf4eddcbd7dd098a8b8a7f1a0f8b3e444c78fcc67ce285e743094a787745b2761df2203979fc08d3ab3a9909820890508a8b897f40a3f19fa4064fd9c119dd0acaea02ea3ae33a5df8b181867ff6b705f159e4af09820890508a8b887f051d14de8bbf745f9f8a20682c4104c48a0198e8f604ae06b45de4051d90065c09820890508a8b877f294ce128d90968ca910a8cc18c9ab58d41a0a91df79bed878952aa88f7433a8009820890508a8a7f637e4ac13df1eefbc7ee982d5a044b89a20d383b17fa5a23bfe25a7915d8885f098b8c8b7f35151e81622f69dec5eedf76619630dc42997eeaf162fdda7644ce726da53c3b09820890508b8c8a7f707fbbeb0bf2b5aa6ed7573b46506eff64c69ce781aa7fa616e3d53390922a1e09820890508b8c897f5e876f8493c339c36750caa31382bea4a90d6928976a3f996a30a3f1af778f6309820890508b8c887f121909e9d5554a3b3d207272ad07359bb49136e23fe6f0d1c62c3bf940ca5bcd0982089050849a5083995082985081975080965050505050507f6ddaa41db23ce0405078e68938a27c0386674531648061bbd79359c91f32aac2860195507f2f49ab87e23a5d392c5e457337342795f3066a07f987de091f325ac32b8ba72c850194507f0efc38d20700d5b5a3b055be496dbdf82b0ab3e07dda2a0df3b16c07b02dabb4840193507f6f5ab923c9d18fd41b977c0f544cb9af853dddd00734b01f9280145a1dc7cfc9830192507f0903ed0675157f6629cff37a2055f827bdbea9801a09fa7ee01c66b108265b8b82019150858781820996508787880996508781880996505086867f5edc4de43ff07c60ace8f91ac726180f38604b5bb2f2ab2c27aa2a4d53cf7081098788877f21c0f632624d48a11931e2bcb8695897e5cb1d7cec432d115df1b25ea0d9d4a309820890508788867f4243ff5f4a234a2256286afa4ec59b4c9c32439c0869f1aa0b92a5ab82ee1b3809820890508788857f7344ba891ca71591e07e7e6aa563931b9d07b548c816668af7f6170e5c8cd07309820890508788847f20c42fc15a32ed98b81609d1e9de98f255e4b46414af1dad036bfe255d3d2f19098208905087877f68186626fb0239ce09c22fe4ec756ab3dede54596e3cc426ac7ec1f5c38881f2098889887f1cdfe1f1de4a7290ab39316b544da5e6576d4d1c05eaf0719c3c60867fab037209820890508889877f1992e57fe5537033e0b3711c4aba9a6630fdf87a5962a442e926718e92f7e57309820890508889867f5033856a6fe61acbb5a95e6f8e1d6e5aca6e1d2125d0c03d864e8fecdb3ccd4a09820890508889857f09e7c08b5c3289751cf3e30a7ab45c59aaca49585c3f08fb39a67bc9466cceb2098208905088887f73ac6ff5f192940a6a3198b94a158121172678891e35c8895c6a20f4164f7c9309898a897f03ac6b5eccedc5da43ff372db13fa55ac197bb9592e15d4feb74ee152e90e9520982089050898a887f1574427d32abdcde8a24db9e42219c68f84d89f342f0eb455309c7937054f8420982089050898a877f21fcae8d9f8f62a956217b8fd134560fc2654527ee9e5359beefb95b2c59288d0982089050898a867f06ca0c88a61632956a1d3e91999c842f03b6e7f121df734ce75682fbfa1ef7f9098208905089897f4ce4f0699adf8172f73b8cd2407d7db698a2625bf837b95a35abbf4eddcbd7dd098a8b8a7f1a0f8b3e444c78fcc67ce285e743094a787745b2761df2203979fc08d3ab3a9909820890508a8b897f40a3f19fa4064fd9c119dd0acaea02ea3ae33a5df8b181867ff6b705f159e4af09820890508a8b887f051d14de8bbf745f9f8a20682c4104c48a0198e8f604ae06b45de4051d90065c09820890508a8b877f294ce128d90968ca910a8cc18c9ab58d41a0a91df79bed878952aa88f7433a8009820890508a8a7f637e4ac13df1eefbc7ee982d5a044b89a20d383b17fa5a23bfe25a7915d8885f098b8c8b7f35151e81622f69dec5eedf76619630dc42997eeaf162fdda7644ce726da53c3b09820890508b8c8a7f707fbbeb0bf2b5aa6ed7573b46506eff64c69ce781aa7fa616e3d53390922a1e09820890508b8c897f5e876f8493c339c36750caa31382bea4a90d6928976a3f996a30a3f1af778f6309820890508b8c887f121909e9d5554a3b3d207272ad07359bb49136e23fe6f0d1c62c3bf940ca5bcd0982089050849a5083995082985081975080965050505050507f700f5c0c5990d42434a15bc34c228500c52f0441de8419783a1509045d2aaf8b860195507f6a0e3381e15190acf36abed91ee25dc7fde5c90a3c5154a4329b2662188c2cb8850194507f4757ddbab350afd9c61e7a748d936388aa9ff3709c64a080ab9f28646d1d7181840193507f60f9d0c0c463bffe9c08d557dfd5d1054a98f32c04eaa80c49290cd45897b2a7830192507f0720379ef288498c5e6100d19258c915b32fd1f76a7878fd3575137b695e578982019150858781820996508787880996508781880996505086867f5edc4de43ff07c60ace8f91ac726180f38604b5bb2f2ab2c27aa2a4d53cf7081098788877f21c0f632624d48a11931e2bcb8695897e5cb1d7cec432d115df1b25ea0d9d4a309820890508788867f4243ff5f4a234a2256286afa4ec59b4c9c32439c0869f1aa0b92a5ab82ee1b3809820890508788857f7344ba891ca71591e07e7e6aa563931b9d07b548c816668af7f6170e5c8cd07309820890508788847f20c42fc15a32ed98b81609d1e9de98f255e4b46414af1dad036bfe255d3d2f19098208905087877f68186626fb0239ce09c22fe4ec756ab3dede54596e3cc426ac7ec1f5c38881f2098889887f1cdfe1f1de4a7290ab39316b544da5e6576d4d1c05eaf0719c3c60867fab037209820890508889877f1992e57fe5537033e0b3711c4aba9a6630fdf87a5962a442e926718e92f7e57309820890508889867f5033856a6fe61acbb5a95e6f8e1d6e5aca6e1d2125d0c03d864e8fecdb3ccd4a09820890508889857f09e7c08b5c3289751cf3e30a7ab45c59aaca49585c3f08fb39a67bc9466cceb2098208905088887f73ac6ff5f192940a6a3198b94a158121172678891e35c8895c6a20f4164f7c9309898a897f03ac6b5eccedc5da43ff372db13fa55ac197bb9592e15d4feb74ee152e90e9520982089050898a887f1574427d32abdcde8a24db9e42219c68f84d89f342f0eb455309c7937054f8420982089050898a877f21fcae8d9f8f62a956217b8fd134560fc2654527ee9e5359beefb95b2c59288d0982089050898a867f06ca0c88a61632956a1d3e91999c842f03b6e7f121df734ce75682fbfa1ef7f9098208905089897f4ce4f0699adf8172f73b8cd2407d7db698a2625bf837b95a35abbf4eddcbd7dd098a8b8a7f1a0f8b3e444c78fcc67ce285e743094a787745b2761df2203979fc08d3ab3a9909820890508a8b897f40a3f19fa4064fd9c119dd0acaea02ea3ae33a5df8b181867ff6b705f159e4af09820890508a8b887f051d14de8bbf745f9f8a20682c4104c48a0198e8f604ae06b45de4051d90065c09820890508a8b877f294ce128d90968ca910a8cc18c9ab58d41a0a91df79bed878952aa88f7433a8009820890508a8a7f637e4ac13df1eefbc7ee982d5a044b89a20d383b17fa5a23bfe25a7915d8885f098b8c8b7f35151e81622f69dec5eedf76619630dc42997eeaf162fdda7644ce726da53c3b09820890508b8c8a7f707fbbeb0bf2b5aa6ed7573b46506eff64c69ce781aa7fa616e3d53390922a1e09820890508b8c897f5e876f8493c339c36750caa31382bea4a90d6928976a3f996a30a3f1af778f6309820890508b8c887f121909e9d5554a3b3d207272ad07359bb49136e23fe6f0d1c62c3bf940ca5bcd0982089050849a5083995082985081975080965050505050507f2265c46e022a5ef8ff8e9293803aff7f15ce0814a9edee3b1d546c7865407e3c860195507f1206dc6f2948499c0a2d173e0ce4850870a8b1957d362ce6aad3603084cfb48a850194507f3497b1b2410e8b30f6c09dd43d54aa9755c4bdaa743f8af7df57486dc70786c2840193507f1ac1322d723d7d2c9e8a475140bc3991e124c7752dbe38d83ee03985cab3ec06830192507f06d7e810be67618152bb71fe9246ed8390e61d21fdaf4d357d67bb5de77df23082019150858781820996508787880996508781880996505086867f5edc4de43ff07c60ace8f91ac726180f38604b5bb2f2ab2c27aa2a4d53cf7081098788877f21c0f632624d48a11931e2bcb8695897e5cb1d7cec432d115df1b25ea0d9d4a309820890508788867f4243ff5f4a234a2256286afa4ec59b4c9c32439c0869f1aa0b92a5ab82ee1b3809820890508788857f7344ba891ca71591e07e7e6aa563931b9d07b548c816668af7f6170e5c8cd07309820890508788847f20c42fc15a32ed98b81609d1e9de98f255e4b46414af1dad036bfe255d3d2f19098208905087877f68186626fb0239ce09c22fe4ec756ab3dede54596e3cc426ac7ec1f5c38881f2098889887f1cdfe1f1de4a7290ab39316b544da5e6576d4d1c05eaf0719c3c60867fab037209820890508889877f1992e57fe5537033e0b3711c4aba9a6630fdf87a5962a442e926718e92f7e57309820890508889867f5033856a6fe61acbb5a95e6f8e1d6e5aca6e1d2125d0c03d864e8fecdb3ccd4a09820890508889857f09e7c08b5c3289751cf3e30a7ab45c59aaca49585c3f08fb39a67bc9466cceb2098208905088887f73ac6ff5f192940a6a3198b94a158121172678891e35c8895c6a20f4164f7c9309898a897f03ac6b5eccedc5da43ff372db13fa55ac197bb9592e15d4feb74ee152e90e9520982089050898a887f1574427d32abdcde8a24db9e42219c68f84d89f342f0eb455309c7937054f8420982089050898a877f21fcae8d9f8f62a956217b8fd134560fc2654527ee9e5359beefb95b2c59288d0982089050898a867f06ca0c88a61632956a1d3e91999c842f03b6e7f121df734ce75682fbfa1ef7f9098208905089897f4ce4f0699adf8172f73b8cd2407d7db698a2625bf837b95a35abbf4eddcbd7dd098a8b8a7f1a0f8b3e444c78fcc67ce285e743094a787745b2761df2203979fc08d3ab3a9909820890508a8b897f40a3f19fa4064fd9c119dd0acaea02ea3ae33a5df8b181867ff6b705f159e4af09820890508a8b887f051d14de8bbf745f9f8a20682c4104c48a0198e8f604ae06b45de4051d90065c09820890508a8b877f294ce128d90968ca910a8cc18c9ab58d41a0a91df79bed878952aa88f7433a8009820890508a8a7f637e4ac13df1eefbc7ee982d5a044b89a20d383b17fa5a23bfe25a7915d8885f098b8c8b7f35151e81622f69dec5eedf76619630dc42997eeaf162fdda7644ce726da53c3b09820890508b8c8a7f707fbbeb0bf2b5aa6ed7573b46506eff64c69ce781aa7fa616e3d53390922a1e09820890508b8c897f5e876f8493c339c36750caa31382bea4a90d6928976a3f996a30a3f1af778f6309820890508b8c887f121909e9d5554a3b3d207272ad07359bb49136e23fe6f0d1c62c3bf940ca5bcd0982089050849a5083995082985081975080965050505050507f0ee137d56d3c1f10af868ae52affaa93f1900ef4b93656322c7f295f3949436f860195507f21da6fd7aaca1d900c16ab0292cbda61f3c784d2ab0efe4fb1b87d443b54a76a850194507f1db1c07b4c58b4bada79593314f41f0050a88831ff9f9073fb31114e0e67285d840193507f5898c5429b336972114192ac64c5226082c3b2fee5a63a862fddba0789d6a473830192507f6ce149f5c89369cbae1a7da096eb5b0ffdb885dc1916c9884dbbae22e6db34e882019150858781820996508787880996508781880996505086867f5edc4de43ff07c60ace8f91ac726180f38604b5bb2f2ab2c27aa2a4d53cf7081098788877f21c0f632624d48a11931e2bcb8695897e5cb1d7cec432d115df1b25ea0d9d4a309820890508788867f4243ff5f4a234a2256286afa4ec59b4c9c32439c0869f1aa0b92a5ab82ee1b3809820890508788857f7344ba891ca71591e07e7e6aa563931b9d07b548c816668af7f6170e5c8cd07309820890508788847f20c42fc15a32ed98b81609d1e9de98f255e4b46414af1dad036bfe255d3d2f19098208905087877f68186626fb0239ce09c22fe4ec756ab3dede54596e3cc426ac7ec1f5c38881f2098889887f1cdfe1f1de4a7290ab39316b544da5e6576d4d1c05eaf0719c3c60867fab037209820890508889877f1992e57fe5537033e0b3711c4aba9a6630fdf87a5962a442e926718e92f7e57309820890508889867f5033856a6fe61acbb5a95e6f8e1d6e5aca6e1d2125d0c03d864e8fecdb3ccd4a09820890508889857f09e7c08b5c3289751cf3e30a7ab45c59aaca49585c3f08fb39a67bc9466cceb2098208905088887f73ac6ff5f192940a6a3198b94a158121172678891e35c8895c6a20f4164f7c9309898a897f03ac6b5eccedc5da43ff372db13fa55ac197bb9592e15d4feb74ee152e90e9520982089050898a887f1574427d32abdcde8a24db9e42219c68f84d89f342f0eb455309c7937054f8420982089050898a877f21fcae8d9f8f62a956217b8fd134560fc2654527ee9e5359beefb95b2c59288d0982089050898a867f06ca0c88a61632956a1d3e91999c842f03b6e7f121df734ce75682fbfa1ef7f9098208905089897f4ce4f0699adf8172f73b8cd2407d7db698a2625bf837b95a35abbf4eddcbd7dd098a8b8a7f1a0f8b3e444c78fcc67ce285e743094a787745b2761df2203979fc08d3ab3a9909820890508a8b897f40a3f19fa4064fd9c119dd0acaea02ea3ae33a5df8b181867ff6b705f159e4af09820890508a8b887f051d14de8bbf745f9f8a20682c4104c48a0198e8f604ae06b45de4051d90065c09820890508a8b877f294ce128d90968ca910a8cc18c9ab58d41a0a91df79bed878952aa88f7433a8009820890508a8a7f637e4ac13df1eefbc7ee982d5a044b89a20d383b17fa5a23bfe25a7915d8885f098b8c8b7f35151e81622f69dec5eedf76619630dc42997eeaf162fdda7644ce726da53c3b09820890508b8c8a7f707fbbeb0bf2b5aa6ed7573b46506eff64c69ce781aa7fa616e3d53390922a1e09820890508b8c897f5e876f8493c339c36750caa31382bea4a90d6928976a3f996a30a3f1af778f6309820890508b8c887f121909e9d5554a3b3d207272ad07359bb49136e23fe6f0d1c62c3bf940ca5bcd0982089050849a5083995082985081975080965050505050507f312b1c75d7428aa4ddecc9229f9bfccfd4be6ef3ba7b16e04c6021255d1de0d5860195507f08ac2c7ded2c05ddb49ae7ac6102c229dde9275c3589a88b40069c8c3cf236ee850194507f1725748fd880aabb1d6453669335fba232e6b2d25e69f3d56a504a3e5b05d76e840193507f248998a735f44fc524d9a3854e5d49e3dd1487e334ab8609558b89a5db585558830192507f51327888436d6fa1820a24f5106403e6f3cf35a5b2ef9148ff6aa6eceef4656e82019150858781820996508787880996508781880996505086867f5edc4de43ff07c60ace8f91ac726180f38604b5bb2f2ab2c27aa2a4d53cf7081098788877f21c0f632624d48a11931e2bcb8695897e5cb1d7cec432d115df1b25ea0d9d4a309820890508788867f4243ff5f4a234a2256286afa4ec59b4c9c32439c0869f1aa0b92a5ab82ee1b3809820890508788857f7344ba891ca71591e07e7e6aa563931b9d07b548c816668af7f6170e5c8cd07309820890508788847f20c42fc15a32ed98b81609d1e9de98f255e4b46414af1dad036bfe255d3d2f19098208905087877f68186626fb0239ce09c22fe4ec756ab3dede54596e3cc426ac7ec1f5c38881f2098889887f1cdfe1f1de4a7290ab39316b544da5e6576d4d1c05eaf0719c3c60867fab037209820890508889877f1992e57fe5537033e0b3711c4aba9a6630fdf87a5962a442e926718e92f7e57309820890508889867f5033856a6fe61acbb5a95e6f8e1d6e5aca6e1d2125d0c03d864e8fecdb3ccd4a09820890508889857f09e7c08b5c3289751cf3e30a7ab45c59aaca49585c3f08fb39a67bc9466cceb2098208905088887f73ac6ff5f192940a6a3198b94a158121172678891e35c8895c6a20f4164f7c9309898a897f03ac6b5eccedc5da43ff372db13fa55ac197bb9592e15d4feb74ee152e90e9520982089050898a887f1574427d32abdcde8a24db9e42219c68f84d89f342f0eb455309c7937054f8420982089050898a877f21fcae8d9f8f62a956217b8fd134560fc2654527ee9e5359beefb95b2c59288d0982089050898a867f06ca0c88a61632956a1d3e91999c842f03b6e7f121df734ce75682fbfa1ef7f9098208905089897f4ce4f0699adf8172f73b8cd2407d7db698a2625bf837b95a35abbf4eddcbd7dd098a8b8a7f1a0f8b3e444c78fcc67ce285e743094a787745b2761df2203979fc08d3ab3a9909820890508a8b897f40a3f19fa4064fd9c119dd0acaea02ea3ae33a5df8b181867ff6b705f159e4af09820890508a8b887f051d14de8bbf745f9f8a20682c4104c48a0198e8f604ae06b45de4051d90065c09820890508a8b877f294ce128d90968ca910a8cc18c9ab58d41a0a91df79bed878952aa88f7433a8009820890508a8a7f637e4ac13df1eefbc7ee982d5a044b89a20d383b17fa5a23bfe25a7915d8885f098b8c8b7f35151e81622f69dec5eedf76619630dc42997eeaf162fdda7644ce726da53c3b09820890508b8c8a7f707fbbeb0bf2b5aa6ed7573b46506eff64c69ce781aa7fa616e3d53390922a1e09820890508b8c897f5e876f8493c339c36750caa31382bea4a90d6928976a3f996a30a3f1af778f6309820890508b8c887f121909e9d5554a3b3d207272ad07359bb49136e23fe6f0d1c62c3bf940ca5bcd0982089050849a5083995082985081975080965050505050507f0c8b5a14aa194279b5d7676414246a40756786c8718d30a87d643d9320c4ec43860195507f4dc96baa6c646df7036040dde9349b3f2ee384cafad6de954f4cd861069b2481850194507f718209ea4f77c3f76ecb439d05adf0b70294bad752b6c7f9af5711ce87be65a1840193507f639a0d20110526eaa343c723af04d126cd523ec21cf43d38b35398a0c56265b0830192507f2532f06a0066838b5c4cb4ddbd2e619bd7a9a4e37d4def67d20cd24cb8e6720682019150858781820996508787880996508781880996505086867f5edc4de43ff07c60ace8f91ac726180f38604b5bb2f2ab2c27aa2a4d53cf7081098788877f21c0f632624d48a11931e2bcb8695897e5cb1d7cec432d115df1b25ea0d9d4a309820890508788867f4243ff5f4a234a2256286afa4ec59b4c9c32439c0869f1aa0b92a5ab82ee1b3809820890508788857f7344ba891ca71591e07e7e6aa563931b9d07b548c816668af7f6170e5c8cd07309820890508788847f20c42fc15a32ed98b81609d1e9de98f255e4b46414af1dad036bfe255d3d2f19098208905087877f68186626fb0239ce09c22fe4ec756ab3dede54596e3cc426ac7ec1f5c38881f2098889887f1cdfe1f1de4a7290ab39316b544da5e6576d4d1c05eaf0719c3c60867fab037209820890508889877f1992e57fe5537033e0b3711c4aba9a6630fdf87a5962a442e926718e92f7e57309820890508889867f5033856a6fe61acbb5a95e6f8e1d6e5aca6e1d2125d0c03d864e8fecdb3ccd4a09820890508889857f09e7c08b5c3289751cf3e30a7ab45c59aaca49585c3f08fb39a67bc9466cceb2098208905088887f73ac6ff5f192940a6a3198b94a158121172678891e35c8895c6a20f4164f7c9309898a897f03ac6b5eccedc5da43ff372db13fa55ac197bb9592e15d4feb74ee152e90e9520982089050898a887f1574427d32abdcde8a24db9e42219c68f84d89f342f0eb455309c7937054f8420982089050898a877f21fcae8d9f8f62a956217b8fd134560fc2654527ee9e5359beefb95b2c59288d0982089050898a867f06ca0c88a61632956a1d3e91999c842f03b6e7f121df734ce75682fbfa1ef7f9098208905089897f4ce4f0699adf8172f73b8cd2407d7db698a2625bf837b95a35abbf4eddcbd7dd098a8b8a7f1a0f8b3e444c78fcc67ce285e743094a787745b2761df2203979fc08d3ab3a9909820890508a8b897f40a3f19fa4064fd9c119dd0acaea02ea3ae33a5df8b181867ff6b705f159e4af09820890508a8b887f051d14de8bbf745f9f8a20682c4104c48a0198e8f604ae06b45de4051d90065c09820890508a8b877f294ce128d90968ca910a8cc18c9ab58d41a0a91df79bed878952aa88f7433a8009820890508a8a7f637e4ac13df1eefbc7ee982d5a044b89a20d383b17fa5a23bfe25a7915d8885f098b8c8b7f35151e81622f69dec5eedf76619630dc42997eeaf162fdda7644ce726da53c3b09820890508b8c8a7f707fbbeb0bf2b5aa6ed7573b46506eff64c69ce781aa7fa616e3d53390922a1e09820890508b8c897f5e876f8493c339c36750caa31382bea4a90d6928976a3f996a30a3f1af778f6309820890508b8c887f121909e9d5554a3b3d207272ad07359bb49136e23fe6f0d1c62c3bf940ca5bcd0982089050849a5083995082985081975080965050505050507f6b6d6b0887e56bebac8bd69265d4ce6a00ba7470d0168d65a2d25523900917c0860195507f49f013fd9c831d3bbb0a371937ccfc302a424cc46d4ec08b5f45ac52ac31e8cd850194507f394e2a96c15cfa8f3ffcf5cb63264101b5c86f3fe92be4f842eb456d57295fe8840193507f1ac743d177683ccc6719998182d6b7f431f1251f47a8446dc256830a359a789f830192507f3e3e342fba7c149018bcd2cc36ccff80a7eb3284f044cb5dbb9fb325f3b4b9f482019150858781820996508787880996508781880996505086867f5edc4de43ff07c60ace8f91ac726180f38604b5bb2f2ab2c27aa2a4d53cf7081098788877f21c0f632624d48a11931e2bcb8695897e5cb1d7cec432d115df1b25ea0d9d4a309820890508788867f4243ff5f4a234a2256286afa4ec59b4c9c32439c0869f1aa0b92a5ab82ee1b3809820890508788857f7344ba891ca71591e07e7e6aa563931b9d07b548c816668af7f6170e5c8cd07309820890508788847f20c42fc15a32ed98b81609d1e9de98f255e4b46414af1dad036bfe255d3d2f19098208905087877f68186626fb0239ce09c22fe4ec756ab3dede54596e3cc426ac7ec1f5c38881f2098889887f1cdfe1f1de4a7290ab39316b544da5e6576d4d1c05eaf0719c3c60867fab037209820890508889877f1992e57fe5537033e0b3711c4aba9a6630fdf87a5962a442e926718e92f7e57309820890508889867f5033856a6fe61acbb5a95e6f8e1d6e5aca6e1d2125d0c03d864e8fecdb3ccd4a09820890508889857f09e7c08b5c3289751cf3e30a7ab45c59aaca49585c3f08fb39a67bc9466cceb2098208905088887f73ac6ff5f192940a6a3198b94a158121172678891e35c8895c6a20f4164f7c9309898a897f03ac6b5eccedc5da43ff372db13fa55ac197bb9592e15d4feb74ee152e90e9520982089050898a887f1574427d32abdcde8a24db9e42219c68f84d89f342f0eb455309c7937054f8420982089050898a877f21fcae8d9f8f62a956217b8fd134560fc2654527ee9e5359beefb95b2c59288d0982089050898a867f06ca0c88a61632956a1d3e91999c842f03b6e7f121df734ce75682fbfa1ef7f9098208905089897f4ce4f0699adf8172f73b8cd2407d7db698a2625bf837b95a35abbf4eddcbd7dd098a8b8a7f1a0f8b3e444c78fcc67ce285e743094a787745b2761df2203979fc08d3ab3a9909820890508a8b897f40a3f19fa4064fd9c119dd0acaea02ea3ae33a5df8b181867ff6b705f159e4af09820890508a8b887f051d14de8bbf745f9f8a20682c4104c48a0198e8f604ae06b45de4051d90065c09820890508a8b877f294ce128d90968ca910a8cc18c9ab58d41a0a91df79bed878952aa88f7433a8009820890508a8a7f637e4ac13df1eefbc7ee982d5a044b89a20d383b17fa5a23bfe25a7915d8885f098b8c8b7f35151e81622f69dec5eedf76619630dc42997eeaf162fdda7644ce726da53c3b09820890508b8c8a7f707fbbeb0bf2b5aa6ed7573b46506eff64c69ce781aa7fa616e3d53390922a1e09820890508b8c897f5e876f8493c339c36750caa31382bea4a90d6928976a3f996a30a3f1af778f6309820890508b8c887f121909e9d5554a3b3d207272ad07359bb49136e23fe6f0d1c62c3bf940ca5bcd0982089050849a5083995082985081975080965050505050507f3acc235e3731adafb4e9d9ef258e17f27329ac022a49b127205de91ea9322c8a860195507f608afd9af0e5cfe07f12bf3316628eb8b9942121bfbd43ff7fe22a479aaad604850194507f0ff89b10a1c9e65ef3a74ed5f7ac9892ac86faefc74731fd2b600834b186aac4840193507f52f4e44f6d3341b5bf59399c6d53490fa8908e38e24a6142b90e5cbabae26292830192507f38ee391b76fd73893fb64102547ca12c03cae780df15bf46727e57d07720575e82019150858781820996508787880996508781880996505086867f5edc4de43ff07c60ace8f91ac726180f38604b5bb2f2ab2c27aa2a4d53cf7081098788877f21c0f632624d48a11931e2bcb8695897e5cb1d7cec432d115df1b25ea0d9d4a309820890508788867f4243ff5f4a234a2256286afa4ec59b4c9c32439c0869f1aa0b92a5ab82ee1b3809820890508788857f7344ba891ca71591e07e7e6aa563931b9d07b548c816668af7f6170e5c8cd07309820890508788847f20c42fc15a32ed98b81609d1e9de98f255e4b46414af1dad036bfe255d3d2f19098208905087877f68186626fb0239ce09c22fe4ec756ab3dede54596e3cc426ac7ec1f5c38881f2098889887f1cdfe1f1de4a7290ab39316b544da5e6576d4d1c05eaf0719c3c60867fab037209820890508889877f1992e57fe5537033e0b3711c4aba9a6630fdf87a5962a442e926718e92f7e57309820890508889867f5033856a6fe61acbb5a95e6f8e1d6e5aca6e1d2125d0c03d864e8fecdb3ccd4a09820890508889857f09e7c08b5c3289751cf3e30a7ab45c59aaca49585c3f08fb39a67bc9466cceb2098208905088887f73ac6ff5f192940a6a3198b94a158121172678891e35c8895c6a20f4164f7c9309898a897f03ac6b5eccedc5da43ff372db13fa55ac197bb9592e15d4feb74ee152e90e9520982089050898a887f1574427d32abdcde8a24db9e42219c68f84d89f342f0eb455309c7937054f8420982089050898a877f21fcae8d9f8f62a956217b8fd134560fc2654527ee9e5359beefb95b2c59288d0982089050898a867f06ca0c88a61632956a1d3e91999c842f03b6e7f121df734ce75682fbfa1ef7f9098208905089897f4ce4f0699adf8172f73b8cd2407d7db698a2625bf837b95a35abbf4eddcbd7dd098a8b8a7f1a0f8b3e444c78fcc67ce285e743094a787745b2761df2203979fc08d3ab3a9909820890508a8b897f40a3f19fa4064fd9c119dd0acaea02ea3ae33a5df8b181867ff6b705f159e4af09820890508a8b887f051d14de8bbf745f9f8a20682c4104c48a0198e8f604ae06b45de4051d90065c09820890508a8b877f294ce128d90968ca910a8cc18c9ab58d41a0a91df79bed878952aa88f7433a8009820890508a8a7f637e4ac13df1eefbc7ee982d5a044b89a20d383b17fa5a23bfe25a7915d8885f098b8c8b7f35151e81622f69dec5eedf76619630dc42997eeaf162fdda7644ce726da53c3b09820890508b8c8a7f707fbbeb0bf2b5aa6ed7573b46506eff64c69ce781aa7fa616e3d53390922a1e09820890508b8c897f5e876f8493c339c36750caa31382bea4a90d6928976a3f996a30a3f1af778f6309820890508b8c887f121909e9d5554a3b3d207272ad07359bb49136e23fe6f0d1c62c3bf940ca5bcd0982089050849a5083995082985081975080965050505050507f3aea1da1370f5f1a3e7bec277a3cb39f286f3f00e82b701a359c041bcf6d9b80860195507f21527c01d8037ea85f26001543e0caaa27114f3d00a155fcd4038a1fef06f0d9850194507f60fc95ccdb1cf5a2700a6d66c7178bab18c5aaafd1d84329ef0521f72a45ca71840193507f5ab6a484d0d3ecfd4bf7d02da51f2d335fbc16bcc6d24beb6c2cd1730ed46c1a830192507f4ea32259f9226d6e3d829d55ef0dfad8e8c7b83293358e0b9f899b54ad0bb82b82019150858781820996508787880996508781880996505086867f5edc4de43ff07c60ace8f91ac726180f38604b5bb2f2ab2c27aa2a4d53cf7081098788877f21c0f632624d48a11931e2bcb8695897e5cb1d7cec432d115df1b25ea0d9d4a309820890508788867f4243ff5f4a234a2256286afa4ec59b4c9c32439c0869f1aa0b92a5ab82ee1b3809820890508788857f7344ba891ca71591e07e7e6aa563931b9d07b548c816668af7f6170e5c8cd07309820890508788847f20c42fc15a32ed98b81609d1e9de98f255e4b46414af1dad036bfe255d3d2f19098208905087877f68186626fb0239ce09c22fe4ec756ab3dede54596e3cc426ac7ec1f5c38881f2098889887f1cdfe1f1de4a7290ab39316b544da5e6576d4d1c05eaf0719c3c60867fab037209820890508889877f1992e57fe5537033e0b3711c4aba9a6630fdf87a5962a442e926718e92f7e57309820890508889867f5033856a6fe61acbb5a95e6f8e1d6e5aca6e1d2125d0c03d864e8fecdb3ccd4a09820890508889857f09e7c08b5c3289751cf3e30a7ab45c59aaca49585c3f08fb39a67bc9466cceb2098208905088887f73ac6ff5f192940a6a3198b94a158121172678891e35c8895c6a20f4164f7c9309898a897f03ac6b5eccedc5da43ff372db13fa55ac197bb9592e15d4feb74ee152e90e9520982089050898a887f1574427d32abdcde8a24db9e42219c68f84d89f342f0eb455309c7937054f8420982089050898a877f21fcae8d9f8f62a956217b8fd134560fc2654527ee9e5359beefb95b2c59288d0982089050898a867f06ca0c88a61632956a1d3e91999c842f03b6e7f121df734ce75682fbfa1ef7f9098208905089897f4ce4f0699adf8172f73b8cd2407d7db698a2625bf837b95a35abbf4eddcbd7dd098a8b8a7f1a0f8b3e444c78fcc67ce285e743094a787745b2761df2203979fc08d3ab3a9909820890508a8b897f40a3f19fa4064fd9c119dd0acaea02ea3ae33a5df8b181867ff6b705f159e4af09820890508a8b887f051d14de8bbf745f9f8a20682c4104c48a0198e8f604ae06b45de4051d90065c09820890508a8b877f294ce128d90968ca910a8cc18c9ab58d41a0a91df79bed878952aa88f7433a8009820890508a8a7f637e4ac13df1eefbc7ee982d5a044b89a20d383b17fa5a23bfe25a7915d8885f098b8c8b7f35151e81622f69dec5eedf76619630dc42997eeaf162fdda7644ce726da53c3b09820890508b8c8a7f707fbbeb0bf2b5aa6ed7573b46506eff64c69ce781aa7fa616e3d53390922a1e09820890508b8c897f5e876f8493c339c36750caa31382bea4a90d6928976a3f996a30a3f1af778f6309820890508b8c887f121909e9d5554a3b3d207272ad07359bb49136e23fe6f0d1c62c3bf940ca5bcd0982089050849a5083995082985081975080965050505050507f05b6e5b66f488a0378388224ad8c50eb6764df75505e02e713c95dfeb07da075860195507f31712374e5e6154ad9e2c9d26e6b2b804755971130c2d1b9bacc151872e69e19850194507f1e579ccdcfed1c91d2fbf8b171f7c5352a986493bf227e5a9b1b8128a512646c840193507f2a2acebc6ea9b7b1170331b1f5fa73176ac647a25f590752552d88120ad535d0830192507f49153077b745ebc3292e66fce38393f30524d2d3514b284aed7475e849d74e3282019150858781820996508787880996508781880996505086867f5edc4de43ff07c60ace8f91ac726180f38604b5bb2f2ab2c27aa2a4d53cf7081098788877f21c0f632624d48a11931e2bcb8695897e5cb1d7cec432d115df1b25ea0d9d4a309820890508788867f4243ff5f4a234a2256286afa4ec59b4c9c32439c0869f1aa0b92a5ab82ee1b3809820890508788857f7344ba891ca71591e07e7e6aa563931b9d07b548c816668af7f6170e5c8cd07309820890508788847f20c42fc15a32ed98b81609d1e9de98f255e4b46414af1dad036bfe255d3d2f19098208905087877f68186626fb0239ce09c22fe4ec756ab3dede54596e3cc426ac7ec1f5c38881f2098889887f1cdfe1f1de4a7290ab39316b544da5e6576d4d1c05eaf0719c3c60867fab037209820890508889877f1992e57fe5537033e0b3711c4aba9a6630fdf87a5962a442e926718e92f7e57309820890508889867f5033856a6fe61acbb5a95e6f8e1d6e5aca6e1d2125d0c03d864e8fecdb3ccd4a09820890508889857f09e7c08b5c3289751cf3e30a7ab45c59aaca49585c3f08fb39a67bc9466cceb2098208905088887f73ac6ff5f192940a6a3198b94a158121172678891e35c8895c6a20f4164f7c9309898a897f03ac6b5eccedc5da43ff372db13fa55ac197bb9592e15d4feb74ee152e90e9520982089050898a887f1574427d32abdcde8a24db9e42219c68f84d89f342f0eb455309c7937054f8420982089050898a877f21fcae8d9f8f62a956217b8fd134560fc2654527ee9e5359beefb95b2c59288d0982089050898a867f06ca0c88a61632956a1d3e91999c842f03b6e7f121df734ce75682fbfa1ef7f9098208905089897f4ce4f0699adf8172f73b8cd2407d7db698a2625bf837b95a35abbf4eddcbd7dd098a8b8a7f1a0f8b3e444c78fcc67ce285e743094a787745b2761df2203979fc08d3ab3a9909820890508a8b897f40a3f19fa4064fd9c119dd0acaea02ea3ae33a5df8b181867ff6b705f159e4af09820890508a8b887f051d14de8bbf745f9f8a20682c4104c48a0198e8f604ae06b45de4051d90065c09820890508a8b877f294ce128d90968ca910a8cc18c9ab58d41a0a91df79bed878952aa88f7433a8009820890508a8a7f637e4ac13df1eefbc7ee982d5a044b89a20d383b17fa5a23bfe25a7915d8885f098b8c8b7f35151e81622f69dec5eedf76619630dc42997eeaf162fdda7644ce726da53c3b09820890508b8c8a7f707fbbeb0bf2b5aa6ed7573b46506eff64c69ce781aa7fa616e3d53390922a1e09820890508b8c897f5e876f8493c339c36750caa31382bea4a90d6928976a3f996a30a3f1af778f6309820890508b8c887f121909e9d5554a3b3d207272ad07359bb49136e23fe6f0d1c62c3bf940ca5bcd0982089050849a5083995082985081975080965050505050507f5375d9a81513c847f8c5f072049c59011dcacc7a8ded4dfb0ce8d89e3a997f14860195507f435d971e1eb8e44821c6c1ba05116256fa79c35db080a09ef7e24f59f420dd45850194507f58503b3a94f096941dad28f1caf856e5ce8f43a87505bc82ec4eab08149fd5d9840193507f3875898530fddee93f088fff6afe6998548c24552e1ce79bfd6989a34f91dba1830192507f19380c553178569b69ba13e029af8a40e2753db62df5a0a70c13b6105f1e3daf82019150858781820996508787880996508781880996505086867f5edc4de43ff07c60ace8f91ac726180f38604b5bb2f2ab2c27aa2a4d53cf7081098788877f21c0f632624d48a11931e2bcb8695897e5cb1d7cec432d115df1b25ea0d9d4a309820890508788867f4243ff5f4a234a2256286afa4ec59b4c9c32439c0869f1aa0b92a5ab82ee1b3809820890508788857f7344ba891ca71591e07e7e6aa563931b9d07b548c816668af7f6170e5c8cd07309820890508788847f20c42fc15a32ed98b81609d1e9de98f255e4b46414af1dad036bfe255d3d2f19098208905087877f68186626fb0239ce09c22fe4ec756ab3dede54596e3cc426ac7ec1f5c38881f2098889887f1cdfe1f1de4a7290ab39316b544da5e6576d4d1c05eaf0719c3c60867fab037209820890508889877f1992e57fe5537033e0b3711c4aba9a6630fdf87a5962a442e926718e92f7e57309820890508889867f5033856a6fe61acbb5a95e6f8e1d6e5aca6e1d2125d0c03d864e8fecdb3ccd4a09820890508889857f09e7c08b5c3289751cf3e30a7ab45c59aaca49585c3f08fb39a67bc9466cceb2098208905088887f73ac6ff5f192940a6a3198b94a158121172678891e35c8895c6a20f4164f7c9309898a897f03ac6b5eccedc5da43ff372db13fa55ac197bb9592e15d4feb74ee152e90e9520982089050898a887f1574427d32abdcde8a24db9e42219c68f84d89f342f0eb455309c7937054f8420982089050898a877f21fcae8d9f8f62a956217b8fd134560fc2654527ee9e5359beefb95b2c59288d0982089050898a867f06ca0c88a61632956a1d3e91999c842f03b6e7f121df734ce75682fbfa1ef7f9098208905089897f4ce4f0699adf8172f73b8cd2407d7db698a2625bf837b95a35abbf4eddcbd7dd098a8b8a7f1a0f8b3e444c78fcc67ce285e743094a787745b2761df2203979fc08d3ab3a9909820890508a8b897f40a3f19fa4064fd9c119dd0acaea02ea3ae33a5df8b181867ff6b705f159e4af09820890508a8b887f051d14de8bbf745f9f8a20682c4104c48a0198e8f604ae06b45de4051d90065c09820890508a8b877f294ce128d90968ca910a8cc18c9ab58d41a0a91df79bed878952aa88f7433a8009820890508a8a7f637e4ac13df1eefbc7ee982d5a044b89a20d383b17fa5a23bfe25a7915d8885f098b8c8b7f35151e81622f69dec5eedf76619630dc42997eeaf162fdda7644ce726da53c3b09820890508b8c8a7f707fbbeb0bf2b5aa6ed7573b46506eff64c69ce781aa7fa616e3d53390922a1e09820890508b8c897f5e876f8493c339c36750caa31382bea4a90d6928976a3f996a30a3f1af778f6309820890508b8c887f121909e9d5554a3b3d207272ad07359bb49136e23fe6f0d1c62c3bf940ca5bcd0982089050849a5083995082985081975080965050505050507f1c00372679acb24658db79cde4b98711447ea35fe771de55c9addc7ccbcfcbfd860195507f6b5dbfea22d86bd8bbfdb5d787f2d58830ae60032ff2e4639e1508c8fc6b5d80850194507f4607d1076850ad704386a117a214e6e7cd0fe5ffa9d88eb0d26b3e803201e641840193507f0f91e67891be0164227f53bbb878dcf24262bd48a3003e35adc2a55de5a47db6830192507f45996205840c4b3d5c410afd195a0646c8300255f65f994e608dc7889d9f2e5b82019150858781820996508787880996508781880996505086867f5edc4de43ff07c60ace8f91ac726180f38604b5bb2f2ab2c27aa2a4d53cf7081098788877f21c0f632624d48a11931e2bcb8695897e5cb1d7cec432d115df1b25ea0d9d4a309820890508788867f4243ff5f4a234a2256286afa4ec59b4c9c32439c0869f1aa0b92a5ab82ee1b3809820890508788857f7344ba891ca71591e07e7e6aa563931b9d07b548c816668af7f6170e5c8cd07309820890508788847f20c42fc15a32ed98b81609d1e9de98f255e4b46414af1dad036bfe255d3d2f19098208905087877f68186626fb0239ce09c22fe4ec756ab3dede54596e3cc426ac7ec1f5c38881f2098889887f1cdfe1f1de4a7290ab39316b544da5e6576d4d1c05eaf0719c3c60867fab037209820890508889877f1992e57fe5537033e0b3711c4aba9a6630fdf87a5962a442e926718e92f7e57309820890508889867f5033856a6fe61acbb5a95e6f8e1d6e5aca6e1d2125d0c03d864e8fecdb3ccd4a09820890508889857f09e7c08b5c3289751cf3e30a7ab45c59aaca49585c3f08fb39a67bc9466cceb2098208905088887f73ac6ff5f192940a6a3198b94a158121172678891e35c8895c6a20f4164f7c9309898a897f03ac6b5eccedc5da43ff372db13fa55ac197bb9592e15d4feb74ee152e90e9520982089050898a887f1574427d32abdcde8a24db9e42219c68f84d89f342f0eb455309c7937054f8420982089050898a877f21fcae8d9f8f62a956217b8fd134560fc2654527ee9e5359beefb95b2c59288d0982089050898a867f06ca0c88a61632956a1d3e91999c842f03b6e7f121df734ce75682fbfa1ef7f9098208905089897f4ce4f0699adf8172f73b8cd2407d7db698a2625bf837b95a35abbf4eddcbd7dd098a8b8a7f1a0f8b3e444c78fcc67ce285e743094a787745b2761df2203979fc08d3ab3a9909820890508a8b897f40a3f19fa4064fd9c119dd0acaea02ea3ae33a5df8b181867ff6b705f159e4af09820890508a8b887f051d14de8bbf745f9f8a20682c4104c48a0198e8f604ae06b45de4051d90065c09820890508a8b877f294ce128d90968ca910a8cc18c9ab58d41a0a91df79bed878952aa88f7433a8009820890508a8a7f637e4ac13df1eefbc7ee982d5a044b89a20d383b17fa5a23bfe25a7915d8885f098b8c8b7f35151e81622f69dec5eedf76619630dc42997eeaf162fdda7644ce726da53c3b09820890508b8c8a7f707fbbeb0bf2b5aa6ed7573b46506eff64c69ce781aa7fa616e3d53390922a1e09820890508b8c897f5e876f8493c339c36750caa31382bea4a90d6928976a3f996a30a3f1af778f6309820890508b8c887f121909e9d5554a3b3d207272ad07359bb49136e23fe6f0d1c62c3bf940ca5bcd0982089050849a5083995082985081975080965050505050507f3ead3e9e499d91be44dfb36a1ec2d0e606a736e0ab546d4454e12835352fc115860195507f1598c26031f70feec9e034f64b1d9a36a695d767a26bfa59cee0cb445eb4b307850194507f1cc0c0f8eaffe3789e3b439093440f1a60b921721763d41055c78922b871b03a840193507f48703d4aa9bf7adc5e911c7817d88968569bc88162ad297ed48fb42893150047830192507f5593e8d4c35eb09c60c8b0f998419159d552513affaa6ab9c34a07c3a577fc7882019150858781820996508787880996508781880996505086867f5edc4de43ff07c60ace8f91ac726180f38604b5bb2f2ab2c27aa2a4d53cf7081098788877f21c0f632624d48a11931e2bcb8695897e5cb1d7cec432d115df1b25ea0d9d4a309820890508788867f4243ff5f4a234a2256286afa4ec59b4c9c32439c0869f1aa0b92a5ab82ee1b3809820890508788857f7344ba891ca71591e07e7e6aa563931b9d07b548c816668af7f6170e5c8cd07309820890508788847f20c42fc15a32ed98b81609d1e9de98f255e4b46414af1dad036bfe255d3d2f19098208905087877f68186626fb0239ce09c22fe4ec756ab3dede54596e3cc426ac7ec1f5c38881f2098889887f1cdfe1f1de4a7290ab39316b544da5e6576d4d1c05eaf0719c3c60867fab037209820890508889877f1992e57fe5537033e0b3711c4aba9a6630fdf87a5962a442e926718e92f7e57309820890508889867f5033856a6fe61acbb5a95e6f8e1d6e5aca6e1d2125d0c03d864e8fecdb3ccd4a09820890508889857f09e7c08b5c3289751cf3e30a7ab45c59aaca49585c3f08fb39a67bc9466cceb2098208905088887f73ac6ff5f192940a6a3198b94a158121172678891e35c8895c6a20f4164f7c9309898a897f03ac6b5eccedc5da43ff372db13fa55ac197bb9592e15d4feb74ee152e90e9520982089050898a887f1574427d32abdcde8a24db9e42219c68f84d89f342f0eb455309c7937054f8420982089050898a877f21fcae8d9f8f62a956217b8fd134560fc2654527ee9e5359beefb95b2c59288d0982089050898a867f06ca0c88a61632956a1d3e91999c842f03b6e7f121df734ce75682fbfa1ef7f9098208905089897f4ce4f0699adf8172f73b8cd2407d7db698a2625bf837b95a35abbf4eddcbd7dd098a8b8a7f1a0f8b3e444c78fcc67ce285e743094a787745b2761df2203979fc08d3ab3a9909820890508a8b897f40a3f19fa4064fd9c119dd0acaea02ea3ae33a5df8b181867ff6b705f159e4af09820890508a8b887f051d14de8bbf745f9f8a20682c4104c48a0198e8f604ae06b45de4051d90065c09820890508a8b877f294ce128d90968ca910a8cc18c9ab58d41a0a91df79bed878952aa88f7433a8009820890508a8a7f637e4ac13df1eefbc7ee982d5a044b89a20d383b17fa5a23bfe25a7915d8885f098b8c8b7f35151e81622f69dec5eedf76619630dc42997eeaf162fdda7644ce726da53c3b09820890508b8c8a7f707fbbeb0bf2b5aa6ed7573b46506eff64c69ce781aa7fa616e3d53390922a1e09820890508b8c897f5e876f8493c339c36750caa31382bea4a90d6928976a3f996a30a3f1af778f6309820890508b8c887f121909e9d5554a3b3d207272ad07359bb49136e23fe6f0d1c62c3bf940ca5bcd0982089050849a5083995082985081975080965050505050507f1d0edcbd6dcddf3ae0a64a0cd44eb759f2330f172cd4ed007a041ac18c5de850860195507f328371fd8f5642affaa80772e382ba086b4aeae25cf32cb1fd6a03f4c17434e3850194507f37941017b7862dedd6d93c13b7f08bb932defcd29c70d1b1d5724ca40c29cc72840193507f10c59d50cb8d8d939b2b97163b5ce65d63d4b0a58522ff95addfc01620ef0100830192507f0d5b533b43b0b27d9b64551c7ceaee9fb0b6b9061d13326147360615dda11212820191508587818209965087878809965087818809965050848781820995508786870995508781870995505083878182099450878586099450878186099450508287818209935087848509935087818509935050818781820992508783840992508781840992505086867f5edc4de43ff07c60ace8f91ac726180f38604b5bb2f2ab2c27aa2a4d53cf7081098788877f21c0f632624d48a11931e2bcb8695897e5cb1d7cec432d115df1b25ea0d9d4a309820890508788867f4243ff5f4a234a2256286afa4ec59b4c9c32439c0869f1aa0b92a5ab82ee1b3809820890508788857f7344ba891ca71591e07e7e6aa563931b9d07b548c816668af7f6170e5c8cd07309820890508788847f20c42fc15a32ed98b81609d1e9de98f255e4b46414af1dad036bfe255d3d2f19098208905087877f68186626fb0239ce09c22fe4ec756ab3dede54596e3cc426ac7ec1f5c38881f2098889887f1cdfe1f1de4a7290ab39316b544da5e6576d4d1c05eaf0719c3c60867fab037209820890508889877f1992e57fe5537033e0b3711c4aba9a6630fdf87a5962a442e926718e92f7e57309820890508889867f5033856a6fe61acbb5a95e6f8e1d6e5aca6e1d2125d0c03d864e8fecdb3ccd4a09820890508889857f09e7c08b5c3289751cf3e30a7ab45c59aaca49585c3f08fb39a67bc9466cceb2098208905088887f73ac6ff5f192940a6a3198b94a158121172678891e35c8895c6a20f4164f7c9309898a897f03ac6b5eccedc5da43ff372db13fa55ac197bb9592e15d4feb74ee152e90e9520982089050898a887f1574427d32abdcde8a24db9e42219c68f84d89f342f0eb455309c7937054f8420982089050898a877f21fcae8d9f8f62a956217b8fd134560fc2654527ee9e5359beefb95b2c59288d0982089050898a867f06ca0c88a61632956a1d3e91999c842f03b6e7f121df734ce75682fbfa1ef7f9098208905089897f4ce4f0699adf8172f73b8cd2407d7db698a2625bf837b95a35abbf4eddcbd7dd098a8b8a7f1a0f8b3e444c78fcc67ce285e743094a787745b2761df2203979fc08d3ab3a9909820890508a8b897f40a3f19fa4064fd9c119dd0acaea02ea3ae33a5df8b181867ff6b705f159e4af09820890508a8b887f051d14de8bbf745f9f8a20682c4104c48a0198e8f604ae06b45de4051d90065c09820890508a8b877f294ce128d90968ca910a8cc18c9ab58d41a0a91df79bed878952aa88f7433a8009820890508a8a7f637e4ac13df1eefbc7ee982d5a044b89a20d383b17fa5a23bfe25a7915d8885f098b8c8b7f35151e81622f69dec5eedf76619630dc42997eeaf162fdda7644ce726da53c3b09820890508b8c8a7f707fbbeb0bf2b5aa6ed7573b46506eff64c69ce781aa7fa616e3d53390922a1e09820890508b8c897f5e876f8493c339c36750caa31382bea4a90d6928976a3f996a30a3f1af778f6309820890508b8c887f121909e9d5554a3b3d207272ad07359bb49136e23fe6f0d1c62c3bf940ca5bcd0982089050849a5083995082985081975080965050505050507f636375e8e3a62551030f9dbe7811775d90b697a1619360756afec469adc3f468860195507f16ff3d1de7193f4b98611664a8b64cbc4fe39ddbd74337d8e347e4bca730cd94850194507f1cc95775b2716b3cdd35e56a7c7b2497564f9f44f202e18baf52d064877a4eab840193507f36daf37534506831829b7229f6b34c5020846e98e02eef2db84136c910ba1594830192507f61a68e2455dce0f6783ef9e5131db78a998c62b695a83078485b414f5f605e5a820191508587818209965087878809965087818809965050848781820995508786870995508781870995505083878182099450878586099450878186099450508287818209935087848509935087818509935050818781820992508783840992508781840992505086867f5edc4de43ff07c60ace8f91ac726180f38604b5bb2f2ab2c27aa2a4d53cf7081098788877f21c0f632624d48a11931e2bcb8695897e5cb1d7cec432d115df1b25ea0d9d4a309820890508788867f4243ff5f4a234a2256286afa4ec59b4c9c32439c0869f1aa0b92a5ab82ee1b3809820890508788857f7344ba891ca71591e07e7e6aa563931b9d07b548c816668af7f6170e5c8cd07309820890508788847f20c42fc15a32ed98b81609d1e9de98f255e4b46414af1dad036bfe255d3d2f19098208905087877f68186626fb0239ce09c22fe4ec756ab3dede54596e3cc426ac7ec1f5c38881f2098889887f1cdfe1f1de4a7290ab39316b544da5e6576d4d1c05eaf0719c3c60867fab037209820890508889877f1992e57fe5537033e0b3711c4aba9a6630fdf87a5962a442e926718e92f7e57309820890508889867f5033856a6fe61acbb5a95e6f8e1d6e5aca6e1d2125d0c03d864e8fecdb3ccd4a09820890508889857f09e7c08b5c3289751cf3e30a7ab45c59aaca49585c3f08fb39a67bc9466cceb2098208905088887f73ac6ff5f192940a6a3198b94a158121172678891e35c8895c6a20f4164f7c9309898a897f03ac6b5eccedc5da43ff372db13fa55ac197bb9592e15d4feb74ee152e90e9520982089050898a887f1574427d32abdcde8a24db9e42219c68f84d89f342f0eb455309c7937054f8420982089050898a877f21fcae8d9f8f62a956217b8fd134560fc2654527ee9e5359beefb95b2c59288d0982089050898a867f06ca0c88a61632956a1d3e91999c842f03b6e7f121df734ce75682fbfa1ef7f9098208905089897f4ce4f0699adf8172f73b8cd2407d7db698a2625bf837b95a35abbf4eddcbd7dd098a8b8a7f1a0f8b3e444c78fcc67ce285e743094a787745b2761df2203979fc08d3ab3a9909820890508a8b897f40a3f19fa4064fd9c119dd0acaea02ea3ae33a5df8b181867ff6b705f159e4af09820890508a8b887f051d14de8bbf745f9f8a20682c4104c48a0198e8f604ae06b45de4051d90065c09820890508a8b877f294ce128d90968ca910a8cc18c9ab58d41a0a91df79bed878952aa88f7433a8009820890508a8a7f637e4ac13df1eefbc7ee982d5a044b89a20d383b17fa5a23bfe25a7915d8885f098b8c8b7f35151e81622f69dec5eedf76619630dc42997eeaf162fdda7644ce726da53c3b09820890508b8c8a7f707fbbeb0bf2b5aa6ed7573b46506eff64c69ce781aa7fa616e3d53390922a1e09820890508b8c897f5e876f8493c339c36750caa31382bea4a90d6928976a3f996a30a3f1af778f6309820890508b8c887f121909e9d5554a3b3d207272ad07359bb49136e23fe6f0d1c62c3bf940ca5bcd0982089050849a5083995082985081975080965050505050507f12b11dd703fc60f2ede9f64b5050371c32fe393d86a3341996fc4210069d2a22860195507f27bf254291de0508e8b83ca24a6f9412b5eb98ea795b87bb1040e411c2a823c9850194507f35f4aa5fe745e6e65654e48e4b395290b2e872dde27245f08910ef4e0ff34b2a840193507f24fdbbb549e57cbccc5914748a55d3f64778f957b6024162b89b3a3de13b1911830192507f22485592115c7396684ea68c47390d13e784c29e5c2f1d15997bbad58557a29f820191508587818209965087878809965087818809965050848781820995508786870995508781870995505083878182099450878586099450878186099450508287818209935087848509935087818509935050818781820992508783840992508781840992505086867f5edc4de43ff07c60ace8f91ac726180f38604b5bb2f2ab2c27aa2a4d53cf7081098788877f21c0f632624d48a11931e2bcb8695897e5cb1d7cec432d115df1b25ea0d9d4a309820890508788867f4243ff5f4a234a2256286afa4ec59b4c9c32439c0869f1aa0b92a5ab82ee1b3809820890508788857f7344ba891ca71591e07e7e6aa563931b9d07b548c816668af7f6170e5c8cd07309820890508788847f20c42fc15a32ed98b81609d1e9de98f255e4b46414af1dad036bfe255d3d2f19098208905087877f68186626fb0239ce09c22fe4ec756ab3dede54596e3cc426ac7ec1f5c38881f2098889887f1cdfe1f1de4a7290ab39316b544da5e6576d4d1c05eaf0719c3c60867fab037209820890508889877f1992e57fe5537033e0b3711c4aba9a6630fdf87a5962a442e926718e92f7e57309820890508889867f5033856a6fe61acbb5a95e6f8e1d6e5aca6e1d2125d0c03d864e8fecdb3ccd4a09820890508889857f09e7c08b5c3289751cf3e30a7ab45c59aaca49585c3f08fb39a67bc9466cceb2098208905088887f73ac6ff5f192940a6a3198b94a158121172678891e35c8895c6a20f4164f7c9309898a897f03ac6b5eccedc5da43ff372db13fa55ac197bb9592e15d4feb74ee152e90e9520982089050898a887f1574427d32abdcde8a24db9e42219c68f84d89f342f0eb455309c7937054f8420982089050898a877f21fcae8d9f8f62a956217b8fd134560fc2654527ee9e5359beefb95b2c59288d0982089050898a867f06ca0c88a61632956a1d3e91999c842f03b6e7f121df734ce75682fbfa1ef7f9098208905089897f4ce4f0699adf8172f73b8cd2407d7db698a2625bf837b95a35abbf4eddcbd7dd098a8b8a7f1a0f8b3e444c78fcc67ce285e743094a787745b2761df2203979fc08d3ab3a9909820890508a8b897f40a3f19fa4064fd9c119dd0acaea02ea3ae33a5df8b181867ff6b705f159e4af09820890508a8b887f051d14de8bbf745f9f8a20682c4104c48a0198e8f604ae06b45de4051d90065c09820890508a8b877f294ce128d90968ca910a8cc18c9ab58d41a0a91df79bed878952aa88f7433a8009820890508a8a7f637e4ac13df1eefbc7ee982d5a044b89a20d383b17fa5a23bfe25a7915d8885f098b8c8b7f35151e81622f69dec5eedf76619630dc42997eeaf162fdda7644ce726da53c3b09820890508b8c8a7f707fbbeb0bf2b5aa6ed7573b46506eff64c69ce781aa7fa616e3d53390922a1e09820890508b8c897f5e876f8493c339c36750caa31382bea4a90d6928976a3f996a30a3f1af778f6309820890508b8c887f121909e9d5554a3b3d207272ad07359bb49136e23fe6f0d1c62c3bf940ca5bcd0982089050849a5083995082985081975080965050505050507f2056b61a624a856030a66e540f7a878f418adf12317d378869140919a33d02f6860195507f38df7ffa7f9be7b2e80f05da1af774693bb3f59d13c3570b242096fccc6b1601850194507f35b15b6c4c7bf09e1d9eebea32d2c9abe4fd1abd978480c637aa42b430e35637840193507f255267e1ead997f166dcf53f0d0cd7e69a8199a11950ceb2515f8f8667d06763830192507f3fd6bd225026a4673ee244b3ba4e49f9ff5dddea1238c4db69e1bf5d88a85020820191508587818209965087878809965087818809965050848781820995508786870995508781870995505083878182099450878586099450878186099450508287818209935087848509935087818509935050818781820992508783840992508781840992505086867f5edc4de43ff07c60ace8f91ac726180f38604b5bb2f2ab2c27aa2a4d53cf7081098788877f21c0f632624d48a11931e2bcb8695897e5cb1d7cec432d115df1b25ea0d9d4a309820890508788867f4243ff5f4a234a2256286afa4ec59b4c9c32439c0869f1aa0b92a5ab82ee1b3809820890508788857f7344ba891ca71591e07e7e6aa563931b9d07b548c816668af7f6170e5c8cd07309820890508788847f20c42fc15a32ed98b81609d1e9de98f255e4b46414af1dad036bfe255d3d2f19098208905087877f68186626fb0239ce09c22fe4ec756ab3dede54596e3cc426ac7ec1f5c38881f2098889887f1cdfe1f1de4a7290ab39316b544da5e6576d4d1c05eaf0719c3c60867fab037209820890508889877f1992e57fe5537033e0b3711c4aba9a6630fdf87a5962a442e926718e92f7e57309820890508889867f5033856a6fe61acbb5a95e6f8e1d6e5aca6e1d2125d0c03d864e8fecdb3ccd4a09820890508889857f09e7c08b5c3289751cf3e30a7ab45c59aaca49585c3f08fb39a67bc9466cceb2098208905088887f73ac6ff5f192940a6a3198b94a158121172678891e35c8895c6a20f4164f7c9309898a897f03ac6b5eccedc5da43ff372db13fa55ac197bb9592e15d4feb74ee152e90e9520982089050898a887f1574427d32abdcde8a24db9e42219c68f84d89f342f0eb455309c7937054f8420982089050898a877f21fcae8d9f8f62a956217b8fd134560fc2654527ee9e5359beefb95b2c59288d0982089050898a867f06ca0c88a61632956a1d3e91999c842f03b6e7f121df734ce75682fbfa1ef7f9098208905089897f4ce4f0699adf8172f73b8cd2407d7db698a2625bf837b95a35abbf4eddcbd7dd098a8b8a7f1a0f8b3e444c78fcc67ce285e743094a787745b2761df2203979fc08d3ab3a9909820890508a8b897f40a3f19fa4064fd9c119dd0acaea02ea3ae33a5df8b181867ff6b705f159e4af09820890508a8b887f051d14de8bbf745f9f8a20682c4104c48a0198e8f604ae06b45de4051d90065c09820890508a8b877f294ce128d90968ca910a8cc18c9ab58d41a0a91df79bed878952aa88f7433a8009820890508a8a7f637e4ac13df1eefbc7ee982d5a044b89a20d383b17fa5a23bfe25a7915d8885f098b8c8b7f35151e81622f69dec5eedf76619630dc42997eeaf162fdda7644ce726da53c3b09820890508b8c8a7f707fbbeb0bf2b5aa6ed7573b46506eff64c69ce781aa7fa616e3d53390922a1e09820890508b8c897f5e876f8493c339c36750caa31382bea4a90d6928976a3f996a30a3f1af778f6309820890508b8c887f121909e9d5554a3b3d207272ad07359bb49136e23fe6f0d1c62c3bf940ca5bcd0982089050849a508399508298508197508096505050505050855f5260205ff3fea26469706673582212209f47297b1deae2f8c6e7e7e3a003ac01fe88da2ca8b9685946b7b9fd10be38e364736f6c634300081e0033","linkReferences":{}},"methodIdentifiers":{"poseidon2()":"ca5ee4b2","poseidon4()":"a81a2688","testPoseidon2(uint256,uint256)":"e7c5fd32","testPoseidon2Example()":"cbbfbcbd","testPoseidon4(uint256,uint256,uint256,uint256)":"2cba3695"},"id":13}