{"abi":[{"type":"function","name":"hash","inputs":[{"name":"input","type":"uint256[]","internalType":"Poseidon2Field.Type[]"}],"outputs":[{"name":"","type":"uint256","internalType":"Poseidon2Field.Type"}],"stateMutability":"pure"},{"type":"function","name":"hash","inputs":[{"name":"input","type":"uint256[]","internalType":"Poseidon2Field.Type[]"},{"name":"std_input_length","type":"uint256","internalType":"uint256"},{"name":"is_variable_length","type":"bool","internalType":"bool"}],"outputs":[{"name":"","type":"uint256","internalType":"Poseidon2Field.Type"}],"stateMutability":"pure"},{"type":"function","name":"hash_1","inputs":[{"name":"x","type":"uint256","internalType":"Poseidon2Field.Type"}],"outputs":[{"name":"","type":"uint256","internalType":"Poseidon2Field.Type"}],"stateMutability":"pure"},{"type":"function","name":"hash_2","inputs":[{"name":"x","type":"uint256","internalType":"Poseidon2Field.Type"},{"name":"y","type":"uint256","internalType":"Poseidon2Field.Type"}],"outputs":[{"name":"","type":"uint256","internalType":"Poseidon2Field.Type"}],"stateMutability":"pure"},{"type":"function","name":"hash_3","inputs":[{"name":"x","type":"uint256","internalType":"Poseidon2Field.Type"},{"name":"y","type":"uint256","internalType":"Poseidon2Field.Type"},{"name":"z","type":"uint256","internalType":"Poseidon2Field.Type"}],"outputs":[{"name":"","type":"uint256","internalType":"Poseidon2Field.Type"}],"stateMutability":"pure"}],"bytecode":{"object":"0x608080604052346015576128ad908161001a8239f35b5f80fdfe60806040526004361015610011575f80fd5b5f3560e01c8063055d8d5414610aaa57806340ec6e4914610864578063664db65a1461059d5780636bdcae5c1461033d5763e16f620014610050575f80fd5b346103395760607ffffffffffffffffffffffffffffffffffffffffffffffffffffffffffffffffc36011261033957608061008a81610dc3565b600381527fffffffffffffffffffffffffffffffffffffffffffffffffffffffffffffffe082013660208301376004356100c382610e6a565b526024356100d082610e77565b5280516002101561030c5760443560608201526100eb610eef565b90805160401b916100fa610d83565b935f855260609461010a86610dc3565b86368237602082015261011c82610dc3565b8236823760408201525f868201525f8282015260a0610139610e9b565b910152610144610da3565b935f85525f60208601525f604086015261015c610d63565b955f87525f60208801525f6040880152808701905f825261017b610d83565b978389526020890197885260408901528701925f84528701935f855260a0880152525f5b83518110156101d357806003600192106101ba575b0161019f565b6101ce6101c78287610e87565b518861239a565b6101b4565b5083858351156102c5575b5080515191925060015b6003811061026557508251927fffffffffffffffffffffffffffffffffffffffffffffffffffffffffffffffff840193841161023857835f9260209561022f935251612389565b52604051908152f35b7f4e487b71000000000000000000000000000000000000000000000000000000005f52601160045260245ffd5b83518110610276575b6001016101e8565b610281818351612389565b51908251917fffffffffffffffffffffffffffffffffffffffffffffffffffffffffffffffff820192828411610238576001936102bd91612389565b52905061026e565b6102d060019161241b565b93525f5b600381106102ec5750909150600382528190836101de565b806102f960019286612389565b51610305828551612389565b52016102d4565b7f4e487b71000000000000000000000000000000000000000000000000000000005f52603260045260245ffd5b5f80fd5b346103395760207ffffffffffffffffffffffffffffffffffffffffffffffffffffffffffffffffc36011261033957604061037781610dc3565b90600182527fffffffffffffffffffffffffffffffffffffffffffffffffffffffffffffffe081013660208401376004356103b183610e6a565b526103ba610eef565b918051821b6103c7610d83565b905f82526060936103d785610dc3565b8536823760208401526080926103ec84610dc3565b84368237828201525f868201525f8482015260a0610408610e9b565b910152610413610da3565b915f83525f60208401525f8284015261042a610d63565b955f87525f60208801525f83880152808701905f8252610448610d83565b9783895260208901958652848901528701945f86528701975f895260a0880152525f5b845181101561049757806001809210610485575b0161046b565b6104926101c78288610e87565b61047f565b508585815115610559575b50508151519160015b600381106104f957508351937fffffffffffffffffffffffffffffffffffffffffffffffffffffffffffffffff850194851161023857845f926020966104f2935251612389565b5251908152f35b8451811061050a575b6001016104ab565b610515818351612389565b51908251917fffffffffffffffffffffffffffffffffffffffffffffffffffffffffffffffff8201928284116102385760019361055191612389565b529050610502565b61056460019161241b565b91525f5b6003811061057d5750506003835283806104a2565b8061058a60019284612389565b51610596828751612389565b5201610568565b346103395760607ffffffffffffffffffffffffffffffffffffffffffffffffffffffffffffffffc3601126103395760043567ffffffffffffffff8111610339576105ec903690600401610e07565b6024359060443590811515820361033957610605610eef565b92815160401b93610614610d83565b5f815260609561062387610dc3565b87368237602083015260809161063883610dc3565b8336823760408201525f888201525f8382015260a0610655610e9b565b910152610660610da3565b905f82525f60208301525f6040830152610678610d63565b975f89525f60208a01525f60408a0152808901905f8252610697610d83565b99838b5260208b0194855260408b01528901935f85528901945f865260a08a0152525f5b85518110156106ee578085600192106106d5575b016106bb565b6106e96106e28289610e87565b518a61239a565b6106cf565b5086866107f6575b8351156107af575b5080515191925060015b6003811061074f57508251927fffffffffffffffffffffffffffffffffffffffffffffffffffffffffffffffff840193841161023857835f9260209561022f935251612389565b83518110610760575b600101610708565b61076b818351612389565b51908251917fffffffffffffffffffffffffffffffffffffffffffffffffffffffffffffffff820192828411610238576001936107a791612389565b529050610758565b6107ba60019161241b565b93525f5b600381106107d65750909150600382528190836106fe565b806107e360019286612389565b516107ef828551612389565b52016107be565b8351158080610859575b1561081e575061080f8161241b565b506001825152600183526106f6565b8061084d575b156106f65760016108388351855190612389565b528251600181018091116102385783526106f6565b50600383511415610824565b506003845114610800565b346103395760207ffffffffffffffffffffffffffffffffffffffffffffffffffffffffffffffffc3601126103395760043567ffffffffffffffff8111610339576108b3903690600401610e07565b80516108bd610eef565b91805160401b916108cc610d83565b935f85526060946108dc86610dc3565b8636823760208201526080906108f182610dc3565b8236823760408201525f878201525f8282015260a061090e610e9b565b910152610919610da3565b945f86525f60208701525f6040870152610931610d63565b965f88525f60208901525f6040890152808801905f8252610950610d83565b98838a5260208a0198895260408a01528801925f84528801935f855260a0890152525f5b84518110156109a75780846001921061098e575b01610974565b6109a261099b8288610e87565b518961239a565b610988565b508486835115610a63575b5080515191925060015b60038110610a0357508251927fffffffffffffffffffffffffffffffffffffffffffffffffffffffffffffffff840193841161023857835f9260209561022f935251612389565b83518110610a14575b6001016109bc565b610a1f818351612389565b51908251917fffffffffffffffffffffffffffffffffffffffffffffffffffffffffffffffff82019282841161023857600193610a5b91612389565b529050610a0c565b610a6e60019161241b565b93525f5b60038110610a8a5750909150600382528190836109b2565b80610a9760019286612389565b51610aa3828551612389565b5201610a72565b346103395760407ffffffffffffffffffffffffffffffffffffffffffffffffffffffffffffffffc360112610339576060610ae481610dc3565b600281527fffffffffffffffffffffffffffffffffffffffffffffffffffffffffffffffe08201366020830137600435610b1d82610e6a565b52602435610b2a82610e77565b52610b33610eef565b90805160401b91610b42610d83565b5f8152610b4e85610dc3565b853682376020820152608090610b6382610dc3565b8236823760408201525f868201525f8282015260a0610b80610e9b565b910152610b8b610da3565b935f85525f60208601525f6040860152610ba3610d63565b955f87525f60208801525f6040880152808701905f8252610bc2610d83565b978389526020890197885260408901528701925f84528701935f855260a0880152525f5b8351811015610c135780600260019210610c01575b01610be6565b610c0e6101c78287610e87565b610bfb565b508385835115610ccf575b5080515191925060015b60038110610c6f57508251927fffffffffffffffffffffffffffffffffffffffffffffffffffffffffffffffff840193841161023857835f9260209561022f935251612389565b83518110610c80575b600101610c28565b610c8b818351612389565b51908251917fffffffffffffffffffffffffffffffffffffffffffffffffffffffffffffffff82019282841161023857600193610cc791612389565b529050610c78565b610cda60019161241b565b93525f5b60038110610cf6575090915060038252819083610c1e565b80610d0360019286612389565b51610d0f828551612389565b5201610cde565b604051906040820182811067ffffffffffffffff821117610d3657604052565b7f4e487b71000000000000000000000000000000000000000000000000000000005f52604160045260245ffd5b604051906080820182811067ffffffffffffffff821117610d3657604052565b6040519060c0820182811067ffffffffffffffff821117610d3657604052565b604051906060820182811067ffffffffffffffff821117610d3657604052565b907fffffffffffffffffffffffffffffffffffffffffffffffffffffffffffffffe0601f604051930116820182811067ffffffffffffffff821117610d3657604052565b9080601f830112156103395781359167ffffffffffffffff8311610d36578260051b90602080610e38818501610dc3565b80968152019282010192831161033957602001905b828210610e5a5750505090565b8135815260209182019101610e4d565b80511561030c5760200190565b80516001101561030c5760400190565b805182101561030c5760209160051b010190565b610ea3610d16565b906080610eaf81610dc3565b813682378352610800610ec181610dc3565b915f5b828110610ed5575050506020830152565b602090610ee183610dc3565b833682378186015201610ec4565b610ef7610e9b565b50610f00610d63565b7f10dc6e9c006ea38b04b1e03b4bd9490c0d03f98929ca1d7fb56821fd19d3b6e781527f0c28145b6a44df3e0149b3d0a30b3bb599df9756d4dd9b84a86b38cfb45a740b60208201527e544b8338791518b2c7645a50392798b21f75bb60e3596170067d00141cac1560408201527f222c01175718386f2e2e82eb122789e352e105a3b8fa852613bc534433ee428b6060820152604051610800810181811067ffffffffffffffff821117610d3657604052610fba610d63565b7f19b849f69450b06848da1d39bd5e4a4302bb86744edc26238b0878e269ed23e581527f265ddfe127dd51bd7239347b758f0a1320eb2cc7450acc1dad47f80c8dcf34d660208201527f199750ec472f1809e0f66a545e1e51624108ac845015c2aa3dfc36bab497d8aa60408201527f157ff3fe65ac7208110f06a5f74302b14d743ea25067f0ffd032f787c7f1cdf860608201528152611059610d63565b7f2e49c43c4569dd9c5fd35ac45fca33f10b15c590692f8beefe18f4896ac9490281527f0e35fb89981890520d4aef2b6d6506c3cb2f0b6973c24fa82731345ffa2d1f1e60208201527f251ad47cb15c4f1105f109ae5e944f1ba9d9e7806d667ffec6fe723002e0b99660408201527f13da07dc64d428369873e97160234641f8beb56fdd05e5f3563fa39d9c22df4e606082015260208201526110fb610d63565b7f0c009b84e650e6d23dc00c7dccef7483a553939689d350cd46e7b89055fd473881527f011f16b1c63a854f01992e3956f42d8b04eb650c6d535eb0203dec74befdca0660208201527f0ed69e5e383a688f209d9a561daa79612f3f78d0467ad45485df07093f36754960408201527f04dba94a7b0ce9e221acad41472b6bbe3aec507f5eb3d33f463672264c9f789b6060820152604082015261119d610d63565b7f0a3f2637d840f3a16eb094271c9d237b6036757d4bb50bf7ce732ff1d4fa28e881527f259a666f129eea198f8a1c502fdb38fa39b1f075569564b6e54a485d1182323f60208201527f28bf7459c9b2f4c6d8e7d06a4ee3a47f7745d4271038e5157a32fdf7ede0d6a160408201527f0a1ca941f057037526ea200f489be8d4c37c85bbcce6a2aeec91bd69414324476060820152606082015261123f610d63565b7f0c6f8f958be0e93053d7fd4fc54512855535ed1539f051dcb43a26fd926361cf81525f60208201525f60408201525f60608201526080820152611281610d63565b7f123106a93cd17578d426e8128ac9d90aa9e8a00708e296e084dd57e69caaf81181525f60208201525f60408201525f606082015260a08201526112c3610d63565b7f26e1ba52ad9285d97dd3ab52f8e840085e8fa83ff1e8f1877b074867cd2dee7581525f60208201525f60408201525f606082015260c0820152611305610d63565b7f1cb55cad7bd133de18a64c5c47b9c97cbe4d8b7bf9e095864471537e6a4ae2c581525f60208201525f60408201525f606082015260e0820152611347610d63565b7f1dcd73e46acd8f8e0e2c7ce04bde7f6d2a53043d5060a41c7143f08e6e9055d081525f60208201525f60408201525f606082015261010082015261138a610d63565b7f011003e32f6d9c66f5852f05474a4def0cda294a0eb4e9b9b12b9bb4512e557481525f60208201525f60408201525f60608201526101208201526113cd610d63565b7f2b1e809ac1d10ab29ad5f20d03a57dfebadfe5903f58bafed7c508dd2287ae8c81525f60208201525f60408201525f6060820152610140820152611410610d63565b7f2539de1785b735999fb4dac35ee17ed0ef995d05ab2fc5faeaa69ae87bcec0a581525f60208201525f60408201525f6060820152610160820152611453610d63565b7f0c246c5a2ef8ee0126497f222b3e0a0ef4e1c3d41c86d46e43982cb11d77951d81525f60208201525f60408201525f6060820152610180820152611496610d63565b7f192089c4974f68e95408148f7c0632edbb09e6a6ad1a1c2f3f0305f5d03b527b81525f60208201525f60408201525f60608201526101a08201526114d9610d63565b7f1eae0ad8ab68b2f06a0ee36eeb0d0c058529097d91096b756d8fdc2fb5a60d8581525f60208201525f60408201525f60608201526101c082015261151c610d63565b7f179190e5d0e22179e46f8282872abc88db6e2fdc0dee99e69768bd98c5d06bfb81525f60208201525f60408201525f60608201526101e082015261155f610d63565b7f29bb9e2c9076732576e9a81c7ac4b83214528f7db00f31bf6cafe794a9b3cd1c81525f60208201525f60408201525f60608201526102008201526115a2610d63565b7f225d394e42207599403efd0c2464a90d52652645882aac35b10e590e6e691e0881525f60208201525f60408201525f60608201526102208201526115e5610d63565b7f064760623c25c8cf753d238055b444532be13557451c087de09efd454b23fd5981525f60208201525f60408201525f6060820152610240820152611628610d63565b7f10ba3a0e01df92e87f301c4b716d8a394d67f4bf42a75c10922910a78f6b5b8781525f60208201525f60408201525f606082015261026082015261166b610d63565b7f0e070bf53f8451b24f9c6e96b0c2a801cb511bc0c242eb9d361b77693f21471c81525f60208201525f60408201525f60608201526102808201526116ae610d63565b7f1b94cd61b051b04dd39755ff93821a73ccd6cb11d2491d8aa7f921014de252fb81525f60208201525f60408201525f60608201526102a08201526116f1610d63565b7f1d7cb39bafb8c744e148787a2e70230f9d4e917d5713bb050487b5aa7d74070b81525f60208201525f60408201525f60608201526102c0820152611734610d63565b7f2ec93189bd1ab4f69117d0fe980c80ff8785c2961829f701bb74ac1f303b17db81525f60208201525f60408201525f60608201526102e0820152611777610d63565b7f2db366bfdd36d277a692bb825b86275beac404a19ae07a9082ea46bd8351792681525f60208201525f60408201525f60608201526103008201526117ba610d63565b7f062100eb485db06269655cf186a68532985275428450359adc99cec6960711b881525f60208201525f60408201525f60608201526103208201526117fd610d63565b7f0761d33c66614aaa570e7f1e8244ca1120243f92fa59e4f900c567bf41f5a59b81525f60208201525f60408201525f6060820152610340820152611840610d63565b7f20fc411a114d13992c2705aa034e3f315d78608a0f7de4ccf7a72e494855ad0d81525f60208201525f60408201525f6060820152610360820152611883610d63565b7f25b5c004a4bdfcb5add9ec4e9ab219ba102c67e8b3effb5fc3a30f317250bc5a81525f60208201525f60408201525f60608201526103808201526118c6610d63565b7f23b1822d278ed632a494e58f6df6f5ed038b186d8474155ad87e7dff62b37f4b81525f60208201525f60408201525f60608201526103a0820152611909610d63565b7f22734b4c5c3f9493606c4ba9012499bf0f14d13bfcfcccaa16102a29cc2f69e081525f60208201525f60408201525f60608201526103c082015261194c610d63565b7f26c0c8fe09eb30b7e27a74dc33492347e5bdff409aa3610254413d3fad795ce581525f60208201525f60408201525f60608201526103e082015261198f610d63565b7f070dd0ccb6bd7bbae88eac03fa1fbb26196be3083a809829bbd626df348ccad981525f60208201525f60408201525f60608201526104008201526119d2610d63565b7f12b6595bdb329b6fb043ba78bb28c3bec2c0a6de46d8c5ad6067c4ebfd4250da81525f60208201525f60408201525f6060820152610420820152611a15610d63565b7f248d97d7f76283d63bec30e7a5876c11c06fca9b275c671c5e33d95bb7e8d72981525f60208201525f60408201525f6060820152610440820152611a58610d63565b7f1a306d439d463b0816fc6fd64cc939318b45eb759ddde4aa106d15d9bd9baaaa81525f60208201525f60408201525f6060820152610460820152611a9b610d63565b7f28a8f8372e3c38daced7c00421cb4621f4f1b54ddc27821b0d62d3d6ec7c56cf81525f60208201525f60408201525f6060820152610480820152611ade610d63565b7e94975717f9a8a8bb35152f24d43294071ce320c829f388bc852183e1e2ce7e81525f60208201525f60408201525f60608201526104a0820152611b20610d63565b7f04d5ee4c3aa78f7d80fde60d716480d3593f74d4f653ae83f4103246db2e8d6581525f60208201525f60408201525f60608201526104c0820152611b63610d63565b7f2a6cf5e9aa03d4336349ad6fb8ed2269c7bef54b8822cc76d08495c12efde18781525f60208201525f60408201525f60608201526104e0820152611ba6610d63565b7f2304d31eaab960ba9274da43e19ddeb7f792180808fd6e43baae48d7efcba3f381525f60208201525f60408201525f6060820152610500820152611be9610d63565b7f03fd9ac865a4b2a6d5e7009785817249bff08a7e0726fcb4e1c11d39d199f0b081525f60208201525f60408201525f6060820152610520820152611c2c610d63565b7eb7258ded52bbda2248404d55ee5044798afc3a209193073f7954d4d63b0b6481525f60208201525f60408201525f6060820152610540820152611c6e610d63565b7f159f81ada0771799ec38fca2d4bf65ebb13d3a74f3298db36272c5ca65e92d9a81525f60208201525f60408201525f6060820152610560820152611cb1610d63565b7f1ef90e67437fbc8550237a75bc28e3bb9000130ea25f0c5471e144cf4264431f81525f60208201525f60408201525f6060820152610580820152611cf4610d63565b7f1e65f838515e5ff0196b49aa41a2d2568df739bc176b08ec95a79ed82932e30d81525f60208201525f60408201525f60608201526105a0820152611d37610d63565b7f2b1b045def3a166cec6ce768d079ba74b18c844e570e1f826575c1068c94c33f81525f60208201525f60408201525f60608201526105c0820152611d7a610d63565b7f0832e5753ceb0ff6402543b1109229c165dc2d73bef715e3f1c6e07c168bb17381525f60208201525f60408201525f60608201526105e0820152611dbd610d63565b7f02f614e9cedfb3dc6b762ae0a37d41bab1b841c2e8b6451bc5a8e3c390b6ad1681525f60208201525f60408201525f6060820152610600820152611e00610d63565b7f0e2427d38bd46a60dd640b8e362cad967370ebb777bedff40f6a0be27e7ed70581525f60208201525f60408201525f6060820152610620820152611e43610d63565b7f0493630b7c670b6deb7c84d414e7ce79049f0ec098c3c7c50768bbe29214a53a81525f60208201525f60408201525f6060820152610640820152611e86610d63565b7f22ead100e8e482674decdab17066c5a26bb1515355d5461a3dc06cc85327cea981525f60208201525f60408201525f6060820152610660820152611ec9610d63565b7f25b3e56e655b42cdaae2626ed2554d48583f1ae35626d04de5084e0b6d2a6f1681525f60208201525f60408201525f6060820152610680820152611f0c610d63565b7f1e32752ada8836ef5837a6cde8ff13dbb599c336349e4c584b4fdc0a0cf6f9d081525f60208201525f60408201525f60608201526106a0820152611f4f610d63565b7f2fa2a871c15a387cc50f68f6f3c3455b23c00995f05078f672a9864074d412e581525f60208201525f60408201525f60608201526106c0820152611f92610d63565b7f2f569b8a9a4424c9278e1db7311e889f54ccbf10661bab7fcd18e7c7a7d8350581525f60208201525f60408201525f60608201526106e0820152611fd5610d63565b7f044cb455110a8fdd531ade530234c518a7df93f7332ffd2144165374b246b43d81525f60208201525f60408201525f6060820152610700820152612018610d63565b7f227808de93906d5d420246157f2e42b191fe8c90adfe118178ddc723a531902581525f60208201525f60408201525f606082015261072082015261205b610d63565b7f02fcca2934e046bc623adead873579865d03781ae090ad4a8579d2e7a680035581525f60208201525f60408201525f606082015261074082015261209e610d63565b7f0ef915f0ac120b876abccceb344a1d36bad3f3c5ab91a8ddcbec2e060d8befac81525f60208201525f60408201525f60608201526107608201526120e1610d63565b7f1797130f4b7a3e1777eb757bc6f287f6ab0fb85f6be63b09f3b16ef2b1405d3881527f0a76225dc04170ae3306c85abab59e608c7f497c20156d4d36c668555decc6e560208201527f1fffb9ec1992d66ba1e77a7b93209af6f8fa76d48acb664796174b5326a31a5c60408201527f25721c4fc15a3f2853b57c338fa538d85f8fbba6c6b9c6090611889b797b9c5f6060820152610780820152612184610d63565b7f0c817fd42d5f7a41215e3d07ba197216adb4c3790705da95eb63b982bfcaf75a81527f13abe3f5239915d39f7e13c2c24970b6df8cf86ce00a22002bc15866e52b5a9660208201527f2106feea546224ea12ef7f39987a46c85c1bc3dc29bdbd7a92cd60acb4d391ce60408201527f21ca859468a746b6aaa79474a37dab49f1ca5a28c748bc7157e1b3345bb0f95960608201526107a0820152612227610d63565b7f05ccd6255c1e6f0c5cf1f0df934194c62911d14d0321662a8f1a48999e34185b81527f0f0e34a64b70a626e464d846674c4c8816c4fb267fe44fe6ea28678cb09490a460208201527f0558531a4e25470c6157794ca36d0e9647dbfcfe350d64838f5b1a8a2de0d4bf60408201527f09d3dca9173ed2faceea125157683d18924cadad3f655a60b72f5864961f145560608201526107c08201526122ca610d63565b7f0328cbd54e8c0913493f866ed03d218bf23f92d68aaec48617d4c722e5bd433581527f2bf07216e2aff0a223a487b1a7094e07e79e7bcc9798c648ee3347dd5329d34b60208201527f1daf345a58006b736499c583cb76c316d6f78ed6a6dffc82111e11a63fe412df60408201527f176563472456aaa746b694c60e1823611ef39039b2edc7ff391e6f2293d2c40460608201526107e082015261236d610d16565b918252602082015290565b90600481101561030c5760051b0190565b90600381101561030c5760051b0190565b9060808201511580809161240d575b156123c95750816060916123be60019461241b565b506020820151520152565b806123fe575b6123d7575050565b6123ec60606020840151930192835190612389565b52805190600182018092116102385752565b506003606083015114156123cf565b5060036060840151146123a9565b9060608061242881610dc3565b3690375f5b6003811061270257505f5b600381106126ab5750604083019260a084519101516020815191015191608061246081610dc3565b3690375f61246c610d63565b948186528160208701528160408701528501525f5b6004811061268c5750506124948361273d565b5f5b60048110612666575060045b603c8110612527575050603c5b6040811061250157505082526124c3610da3565b5f81525f60208201525f60408201525f5b600381106124e157509150565b806124ef6001928651612378565b516124fa8285612389565b52016124d4565b8061250f60019284866127b9565b61251884612821565b6125218461273d565b016124af565b7f30644e72e131a029b85045b68181585d2833e84879b9709143e1f593f00000018451612554838661272c565b5151900884527f30644e72e131a029b85045b68181585d2833e84879b9709143e1f593f00000018451818082800980090984525f5f5b6004811061262d57505f5b600481106125a75750506001016124a2565b807f30644e72e131a029b85045b68181585d2833e84879b9709143e1f593f00000016125d560019389612378565b516125e08388612378565b5190096125ed8289612378565b527f30644e72e131a029b85045b68181585d2833e84879b9709143e1f593f00000018361261a838a612378565b51086126268289612378565b5201612595565b907f30644e72e131a029b85045b68181585d2833e84879b9709143e1f593f000000160019161265c8489612378565b519008910161258a565b8061267460019285876127b9565b61267d85612821565b6126868561273d565b01612496565b8061269960019284612378565b516126a48288612378565b5201612481565b600190604085016126fb827f30644e72e131a029b85045b68181585d2833e84879b9709143e1f593f00000016126e2828551612378565b516126f18360208c0151612389565b5190089251612378565b5201612438565b60019082850151811015612717575b0161242d565b5f612726826020880151612389565b52612711565b90604081101561030c5760051b0190565b7f30644e72e131a029b85045b68181585d2833e84879b9709143e1f593f00000018091818151818080602086019384519008926040860195828088518180606086019c8d938451900881808c8184818d805190519008089651969c8d9780080899828b93088008089c898e9a0880080880940890525208905252565b905f5b600481106127ca5750505050565b807f30644e72e131a029b85045b68181585d2833e84879b9709143e1f593f00000016127f860019386612378565b5161280d83612807898861272c565b51612378565b51900861281a8286612378565b52016127bc565b5f5b6004811061282f575050565b807f30644e72e131a029b85045b68181585d2833e84879b9709143e1f593f000000161285d60019385612378565b5181808280098009096128708285612378565b520161282356fea26469706673582212203a7ce4977bba6eb23d8d32927972478402da9cb49e0b8ff7967a1f528bcc195864736f6c634300081e0033","linkReferences":{}},"methodIdentifiers":{"hash(uint256[])":"40ec6e49","hash(uint256[],uint256,bool)":"664db65a","hash_1(uint256)":"6bdcae5c","hash_2(uint256,uint256)":"055d8d54","hash_3(uint256,uint256,uint256)":"e16f6200"},"id":22}