{"abi":[{"type":"function","name":"convertToFieldArray","inputs":[{"name":"input","type":"uint256[]","internalType":"uint256[]"}],"outputs":[{"name":"","type":"uint256[]","internalType":"Field.Type[]"}],"stateMutability":"pure"},{"type":"function","name":"hash","inputs":[{"name":"input","type":"uint256[]","internalType":"Field.Type[]"}],"outputs":[{"name":"","type":"uint256","internalType":"Field.Type"}],"stateMutability":"pure"},{"type":"function","name":"hash","inputs":[{"name":"input","type":"uint256[]","internalType":"Field.Type[]"},{"name":"std_input_length","type":"uint256","internalType":"uint256"},{"name":"is_variable_length","type":"bool","internalType":"bool"}],"outputs":[{"name":"","type":"uint256","internalType":"Field.Type"}],"stateMutability":"pure"},{"type":"function","name":"hashUint256","inputs":[{"name":"input","type":"uint256[]","internalType":"uint256[]"}],"outputs":[{"name":"","type":"uint256","internalType":"uint256"}],"stateMutability":"pure"},{"type":"function","name":"hash_1","inputs":[{"name":"x","type":"uint256","internalType":"Field.Type"}],"outputs":[{"name":"","type":"uint256","internalType":"Field.Type"}],"stateMutability":"pure"},{"type":"function","name":"hash_2","inputs":[{"name":"x","type":"uint256","internalType":"Field.Type"},{"name":"y","type":"uint256","internalType":"Field.Type"}],"outputs":[{"name":"","type":"uint256","internalType":"Field.Type"}],"stateMutability":"pure"},{"type":"function","name":"permutation","inputs":[{"name":"inputs","type":"uint256[3]","internalType":"Field.Type[3]"}],"outputs":[{"name":"","type":"uint256[3]","internalType":"Field.Type[3]"}],"stateMutability":"pure"},{"type":"function","name":"poseidon2","inputs":[{"name":"x","type":"uint256","internalType":"Field.Type"},{"name":"y","type":"uint256","internalType":"Field.Type"}],"outputs":[{"name":"","type":"uint256","internalType":"Field.Type"}],"stateMutability":"pure"},{"type":"function","name":"poseidon2Uint256","inputs":[{"name":"x","type":"uint256","internalType":"uint256"},{"name":"y","type":"uint256","internalType":"uint256"}],"outputs":[{"name":"","type":"uint256","internalType":"uint256"}],"stateMutability":"pure"},{"type":"function","name":"testVector1","inputs":[],"outputs":[{"name":"","type":"uint256","internalType":"uint256"}],"stateMutability":"pure"},{"type":"function","name":"testVector2","inputs":[],"outputs":[{"name":"","type":"uint256","internalType":"uint256"}],"stateMutability":"pure"}],"bytecode":{"object":"0x6080604052348015600e575f5ffd5b506139618061001c5f395ff3fe608060405234801561000f575f5ffd5b50600436106100a7575f3560e01c80638e464cab1161006f5780638e464cab1461019b578063bf6d83e1146101cb578063e10b107d146101fb578063e24372e114610219578063eb83347714610237578063f015821814610267576100a7565b8063055d8d54146100ab57806340ec6e49146100db578063664db65a1461010b5780636bdcae5c1461013b5780636e9c433b1461016b575b5f5ffd5b6100c560048036038101906100c0919061307d565b610297565b6040516100d291906130f4565b60405180910390f35b6100f560048036038101906100f0919061325d565b6102aa565b60405161010291906130f4565b60405180910390f35b61012560048036038101906101209190613303565b6102be565b60405161013291906130f4565b60405180910390f35b6101556004803603810190610150919061336f565b6102d3565b60405161016291906130f4565b60405180910390f35b6101856004803603810190610180919061307d565b6102e4565b60405161019291906130f4565b60405180910390f35b6101b560048036038101906101b0919061345a565b61033a565b6040516101c29190613558565b60405180910390f35b6101e560048036038101906101e09190613578565b6103f0565b6040516101f291906135c5565b60405180910390f35b610203610420565b60405161021091906135c5565b60405180910390f35b610221610432565b60405161022e91906135c5565b60405180910390f35b610251600480360381019061024c919061345a565b610442565b60405161025e91906135c5565b60405180910390f35b610281600480360381019061027c919061368c565b61046d565b60405161028e9190613736565b60405180910390f35b5f6102a2838361049e565b905092915050565b5f6102b78283515f61054a565b9050919050565b5f6102ca84848461054a565b90509392505050565b5f6102dd82610567565b9050919050565b5f6102ed612f38565b83815f600281106103015761030061374f565b5b602002018181525050828160016002811061031f5761031e61374f565b5b602002018181525050610331816105f1565b91505092915050565b60605f825167ffffffffffffffff81111561035857610357613121565b5b6040519080825280602002602001820160405280156103865781602001602082028036833780820191505090505b5090505f5f90505b83518110156103e6576103ba8482815181106103ad576103ac61374f565b5b60200260200101516106c8565b8282815181106103cd576103cc61374f565b5b602002602001018181525050808060010191505061038e565b5080915050919050565b5f5f61040c6103fe856106c8565b610407856106c8565b6102e4565b9050610417816106da565b91505092915050565b5f61042d600160026103f0565b905090565b5f61043d5f5f6103f0565b905090565b5f5f61044d8361033a565b90505f610459826102aa565b9050610464816106da565b92505050919050565b610475612f5a565b5f61047e6106e3565b90506104968360086038845f0151856020015161250f565b915050919050565b5f5f600267ffffffffffffffff8111156104bb576104ba613121565b5b6040519080825280602002602001820160405280156104e95781602001602082028036833780820191505090505b50905083815f81518110610500576104ff61374f565b5b60200260200101818152505082816001815181106105215761052061374f565b5b6020026020010181815250506105416105386106e3565b8260025f612834565b91505092915050565b5f61055e6105566106e3565b858585612834565b90509392505050565b5f5f600167ffffffffffffffff81111561058457610583613121565b5b6040519080825280602002602001820160405280156105b25781602001602082028036833780820191505090505b50905082815f815181106105c9576105c861374f565b5b6020026020010181815250506105e96105e06106e3565b8260015f612834565b915050919050565b5f6105fa612f5a565b5f815f6003811061060e5761060d61374f565b5b602002018181525050825f6002811061062a5761062961374f565b5b6020020151816001600381106106435761064261374f565b5b602002018181525050826001600281106106605761065f61374f565b5b6020020151816002600381106106795761067861374f565b5b6020020181815250505f61068b6106e3565b90505f6106a48360086038855f0151866020015161250f565b9050805f600381106106b9576106b861374f565b5b60200201519350505050919050565b5f8190506106d5816128ba565b919050565b5f819050919050565b6106eb612f7c565b6040518061180001604052807f6f007a551156b3a449e44936b7c093644a0ed33f33eaccc628e942e836c1a87581526020017f360d7470611e473d353f628f76d110f34e71162f31003b7057538c259642630381526020017f4b5fec3aa073df44019091f007a44ca996484965f7036dce3e9d0977edcdc0f681526020017f67cf1868af6396c0b84cce715e539f849e06cd1c383ac5b06100c76bcc973a1181526020017f555db4d1dced819f5d3de70fde83f1c7d3e8c98968e516a23a771a5c9c8257aa81526020017f2bab94d7ae222d135dc3c6c5febfaa314908ac2f12ebe06fbdb74213bf63188b81526020017f66f44be5296682c4fa7882799d6dd049b6d7d2c950ccf98cf2e50d6d1ebb77c281526020017f150c93fef652fb1c2bf03e1a29aa871fef77e7d736766c5d0939d92753cc5dc881526020017f3270661e68928b3a955d55db56dc57c103cc0a60141e894e14259dce537782b281526020017f073f116f04122e25a0b7afe4e2057299b407c370f2b5a1ccce9fb9ffc345afb381526020017f409fda22558cfe4d3dd8dce24f69e76f8c2aaeb1dd0f09d65e654c71f32aa23f81526020017f2a32ec5c4ee5b1837affd09c1f53f5fd55c9cd2061ae93ca8ebad76fc71554d881526020017f5848ebeb5923e92555b7124fffba5d6bd571c6f984195eb9cfd3a3e8eb55b1d481526020017f270326ee039df19e651e2cfc740628ca634d24fc6e2559f22d8ccbe292efeead81526020017f27c6642ac633bc66dc100fe7fcfa54918af895bce012f182a068fc37c182e27481526020017f1bdfd8b01401c70ad27f57396989129d710e1fb6ab976a459ca18682e26d7ff981526020017f491b9ba6983bcf9f05fe4794adb44a30879bf8289662e1f57d90f672414e8a4a81526020017f162a14c62f9a89b814b9d6a9c84dd678f4f6fb3f9054d373c832d824261a35ea81526020017f2d193e0f76de586b2af6f79e3127feeaac0a1fc71e2cf0c0f79824667b5b6bec81526020017f46efd8a9a262d6d8fdc9ca5c04b0982f24ddcc6e9863885a6a732a3906a07b9581526020017f509717e0c200e3c92d8dca2973b3db45f0788294351ad07ae75cbb780693a79881526020017f7299b28464a8c94fb9d4df61380f39c0dca9c2c014118789e227252820f01bfc81526020017f044ca3cc4a85d73b81696ef1104e674f4feff82984990ff85d0bf58dc8a4aa9481526020017f1cbaf2b371dac6a81d0453416d3e235cb8d9e2d4f314f46f6198785f0cd6b9af81526020017f1d5b2777692c205b0e6c49d061b6b5f4293c4ab038fdbbdc343e07610f3fede581526020017f56ae7c7a5293bdc23e85e1698c81c77f8ad88c4b33a5780437ad047c6edb59ba81526020017f2e9bdbba3dd34bffaa30535bdd749a7e06a9adb0c1e6f962f60e971b8d73b04f81526020017f2de11886b18011ca8bd5bae36969299fde40fbe26d047b05035a13661f22418b81526020017f2e07de1780b8a70d0d5b4a3f1841dcd82ab9395c449be947bc998884ba96a72181526020017f0f69f1854d20ca0cbbdb63dbd52dad16250440a99d6b8af3825e4c2bb74925ca81526020017f5dc987318e6e59c1afb87b655dd58cc1d22e513a05838cd4585d04b135b957ca81526020017f48b725758571c9df6c01dc639a85f07297696b1bb678633a29dc91de95ef53f681526020017f5e565e08c0821099256b56490eaee1d573afd10bb6d17d13ca4e5c611b2a371881526020017f2eb1b25417fe17670d135dc639fb09a46ce5113507f96de9816c059422dc705e81526020017f115cd0a0643cfb988c24cb44c3fab48aff36c661d26cc42db8b1bdf4953bd82c81526020017f26ca293f7b2c462d066d7378b999868bbb57ddf14e0f958ade801612311d04cd81526020017f4147400d8e1aaccf311a6b5b762011ab3e45326e4d4b9de26992816b99c528ac81526020017f6b0db7dccc4ba1b268f6bdcc4d372848d4a72976c268ea30519a2f73e6db4d5581526020017f17bf1b93c4c7e01a2a830aa162412cd90f160bf9f71e967ff5209d14b24820ca81526020017f4b431cd9efedbc94cf1eca6f9e9c1839d0e66a8bffa8c8464cac81a39d3cf8f181526020017f35b41a7ac4f3c571a24f8456369c85dfe03c0354bd8cfd3805c86f2e7dc293c581526020017f3b1480080523c439435927994849bea964e14d3beb2dddde72ac156af435d09e81526020017f2cc6810031dc1b0d4950856dc907d57508e286442a2d3eb2271618d874b14c6d81526020017f6f4141c8401c5a395ba6790efd71c70c04afea06c3c92826bcabdd5cb5477d5181526020017f25bdbbeda1bde8c1059618e2afd2ef999e517aa93b78341d91f318c09f0cb56681526020017f392a4a8758e06ee8b95f33c25dde8ac02a5ed0a27b61926cc6313487073f7f7b81526020017f272a55878a08442b9aa6111f4de009485e6a6fd15db89365e7bbcef02eb5866c81526020017f631ec1d6d28dd9e824ee89a30730aef7ab463acfc9d184b355aa05fd6938eab581526020017f4eb6fda10fd0fbde02c7449bfbddc35bcd8225e7e5c3833a0818a100409dc6f281526020017f2d5b308b0cf02cdfefa13c4e60e26239a6ebba011694dd129b925b3c5b21e0e281526020017f16549fc6af2f3b72dd5d293d72e2e5f244dff42f18b46c56ef38c57c311673ac81526020017f42332677ff359c5e8db836d9f5fb54822e39bd5e22340bb9ba975ba1a92be38281526020017f49d7d2c0b449e5179bc5ccc3b44c6075d9849b5610465f09ea725ddc97723a9481526020017f64c20fb90d7a003831757cc4c6226f6e4985fc9ecb416b9f684ca0351d96790481526020017f59cff40de83b52b41bc443d7979510d771c940b9758ca820fe73b5c8d558093481526020017f53db2731730c39b04edd875fe3b7c882808285cdbc621d7af4f80dd53ebb71b081526020017f1b10bb7a82afce39fa69c3a2ad52f76d76398265344203119b7126d9b46860df81526020017f561b6012d666bfe179c4dd7f84cdd1531596d3aac7c5700ceb319f91046a63c981526020017f0f1e7505ebd91d2fc79c2df7dc98a3bed1b36968ba0405c090d27f6a00b7dfc881526020017f2f313faf0d3f6187537a7497a3b43f46797fd6e3f18eb1caff457756b819bb2081526020017f3a5cbb6de450b481fa3ca61c0ed15bc55cad11ebf0f7ceb8f0bc3e732ecb26f681526020017f681d93411bf8ce63f6716aefbd0e24506454c0348ee38fabeb264702714ccf9481526020017f5178e940f50004312646b436727f0e80a7b8f2e9ee1fdc677c4831a7672777fb81526020017f3dab54bc9bef688dd92086e253b439d651baa6e20f892b62865527cbca91598281526020017f4b3ce75311218f9ae905f84eaa5b2b3818448bbf3972e1aad69de321009015d081526020017f06dbfb42b979884de280d31670123f744c24b33b410fefd4368045acf2b71ae381526020017f068d6b4608aae810c6f039ea1973a63eb8d2de72e3d2c9eca7fc32d22f18b9d381526020017f4c5c254589a92a36084a57d3b1d964278acc7e4fe8f69f2955954f27a79cebef81526020017f6cbac5e1700984ebc32da15b4bb9683faabab55f67ccc4f71d9560b3475a77eb81526020017f4603c403bbfa9a17738a5c6278eaab1c37ec30b0737aa2409fc4898069eb983c81526020017f6894e7e22b2c1d5c70a712a6345ae6b192a9c833a9234c31c56aacd16bc2f10081526020017f5be2cbbc44053ad08afa4d1eabc7f3d231eea799b93f226e905b7d4d65c58ebb81526020017f58e55f287b453a9808624a8c2a353d528da0f7e713a5c6d0d7711e47063fa61181526020017f366ebfafa3ad381c0ee258c9b8fdfccdb868a7d7e1f1f69a2b5dfcc5572555df81526020017f45766ab728968c642f90d97ccf5504ddc10518a819ebbcc4d09c3f5d784d67ce81526020017f39678f65512f1ee404db3024f41d3f567ef66d89d044d022e6bc229e95bc76b181526020017f463aed1d2f1f955e3078be5bf7bfc46fc0eb8c51551906a8868f18ffae30cf4f81526020017f21668f016a8063c0d58b7750a3bc2fe1cf82c25f99dc01a4e534c88fe53d85fe81526020017f39d00994a8a5046a1bc749363e98a768e34dea56439fe1954bef429bc533160881526020017f4d7f5dcd78ece9a933984de32c0b48fac2bba91f261996b8e9d1021773bd07cc81526020017f1f9dbdc3f84312636b203bbe12fb3425b163d41605d39f99770c956f60d881b381526020017f027745a9cddfad95e5f17b9e0ee0cab6be0bc829fe5e66c69794a9f7c336eab281526020017f1cec0803c504b635788d695c61e932122fa43fe20a45c78d52025657abd8aee081526020017f123523d75e9fabc172077448ef87cc6eed5082c8dbf31365d3872a9559a03a7381526020017f1723d1452c9cf02df419b848e5d694bf27feba35975ee7e5001779e3a1d357f481526020017f557b5af29163a60034ec4ae1e358e471e188a398288014f1747906449058077a81526020017f1739d180a16010bdfcc0573d7e61369421c3f776f572836d9dab1ee4dcf9662281526020017f2d4e6354da9cc554acce32391794b627fafa96fbeb0ab89370290452042d048d81526020017f153ee6142e535e334a869553c9d007f88f3bd43f99260621670bcf6f8b485dcd81526020017f71773e86c806833f827f654f2c5a7ab5ad1935dc98e086797aae750c35afccb681526020017f0c45bfd3a69aaa65635ef7e7a430b486968ad4424af83700d258d2e2b778217281526020017f0adfd53b256a6957f2d56aec831446006897ac0a8ffa5ff10e5633d251f7330781526020017f41d52090ea5b43402b1a9adfd5e2f5f2f1d1dc75259d25229d2fb88eae087a1f81526020017f4ecdf55bd36d423a334ecd13f72e69bd4d93d12cbb53a10fc0ba7f3e9ec396f181526020017f315d2ac8ebdbac3c8cd1726b7cbab8ee3f87b28f1c1be4bdac9d36a8b7516d6381526020017f49261a5d6cfd4a9f2a051d9906066d04a21709c9411cee63cc015562c922643281526020017f40153234da114723048f6dcb7b695b69f7a7cfca052ff51526f3898cce33781781526020017f6e986d063d9fffc8121bc3c2c4ac3e76cf808cefbeccb1bdd3c0d64738f61bad81526020017f5283f80e81fc4e4d1c24a4cbc7693894eec452eedf44871de8f67534ca27394881526020017f552576887491b06d69aef8aac5710e8d844f896957a41921b12a066274c5a3f481526020017f59332dc761e3ad275048a1198b73d5c3a99ba75b7b7e5995378338df48d6e39881526020017f1b8472712d02eef4cfaec23d2b16883fc9bb60d1f6959879299ce44ea423d8e181526020017f4945c4c7c62282f08e36b59ab0e33001759e70e01221c74d5505586ae95eab6881526020017f6f7d34b9199bf60a87b4b06539a1554c413bd07c7430f7a54c0176c94c1b9e9581526020017f3c1cd07efda6ff24bd0b70fa2255eb6f367d2c54e36928c9c4a5404198adf70c81526020017f72ed857fbb581d2d92932995e80188c7ad9eb5c8c084d5d829394841274c91d281526020017f136052d26bb3d373687f4e51b2e1dcd34a16073f738f7e0cbbe523aef9ab107a81526020017f623f02ec818792941c4894438841d441653ec1e760cc09f5ad102f014b6658c781526020017f51c0b9b1022de4d0fea7ad49bf6d814ded9541807df5a911589583ba658d434881526020017f42c1e81b61b7fc0b04b48024c56f83108dc800179ca7530868724ec3239f846381526020017f42ce8d45e3f7bbf7f10a8fc71ab6d7c30bcf843897bc6823208202d2e31fd07281526020017f6e53bfc3ec7be39c064e2f0fdee7a37b0b93965712e431394bcce9c75c22f73881526020017f16c96beef6a0a848c1bdd859a1232a1d7b3cfbb873032681676c36c24ef967dd81526020017f284b38c57ff65c262ab7fed8f499a9fb012387bab4f1662d067eec7f2d6340c481526020017f70cb7ad7798e307ef85d4bdfc76f837420ea23a9fe16273d60bfc6cebebb5ac181526020017f0c5993d175e81f6639e242198897d17cfc06772c1c0411a6af1dff204c922f8681526020017f03bf7a3f7bd043dafcda655d1ba9c8f9f24887ad48e17759bbf53f67b1f87b1581526020017f3188fe4ee9f9fafbb0cf999567f00e734c8f9cbe69f0e8279b5cd09e36d8be6281526020017f171f528ccf6584375a39768c480d61e13af5bf77c1c42652afea99a2ec6c595a81526020017f12f4175c4ab45afc196e41859b35ef88812c3286ee7000675a0563b9b8e9f1d581526020017f3a509e155cb7ebfd8f8fdcf800a9ac697e23e1aabe96cfab0e74d4d369118b7981526020017f10f2a685df4a27c81a89920e2504c3b3984bc8f2e4c1b69e98712c65678cfd3081526020017f4959043e2135e0389ed8c6f81104cb6390af37d616015a881ed3363404687f0581526020017f52bd4073f5f900448262e371dbafcbba1edc155f03bf7f871c47f08dae05fddd81526020017f09e5f49790c8a0e21d8d93d54ab91a0e54573c9333c56321e8a16728cc9d491881526020017f352d69bed80ee3e52bf35705d9f84a3442d17ed6ee0fab7e609a740347cf5fea81526020017f058ee73ba9f3f293491562faf2b190d3c634debd281b76a63a758af6fa84e0e881526020017f6184c223124d658cd4760ab3c3b9668947b12f279437ccd375ef855b3d99979881526020017f6ea989c63c451341c91afa790b6f84c0fff8d09680344bc7434998dfc696c11581526020017f57f4ac045fb78ade81f9196c9db8a7abf8de139c4a488a0613685982e812181281526020017f6dbfdc64a545237a88ee79c1752a74ce767352b5071a0d317c5b49e259491b9481526020017f232f99cc911eddd9cd0f1fc55b1a3250092cb92119bc76be621a132510a4390481526020017f201beed7b8f3ab8186c22c6c5d4869f0f9efd52ca6bc2961c3b97c1e301bc21381526020017f4b99c756e1e0b9491a082e28c55458ccd5e97eb59381fc872223d9e77ef87b2d81526020017f1376dce6580030c6a1c9291d58602f5129388842744a1210bf6b3431ba94e9bc81526020017f1793199e6fd6ba342b3356c38238f761072ba8b02d92e7226454843c5486d7b381526020017f5048857b8872cc1de188947dc3ee984e217d264c7975256fbfc74c8721472d9881526020017f5c772c20fc285d3e1854e3ededdd52942cd9b61c7755fe46dade9f89de8b3bbf81526020017f6e40d518ae3ce6cad092e810909a916c60fe77dfe7bbb86b5bfcceba1ae1887981526020017f22de7a7488dcc7359fee9c20c87a67df3c66160dc62aacac06a3f1d3b433311b81526020017f3514d5e9066bb160df8ff37fe2d8edf8dbe0b77fae77e1d030d6e3fd516b47a881526020017f30cd3006931ad636f919a00dabbf5fa5ff453d6f900f144a19377427137a81c781526020017f6203ad60b0341baa14e5c48b915f6b41e4959835d1a839996dcfc378b662c47481526020017f71e8d0ac035e59bf8007c0f3af24de07b674dae77042ae7dce7ae94770d7625481526020017f253d1a5c5293412741f81a5cf613c8df8f9e4b2cae2ebb515b6a74220692b50681526020017f035b461c02d79d19a35e9613e7f5fe92851b3a59c990fafc73f666cb86a48e8e81526020017f44476886a8f10f589800c8e3956f5f26648da4de0e86f19d35b334977c0fecc581526020017f23a9928079d175bd5bc00eedd56b93e092b1283c2d5fccde7cfbf86a3aa0478081526020017f13a7785ae134ea92f1594a0763c611abb5e2ea3436eef957f1e4ccd73fa00a8281526020017f39fce308b7d43c574962ae3c0da17e313889c57863446d88bbf04f5252de427981526020017f1aae18833f8e1d3ac0fdf01662f60d22bef00a08c6ed38d23b57e34489b53fad81526020017f1a761ce82400af018b2e80c064fd83ed27c1b3fd8f85d8a855513e033398513f81526020017f64df4c0ecc132a1ebf553cf334d88ed8a7ef1ec487821005a4e385d6fae179f081526020017f47940c32599822d67897c4062665e15687220d2c5ce5713ca1ae44cdbf45214181526020017f275a03e45adda7c316dd1a87ca22e1ccdcf6af2830a502875244ca749b73e48181526020017f2e5a10f08b5ab8bbeb08e47e5feabcf807e561453fc5648b58a253cfb6a9578681526020017f6b4216c76c229946eba0b6ca567a5e01efef1919cd3424a161477bd2d2cdf30d81526020017f1459cb8587208473b84e9c333b2932f1c141a5b6d594bec4e033d82cefe78ce381526020017f193ae5921d78b5de7b92ce810e14a40052f9332fbffcfbbd5cec7e7b338fbe1b81526020017f3097898a5d0011a489111fb2c4660281374384f4a072820560224be67248e82c81526020017f378d97bf8c864ae7571782fd96ce54b41979b2d1c465b4d9549980de862930f581526020017f47e939590928513aaea5ca5fda898a41734378eabcda9b48adc35ce03f59d08e81526020017f2eb04ea7c01d97ec88136287ce376b08dbc7f5cb4609342137ea32a971d1788481526020017f668a95bddfb878732be2633ada541e1d1e163418f3ebf82316f64b24ab49cf0581526020017f57ff77ffd3ab3372985f839e7cd61fae628a683f22ab245256260a46ba14b26d81526020017f4e185328f8228371b8957c496316b4fcfd3c1786cec9a1b8f855edd27597e7af81526020017f36425347ea03f6412302a1c22e49baec861cbda476804e6cead3726f1af2e7b081526020017f51b825d33b31b018ca3d3590dcc9ca41afe09f699191c41acdb5b3ef7e617b7881526020017f26b72df47408ad42cc996cd85c98a1d83f5b5ca5a19a9701ecd627e59590d09e81526020017f629f82ef3b843d15e5e67fbab2857f7665e39a2289df756ef82eda0e3baef82d81526020017f57da05c9a95902aea1b804e493ea27d661a36e5bd630fbc5b2565b42c81678df81526020017f65bb185aa22d4a6d0b9741e936b955bc6322fb749f73c9e95466747ca7d79dec81526020017f130180e44e2924db1f05636c610b89aade01212ee4588f8959bece31f0a31e9581526020017f219e97737d3979ba73275acaed5f579cdf7793cc89e5b52f9ea8e7bc7926355081526020017f4043fd3082574e5773a8654e32dd4190a6728be3fc54fab3644532e1c79a180081526020017f5784e5360ffb6781d9cbc1df6bd8549c71d81f000d5c4d2f071dc0f28a21c72081526020017f3cdb93598a5ca5283461363f81c489a23b0672dd7d42cbb49c12635df251d15381526020017f0e59e6f332d7ed3720724b927a0ca81c4ad0447045a7c5aa2861ce16f219d5a981526020017f57afcf069f3680a6ddcb3424ff2ab8d138a48f0fa72fc06286718f66cfe1df0881526020017f51ba5d4899d7835ec1a17fb1bc7101690828fd09ec92e732769a61f5f0c6608581526020017f1b064342d51a42753d7369467222697a172cc07b9d33fbf943b0a3fcff2036bd81526020017f54aef45559da8b2c7472c3ad5a0d33086da6e4df67ef4ede874adebb2902df8281526020017f30b82a998cbd8e8a2f363c55b2882e0b78fa9fb9171221b73eb310228a0e5f6c81526020017f523a56f81ba90ef3a40ebdf2c848c8ab1a6c9889ac6c78eca8147a560db320c581526020017f4fc581cc0a10b8c1d357e215fe5c7ec1d3a0931cad9a575da613b282fb1fd4b481526020017f23e4ab37183acba463df7a76e858a4aa8ad71ea715be0573e46f6d429874010781526020017f2795d5c5fa4280225d33094e0beda75bacfe14640de044f2fca995e2b59914a181526020017f3001ca401e89601cd765f26dd03f4c45a6687c3df16c8fe4c26d909dee8b53c081526020017e72e45cc676b08ef7bf86e89280827fe84b5bebae4e501de7fea6bdf347138081526020017f522338e1bf861c22cf8eeaa5d060db37420d3020e1713cf6fff6f239e30cbfa781526020017f6fde059ef86c70e457aabb383afa5baf09088f95fd8322f957b618dd020277ff81526020017f13de705484874bb5e2abe4c518ce599eb64829e2d40e41bdd0c54ddeb26b86c0815250815f0181905250604051806060016040528060405180606001604052807f44d46fa01da5117cf3fbdba05adc0a64af6c34a56f1e3c6cba01b7a582af883981526020017f3fe667e00c2b55cab44507505bba0e3a626e1ae605378c995a65a784ff14b25081526020017f63ce26c4206c020d51deaa55ffd4bb75f2331516053550b2ab85fd269bd880d9815250815260200160405180606001604052807f42ef9cc13681afd5b00dec34395420d789050302f55bfdf81467c45c7901911981526020017f0e5584fa583dbae95ce13fb6befa8c6a8726033dc2ef49a2935a0c875e4e70b381526020017f5e8641d1c62a0c9d1d2fdb568dd5e25159d2f0c278522abe614e27d5df217a8d815250815260200160405180606001604052807f16582a527dd2eaa72fb34e6404e4c5a3778673b33370e0c1613548961eba050f81526020017f0b69c4e8a57aea1a6666cf14bbc5781c279d6386d13ffe4db266295b4d8f795381526020017f42d7e3dffaf0722a5079353abbcfb0458b44cad327804ef6780e71fe3a3d9a2a815250815250816020018190525090565b612517612f5a565b5f8690505f5f90505f60028861252d91906137d6565b90505f5f90505b81811015612634575f5f90505b60038110156125c25761258b888560c081106125605761255f61374f565b5b60200201518683600381106125785761257761374f565b5b602002015161291f90919063ffffffff16565b85826003811061259e5761259d61374f565b5b60200201818152505083806125b290613806565b9450508080600101915050612541565b505f5f90505b600381101561261a576125f18582600381106125e7576125e661374f565b5b602002015161294c565b8582600381106126045761260361374f565b5b60200201818152505080806001019150506125c8565b506126258487612968565b93508080600101915050612534565b505f5f90505b8781101561271e575f5f90505b60038110156126c857612691888560c081106126665761266561374f565b5b602002015186836003811061267e5761267d61374f565b5b602002015161291f90919063ffffffff16565b8582600381106126a4576126a361374f565b5b60200201818152505083806126b890613806565b9450508080600101915050612647565b506126e9845f600381106126df576126de61374f565b5b602002015161294c565b845f600381106126fc576126fb61374f565b5b60200201818152505061270f8487612968565b9350808060010191505061263a565b505f5f90505b81811015612824575f5f90505b60038110156127b25761277b888560c081106127505761274f61374f565b5b60200201518683600381106127685761276761374f565b5b602002015161291f90919063ffffffff16565b85826003811061278e5761278d61374f565b5b60200201818152505083806127a290613806565b9450508080600101915050612731565b505f5f90505b600381101561280a576127e18582600381106127d7576127d661374f565b5b602002015161294c565b8582600381106127f4576127f361374f565b5b60200201818152505080806001019150506127b8565b506128158487612968565b93508080600101915050612724565b5082935050505095945050505050565b5f5f6128496128438651612a74565b87612a81565b90505f5f90505b8551811015612893578481101561288657612885828783815181106128785761287761374f565b5b6020026020010151612b15565b5b8080600101915050612850565b5082156128a6576128a5816001612b15565b5b6128af81612bcc565b915050949350505050565b7f73eda753299d7d483339d80809a1d80553bda402fffe5bfeffffffff00000001811061291c576040517f08c379a0000000000000000000000000000000000000000000000000000000008152600401612913906138a7565b60405180910390fd5b50565b5f7f73eda753299d7d483339d80809a1d80553bda402fffe5bfeffffffff00000001828408905092915050565b5f612961600583612d2d90919063ffffffff16565b9050919050565b612970612f5a565b612978612f5a565b5f5f90505b6003811015612a69575f82826003811061299a5761299961374f565b5b6020020181815250505f5f90505b6003811015612a5b57612a32612a0c8783600381106129ca576129c961374f565b5b60200201518785600381106129e2576129e161374f565b5b602002015184600381106129f9576129f861374f565b5b6020020151612da690919063ffffffff16565b848460038110612a1f57612a1e61374f565b5b602002015161291f90919063ffffffff16565b838360038110612a4557612a4461374f565b5b60200201818152505080806001019150506129a8565b50808060010191505061297d565b508091505092915050565b5f604082901b9050919050565b612a89612fa2565b5f6040518060c0016040528085815260200160405180604001604052805f81526020015f815250815260200160405180606001604052805f81526020015f81526020015f81525081526020015f81526020015f15158152602001848152509050838160400151600260038110612b0257612b0161374f565b5b6020020181815250508091505092915050565b8160800151158015612b2b575060028260600151145b15612b6b57612b3982612dd3565b508082602001515f60028110612b5257612b5161374f565b5b6020020181815250506001826060018181525050612bc8565b8160800151158015612b8257506002826060015114155b15612bc757808260200151836060015160028110612ba357612ba261374f565b5b602002018181525050600182606001818151612bbf91906138c5565b915081815250505b5b5050565b5f8160800151612c54575f612be083612dd3565b905060018360800190151590811515815250505f5f90505b6002811015612c4657818160028110612c1457612c1361374f565b5b602002015184602001518260028110612c3057612c2f61374f565b5b6020020181815250508080600101915050612bf8565b506002836060018181525050505b5f82602001515f60028110612c6c57612c6b61374f565b5b602002015190505f600190505b6002811015612ce4578360600151811015612cd75783602001518160028110612ca557612ca461374f565b5b60200201518460200151600183612cbc91906138f8565b60028110612ccd57612ccc61374f565b5b6020020181815250505b8080600101915050612c79565b50600183606001818151612cf891906138f8565b915081815250505f8360200151846060015160028110612d1b57612d1a61374f565b5b60200201818152505080915050919050565b5f6001905082825b5f811115612d9e576001811615612d6d577f73eda753299d7d483339d80809a1d80553bda402fffe5bfeffffffff0000000182840992505b7f73eda753299d7d483339d80809a1d80553bda402fffe5bfeffffffff0000000182830991508060011c9050612d35565b505092915050565b5f7f73eda753299d7d483339d80809a1d80553bda402fffe5bfeffffffff00000001828409905092915050565b612ddb612f38565b5f5f90505b6002811015612e235782606001518110612e16575f83602001518260028110612e0c57612e0b61374f565b5b6020020181815250505b8080600101915050612de0565b505f5f90505b6002811015612ea857612e7b83602001518260028110612e4c57612e4b61374f565b5b602002015184604001518360038110612e6857612e6761374f565b5b602002015161291f90919063ffffffff16565b83604001518260038110612e9257612e9161374f565b5b6020020181815250508080600101915050612e29565b50612ecb8260400151600860388560a001515f01518660a001516020015161250f565b8260400181905250612edb612f38565b5f5f90505b6002811015612f2e5783604001518160038110612f0057612eff61374f565b5b6020020151828260028110612f1857612f1761374f565b5b6020020181815250508080600101915050612ee0565b5080915050919050565b6040518060400160405280600290602082028036833780820191505090505090565b6040518060600160405280600390602082028036833780820191505090505090565b6040518060400160405280612f8f612fe9565b8152602001612f9c61300c565b81525090565b6040518060c001604052805f8152602001612fbb612f38565b8152602001612fc8612f5a565b81526020015f81526020015f15158152602001612fe3612f7c565b81525090565b60405180611800016040528060c090602082028036833780820191505090505090565b60405180606001604052806003905b613023612f5a565b81526020019060019003908161301b5790505090565b5f604051905090565b5f5ffd5b5f5ffd5b5f819050919050565b61305c8161304a565b8114613066575f5ffd5b50565b5f8135905061307781613053565b92915050565b5f5f6040838503121561309357613092613042565b5b5f6130a085828601613069565b92505060206130b185828601613069565b9150509250929050565b5f819050919050565b5f6130de6130d96130d48461304a565b6130bb565b61304a565b9050919050565b6130ee816130c4565b82525050565b5f6020820190506131075f8301846130e5565b92915050565b5f5ffd5b5f601f19601f8301169050919050565b7f4e487b71000000000000000000000000000000000000000000000000000000005f52604160045260245ffd5b61315782613111565b810181811067ffffffffffffffff8211171561317657613175613121565b5b80604052505050565b5f613188613039565b9050613194828261314e565b919050565b5f67ffffffffffffffff8211156131b3576131b2613121565b5b602082029050602081019050919050565b5f5ffd5b5f6131da6131d584613199565b61317f565b905080838252602082019050602084028301858111156131fd576131fc6131c4565b5b835b8181101561322657806132128882613069565b8452602084019350506020810190506131ff565b5050509392505050565b5f82601f8301126132445761324361310d565b5b81356132548482602086016131c8565b91505092915050565b5f6020828403121561327257613271613042565b5b5f82013567ffffffffffffffff81111561328f5761328e613046565b5b61329b84828501613230565b91505092915050565b6132ad8161304a565b81146132b7575f5ffd5b50565b5f813590506132c8816132a4565b92915050565b5f8115159050919050565b6132e2816132ce565b81146132ec575f5ffd5b50565b5f813590506132fd816132d9565b92915050565b5f5f5f6060848603121561331a57613319613042565b5b5f84013567ffffffffffffffff81111561333757613336613046565b5b61334386828701613230565b9350506020613354868287016132ba565b9250506040613365868287016132ef565b9150509250925092565b5f6020828403121561338457613383613042565b5b5f61339184828501613069565b91505092915050565b5f67ffffffffffffffff8211156133b4576133b3613121565b5b602082029050602081019050919050565b5f6133d76133d28461339a565b61317f565b905080838252602082019050602084028301858111156133fa576133f96131c4565b5b835b81811015613423578061340f88826132ba565b8452602084019350506020810190506133fc565b5050509392505050565b5f82601f8301126134415761344061310d565b5b81356134518482602086016133c5565b91505092915050565b5f6020828403121561346f5761346e613042565b5b5f82013567ffffffffffffffff81111561348c5761348b613046565b5b6134988482850161342d565b91505092915050565b5f81519050919050565b5f82825260208201905092915050565b5f819050602082019050919050565b6134d3816130c4565b82525050565b5f6134e483836134ca565b60208301905092915050565b5f602082019050919050565b5f613506826134a1565b61351081856134ab565b935061351b836134bb565b805f5b8381101561354b57815161353288826134d9565b975061353d836134f0565b92505060018101905061351e565b5085935050505092915050565b5f6020820190508181035f83015261357081846134fc565b905092915050565b5f5f6040838503121561358e5761358d613042565b5b5f61359b858286016132ba565b92505060206135ac858286016132ba565b9150509250929050565b6135bf8161304a565b82525050565b5f6020820190506135d85f8301846135b6565b92915050565b5f67ffffffffffffffff8211156135f8576135f7613121565b5b602082029050919050565b5f613615613610846135de565b61317f565b9050806020840283018581111561362f5761362e6131c4565b5b835b8181101561365857806136448882613069565b845260208401935050602081019050613631565b5050509392505050565b5f82601f8301126136765761367561310d565b5b6003613683848285613603565b91505092915050565b5f606082840312156136a1576136a0613042565b5b5f6136ae84828501613662565b91505092915050565b5f60039050919050565b5f81905092915050565b5f819050919050565b5f602082019050919050565b6136e9816136b7565b6136f381846136c1565b92506136fe826136cb565b805f5b8381101561372e57815161371587826134d9565b9650613720836136d4565b925050600181019050613701565b505050505050565b5f6060820190506137495f8301846136e0565b92915050565b7f4e487b71000000000000000000000000000000000000000000000000000000005f52603260045260245ffd5b7f4e487b71000000000000000000000000000000000000000000000000000000005f52601260045260245ffd5b7f4e487b71000000000000000000000000000000000000000000000000000000005f52601160045260245ffd5b5f6137e08261304a565b91506137eb8361304a565b9250826137fb576137fa61377c565b5b828204905092915050565b5f6138108261304a565b91507fffffffffffffffffffffffffffffffffffffffffffffffffffffffffffffffff8203613842576138416137a9565b5b600182019050919050565b5f82825260208201905092915050565b7f4669656c643a20696e70757420697320746f6f206c61726765000000000000005f82015250565b5f61389160198361384d565b915061389c8261385d565b602082019050919050565b5f6020820190508181035f8301526138be81613885565b9050919050565b5f6138cf8261304a565b91506138da8361304a565b92508282019050808211156138f2576138f16137a9565b5b92915050565b5f6139028261304a565b915061390d8361304a565b9250828203905081811115613925576139246137a9565b5b9291505056fea264697066735822122003e391c7d2201ce5ca8e11a1b97069bb7fb5cabbcbd79676643243ec381001af64736f6c634300081e0033","linkReferences":{}},"methodIdentifiers":{"convertToFieldArray(uint256[])":"8e464cab","hash(uint256[])":"40ec6e49","hash(uint256[],uint256,bool)":"664db65a","hashUint256(uint256[])":"eb833477","hash_1(uint256)":"6bdcae5c","hash_2(uint256,uint256)":"055d8d54","permutation(uint256[3])":"f0158218","poseidon2(uint256,uint256)":"6e9c433b","poseidon2Uint256(uint256,uint256)":"bf6d83e1","testVector1()":"e10b107d","testVector2()":"e24372e1"},"id":5}