{"abi":[{"type":"constructor","inputs":[{"name":"_poseidon2Address","type":"address","internalType":"address"}],"stateMutability":"nonpayable"},{"type":"function","name":"batchTestHash2","inputs":[{"name":"inputs","type":"uint256[2][]","internalType":"uint256[2][]"}],"outputs":[{"name":"results","type":"uint256[]","internalType":"uint256[]"}],"stateMutability":"nonpayable"},{"type":"function","name":"clearResults","inputs":[],"outputs":[],"stateMutability":"nonpayable"},{"type":"function","name":"estimateHash2Gas","inputs":[{"name":"","type":"uint256","internalType":"uint256"},{"name":"","type":"uint256","internalType":"uint256"}],"outputs":[{"name":"estimatedGas","type":"uint256","internalType":"uint256"}],"stateMutability":"pure"},{"type":"function","name":"getHashResult","inputs":[{"name":"x","type":"uint256","internalType":"uint256"},{"name":"y","type":"uint256","internalType":"uint256"}],"outputs":[{"name":"result","type":"uint256","internalType":"uint256"}],"stateMutability":"view"},{"type":"function","name":"getTestCaseCount","inputs":[],"outputs":[{"name":"count","type":"uint256","internalType":"uint256"}],"stateMutability":"view"},{"type":"function","name":"getTestCaseResult","inputs":[{"name":"testCaseId","type":"uint256","internalType":"uint256"}],"outputs":[{"name":"testCase","type":"tuple","internalType":"struct BN254Poseidon2Mock.TestCase","components":[{"name":"x","type":"uint256","internalType":"uint256"},{"name":"y","type":"uint256","internalType":"uint256"},{"name":"result","type":"uint256","internalType":"uint256"},{"name":"gasUsed","type":"uint256","internalType":"uint256"},{"name":"timestamp","type":"uint256","internalType":"uint256"},{"name":"executed","type":"bool","internalType":"bool"}]}],"stateMutability":"view"},{"type":"function","name":"hashResults","inputs":[{"name":"","type":"bytes32","internalType":"bytes32"}],"outputs":[{"name":"","type":"uint256","internalType":"uint256"}],"stateMutability":"view"},{"type":"function","name":"poseidon2","inputs":[],"outputs":[{"name":"","type":"address","internalType":"contract BN254Poseidon2"}],"stateMutability":"view"},{"type":"function","name":"testCaseCount","inputs":[],"outputs":[{"name":"","type":"uint256","internalType":"uint256"}],"stateMutability":"view"},{"type":"function","name":"testCases","inputs":[{"name":"","type":"uint256","internalType":"uint256"}],"outputs":[{"name":"x","type":"uint256","internalType":"uint256"},{"name":"y","type":"uint256","internalType":"uint256"},{"name":"result","type":"uint256","internalType":"uint256"},{"name":"gasUsed","type":"uint256","internalType":"uint256"},{"name":"timestamp","type":"uint256","internalType":"uint256"},{"name":"executed","type":"bool","internalType":"bool"}],"stateMutability":"view"},{"type":"function","name":"testEdgeCases","inputs":[],"outputs":[{"name":"results","type":"uint256[]","internalType":"uint256[]"}],"stateMutability":"nonpayable"},{"type":"function","name":"testHash2","inputs":[{"name":"x","type":"uint256","internalType":"uint256"},{"name":"y","type":"uint256","internalType":"uint256"}],"outputs":[{"name":"result","type":"uint256","internalType":"uint256"}],"stateMutability":"nonpayable"},{"type":"function","name":"testHash2Field","inputs":[{"name":"x","type":"uint256","internalType":"uint256"},{"name":"y","type":"uint256","internalType":"uint256"}],"outputs":[{"name":"result","type":"uint256","internalType":"uint256"}],"stateMutability":"nonpayable"},{"type":"function","name":"testHash2WithId","inputs":[{"name":"testCaseId","type":"uint256","internalType":"uint256"},{"name":"x","type":"uint256","internalType":"uint256"},{"name":"y","type":"uint256","internalType":"uint256"}],"outputs":[{"name":"result","type":"uint256","internalType":"uint256"}],"stateMutability":"nonpayable"},{"type":"event","name":"BatchTestCompleted","inputs":[{"name":"testCaseIds","type":"uint256[]","indexed":false,"internalType":"uint256[]"},{"name":"totalGasUsed","type":"uint256","indexed":false,"internalType":"uint256"}],"anonymous":false},{"type":"event","name":"HashComputed","inputs":[{"name":"inputHash","type":"bytes32","indexed":true,"internalType":"bytes32"},{"name":"x","type":"uint256","indexed":false,"internalType":"uint256"},{"name":"y","type":"uint256","indexed":false,"internalType":"uint256"},{"name":"result","type":"uint256","indexed":false,"internalType":"uint256"},{"name":"gasUsed","type":"uint256","indexed":false,"internalType":"uint256"}],"anonymous":false},{"type":"event","name":"TestCaseExecuted","inputs":[{"name":"testCaseId","type":"uint256","indexed":true,"internalType":"uint256"},{"name":"x","type":"uint256","indexed":false,"internalType":"uint256"},{"name":"y","type":"uint256","indexed":false,"internalType":"uint256"},{"name":"result","type":"uint256","indexed":false,"internalType":"uint256"},{"name":"gasUsed","type":"uint256","indexed":false,"internalType":"uint256"}],"anonymous":false}],"bytecode":{"object":"0x608060405234801561000f575f5ffd5b50604051611725380380611725833981810160405281019061003191906100d4565b805f5f6101000a81548173ffffffffffffffffffffffffffffffffffffffff021916908373ffffffffffffffffffffffffffffffffffffffff160217905550506100ff565b5f5ffd5b5f73ffffffffffffffffffffffffffffffffffffffff82169050919050565b5f6100a38261007a565b9050919050565b6100b381610099565b81146100bd575f5ffd5b50565b5f815190506100ce816100aa565b92915050565b5f602082840312156100e9576100e8610076565b5b5f6100f6848285016100c0565b91505092915050565b6116198061010c5f395ff3fe608060405234801561000f575f5ffd5b50600436106100e8575f3560e01c8063bbaa6d2a1161008a578063e23e74c211610064578063e23e74c214610287578063e462e544146102a5578063ebed1621146102d5578063f92c3c7614610305576100e8565b8063bbaa6d2a1461022f578063c1e35e041461025f578063ca5ee4b214610269576100e8565b8063783f6227116100c6578063783f6227146101815780637e9483831461019f57806389cd3dca146101cf578063acc42f98146101ff576100e8565b80634fbb173c146100ec57806359d04b921461011c578063609e67b01461014c575b5f5ffd5b61010660048036038101906101019190610e8f565b610323565b6040516101139190610edc565b60405180910390f35b61013660048036038101906101319190610ef5565b610330565b6040516101439190610edc565b60405180910390f35b61016660048036038101906101619190610f45565b6104e0565b60405161017896959493929190610f8a565b60405180910390f35b610189610524565b6040516101969190610edc565b60405180910390f35b6101b960048036038101906101b4919061101c565b61052a565b6040516101c69190610edc565b60405180910390f35b6101e960048036038101906101e49190610e8f565b61053f565b6040516101f69190610edc565b60405180910390f35b61021960048036038101906102149190610f45565b610687565b60405161022691906110de565b60405180910390f35b61024960048036038101906102449190611158565b6106fd565b604051610256919061124b565b60405180910390f35b610267610995565b005b61027161099e565b60405161027e91906112e5565b60405180910390f35b61028f6109c2565b60405161029c919061124b565b60405180910390f35b6102bf60048036038101906102ba9190610e8f565b610c89565b6040516102cc9190610edc565b60405180910390f35b6102ef60048036038101906102ea9190610e8f565b610dd1565b6040516102fc9190610edc565b60405180910390f35b61030d610e19565b60405161031a9190610edc565b60405180910390f35b5f6207a120905092915050565b5f5f5a90505f8490505f8490505f5f5f9054906101000a900473ffffffffffffffffffffffffffffffffffffffff1673ffffffffffffffffffffffffffffffffffffffff1663055d8d5484846040518363ffffffff1660e01b815260040161039992919061132e565b602060405180830381865afa1580156103b4573d5f5f3e3d5ffd5b505050506040513d601f19601f820116820180604052508101906103d8919061137f565b90508094505f5a856103ea91906113d7565b90506040518060c001604052808981526020018881526020018781526020018281526020014281526020016001151581525060025f8b81526020019081526020015f205f820151815f01556020820151816001015560408201518160020155606082015181600301556080820151816004015560a0820151816005015f6101000a81548160ff02191690831515021790555090505060035f8154809291906104919061140a565b9190505550887f7443b8290ad765a2a8f8deada00ae818ca77d9c62dcbd4dd196c143a6bc85ee8898989856040516104cc9493929190611451565b60405180910390a250505050509392505050565b6002602052805f5260405f205f91509050805f015490806001015490806002015490806003015490806004015490806005015f9054906101000a900460ff16905086565b60035481565b6001602052805f5260405f205f915090505481565b5f5f5a90505f8490505f8490505f5f5f9054906101000a900473ffffffffffffffffffffffffffffffffffffffff1673ffffffffffffffffffffffffffffffffffffffff1663055d8d5484846040518363ffffffff1660e01b81526004016105a892919061132e565b602060405180830381865afa1580156105c3573d5f5f3e3d5ffd5b505050506040513d601f19601f820116820180604052508101906105e7919061137f565b90508094505f5a856105f991906113d7565b90505f888860405160200161060f9291906114b4565b6040516020818303038152906040528051906020012090508660015f8381526020019081526020015f2081905550807f83b41dcd513dd0cd01fb2a550356729fb19ee7df4e5f683c0699d742ec2b90318a8a8a866040516106739493929190611451565b60405180910390a250505050505092915050565b61068f610e22565b60025f8381526020019081526020015f206040518060c00160405290815f820154815260200160018201548152602001600282015481526020016003820154815260200160048201548152602001600582015f9054906101000a900460ff1615151515815250509050919050565b60605f5a90508383905067ffffffffffffffff8111156107205761071f6114df565b5b60405190808252806020026020018201604052801561074e5781602001602082028036833780820191505090505b5091505f5f90505b848490508110156108fc575f8585838181106107755761077461150c565b5b9050604002015f6002811061078d5761078c61150c565b5b602002013590505f8686848181106107a8576107a761150c565b5b9050604002016001600281106107c1576107c061150c565b5b602002013590505f8290505f8290505f5f5f9054906101000a900473ffffffffffffffffffffffffffffffffffffffff1673ffffffffffffffffffffffffffffffffffffffff1663055d8d5484846040518363ffffffff1660e01b815260040161082c92919061132e565b602060405180830381865afa158015610847573d5f5f3e3d5ffd5b505050506040513d601f19601f8201168201806040525081019061086b919061137f565b9050808887815181106108815761088061150c565b5b6020026020010181815250505f85856040516020016108a19291906114b4565b6040516020818303038152906040528051906020012090508887815181106108cc576108cb61150c565b5b602002602001015160015f8381526020019081526020015f20819055505050505050508080600101915050610756565b505f5a8261090a91906113d7565b90507f1182a5437adbca9aa6172187b1b8e5f20f62560dfbc37ea3ce1bc46dadf175815f67ffffffffffffffff811115610947576109466114df565b5b6040519080825280602002602001820160405280156109755781602001602082028036833780820191505090505b5082604051610985929190611539565b60405180910390a1505092915050565b5f600381905550565b5f5f9054906101000a900473ffffffffffffffffffffffffffffffffffffffff1681565b60605f5a90505f604051806080016040528060405180604001604052805f81526020015f815250815260200160405180604001604052805f8152602001600181525081526020016040518060400160405280600181526020015f815250815260200160405180604001604052806001815260200160018152508152509050600467ffffffffffffffff811115610a5b57610a5a6114df565b5b604051908082528060200260200182016040528015610a895781602001602082028036833780820191505090505b5092505f5f90505b6004811015610c33575f828260048110610aae57610aad61150c565b5b60200201515f60028110610ac557610ac461150c565b5b602002015190505f838360048110610ae057610adf61150c565b5b6020020151600160028110610af857610af761150c565b5b602002015190505f8290505f8290505f5f5f9054906101000a900473ffffffffffffffffffffffffffffffffffffffff1673ffffffffffffffffffffffffffffffffffffffff1663055d8d5484846040518363ffffffff1660e01b8152600401610b6392919061132e565b602060405180830381865afa158015610b7e573d5f5f3e3d5ffd5b505050506040513d601f19601f82011682018060405250810190610ba2919061137f565b905080898781518110610bb857610bb761150c565b5b6020026020010181815250505f8585604051602001610bd89291906114b4565b604051602081830303815290604052805190602001209050898781518110610c0357610c0261150c565b5b602002602001015160015f8381526020019081526020015f20819055505050505050508080600101915050610a91565b505f5a83610c4191906113d7565b90505f5f1b7f83b41dcd513dd0cd01fb2a550356729fb19ee7df4e5f683c0699d742ec2b90315f5f5f85604051610c7b94939291906115a0565b60405180910390a250505090565b5f5f5a90505f8490505f8490505f5f5f9054906101000a900473ffffffffffffffffffffffffffffffffffffffff1673ffffffffffffffffffffffffffffffffffffffff1663055d8d5484846040518363ffffffff1660e01b8152600401610cf292919061132e565b602060405180830381865afa158015610d0d573d5f5f3e3d5ffd5b505050506040513d601f19601f82011682018060405250810190610d31919061137f565b90508094505f5a85610d4391906113d7565b90505f8888604051602001610d599291906114b4565b6040516020818303038152906040528051906020012090508660015f8381526020019081526020015f2081905550807f83b41dcd513dd0cd01fb2a550356729fb19ee7df4e5f683c0699d742ec2b90318a8a8a86604051610dbd9493929190611451565b60405180910390a250505050505092915050565b5f5f8383604051602001610de69291906114b4565b60405160208183030381529060405280519060200120905060015f8281526020019081526020015f205491505092915050565b5f600354905090565b6040518060c001604052805f81526020015f81526020015f81526020015f81526020015f81526020015f151581525090565b5f5ffd5b5f5ffd5b5f819050919050565b610e6e81610e5c565b8114610e78575f5ffd5b50565b5f81359050610e8981610e65565b92915050565b5f5f60408385031215610ea557610ea4610e54565b5b5f610eb285828601610e7b565b9250506020610ec385828601610e7b565b9150509250929050565b610ed681610e5c565b82525050565b5f602082019050610eef5f830184610ecd565b92915050565b5f5f5f60608486031215610f0c57610f0b610e54565b5b5f610f1986828701610e7b565b9350506020610f2a86828701610e7b565b9250506040610f3b86828701610e7b565b9150509250925092565b5f60208284031215610f5a57610f59610e54565b5b5f610f6784828501610e7b565b91505092915050565b5f8115159050919050565b610f8481610f70565b82525050565b5f60c082019050610f9d5f830189610ecd565b610faa6020830188610ecd565b610fb76040830187610ecd565b610fc46060830186610ecd565b610fd16080830185610ecd565b610fde60a0830184610f7b565b979650505050505050565b5f819050919050565b610ffb81610fe9565b8114611005575f5ffd5b50565b5f8135905061101681610ff2565b92915050565b5f6020828403121561103157611030610e54565b5b5f61103e84828501611008565b91505092915050565b61105081610e5c565b82525050565b61105f81610f70565b82525050565b60c082015f8201516110795f850182611047565b50602082015161108c6020850182611047565b50604082015161109f6040850182611047565b5060608201516110b26060850182611047565b5060808201516110c56080850182611047565b5060a08201516110d860a0850182611056565b50505050565b5f60c0820190506110f15f830184611065565b92915050565b5f5ffd5b5f5ffd5b5f5ffd5b5f5f83601f840112611118576111176110f7565b5b8235905067ffffffffffffffff811115611135576111346110fb565b5b602083019150836040820283011115611151576111506110ff565b5b9250929050565b5f5f6020838503121561116e5761116d610e54565b5b5f83013567ffffffffffffffff81111561118b5761118a610e58565b5b61119785828601611103565b92509250509250929050565b5f81519050919050565b5f82825260208201905092915050565b5f819050602082019050919050565b5f6111d78383611047565b60208301905092915050565b5f602082019050919050565b5f6111f9826111a3565b61120381856111ad565b935061120e836111bd565b805f5b8381101561123e57815161122588826111cc565b9750611230836111e3565b925050600181019050611211565b5085935050505092915050565b5f6020820190508181035f83015261126381846111ef565b905092915050565b5f73ffffffffffffffffffffffffffffffffffffffff82169050919050565b5f819050919050565b5f6112ad6112a86112a38461126b565b61128a565b61126b565b9050919050565b5f6112be82611293565b9050919050565b5f6112cf826112b4565b9050919050565b6112df816112c5565b82525050565b5f6020820190506112f85f8301846112d6565b92915050565b5f61131861131361130e84610e5c565b61128a565b610e5c565b9050919050565b611328816112fe565b82525050565b5f6040820190506113415f83018561131f565b61134e602083018461131f565b9392505050565b61135e81610e5c565b8114611368575f5ffd5b50565b5f8151905061137981611355565b92915050565b5f6020828403121561139457611393610e54565b5b5f6113a18482850161136b565b91505092915050565b7f4e487b71000000000000000000000000000000000000000000000000000000005f52601160045260245ffd5b5f6113e182610e5c565b91506113ec83610e5c565b9250828203905081811115611404576114036113aa565b5b92915050565b5f61141482610e5c565b91507fffffffffffffffffffffffffffffffffffffffffffffffffffffffffffffffff8203611446576114456113aa565b5b600182019050919050565b5f6080820190506114645f830187610ecd565b6114716020830186610ecd565b61147e6040830185610ecd565b61148b6060830184610ecd565b95945050505050565b5f819050919050565b6114ae6114a982610e5c565b611494565b82525050565b5f6114bf828561149d565b6020820191506114cf828461149d565b6020820191508190509392505050565b7f4e487b71000000000000000000000000000000000000000000000000000000005f52604160045260245ffd5b7f4e487b71000000000000000000000000000000000000000000000000000000005f52603260045260245ffd5b5f6040820190508181035f83015261155181856111ef565b90506115606020830184610ecd565b9392505050565b5f819050919050565b5f61158a61158561158084611567565b61128a565b610e5c565b9050919050565b61159a81611570565b82525050565b5f6080820190506115b35f830187611591565b6115c06020830186611591565b6115cd6040830185611591565b6115da6060830184610ecd565b9594505050505056fea26469706673582212201a5e8749ddd83191b693cdc478d61e8533b01a4c3c4951977b27f38783c3d64d64736f6c634300081e0033","linkReferences":{}},"methodIdentifiers":{"batchTestHash2(uint256[2][])":"bbaa6d2a","clearResults()":"c1e35e04","estimateHash2Gas(uint256,uint256)":"4fbb173c","getHashResult(uint256,uint256)":"ebed1621","getTestCaseCount()":"f92c3c76","getTestCaseResult(uint256)":"acc42f98","hashResults(bytes32)":"7e948383","poseidon2()":"ca5ee4b2","testCaseCount()":"783f6227","testCases(uint256)":"609e67b0","testEdgeCases()":"e23e74c2","testHash2(uint256,uint256)":"e462e544","testHash2Field(uint256,uint256)":"89cd3dca","testHash2WithId(uint256,uint256,uint256)":"59d04b92"},"id":3}