{"abi":[{"type":"constructor","inputs":[{"name":"_poseidon4Address","type":"address","internalType":"address"}],"stateMutability":"nonpayable"},{"type":"function","name":"batchTestHash","inputs":[{"name":"inputs","type":"uint256[4][]","internalType":"uint256[4][]"}],"outputs":[{"name":"results","type":"uint256[]","internalType":"uint256[]"}],"stateMutability":"nonpayable"},{"type":"function","name":"clearResults","inputs":[],"outputs":[],"stateMutability":"nonpayable"},{"type":"function","name":"getHashResult","inputs":[{"name":"x","type":"uint256","internalType":"uint256"},{"name":"y","type":"uint256","internalType":"uint256"},{"name":"z","type":"uint256","internalType":"uint256"},{"name":"w","type":"uint256","internalType":"uint256"}],"outputs":[{"name":"result","type":"uint256","internalType":"uint256"}],"stateMutability":"view"},{"type":"function","name":"getTestCaseCount","inputs":[],"outputs":[{"name":"count","type":"uint256","internalType":"uint256"}],"stateMutability":"view"},{"type":"function","name":"getTestCaseResult","inputs":[{"name":"testCaseId","type":"uint256","internalType":"uint256"}],"outputs":[{"name":"inputHash","type":"bytes32","internalType":"bytes32"},{"name":"result","type":"uint256","internalType":"uint256"}],"stateMutability":"view"},{"type":"function","name":"hashResults","inputs":[{"name":"","type":"bytes32","internalType":"bytes32"}],"outputs":[{"name":"","type":"uint256","internalType":"uint256"}],"stateMutability":"view"},{"type":"function","name":"poseidon4","inputs":[],"outputs":[{"name":"","type":"address","internalType":"contract Poseidon4"}],"stateMutability":"view"},{"type":"function","name":"testCaseCounter","inputs":[],"outputs":[{"name":"","type":"uint256","internalType":"uint256"}],"stateMutability":"view"},{"type":"function","name":"testCaseResults","inputs":[{"name":"","type":"uint256","internalType":"uint256"}],"outputs":[{"name":"","type":"bytes32","internalType":"bytes32"}],"stateMutability":"view"},{"type":"function","name":"testEdgeCases","inputs":[],"outputs":[{"name":"results","type":"uint256[]","internalType":"uint256[]"}],"stateMutability":"view"},{"type":"function","name":"testHash","inputs":[{"name":"x","type":"uint256","internalType":"uint256"},{"name":"y","type":"uint256","internalType":"uint256"},{"name":"z","type":"uint256","internalType":"uint256"},{"name":"w","type":"uint256","internalType":"uint256"}],"outputs":[{"name":"result","type":"uint256","internalType":"uint256"}],"stateMutability":"nonpayable"},{"type":"function","name":"testHashWithId","inputs":[{"name":"testCaseId","type":"uint256","internalType":"uint256"},{"name":"x","type":"uint256","internalType":"uint256"},{"name":"y","type":"uint256","internalType":"uint256"},{"name":"z","type":"uint256","internalType":"uint256"},{"name":"w","type":"uint256","internalType":"uint256"}],"outputs":[{"name":"result","type":"uint256","internalType":"uint256"}],"stateMutability":"nonpayable"},{"type":"function","name":"testPermutation","inputs":[{"name":"inputs","type":"uint256[5]","internalType":"uint256[5]"}],"outputs":[{"name":"result","type":"uint256","internalType":"uint256"}],"stateMutability":"nonpayable"},{"type":"event","name":"BatchTestCompleted","inputs":[{"name":"totalTests","type":"uint256","indexed":false,"internalType":"uint256"},{"name":"totalGasUsed","type":"uint256","indexed":false,"internalType":"uint256"}],"anonymous":false},{"type":"event","name":"HashComputed","inputs":[{"name":"inputHash","type":"bytes32","indexed":true,"internalType":"bytes32"},{"name":"result","type":"uint256","indexed":false,"internalType":"uint256"},{"name":"gasUsed","type":"uint256","indexed":false,"internalType":"uint256"}],"anonymous":false},{"type":"event","name":"TestCaseExecuted","inputs":[{"name":"testCaseId","type":"uint256","indexed":true,"internalType":"uint256"},{"name":"inputHash","type":"bytes32","indexed":false,"internalType":"bytes32"},{"name":"result","type":"uint256","indexed":false,"internalType":"uint256"},{"name":"gasUsed","type":"uint256","indexed":false,"internalType":"uint256"}],"anonymous":false}],"bytecode":{"object":"0x608060405234801561000f575f5ffd5b50604051611b15380380611b15833981810160405281019061003191906100db565b805f5f6101000a81548173ffffffffffffffffffffffffffffffffffffffff021916908373ffffffffffffffffffffffffffffffffffffffff1602179055505f60038190555050610106565b5f5ffd5b5f73ffffffffffffffffffffffffffffffffffffffff82169050919050565b5f6100aa82610081565b9050919050565b6100ba816100a0565b81146100c4575f5ffd5b50565b5f815190506100d5816100b1565b92915050565b5f602082840312156100f0576100ef61007d565b5b5f6100fd848285016100c7565b91505092915050565b611a02806101135f395ff3fe608060405234801561000f575f5ffd5b50600436106100cd575f3560e01c8063a81a26881161008a578063c2b9a70611610064578063c2b9a70614610238578063cd03fc3214610268578063e23e74c214610298578063f92c3c76146102b6576100cd565b8063a81a2688146101df578063acc42f98146101fd578063c1e35e041461022e576100cd565b806331009cd3146100d1578063362473a9146100ef5780635102d8d61461011f5780637a01732b1461014f5780637e9483831461017f578063a52664c3146101af575b5f5ffd5b6100d96102d4565b6040516100e69190610fb1565b60405180910390f35b61010960048036038101906101049190610ffc565b6102da565b604051610116919061103f565b60405180910390f35b610139600480360381019061013491906110b9565b6102ef565b60405161014691906111bb565b60405180910390f35b610169600480360381019061016491906111fc565b610663565b6040516101769190610fb1565b60405180910390f35b61019960048036038101906101949190611251565b6107f8565b6040516101a69190610fb1565b60405180910390f35b6101c960048036038101906101c4919061127c565b61080d565b6040516101d69190610fb1565b60405180910390f35b6101e7610965565b6040516101f4919061136d565b60405180910390f35b61021760048036038101906102129190610ffc565b610989565b604051610225929190611386565b60405180910390f35b6102366109b8565b005b610252600480360381019061024d91906113ad565b6109c1565b60405161025f9190610fb1565b60405180910390f35b610282600480360381019061027d91906113ad565b610a0f565b60405161028f9190610fb1565b60405180910390f35b6102a0610b4e565b6040516102ad91906111bb565b60405180910390f35b6102be610f90565b6040516102cb9190610fb1565b60405180910390f35b60035481565b6002602052805f5260405f205f915090505481565b60605f5f90508383905067ffffffffffffffff81111561031257610311611411565b5b6040519080825280602002602001820160405280156103405781602001602082028036833780820191505090505b5091505f5f90505b8484905081101561061f575f5a90505f5f9054906101000a900473ffffffffffffffffffffffffffffffffffffffff1673ffffffffffffffffffffffffffffffffffffffff16639bf03e348787858181106103a6576103a561143e565b5b9050608002015f600481106103be576103bd61143e565b5b60200201358888868181106103d6576103d561143e565b5b9050608002016001600481106103ef576103ee61143e565b5b60200201358989878181106104075761040661143e565b5b9050608002016002600481106104205761041f61143e565b5b60200201358a8a888181106104385761043761143e565b5b9050608002016003600481106104515761045061143e565b5b60200201356040518563ffffffff1660e01b8152600401610475949392919061146b565b602060405180830381865afa158015610490573d5f5f3e3d5ffd5b505050506040513d601f19601f820116820180604052508101906104b491906114c2565b8483815181106104c7576104c661143e565b5b6020026020010181815250505f5a826104e0919061151a565b905080846104ee919061154d565b93505f8787858181106105045761050361143e565b5b9050608002015f6004811061051c5761051b61143e565b5b60200201358888868181106105345761053361143e565b5b90506080020160016004811061054d5761054c61143e565b5b60200201358989878181106105655761056461143e565b5b90506080020160026004811061057e5761057d61143e565b5b60200201358a8a888181106105965761059561143e565b5b9050608002016003600481106105af576105ae61143e565b5b60200201356040516020016105c794939291906115a0565b6040516020818303038152906040528051906020012090508584815181106105f2576105f161143e565b5b602002602001015160015f8381526020019081526020015f20819055505050508080600101915050610348565b507ffebc97ce4125cff4586ee48e0245468975167ae23b8f024e041df9f4c8c4dd5684849050826040516106549291906115ed565b60405180910390a15092915050565b5f5f5a90505f5f9054906101000a900473ffffffffffffffffffffffffffffffffffffffff1673ffffffffffffffffffffffffffffffffffffffff16639bf03e34845f600581106106b7576106b661143e565b5b6020020135856001600581106106d0576106cf61143e565b5b6020020135866002600581106106e9576106e861143e565b5b6020020135876003600581106107025761070161143e565b5b60200201356040518563ffffffff1660e01b8152600401610726949392919061146b565b602060405180830381865afa158015610741573d5f5f3e3d5ffd5b505050506040513d601f19601f8201168201806040525081019061076591906114c2565b91505f5a82610774919061151a565b90505f84604051602001610788919061162d565b6040516020818303038152906040528051906020012090508360015f8381526020019081526020015f2081905550807f9741c50b5e5339a65b56bb8194612ce7124fcea5fb11e96bd0e22cb35c16ea4185846040516107e89291906115ed565b60405180910390a2505050919050565b6001602052805f5260405f205f915090505481565b5f5f5a90505f5f9054906101000a900473ffffffffffffffffffffffffffffffffffffffff1673ffffffffffffffffffffffffffffffffffffffff16639bf03e34878787876040518563ffffffff1660e01b8152600401610871949392919061146b565b602060405180830381865afa15801561088c573d5f5f3e3d5ffd5b505050506040513d601f19601f820116820180604052508101906108b091906114c2565b91505f5a826108bf919061151a565b90505f878787876040516020016108d994939291906115a0565b6040516020818303038152906040528051906020012090508060025f8b81526020019081526020015f20819055508360015f8381526020019081526020015f2081905550887f15b3951a50207fdc7c349a3f60a55f9964876e9246768eac57d0a7fac7e7054b82868560405161095193929190611647565b60405180910390a250505095945050505050565b5f5f9054906101000a900473ffffffffffffffffffffffffffffffffffffffff1681565b5f5f60025f8481526020019081526020015f2054915060015f8381526020019081526020015f20549050915091565b5f600381905550565b5f5f858585856040516020016109da94939291906115a0565b60405160208183030381529060405280519060200120905060015f8281526020019081526020015f2054915050949350505050565b5f5f5a90505f5f9054906101000a900473ffffffffffffffffffffffffffffffffffffffff1673ffffffffffffffffffffffffffffffffffffffff16639bf03e34878787876040518563ffffffff1660e01b8152600401610a73949392919061146b565b602060405180830381865afa158015610a8e573d5f5f3e3d5ffd5b505050506040513d601f19601f82011682018060405250810190610ab291906114c2565b91505f5a82610ac1919061151a565b90505f87878787604051602001610adb94939291906115a0565b6040516020818303038152906040528051906020012090508360015f8381526020019081526020015f2081905550807f9741c50b5e5339a65b56bb8194612ce7124fcea5fb11e96bd0e22cb35c16ea418584604051610b3b9291906115ed565b60405180910390a2505050949350505050565b6060600567ffffffffffffffff811115610b6b57610b6a611411565b5b604051908082528060200260200182016040528015610b995781602001602082028036833780820191505090505b5090505f5f9054906101000a900473ffffffffffffffffffffffffffffffffffffffff1673ffffffffffffffffffffffffffffffffffffffff16639bf03e345f5f5f5f6040518563ffffffff1660e01b8152600401610bfb94939291906116b5565b602060405180830381865afa158015610c16573d5f5f3e3d5ffd5b505050506040513d601f19601f82011682018060405250810190610c3a91906114c2565b815f81518110610c4d57610c4c61143e565b5b6020026020010181815250505f5f9054906101000a900473ffffffffffffffffffffffffffffffffffffffff1673ffffffffffffffffffffffffffffffffffffffff16639bf03e3460015f5f5f6040518563ffffffff1660e01b8152600401610cb99493929190611731565b602060405180830381865afa158015610cd4573d5f5f3e3d5ffd5b505050506040513d601f19601f82011682018060405250810190610cf891906114c2565b81600181518110610d0c57610d0b61143e565b5b6020026020010181815250505f7f73eda753299d7d483339d80809a1d80553bda402fffe5bfeffffffff0000000090505f5f9054906101000a900473ffffffffffffffffffffffffffffffffffffffff1673ffffffffffffffffffffffffffffffffffffffff16639bf03e34826001600260036040518563ffffffff1660e01b8152600401610d9e94939291906117e6565b602060405180830381865afa158015610db9573d5f5f3e3d5ffd5b505050506040513d601f19601f82011682018060405250810190610ddd91906114c2565b82600281518110610df157610df061143e565b5b6020026020010181815250505f5f9054906101000a900473ffffffffffffffffffffffffffffffffffffffff1673ffffffffffffffffffffffffffffffffffffffff16639bf03e3467ffffffffffffffff63ffffffff61ffff60ff6040518563ffffffff1660e01b8152600401610e6b949392919061190d565b602060405180830381865afa158015610e86573d5f5f3e3d5ffd5b505050506040513d601f19601f82011682018060405250810190610eaa91906114c2565b82600381518110610ebe57610ebd61143e565b5b6020026020010181815250505f5f9054906101000a900473ffffffffffffffffffffffffffffffffffffffff1673ffffffffffffffffffffffffffffffffffffffff16639bf03e3460016002600360046040518563ffffffff1660e01b8152600401610f2d9493929190611989565b602060405180830381865afa158015610f48573d5f5f3e3d5ffd5b505050506040513d601f19601f82011682018060405250810190610f6c91906114c2565b82600481518110610f8057610f7f61143e565b5b6020026020010181815250505090565b5f600354905090565b5f819050919050565b610fab81610f99565b82525050565b5f602082019050610fc45f830184610fa2565b92915050565b5f5ffd5b5f5ffd5b610fdb81610f99565b8114610fe5575f5ffd5b50565b5f81359050610ff681610fd2565b92915050565b5f6020828403121561101157611010610fca565b5b5f61101e84828501610fe8565b91505092915050565b5f819050919050565b61103981611027565b82525050565b5f6020820190506110525f830184611030565b92915050565b5f5ffd5b5f5ffd5b5f5ffd5b5f5f83601f84011261107957611078611058565b5b8235905067ffffffffffffffff8111156110965761109561105c565b5b6020830191508360808202830111156110b2576110b1611060565b5b9250929050565b5f5f602083850312156110cf576110ce610fca565b5b5f83013567ffffffffffffffff8111156110ec576110eb610fce565b5b6110f885828601611064565b92509250509250929050565b5f81519050919050565b5f82825260208201905092915050565b5f819050602082019050919050565b61113681610f99565b82525050565b5f611147838361112d565b60208301905092915050565b5f602082019050919050565b5f61116982611104565b611173818561110e565b935061117e8361111e565b805f5b838110156111ae578151611195888261113c565b97506111a083611153565b925050600181019050611181565b5085935050505092915050565b5f6020820190508181035f8301526111d3818461115f565b905092915050565b5f819050826020600502820111156111f6576111f5611060565b5b92915050565b5f60a0828403121561121157611210610fca565b5b5f61121e848285016111db565b91505092915050565b61123081611027565b811461123a575f5ffd5b50565b5f8135905061124b81611227565b92915050565b5f6020828403121561126657611265610fca565b5b5f6112738482850161123d565b91505092915050565b5f5f5f5f5f60a0868803121561129557611294610fca565b5b5f6112a288828901610fe8565b95505060206112b388828901610fe8565b94505060406112c488828901610fe8565b93505060606112d588828901610fe8565b92505060806112e688828901610fe8565b9150509295509295909350565b5f73ffffffffffffffffffffffffffffffffffffffff82169050919050565b5f819050919050565b5f61133561133061132b846112f3565b611312565b6112f3565b9050919050565b5f6113468261131b565b9050919050565b5f6113578261133c565b9050919050565b6113678161134d565b82525050565b5f6020820190506113805f83018461135e565b92915050565b5f6040820190506113995f830185611030565b6113a66020830184610fa2565b9392505050565b5f5f5f5f608085870312156113c5576113c4610fca565b5b5f6113d287828801610fe8565b94505060206113e387828801610fe8565b93505060406113f487828801610fe8565b925050606061140587828801610fe8565b91505092959194509250565b7f4e487b71000000000000000000000000000000000000000000000000000000005f52604160045260245ffd5b7f4e487b71000000000000000000000000000000000000000000000000000000005f52603260045260245ffd5b5f60808201905061147e5f830187610fa2565b61148b6020830186610fa2565b6114986040830185610fa2565b6114a56060830184610fa2565b95945050505050565b5f815190506114bc81610fd2565b92915050565b5f602082840312156114d7576114d6610fca565b5b5f6114e4848285016114ae565b91505092915050565b7f4e487b71000000000000000000000000000000000000000000000000000000005f52601160045260245ffd5b5f61152482610f99565b915061152f83610f99565b9250828203905081811115611547576115466114ed565b5b92915050565b5f61155782610f99565b915061156283610f99565b925082820190508082111561157a576115796114ed565b5b92915050565b5f819050919050565b61159a61159582610f99565b611580565b82525050565b5f6115ab8287611589565b6020820191506115bb8286611589565b6020820191506115cb8285611589565b6020820191506115db8284611589565b60208201915081905095945050505050565b5f6040820190506116005f830185610fa2565b61160d6020830184610fa2565b9392505050565b82818337505050565b61162960a08383611614565b5050565b5f611638828461161d565b60a08201915081905092915050565b5f60608201905061165a5f830186611030565b6116676020830185610fa2565b6116746040830184610fa2565b949350505050565b5f819050919050565b5f61169f61169a6116958461167c565b611312565b610f99565b9050919050565b6116af81611685565b82525050565b5f6080820190506116c85f8301876116a6565b6116d560208301866116a6565b6116e260408301856116a6565b6116ef60608301846116a6565b95945050505050565b5f819050919050565b5f61171b611716611711846116f8565b611312565b610f99565b9050919050565b61172b81611701565b82525050565b5f6080820190506117445f830187611722565b61175160208301866116a6565b61175e60408301856116a6565b61176b60608301846116a6565b95945050505050565b5f819050919050565b5f61179761179261178d84611774565b611312565b610f99565b9050919050565b6117a78161177d565b82525050565b5f819050919050565b5f6117d06117cb6117c6846117ad565b611312565b610f99565b9050919050565b6117e0816117b6565b82525050565b5f6080820190506117f95f830187610fa2565b6118066020830186611722565b611813604083018561179e565b61182060608301846117d7565b95945050505050565b5f819050919050565b5f61184c61184761184284611829565b611312565b610f99565b9050919050565b61185c81611832565b82525050565b5f819050919050565b5f61188561188061187b84611862565b611312565b610f99565b9050919050565b6118958161186b565b82525050565b5f819050919050565b5f6118be6118b96118b48461189b565b611312565b610f99565b9050919050565b6118ce816118a4565b82525050565b5f819050919050565b5f6118f76118f26118ed846118d4565b611312565b610f99565b9050919050565b611907816118dd565b82525050565b5f6080820190506119205f830187611853565b61192d602083018661188c565b61193a60408301856118c5565b61194760608301846118fe565b95945050505050565b5f819050919050565b5f61197361196e61196984611950565b611312565b610f99565b9050919050565b61198381611959565b82525050565b5f60808201905061199c5f830187611722565b6119a9602083018661179e565b6119b660408301856117d7565b6119c3606083018461197a565b9594505050505056fea2646970667358221220759ad304eac4d0fe807ce43c182dba853e378c621b65b1543dfc5f8f4d65fd7864736f6c634300081e0033","linkReferences":{}},"methodIdentifiers":{"batchTestHash(uint256[4][])":"5102d8d6","clearResults()":"c1e35e04","getHashResult(uint256,uint256,uint256,uint256)":"c2b9a706","getTestCaseCount()":"f92c3c76","getTestCaseResult(uint256)":"acc42f98","hashResults(bytes32)":"7e948383","poseidon4()":"a81a2688","testCaseCounter()":"31009cd3","testCaseResults(uint256)":"362473a9","testEdgeCases()":"e23e74c2","testHash(uint256,uint256,uint256,uint256)":"cd03fc32","testHashWithId(uint256,uint256,uint256,uint256,uint256)":"a52664c3","testPermutation(uint256[5])":"7a01732b"},"id":6}