{"abi":[{"type":"constructor","inputs":[{"name":"_poseidon4Address","type":"address","internalType":"address"}],"stateMutability":"nonpayable"},{"type":"function","name":"batchTestHash","inputs":[{"name":"inputs","type":"uint256[4][]","internalType":"uint256[4][]"}],"outputs":[{"name":"results","type":"uint256[]","internalType":"uint256[]"}],"stateMutability":"nonpayable"},{"type":"function","name":"clearResults","inputs":[],"outputs":[],"stateMutability":"nonpayable"},{"type":"function","name":"getHashResult","inputs":[{"name":"x","type":"uint256","internalType":"uint256"},{"name":"y","type":"uint256","internalType":"uint256"},{"name":"z","type":"uint256","internalType":"uint256"},{"name":"w","type":"uint256","internalType":"uint256"}],"outputs":[{"name":"result","type":"uint256","internalType":"uint256"}],"stateMutability":"view"},{"type":"function","name":"getTestCaseCount","inputs":[],"outputs":[{"name":"count","type":"uint256","internalType":"uint256"}],"stateMutability":"view"},{"type":"function","name":"getTestCaseResult","inputs":[{"name":"testCaseId","type":"uint256","internalType":"uint256"}],"outputs":[{"name":"inputHash","type":"bytes32","internalType":"bytes32"},{"name":"result","type":"uint256","internalType":"uint256"}],"stateMutability":"view"},{"type":"function","name":"hashResults","inputs":[{"name":"","type":"bytes32","internalType":"bytes32"}],"outputs":[{"name":"","type":"uint256","internalType":"uint256"}],"stateMutability":"view"},{"type":"function","name":"poseidon4","inputs":[],"outputs":[{"name":"","type":"address","internalType":"contract Poseidon4"}],"stateMutability":"view"},{"type":"function","name":"testCaseCounter","inputs":[],"outputs":[{"name":"","type":"uint256","internalType":"uint256"}],"stateMutability":"view"},{"type":"function","name":"testCaseResults","inputs":[{"name":"","type":"uint256","internalType":"uint256"}],"outputs":[{"name":"","type":"bytes32","internalType":"bytes32"}],"stateMutability":"view"},{"type":"function","name":"testEdgeCases","inputs":[],"outputs":[{"name":"results","type":"uint256[]","internalType":"uint256[]"}],"stateMutability":"view"},{"type":"function","name":"testHash","inputs":[{"name":"x","type":"uint256","internalType":"uint256"},{"name":"y","type":"uint256","internalType":"uint256"},{"name":"z","type":"uint256","internalType":"uint256"},{"name":"w","type":"uint256","internalType":"uint256"}],"outputs":[{"name":"result","type":"uint256","internalType":"uint256"}],"stateMutability":"nonpayable"},{"type":"function","name":"testHashWithId","inputs":[{"name":"testCaseId","type":"uint256","internalType":"uint256"},{"name":"x","type":"uint256","internalType":"uint256"},{"name":"y","type":"uint256","internalType":"uint256"},{"name":"z","type":"uint256","internalType":"uint256"},{"name":"w","type":"uint256","internalType":"uint256"}],"outputs":[{"name":"result","type":"uint256","internalType":"uint256"}],"stateMutability":"nonpayable"},{"type":"function","name":"testPermutation","inputs":[{"name":"inputs","type":"uint256[5]","internalType":"uint256[5]"}],"outputs":[{"name":"result","type":"uint256","internalType":"uint256"}],"stateMutability":"nonpayable"},{"type":"event","name":"BatchTestCompleted","inputs":[{"name":"totalTests","type":"uint256","indexed":false,"internalType":"uint256"},{"name":"totalGasUsed","type":"uint256","indexed":false,"internalType":"uint256"}],"anonymous":false},{"type":"event","name":"HashComputed","inputs":[{"name":"inputHash","type":"bytes32","indexed":true,"internalType":"bytes32"},{"name":"result","type":"uint256","indexed":false,"internalType":"uint256"},{"name":"gasUsed","type":"uint256","indexed":false,"internalType":"uint256"}],"anonymous":false},{"type":"event","name":"TestCaseExecuted","inputs":[{"name":"testCaseId","type":"uint256","indexed":true,"internalType":"uint256"},{"name":"inputHash","type":"bytes32","indexed":false,"internalType":"bytes32"},{"name":"result","type":"uint256","indexed":false,"internalType":"uint256"},{"name":"gasUsed","type":"uint256","indexed":false,"internalType":"uint256"}],"anonymous":false}],"bytecode":{"object":"0x608034607257601f610fcc38819003918201601f19168301916001600160401b03831184841017607657808492602094604052833981010312607257516001600160a01b038116908190036072575f80546001600160a01b031916919091178155600355604051610f41908161008b8239f35b5f80fd5b634e487b7160e01b5f52604160045260245ffdfe6080806040526004361015610012575f80fd5b5f3560e01c90816331009cd314610da757508063362473a914610d5f5780635102d8d614610a8c5780637a01732b1461094c5780637e94838314610904578063a52664c31461076f578063a81a26881461071f578063acc42f98146106c8578063c1e35e0414610694578063c2b9a7061461063b578063cd03fc32146104c4578063e23e74c2146100ea5763f92c3c76146100ab575f80fd5b346100e6575f7ffffffffffffffffffffffffffffffffffffffffffffffffffffffffffffffffc3601126100e6576020600354604051908152f35b5f80fd5b346100e6575f7ffffffffffffffffffffffffffffffffffffffffffffffffffffffffffffffffc3601126100e65760405161012660c082610e54565b60058152602081019060a036833773ffffffffffffffffffffffffffffffffffffffff5f541691604051907f9bf03e340000000000000000000000000000000000000000000000000000000082525f60048301525f60248301525f60448301525f6064830152602082608481875afa9182156103ef575f92610490575b5082511561038e57526040517f9bf03e34000000000000000000000000000000000000000000000000000000008152600160048201525f60248201525f60448201525f6064820152602081608481865afa9081156103ef575f9161045e575b5081516001101561038e5760408201526040517f9bf03e340000000000000000000000000000000000000000000000000000000081527f73eda753299d7d483339d80809a1d80553bda402fffe5bfeffffffff000000006004820152600160248201526002604482015260036064820152602081608481865afa9081156103ef575f9161042c575b5081516002101561038e5760608201526040517f9bf03e3400000000000000000000000000000000000000000000000000000000815267ffffffffffffffff600482015263ffffffff602482015261ffff604482015260ff6064820152602081608481865afa9081156103ef575f916103fa575b5081516003101561038e576084926020916080840152604051938480927f9bf03e34000000000000000000000000000000000000000000000000000000008252600160048301526002602483015260036044830152600460648301525afa9182156103ef575f926103bb575b5080516004101561038e5761038a9160a082015260405191829182610ddf565b0390f35b7f4e487b71000000000000000000000000000000000000000000000000000000005f52603260045260245ffd5b9091506020813d6020116103e7575b816103d760209383610e54565b810103126100e65751908261036a565b3d91506103ca565b6040513d5f823e3d90fd5b90506020813d602011610424575b8161041560209383610e54565b810103126100e65751836102fe565b3d9150610408565b90506020813d602011610456575b8161044760209383610e54565b810103126100e657518361028a565b3d915061043a565b90506020813d602011610488575b8161047960209383610e54565b810103126100e6575183610202565b3d915061046c565b9091506020813d6020116104bc575b816104ac60209383610e54565b810103126100e6575190846101a3565b3d915061049f565b346100e6576104d236610e18565b90925a9273ffffffffffffffffffffffffffffffffffffffff5f541693602060405180967f9bf03e340000000000000000000000000000000000000000000000000000000082528180610542898c898b600486019094939260609260808301968352602083015260408201520152565b03915afa9485156103ef575f95610604575b50916020956105e16040936105b561058e7f9741c50b5e5339a65b56bb8194612ce7124fcea5fb11e96bd0e22cb35c16ea41975a90610efe565b9786519485938c850197889290916080949284526020840152604083015260608201520190565b037fffffffffffffffffffffffffffffffffffffffffffffffffffffffffffffffe08101835282610e54565b51902092835f526001865284825f205581519085825286820152a2604051908152f35b929094506020833d602011610633575b8161062160209383610e54565b810103126100e6579151936020610554565b3d9150610614565b346100e65761067b6105b561064f36610e18565b6040805160208101958652908101939093526060830191909152608082015290929091829060a0820190565b5190205f526001602052602060405f2054604051908152f35b346100e6575f7ffffffffffffffffffffffffffffffffffffffffffffffffffffffffffffffffc3601126100e6575f600355005b346100e65760207ffffffffffffffffffffffffffffffffffffffffffffffffffffffffffffffffc3601126100e6576004355f5260026020526040805f2054805f526001602052815f205482519182526020820152f35b346100e6575f7ffffffffffffffffffffffffffffffffffffffffffffffffffffffffffffffffc3601126100e657602073ffffffffffffffffffffffffffffffffffffffff5f5416604051908152f35b346100e65760a07ffffffffffffffffffffffffffffffffffffffffffffffffffffffffffffffffc3601126100e6576064356044356004356084356024355a9373ffffffffffffffffffffffffffffffffffffffff5f541694602060405180977f9bf03e34000000000000000000000000000000000000000000000000000000008252818061081b898d898b600486019094939260609260808301968352602083015260408201520152565b03915afa9586156103ef575f966108c7575b50916020966108907f15b3951a50207fdc7c349a3f60a55f9964876e9246768eac57d0a7fac7e7054b95936105b56108686060975a90610efe565b956040519485938d850197889290916080949284526020840152604083015260608201520190565b51902090845f52600287528160405f2055815f52600187528560405f205560405191825285878301526040820152a2604051908152f35b9391929095506020843d6020116108fc575b816108e660209383610e54565b810103126100e65792519490929190602061082d565b3d91506108d9565b346100e65760207ffffffffffffffffffffffffffffffffffffffffffffffffffffffffffffffffc3601126100e6576004355f526001602052602060405f2054604051908152f35b346100e65760a07ffffffffffffffffffffffffffffffffffffffffffffffffffffffffffffffffc3601126100e6573660a4116100e6575a73ffffffffffffffffffffffffffffffffffffffff5f541690602060405180937f9bf03e3400000000000000000000000000000000000000000000000000000000825281806109f8606435604435602435600435600486019094939260609260808301968352602083015260408201520152565b03915afa9182156103ef575f92610a56575b602083610a18845a90610efe565b7f9741c50b5e5339a65b56bb8194612ce7124fcea5fb11e96bd0e22cb35c16ea41604080518581019060a06004833760a081526105e160c082610e54565b91506020823d602011610a84575b81610a7160209383610e54565b810103126100e657905190610a18610a0a565b3d9150610a64565b346100e65760207ffffffffffffffffffffffffffffffffffffffffffffffffffffffffffffffffc3601126100e65760043567ffffffffffffffff81116100e657366023820112156100e65780600401359067ffffffffffffffff82116100e6576024810190602436918460071b0101116100e6575f610b0b83610ec2565b91610b196040519384610e54565b8383527fffffffffffffffffffffffffffffffffffffffffffffffffffffffffffffffe0610b4685610ec2565b013660208501375f905b848210610b975761038a847ffebc97ce4125cff4586ee48e0245468975167ae23b8f024e041df9f4c8c4dd566040888782519182526020820152a160405191829182610ddf565b90915a73ffffffffffffffffffffffffffffffffffffffff5f5416906020610bc0868987610eda565b359281610bce888b89610eda565b0135906040610bde898c8a610eda565b0135916060610bee8a8d8b610eda565b013595610c41604051978895869485947f9bf03e34000000000000000000000000000000000000000000000000000000008652600486019094939260609260808301968352602083015260408201520152565b03915afa80156103ef575f90610d2c575b610c699250610c618688610eea565b525a90610efe565b8101809111610cff5760019092610c81818785610eda565b356020610c8f838987610eda565b0135610cde6040610ca1858b89610eda565b0135916105b56060610cb4878d8b610eda565b01356040519485936020850197889290916080949284526020840152604083015260608201520190565b519020610ceb8287610eea565b51905f528260205260405f20550190610b50565b7f4e487b71000000000000000000000000000000000000000000000000000000005f52601160045260245ffd5b506020823d8211610d57575b81610d4560209383610e54565b810103126100e657610c699151610c52565b3d9150610d38565b346100e65760207ffffffffffffffffffffffffffffffffffffffffffffffffffffffffffffffffc3601126100e6576004355f526002602052602060405f2054604051908152f35b346100e6575f7ffffffffffffffffffffffffffffffffffffffffffffffffffffffffffffffffc3601126100e6576020906003548152f35b60206040818301928281528451809452019201905f5b818110610e025750505090565b8251845260209384019390920191600101610df5565b7ffffffffffffffffffffffffffffffffffffffffffffffffffffffffffffffffc60809101126100e65760043590602435906044359060643590565b90601f7fffffffffffffffffffffffffffffffffffffffffffffffffffffffffffffffe0910116810190811067ffffffffffffffff821117610e9557604052565b7f4e487b71000000000000000000000000000000000000000000000000000000005f52604160045260245ffd5b67ffffffffffffffff8111610e955760051b60200190565b919081101561038e5760071b0190565b805182101561038e5760209160051b010190565b91908203918211610cff5756fea264697066735822122042294236bfe26628de924e90b36d6097e8b8064d8839ae295af0ff148662141f64736f6c634300081e0033","linkReferences":{}},"methodIdentifiers":{"batchTestHash(uint256[4][])":"5102d8d6","clearResults()":"c1e35e04","getHashResult(uint256,uint256,uint256,uint256)":"c2b9a706","getTestCaseCount()":"f92c3c76","getTestCaseResult(uint256)":"acc42f98","hashResults(bytes32)":"7e948383","poseidon4()":"a81a2688","testCaseCounter()":"31009cd3","testCaseResults(uint256)":"362473a9","testEdgeCases()":"e23e74c2","testHash(uint256,uint256,uint256,uint256)":"cd03fc32","testHashWithId(uint256,uint256,uint256,uint256,uint256)":"a52664c3","testPermutation(uint256[5])":"7a01732b"},"id":30}