{"abi":[{"type":"function","name":"deploy","inputs":[{"name":"bytecode","type":"bytes","internalType":"bytes"}],"outputs":[{"name":"deployed","type":"address","internalType":"address"}],"stateMutability":"payable"},{"type":"function","name":"deploy2","inputs":[{"name":"bytecode","type":"bytes","internalType":"bytes"},{"name":"salt","type":"bytes32","internalType":"bytes32"}],"outputs":[{"name":"deployed","type":"address","internalType":"address"}],"stateMutability":"payable"},{"type":"event","name":"ContractDeployed","inputs":[{"name":"deployed","type":"address","indexed":true,"internalType":"address"}],"anonymous":false}],"bytecode":{"object":"0x6080806040523460155761029d908161001a8239f35b5f80fdfe60806040526004361015610011575f80fd5b5f3560e01c8062774360146100335763c706c2941461002e575f80fd5b61018f565b60207ffffffffffffffffffffffffffffffffffffffffffffffffffffffffffffffffc3601126100d45760043567ffffffffffffffff81116100d45773ffffffffffffffffffffffffffffffffffffffff6100946020923690600401610105565b828151910134f0166100a7811515610202565b60405190807f8ffcdc15a283d706d38281f500270d8b5a656918f555de0913d7455e3e6bc1bf5f80a28152f35b5f80fd5b7f4e487b71000000000000000000000000000000000000000000000000000000005f52604160045260245ffd5b81601f820112156100d45780359067ffffffffffffffff821161018a57604051927fffffffffffffffffffffffffffffffffffffffffffffffffffffffffffffffe0603f81601f8601160116840184811067ffffffffffffffff82111761018a57604052828452602083830101116100d457815f926020809301838601378301015290565b6100d8565b60407ffffffffffffffffffffffffffffffffffffffffffffffffffffffffffffffffc3601126100d45760043567ffffffffffffffff81116100d45773ffffffffffffffffffffffffffffffffffffffff6101f06020923690600401610105565b805160243591840134f5166100a78115155b1561020957565b60646040517f08c379a000000000000000000000000000000000000000000000000000000000815260206004820152601160248201527f4465706c6f796d656e74206661696c65640000000000000000000000000000006044820152fdfea2646970667358221220939e7c390ef585ad43114bd808d8705eb56761d4222b44cf1276200bd34516d864736f6c634300081e0033","linkReferences":{}},"methodIdentifiers":{"deploy(bytes)":"00774360","deploy2(bytes,bytes32)":"c706c294"},"id":19}